{
  "contractName": "HelloWorld",
  "abi": [
    {
      "constant": true,
      "inputs": [],
      "name": "getName",
      "outputs": [
        {
          "internalType": "string",
          "name": "",
          "type": "string"
        }
      ],
      "payable": false,
      "stateMutability": "view",
      "type": "function"
    },
    {
      "constant": false,
      "inputs": [
        {
          "internalType": "string",
          "name": "newName",
          "type": "string"
        }
      ],
      "name": "setName",
      "outputs": [],
      "payable": false,
      "stateMutability": "nonpayable",
      "type": "function"
    }
  ],
  "bytecode": "0x60806040526040518060400160405280600481526020017f43656c6f000000000000000000000000000000000000000000000000000000008152506000908051906020019061004f929190610062565b5034801561005c57600080fd5b50610107565b828054600181600116156101000203166002900490600052602060002090601f016020900481019282601f106100a357805160ff19168380011785556100d1565b828001600101855582156100d1579182015b828111156100d05782518255916020019190600101906100b5565b5b5090506100de91906100e2565b5090565b61010491905b808211156101005760008160009055506001016100e8565b5090565b90565b6102c9806101166000396000f3fe608060405234801561001057600080fd5b50600436106100365760003560e01c806317d7de7c1461003b578063c47f0027146100be575b600080fd5b610043610137565b6040518080602001828103825283818151815260200191508051906020019080838360005b83811015610083578082015181840152602081019050610068565b50505050905090810190601f1680156100b05780820380516001836020036101000a031916815260200191505b509250505060405180910390f35b610135600480360360208110156100d457600080fd5b81019080803590602001906401000000008111156100f157600080fd5b82018360208201111561010357600080fd5b8035906020019184600183028401116401000000008311171561012557600080fd5b90919293919293905050506101d9565b005b606060008054600181600116156101000203166002900480601f0160208091040260200160405190810160405280929190818152602001828054600181600116156101000203166002900480156101cf5780601f106101a4576101008083540402835291602001916101cf565b820191906000526020600020905b8154815290600101906020018083116101b257829003601f168201915b5050505050905090565b8181600091906101ea9291906101ef565b505050565b828054600181600116156101000203166002900490600052602060002090601f016020900481019282601f1061023057803560ff191683800117855561025e565b8280016001018555821561025e579182015b8281111561025d578235825591602001919060010190610242565b5b50905061026b919061026f565b5090565b61029191905b8082111561028d576000816000905550600101610275565b5090565b9056fea265627a7a723158207a138ffe39ebe39d809975467b64399a59092e337a0765949a97888680d1980d64736f6c63430005100032",
  "source": "// Learn more about Solidity here: https://solidity.readthedocs.io\n\n// This statement specifies the compatible compiler versions\npragma solidity >=0.5.0;\n\n// Declare a contract called HelloWorld\ncontract HelloWorld {\n  \n  // Define a string called name, initialize it to 'Celo'\n  string name = 'Celo';\n\n  // Declares a function called getName\n  // The 'public' label means the function can be called internally, by transactions or other contracts\n  // The 'view' label indicates that the function does not change the state of the contract\n  // The function returns a string, from the memory data location  \n  function getName() \n    public \n    view \n    returns (string memory) \n  {\n    // Return the storage variable 'name'\n    return name;\n  }\n\n  // Declare a function called setName\n  // The function takes 1 parameter, a string, called newName, with the calldata data location in the Ethereum Virtual Machine  \n  // The 'external' label means the function can only be called from an external source\n  function setName(string calldata newName) \n    external \n  {\n    // Set the storage variable, name, to the value passed in as newName\n    name = newName;\n  }\n}\n",
  "sourcePath": "/Users/samueltang/Desktop/celo-dappkit/contracts/HelloWorld.sol",
  "compiler": {
    "name": "solc",
    "version": "0.5.16+commit.9c3226ce.Emscripten.clang"
  },
  "schemaVersion": "3.3.2",
  "updatedAt": "2021-11-18T15:50:33.703Z",
  "networkType": "ethereum",
  "devdoc": {
    "methods": {}
  },
  "userdoc": {
    "methods": {}
  }
}