{
  "contractName": "CreatorFactory",
  "abi": [
    {
      "anonymous": false,
      "inputs": [
        {
          "indexed": false,
          "internalType": "address",
          "name": "_address",
          "type": "address"
        },
        {
          "indexed": false,
          "internalType": "address",
          "name": "_owner",
          "type": "address"
        }
      ],
      "name": "CreatorCreated",
      "type": "event"
    },
    {
      "inputs": [
        {
          "internalType": "address",
          "name": "",
          "type": "address"
        }
      ],
      "name": "addressToId",
      "outputs": [
        {
          "internalType": "uint256",
          "name": "",
          "type": "uint256"
        }
      ],
      "stateMutability": "view",
      "type": "function"
    },
    {
      "inputs": [
        {
          "internalType": "uint256",
          "name": "",
          "type": "uint256"
        }
      ],
      "name": "creators",
      "outputs": [
        {
          "internalType": "contract Creator",
          "name": "",
          "type": "address"
        }
      ],
      "stateMutability": "view",
      "type": "function"
    },
    {
      "inputs": [
        {
          "internalType": "address",
          "name": "",
          "type": "address"
        }
      ],
      "name": "ownerToCreator",
      "outputs": [
        {
          "internalType": "address",
          "name": "",
          "type": "address"
        }
      ],
      "stateMutability": "view",
      "type": "function"
    },
    {
      "inputs": [
        {
          "internalType": "address",
          "name": "_cusd",
          "type": "address"
        },
        {
          "internalType": "address",
          "name": "_ceur",
          "type": "address"
        }
      ],
      "name": "newCreator",
      "outputs": [],
      "stateMutability": "nonpayable",
      "type": "function"
    },
    {
      "inputs": [],
      "name": "getCreatorsLength",
      "outputs": [
        {
          "internalType": "uint256",
          "name": "",
          "type": "uint256"
        }
      ],
      "stateMutability": "view",
      "type": "function"
    }
  ],
  "bytecode": "0x608060405234801561001057600080fd5b50614ddf806100206000396000f3fe60806040523480156200001157600080fd5b50600436106200005e5760003560e01c8063181e7a9a1462000063578063b74a543c1462000083578063cb0e0d7d14620000a5578063cd53d08e14620000db578063f923f3f11462000111575b600080fd5b6200008160048036038101906200007b9190620004e6565b62000147565b005b6200008d62000337565b6040516200009c9190620006b4565b60405180910390f35b620000c36004803603810190620000bd9190620004ba565b62000344565b604051620000d29190620006b4565b60405180910390f35b620000f96004803603810190620000f3919062000527565b6200035c565b60405162000108919062000675565b60405180910390f35b6200012f6004803603810190620001299190620004ba565b6200039c565b6040516200013e9190620005ee565b60405180910390f35b600073ffffffffffffffffffffffffffffffffffffffff166000803373ffffffffffffffffffffffffffffffffffffffff1673ffffffffffffffffffffffffffffffffffffffff16815260200190815260200160002060009054906101000a900473ffffffffffffffffffffffffffffffffffffffff1673ffffffffffffffffffffffffffffffffffffffff161462000217576040517f08c379a00000000000000000000000000000000000000000000000000000000081526004016200020e9062000692565b60405180910390fd5b60006200022362000337565b90506000620002338484620003cf565b905081600160008373ffffffffffffffffffffffffffffffffffffffff1673ffffffffffffffffffffffffffffffffffffffff16815260200190815260200160002081905550806000803373ffffffffffffffffffffffffffffffffffffffff1673ffffffffffffffffffffffffffffffffffffffff16815260200190815260200160002060006101000a81548173ffffffffffffffffffffffffffffffffffffffff021916908373ffffffffffffffffffffffffffffffffffffffff1602179055507f2cf58b2dfc67dd9fd9d3be318ce396658897594c9e8d321599127060601c9a958133604051620003299291906200060b565b60405180910390a150505050565b6000600280549050905090565b60016020528060005260406000206000915090505481565b600281815481106200036d57600080fd5b906000526020600020016000915054906101000a900473ffffffffffffffffffffffffffffffffffffffff1681565b60006020528060005260406000206000915054906101000a900473ffffffffffffffffffffffffffffffffffffffff1681565b600080338484604051620003e3906200047e565b620003f19392919062000638565b604051809103906000f0801580156200040e573d6000803e3d6000fd5b5090506002819080600181540180825580915050600190039060005260206000200160009091909190916101000a81548173ffffffffffffffffffffffffffffffffffffffff021916908373ffffffffffffffffffffffffffffffffffffffff1602179055508091505092915050565b61462d806200077d83390190565b6000813590506200049d8162000748565b92915050565b600081359050620004b48162000762565b92915050565b600060208284031215620004cd57600080fd5b6000620004dd848285016200048c565b91505092915050565b60008060408385031215620004fa57600080fd5b60006200050a858286016200048c565b92505060206200051d858286016200048c565b9150509250929050565b6000602082840312156200053a57600080fd5b60006200054a84828501620004a3565b91505092915050565b6200055e81620006e2565b82525050565b6200056f8162000720565b82525050565b600062000584602983620006d1565b91507f4e616666793a20596f7520616c7265616479206861766520612063726561746f60008301527f72206163636f756e7400000000000000000000000000000000000000000000006020830152604082019050919050565b620005e88162000716565b82525050565b600060208201905062000605600083018462000553565b92915050565b600060408201905062000622600083018562000553565b62000631602083018462000553565b9392505050565b60006060820190506200064f600083018662000553565b6200065e602083018562000553565b6200066d604083018462000553565b949350505050565b60006020820190506200068c600083018462000564565b92915050565b60006020820190508181036000830152620006ad8162000575565b9050919050565b6000602082019050620006cb6000830184620005dd565b92915050565b600082825260208201905092915050565b6000620006ef82620006f6565b9050919050565b600073ffffffffffffffffffffffffffffffffffffffff82169050919050565b6000819050919050565b60006200072d8262000734565b9050919050565b60006200074182620006f6565b9050919050565b6200075381620006e2565b81146200075f57600080fd5b50565b6200076d8162000716565b81146200077957600080fd5b5056fe608060405260008055600060015560006002553480156200001f57600080fd5b506040516200462d3803806200462d8339818101604052810190620000459190620002cb565b82600360006101000a81548173ffffffffffffffffffffffffffffffffffffffff021916908373ffffffffffffffffffffffffffffffffffffffff16021790555081600460006101000a81548173ffffffffffffffffffffffffffffffffffffffff021916908373ffffffffffffffffffffffffffffffffffffffff16021790555080600560006101000a81548173ffffffffffffffffffffffffffffffffffffffff021916908373ffffffffffffffffffffffffffffffffffffffff16021790555060006007600080600381111562000148577f4e487b7100000000000000000000000000000000000000000000000000000000600052602160045260246000fd5b600381111562000181577f4e487b7100000000000000000000000000000000000000000000000000000000600052602160045260246000fd5b81526020019081526020016000208190555060006007600060016003811115620001d4577f4e487b7100000000000000000000000000000000000000000000000000000000600052602160045260246000fd5b60038111156200020d577f4e487b7100000000000000000000000000000000000000000000000000000000600052602160045260246000fd5b8152602001908152602001600020819055506000600760006002600381111562000260577f4e487b7100000000000000000000000000000000000000000000000000000000600052602160045260246000fd5b600381111562000299577f4e487b7100000000000000000000000000000000000000000000000000000000600052602160045260246000fd5b8152602001908152602001600020819055505050506200036f565b600081519050620002c58162000355565b92915050565b600080600060608486031215620002e157600080fd5b6000620002f186828701620002b4565b93505060206200030486828701620002b4565b92505060406200031786828701620002b4565b9150509250925092565b60006200032e8262000335565b9050919050565b600073ffffffffffffffffffffffffffffffffffffffff82169050919050565b620003608162000321565b81146200036c57600080fd5b50565b6142ae806200037f6000396000f3fe6080604052600436106101405760003560e01c80638ae86d7d116100b6578063da19eae01161006f578063da19eae01461044c578063e90daae814610489578063ef47ff4b146104b2578063f4ab4677146104ef578063f7cec19d1461052c578063fbbf93a01461055557610140565b80638ae86d7d1461034b5780638da5cb5b146103675780639ce16bb614610392578063a6c67aba146103cf578063a75a1fed146103f8578063af3f6e7e1461042157610140565b80633c24b7d7116101085780633c24b7d71461025a5780635427963714610297578063551a634c146102c257806366c43348146102cc5780636cc9a325146102f7578063767800de1461032057610140565b80630d1657e814610145578063150b7a02146101875780631aaba7f5146101c45780631cfb9fa1146101ef578063265aa62114610218575b600080fd5b34801561015157600080fd5b5061016c60048036038101906101679190613612565b610584565b60405161017e96959493929190613d23565b60405180910390f35b34801561019357600080fd5b506101ae60048036038101906101a99190613540565b610627565b6040516101bb9190613de5565b60405180910390f35b3480156101d057600080fd5b506101d9610655565b6040516101e69190613fe0565b60405180910390f35b3480156101fb57600080fd5b50610216600480360381019061021191906136ef565b61065b565b005b34801561022457600080fd5b5061023f600480360381019061023a9190613612565b610b10565b60405161025196959493929190613d84565b60405180910390f35b34801561026657600080fd5b50610281600480360381019061027c9190613612565b610ba6565b60405161028e9190613c2c565b60405180910390f35b3480156102a357600080fd5b506102ac610be4565b6040516102b99190613fe0565b60405180910390f35b6102ca610bee565b005b3480156102d857600080fd5b506102e1610c77565b6040516102ee9190613fe0565b60405180910390f35b34801561030357600080fd5b5061031e6004803603810190610319919061373e565b610c7d565b005b34801561032c57600080fd5b506103356111fb565b6040516103429190613c2c565b60405180910390f35b61036560048036038101906103609190613664565b611203565b005b34801561037357600080fd5b5061037c611695565b6040516103899190613c2c565b60405180910390f35b34801561039e57600080fd5b506103b960048036038101906103b49190613664565b6116bb565b6040516103c69190613fe0565b60405180910390f35b3480156103db57600080fd5b506103f660048036038101906103f19190613664565b611716565b005b34801561040457600080fd5b5061041f600480360381019061041a919061373e565b611bca565b005b34801561042d57600080fd5b50610436612102565b6040516104439190613fe0565b60405180910390f35b34801561045857600080fd5b50610473600480360381019061046e91906135e9565b612108565b6040516104809190613fe0565b60405180910390f35b34801561049557600080fd5b506104b060048036038101906104ab9190613664565b612120565b005b3480156104be57600080fd5b506104d960048036038101906104d491906135e9565b6124a1565b6040516104e69190613fe0565b60405180910390f35b3480156104fb57600080fd5b5061051660048036038101906105119190613664565b61252e565b6040516105239190613fe0565b60405180910390f35b34801561053857600080fd5b50610553600480360381019061054e91906136a0565b612553565b005b34801561056157600080fd5b5061056a612898565b60405161057b959493929190613ca7565b60405180910390f35b60086020528060005260406000206000915090508060000160009054906101000a900473ffffffffffffffffffffffffffffffffffffffff16908060010154908060020160009054906101000a900460ff16908060020160019054906101000a900460ff16908060020160029054906101000a900473ffffffffffffffffffffffffffffffffffffffff16908060020160169054906101000a900460ff16905086565b60007f150b7a023d4804d13e8c85fb27262cb750cf6ba9f9dd3bb30d90f482ceeb4b1f905095945050505050565b60025481565b3373ffffffffffffffffffffffffffffffffffffffff16600360009054906101000a900473ffffffffffffffffffffffffffffffffffffffff1673ffffffffffffffffffffffffffffffffffffffff16146106eb576040517f08c379a00000000000000000000000000000000000000000000000000000000081526004016106e290613ec0565b60405180910390fd5b60008290503373ffffffffffffffffffffffffffffffffffffffff168173ffffffffffffffffffffffffffffffffffffffff16636352211e866040518263ffffffff1660e01b81526004016107409190613fe0565b60206040518083038186803b15801561075857600080fd5b505afa15801561076c573d6000803e3d6000fd5b505050506040513d601f19601f820116820180604052508101906107909190613517565b73ffffffffffffffffffffffffffffffffffffffff16148061086557503073ffffffffffffffffffffffffffffffffffffffff168173ffffffffffffffffffffffffffffffffffffffff16636352211e866040518263ffffffff1660e01b81526004016107fd9190613fe0565b60206040518083038186803b15801561081557600080fd5b505afa158015610829573d6000803e3d6000fd5b505050506040513d601f19601f8201168201806040525081019061084d9190613517565b73ffffffffffffffffffffffffffffffffffffffff16145b6108a4576040517f08c379a000000000000000000000000000000000000000000000000000000000815260040161089b90613f20565b60405180910390fd5b6000600b600086815260200190815260200160002060008573ffffffffffffffffffffffffffffffffffffffff1673ffffffffffffffffffffffffffffffffffffffff1681526020019081526020016000205490506000600a60008381526020019081526020016000209050600073ffffffffffffffffffffffffffffffffffffffff168160000160009054906101000a900473ffffffffffffffffffffffffffffffffffffffff1673ffffffffffffffffffffffffffffffffffffffff1614156109a4576040517f08c379a000000000000000000000000000000000000000000000000000000000815260040161099b90613fa0565b60405180910390fd5b3373ffffffffffffffffffffffffffffffffffffffff168160030160009054906101000a900473ffffffffffffffffffffffffffffffffffffffff1673ffffffffffffffffffffffffffffffffffffffff161480610a5157503073ffffffffffffffffffffffffffffffffffffffff168160030160009054906101000a900473ffffffffffffffffffffffffffffffffffffffff1673ffffffffffffffffffffffffffffffffffffffff16145b610a90576040517f08c379a0000000000000000000000000000000000000000000000000000000008152600401610a8790613f20565b60405180910390fd5b8060030160149054906101000a900460ff1615610ae2576040517f08c379a0000000000000000000000000000000000000000000000000000000008152600401610ad990613f80565b60405180910390fd5b60018160030160146101000a81548160ff021916908315150217905550838160020181905550505050505050565b600a6020528060005260406000206000915090508060000160009054906101000a900473ffffffffffffffffffffffffffffffffffffffff16908060010154908060020154908060030160009054906101000a900473ffffffffffffffffffffffffffffffffffffffff16908060030160149054906101000a900460ff16908060030160159054906101000a900460ff16905086565b60096020528060005260406000206000915090508060000160009054906101000a900473ffffffffffffffffffffffffffffffffffffffff16905081565b6000600254905090565b6000600660003373ffffffffffffffffffffffffffffffffffffffff1673ffffffffffffffffffffffffffffffffffffffff1681526020019081526020016000205490506000811415610c4c57610c4733600034612a63565b610c59565b610c5881600034612c62565b5b610c64600034612dac565b610c743334600080600080612ecd565b50565b60005481565b60016003811115610cb7577f4e487b7100000000000000000000000000000000000000000000000000000000600052602160045260246000fd5b816003811115610cf0577f4e487b7100000000000000000000000000000000000000000000000000000000600052602160045260246000fd5b1415610eda5781600460009054906101000a900473ffffffffffffffffffffffffffffffffffffffff1673ffffffffffffffffffffffffffffffffffffffff1663dd62ed3e33306040518363ffffffff1660e01b8152600401610d54929190613c47565b60206040518083038186803b158015610d6c57600080fd5b505afa158015610d80573d6000803e3d6000fd5b505050506040513d601f19601f82011682018060405250810190610da4919061363b565b1015610de5576040517f08c379a0000000000000000000000000000000000000000000000000000000008152600401610ddc90613e80565b60405180910390fd5b600460009054906101000a900473ffffffffffffffffffffffffffffffffffffffff1673ffffffffffffffffffffffffffffffffffffffff166323b872dd3330856040518463ffffffff1660e01b8152600401610e4493929190613c70565b602060405180830381600087803b158015610e5e57600080fd5b505af1158015610e72573d6000803e3d6000fd5b505050506040513d601f19601f82011682018060405250810190610e9691906135c0565b610ed5576040517f08c379a0000000000000000000000000000000000000000000000000000000008152600401610ecc90613ee0565b60405180910390fd5b611173565b60026003811115610f14577f4e487b7100000000000000000000000000000000000000000000000000000000600052602160045260246000fd5b816003811115610f4d577f4e487b7100000000000000000000000000000000000000000000000000000000600052602160045260246000fd5b14156111375781600560009054906101000a900473ffffffffffffffffffffffffffffffffffffffff1673ffffffffffffffffffffffffffffffffffffffff1663dd62ed3e33306040518363ffffffff1660e01b8152600401610fb1929190613c47565b60206040518083038186803b158015610fc957600080fd5b505afa158015610fdd573d6000803e3d6000fd5b505050506040513d601f19601f82011682018060405250810190611001919061363b565b1015611042576040517f08c379a000000000000000000000000000000000000000000000000000000000815260040161103990613f60565b60405180910390fd5b600560009054906101000a900473ffffffffffffffffffffffffffffffffffffffff1673ffffffffffffffffffffffffffffffffffffffff166323b872dd3330856040518463ffffffff1660e01b81526004016110a193929190613c70565b602060405180830381600087803b1580156110bb57600080fd5b505af11580156110cf573d6000803e3d6000fd5b505050506040513d601f19601f820116820180604052508101906110f391906135c0565b611132576040517f08c379a000000000000000000000000000000000000000000000000000000000815260040161112990613ee0565b60405180910390fd5b611172565b6040517f08c379a000000000000000000000000000000000000000000000000000000000815260040161116990613e20565b60405180910390fd5b5b6000600660003373ffffffffffffffffffffffffffffffffffffffff1673ffffffffffffffffffffffffffffffffffffffff16815260200190815260200160002054905060008114156111d0576111cb338385612a63565b6111dc565b6111db818385612c62565b5b6111e68284612dac565b6111f63384600085600080612ecd565b505050565b600030905090565b60008190503373ffffffffffffffffffffffffffffffffffffffff168173ffffffffffffffffffffffffffffffffffffffff16636352211e856040518263ffffffff1660e01b81526004016112589190613fe0565b60206040518083038186803b15801561127057600080fd5b505afa158015611284573d6000803e3d6000fd5b505050506040513d601f19601f820116820180604052508101906112a89190613517565b73ffffffffffffffffffffffffffffffffffffffff1614156112ff576040517f08c379a00000000000000000000000000000000000000000000000000000000081526004016112f690613fc0565b60405180910390fd5b3073ffffffffffffffffffffffffffffffffffffffff168173ffffffffffffffffffffffffffffffffffffffff16636352211e856040518263ffffffff1660e01b815260040161134f9190613fe0565b60206040518083038186803b15801561136757600080fd5b505afa15801561137b573d6000803e3d6000fd5b505050506040513d601f19601f8201168201806040525081019061139f9190613517565b73ffffffffffffffffffffffffffffffffffffffff16146113f5576040517f08c379a00000000000000000000000000000000000000000000000000000000081526004016113ec90613e60565b60405180910390fd5b6000600b600085815260200190815260200160002060008473ffffffffffffffffffffffffffffffffffffffff1673ffffffffffffffffffffffffffffffffffffffff1681526020019081526020016000205490506000600a60008381526020019081526020016000209050600073ffffffffffffffffffffffffffffffffffffffff168160000160009054906101000a900473ffffffffffffffffffffffffffffffffffffffff1673ffffffffffffffffffffffffffffffffffffffff1614156114f5576040517f08c379a00000000000000000000000000000000000000000000000000000000081526004016114ec90613fa0565b60405180910390fd5b8060030160149054906101000a900460ff16611546576040517f08c379a000000000000000000000000000000000000000000000000000000000815260040161153d90613e00565b60405180910390fd5b806002015434101561158d576040517f08c379a000000000000000000000000000000000000000000000000000000000815260040161158490613e40565b60405180910390fd5b8273ffffffffffffffffffffffffffffffffffffffff166342842e0e3033886040518463ffffffff1660e01b81526004016115ca93929190613c70565b600060405180830381600087803b1580156115e457600080fd5b505af11580156115f8573d6000803e3d6000fd5b50505050611607600034612dac565b60008160030160146101000a81548160ff02191690831515021790555060018160030160156101000a81548160ff021916908315150217905550338160030160006101000a81548173ffffffffffffffffffffffffffffffffffffffff021916908373ffffffffffffffffffffffffffffffffffffffff160217905550600081600201819055505050505050565b600360009054906101000a900473ffffffffffffffffffffffffffffffffffffffff1681565b6000600b600084815260200190815260200160002060008373ffffffffffffffffffffffffffffffffffffffff1673ffffffffffffffffffffffffffffffffffffffff16815260200190815260200160002054905092915050565b3373ffffffffffffffffffffffffffffffffffffffff16600360009054906101000a900473ffffffffffffffffffffffffffffffffffffffff1673ffffffffffffffffffffffffffffffffffffffff16146117a6576040517f08c379a000000000000000000000000000000000000000000000000000000000815260040161179d90613ec0565b60405180910390fd5b60008190503373ffffffffffffffffffffffffffffffffffffffff168173ffffffffffffffffffffffffffffffffffffffff16636352211e856040518263ffffffff1660e01b81526004016117fb9190613fe0565b60206040518083038186803b15801561181357600080fd5b505afa158015611827573d6000803e3d6000fd5b505050506040513d601f19601f8201168201806040525081019061184b9190613517565b73ffffffffffffffffffffffffffffffffffffffff16148061192057503073ffffffffffffffffffffffffffffffffffffffff168173ffffffffffffffffffffffffffffffffffffffff16636352211e856040518263ffffffff1660e01b81526004016118b89190613fe0565b60206040518083038186803b1580156118d057600080fd5b505afa1580156118e4573d6000803e3d6000fd5b505050506040513d601f19601f820116820180604052508101906119089190613517565b73ffffffffffffffffffffffffffffffffffffffff16145b61195f576040517f08c379a000000000000000000000000000000000000000000000000000000000815260040161195690613f20565b60405180910390fd5b6000600b600085815260200190815260200160002060008473ffffffffffffffffffffffffffffffffffffffff1673ffffffffffffffffffffffffffffffffffffffff1681526020019081526020016000205490506000600a60008381526020019081526020016000209050600073ffffffffffffffffffffffffffffffffffffffff168160000160009054906101000a900473ffffffffffffffffffffffffffffffffffffffff1673ffffffffffffffffffffffffffffffffffffffff161415611a5f576040517f08c379a0000000000000000000000000000000000000000000000000000000008152600401611a5690613fa0565b60405180910390fd5b3373ffffffffffffffffffffffffffffffffffffffff168160030160009054906101000a900473ffffffffffffffffffffffffffffffffffffffff1673ffffffffffffffffffffffffffffffffffffffff161480611b0c57503073ffffffffffffffffffffffffffffffffffffffff168160030160009054906101000a900473ffffffffffffffffffffffffffffffffffffffff1673ffffffffffffffffffffffffffffffffffffffff16145b611b4b576040517f08c379a0000000000000000000000000000000000000000000000000000000008152600401611b4290613f20565b60405180910390fd5b8060030160149054906101000a900460ff16611b9c576040517f08c379a0000000000000000000000000000000000000000000000000000000008152600401611b9390613f40565b60405180910390fd5b60008160030160146101000a81548160ff021916908315150217905550600081600201819055505050505050565b3373ffffffffffffffffffffffffffffffffffffffff16600360009054906101000a900473ffffffffffffffffffffffffffffffffffffffff1673ffffffffffffffffffffffffffffffffffffffff1614611c5a576040517f08c379a0000000000000000000000000000000000000000000000000000000008152600401611c5190613ec0565b60405180910390fd5b60076000826003811115611c97577f4e487b7100000000000000000000000000000000000000000000000000000000600052602160045260246000fd5b6003811115611ccf577f4e487b7100000000000000000000000000000000000000000000000000000000600052602160045260246000fd5b815260200190815260200160002054821115611d20576040517f08c379a0000000000000000000000000000000000000000000000000000000008152600401611d1790613f00565b60405180910390fd5b60006003811115611d5a577f4e487b7100000000000000000000000000000000000000000000000000000000600052602160045260246000fd5b816003811115611d93577f4e487b7100000000000000000000000000000000000000000000000000000000600052602160045260246000fd5b1415611e0757600360009054906101000a900473ffffffffffffffffffffffffffffffffffffffff1673ffffffffffffffffffffffffffffffffffffffff166108fc839081150290604051600060405180830381858888f19350505050158015611e01573d6000803e3d6000fd5b506120e4565b60016003811115611e41577f4e487b7100000000000000000000000000000000000000000000000000000000600052602160045260246000fd5b816003811115611e7a577f4e487b7100000000000000000000000000000000000000000000000000000000600052602160045260246000fd5b1415611f5757600460009054906101000a900473ffffffffffffffffffffffffffffffffffffffff1673ffffffffffffffffffffffffffffffffffffffff1663a9059cbb600360009054906101000a900473ffffffffffffffffffffffffffffffffffffffff16846040518363ffffffff1660e01b8152600401611eff929190613cfa565b602060405180830381600087803b158015611f1957600080fd5b505af1158015611f2d573d6000803e3d6000fd5b505050506040513d601f19601f82011682018060405250810190611f5191906135c0565b506120e3565b60026003811115611f91577f4e487b7100000000000000000000000000000000000000000000000000000000600052602160045260246000fd5b816003811115611fca577f4e487b7100000000000000000000000000000000000000000000000000000000600052602160045260246000fd5b14156120a757600560009054906101000a900473ffffffffffffffffffffffffffffffffffffffff1673ffffffffffffffffffffffffffffffffffffffff1663a9059cbb600360009054906101000a900473ffffffffffffffffffffffffffffffffffffffff16846040518363ffffffff1660e01b815260040161204f929190613cfa565b602060405180830381600087803b15801561206957600080fd5b505af115801561207d573d6000803e3d6000fd5b505050506040513d601f19601f820116820180604052508101906120a191906135c0565b506120e2565b6040517f08c379a00000000000000000000000000000000000000000000000000000000081526004016120d990613e20565b60405180910390fd5b5b5b6120ee8183613134565b6120fe3383600184600080612ecd565b5050565b60015481565b60076020528060005260406000206000915090505481565b60008190503373ffffffffffffffffffffffffffffffffffffffff168173ffffffffffffffffffffffffffffffffffffffff16636352211e856040518263ffffffff1660e01b81526004016121759190613fe0565b60206040518083038186803b15801561218d57600080fd5b505afa1580156121a1573d6000803e3d6000fd5b505050506040513d601f19601f820116820180604052508101906121c59190613517565b73ffffffffffffffffffffffffffffffffffffffff161461221b576040517f08c379a000000000000000000000000000000000000000000000000000000000815260040161221290613f20565b60405180910390fd5b8073ffffffffffffffffffffffffffffffffffffffff1663e985e9c533306040518363ffffffff1660e01b8152600401612256929190613c47565b60206040518083038186803b15801561226e57600080fd5b505afa158015612282573d6000803e3d6000fd5b505050506040513d601f19601f820116820180604052508101906122a691906135c0565b8061236457503073ffffffffffffffffffffffffffffffffffffffff168173ffffffffffffffffffffffffffffffffffffffff1663081812fc856040518263ffffffff1660e01b81526004016122fc9190613fe0565b60206040518083038186803b15801561231457600080fd5b505afa158015612328573d6000803e3d6000fd5b505050506040513d601f19601f8201168201806040525081019061234c9190613517565b73ffffffffffffffffffffffffffffffffffffffff16145b6123a3576040517f08c379a000000000000000000000000000000000000000000000000000000000815260040161239a90613ea0565b60405180910390fd5b8073ffffffffffffffffffffffffffffffffffffffff166342842e0e3330866040518463ffffffff1660e01b81526004016123e093929190613c70565b600060405180830381600087803b1580156123fa57600080fd5b505af115801561240e573d6000803e3d6000fd5b505050506000600660003373ffffffffffffffffffffffffffffffffffffffff1673ffffffffffffffffffffffffffffffffffffffff16815260200190815260200160002054905060008114156124715761246c3360036000612a63565b61247f565b61247e8160036000612c62565b5b61248a838530613255565b61249b336000806003876001612ecd565b50505050565b6000600760008360038111156124e0577f4e487b7100000000000000000000000000000000000000000000000000000000600052602160045260246000fd5b6003811115612518577f4e487b7100000000000000000000000000000000000000000000000000000000600052602160045260246000fd5b8152602001908152602001600020549050919050565b600b602052816000526040600020602052806000526040600020600091509150505481565b3373ffffffffffffffffffffffffffffffffffffffff16600360009054906101000a900473ffffffffffffffffffffffffffffffffffffffff1673ffffffffffffffffffffffffffffffffffffffff16146125e3576040517f08c379a00000000000000000000000000000000000000000000000000000000081526004016125da90613ec0565b60405180910390fd5b60008290503073ffffffffffffffffffffffffffffffffffffffff168173ffffffffffffffffffffffffffffffffffffffff16636352211e866040518263ffffffff1660e01b81526004016126389190613fe0565b60206040518083038186803b15801561265057600080fd5b505afa158015612664573d6000803e3d6000fd5b505050506040513d601f19601f820116820180604052508101906126889190613517565b73ffffffffffffffffffffffffffffffffffffffff16146126de576040517f08c379a00000000000000000000000000000000000000000000000000000000081526004016126d590613e60565b60405180910390fd5b6000600b600086815260200190815260200160002060008573ffffffffffffffffffffffffffffffffffffffff1673ffffffffffffffffffffffffffffffffffffffff1681526020019081526020016000205490506000600a60008381526020019081526020016000209050600073ffffffffffffffffffffffffffffffffffffffff168160000160009054906101000a900473ffffffffffffffffffffffffffffffffffffffff1673ffffffffffffffffffffffffffffffffffffffff1614156127de576040517f08c379a00000000000000000000000000000000000000000000000000000000081526004016127d590613fa0565b60405180910390fd5b8273ffffffffffffffffffffffffffffffffffffffff166342842e0e3086896040518463ffffffff1660e01b815260040161281b93929190613c70565b600060405180830381600087803b15801561283557600080fd5b505af1158015612849573d6000803e3d6000fd5b50505050838160030160006101000a81548173ffffffffffffffffffffffffffffffffffffffff021916908373ffffffffffffffffffffffffffffffffffffffff160217905550505050505050565b6000806000806000600360009054906101000a900473ffffffffffffffffffffffffffffffffffffffff163060076000806003811115612901577f4e487b7100000000000000000000000000000000000000000000000000000000600052602160045260246000fd5b6003811115612939577f4e487b7100000000000000000000000000000000000000000000000000000000600052602160045260246000fd5b8152602001908152602001600020546007600060016003811115612986577f4e487b7100000000000000000000000000000000000000000000000000000000600052602160045260246000fd5b60038111156129be577f4e487b7100000000000000000000000000000000000000000000000000000000600052602160045260246000fd5b8152602001908152602001600020546007600060026003811115612a0b577f4e487b7100000000000000000000000000000000000000000000000000000000600052602160045260246000fd5b6003811115612a43577f4e487b7100000000000000000000000000000000000000000000000000000000600052602160045260246000fd5b815260200190815260200160002054945094509450945094509091929394565b600080815480929190612a7590614154565b919050555082600960008054815260200190815260200160002060000160006101000a81548173ffffffffffffffffffffffffffffffffffffffff021916908373ffffffffffffffffffffffffffffffffffffffff160217905550612b7b8160096000805481526020019081526020016000206001016000856003811115612b26577f4e487b7100000000000000000000000000000000000000000000000000000000600052602160045260246000fd5b6003811115612b5e577f4e487b7100000000000000000000000000000000000000000000000000000000600052602160045260246000fd5b81526020019081526020016000205461342390919063ffffffff16565b60096000805481526020019081526020016000206001016000846003811115612bcd577f4e487b7100000000000000000000000000000000000000000000000000000000600052602160045260246000fd5b6003811115612c05577f4e487b7100000000000000000000000000000000000000000000000000000000600052602160045260246000fd5b815260200190815260200160002081905550600054600660008573ffffffffffffffffffffffffffffffffffffffff1673ffffffffffffffffffffffffffffffffffffffff16815260200190815260200160002081905550505050565b612d0c81600960008681526020019081526020016000206001016000856003811115612cb7577f4e487b7100000000000000000000000000000000000000000000000000000000600052602160045260246000fd5b6003811115612cef577f4e487b7100000000000000000000000000000000000000000000000000000000600052602160045260246000fd5b81526020019081526020016000205461342390919063ffffffff16565b600960008581526020019081526020016000206001016000846003811115612d5d577f4e487b7100000000000000000000000000000000000000000000000000000000600052602160045260246000fd5b6003811115612d95577f4e487b7100000000000000000000000000000000000000000000000000000000600052602160045260246000fd5b815260200190815260200160002081905550505050565b612e428160076000856003811115612ded577f4e487b7100000000000000000000000000000000000000000000000000000000600052602160045260246000fd5b6003811115612e25577f4e487b7100000000000000000000000000000000000000000000000000000000600052602160045260246000fd5b81526020019081526020016000205461342390919063ffffffff16565b60076000846003811115612e7f577f4e487b7100000000000000000000000000000000000000000000000000000000600052602160045260246000fd5b6003811115612eb7577f4e487b7100000000000000000000000000000000000000000000000000000000600052602160045260246000fd5b8152602001908152602001600020819055505050565b60016000815480929190612ee090614154565b91905055506040518060c001604052808773ffffffffffffffffffffffffffffffffffffffff168152602001868152602001856002811115612f4b577f4e487b7100000000000000000000000000000000000000000000000000000000600052602160045260246000fd5b8152602001846003811115612f89577f4e487b7100000000000000000000000000000000000000000000000000000000600052602160045260246000fd5b81526020018373ffffffffffffffffffffffffffffffffffffffff16815260200182151581525060086000600154815260200190815260200160002060008201518160000160006101000a81548173ffffffffffffffffffffffffffffffffffffffff021916908373ffffffffffffffffffffffffffffffffffffffff1602179055506020820151816001015560408201518160020160006101000a81548160ff02191690836002811115613067577f4e487b7100000000000000000000000000000000000000000000000000000000600052602160045260246000fd5b021790555060608201518160020160016101000a81548160ff021916908360038111156130bd577f4e487b7100000000000000000000000000000000000000000000000000000000600052602160045260246000fd5b021790555060808201518160020160026101000a81548173ffffffffffffffffffffffffffffffffffffffff021916908373ffffffffffffffffffffffffffffffffffffffff16021790555060a08201518160020160166101000a81548160ff021916908315150217905550905050505050505050565b6131ca8160076000856003811115613175577f4e487b7100000000000000000000000000000000000000000000000000000000600052602160045260246000fd5b60038111156131ad577f4e487b7100000000000000000000000000000000000000000000000000000000600052602160045260246000fd5b81526020019081526020016000205461343990919063ffffffff16565b60076000846003811115613207577f4e487b7100000000000000000000000000000000000000000000000000000000600052602160045260246000fd5b600381111561323f577f4e487b7100000000000000000000000000000000000000000000000000000000600052602160045260246000fd5b8152602001908152602001600020819055505050565b6002600081548092919061326890614154565b9190505550600254600b600084815260200190815260200160002060008573ffffffffffffffffffffffffffffffffffffffff1673ffffffffffffffffffffffffffffffffffffffff168152602001908152602001600020819055506040518060c001604052808473ffffffffffffffffffffffffffffffffffffffff168152602001838152602001600081526020018273ffffffffffffffffffffffffffffffffffffffff16815260200160001515815260200160001515815250600a6000600254815260200190815260200160002060008201518160000160006101000a81548173ffffffffffffffffffffffffffffffffffffffff021916908373ffffffffffffffffffffffffffffffffffffffff160217905550602082015181600101556040820151816002015560608201518160030160006101000a81548173ffffffffffffffffffffffffffffffffffffffff021916908373ffffffffffffffffffffffffffffffffffffffff16021790555060808201518160030160146101000a81548160ff02191690831515021790555060a08201518160030160156101000a81548160ff021916908315150217905550905050505050565b60008183613431919061400c565b905092915050565b600081836134479190614062565b905092915050565b60008135905061345e81614223565b92915050565b60008151905061347381614223565b92915050565b6000815190506134888161423a565b92915050565b60008083601f8401126134a057600080fd5b8235905067ffffffffffffffff8111156134b957600080fd5b6020830191508360018202830111156134d157600080fd5b9250929050565b6000813590506134e781614251565b92915050565b6000813590506134fc81614261565b92915050565b60008151905061351181614261565b92915050565b60006020828403121561352957600080fd5b600061353784828501613464565b91505092915050565b60008060008060006080868803121561355857600080fd5b60006135668882890161344f565b95505060206135778882890161344f565b9450506040613588888289016134ed565b935050606086013567ffffffffffffffff8111156135a557600080fd5b6135b18882890161348e565b92509250509295509295909350565b6000602082840312156135d257600080fd5b60006135e084828501613479565b91505092915050565b6000602082840312156135fb57600080fd5b6000613609848285016134d8565b91505092915050565b60006020828403121561362457600080fd5b6000613632848285016134ed565b91505092915050565b60006020828403121561364d57600080fd5b600061365b84828501613502565b91505092915050565b6000806040838503121561367757600080fd5b6000613685858286016134ed565b92505060206136968582860161344f565b9150509250929050565b6000806000606084860312156136b557600080fd5b60006136c3868287016134ed565b93505060206136d48682870161344f565b92505060406136e58682870161344f565b9150509250925092565b60008060006060848603121561370457600080fd5b6000613712868287016134ed565b93505060206137238682870161344f565b9250506040613734868287016134ed565b9150509250925092565b6000806040838503121561375157600080fd5b600061375f858286016134ed565b9250506020613770858286016134d8565b9150509250929050565b61378381614096565b82525050565b613792816140a8565b82525050565b6137a1816140b4565b82525050565b6137b081614130565b82525050565b6137bf81614142565b82525050565b60006137d2601a83613ffb565b91507f4e616666793a204e4654206973206e6f7420666f722073616c650000000000006000830152602082019050919050565b6000613812601c83613ffb565b91507f4e616666793a20496e76616c696420737570706f727420746f6b656e000000006000830152602082019050919050565b6000613852601483613ffb565b91507f4e616666793a20496e76616c69642070726963650000000000000000000000006000830152602082019050919050565b6000613892602483613ffb565b91507f4e616666793a2043726561746f7220646f6573206e6f74206f776e204e46542060008301527f4974656d000000000000000000000000000000000000000000000000000000006020830152604082019050919050565b60006138f8602083613ffb565b91507f4e616666793a206355534420416c6c6f77616e6365206e6f7420656e6f7567686000830152602082019050919050565b6000613938601f83613ffb565b91507f4e616666793a204e4654204974656d206973206e6f7420617070726f766564006000830152602082019050919050565b6000613978602083613ffb565b91507f4e616666793a2063616c6c6572206973206e6f74207468652063726561746f726000830152602082019050919050565b60006139b8602f83613ffb565b91507f4e616666793a20416e206572726f72206f636375726564207768656e2073757060008301527f706f7274696e672063726561746f7200000000000000000000000000000000006020830152604082019050919050565b6000613a1e601b83613ffb565b91507f4e616666793a20496e73756666696369656e742062616c616e636500000000006000830152602082019050919050565b6000613a5e601e83613ffb565b91507f4e616666793a20596f7520646f206e6f74206f776e204e4654204974656d00006000830152602082019050919050565b6000613a9e602983613ffb565b91507f4e616666793a204e4654206973206e6f7420616c7265616479206c697374656460008301527f20666f722073616c6500000000000000000000000000000000000000000000006020830152604082019050919050565b6000613b04602083613ffb565b91507f4e616666793a206345555220416c6c6f77616e6365206e6f7420656e6f7567686000830152602082019050919050565b6000613b44602583613ffb565b91507f4e616666793a204e465420697320616c7265616479206c697374656420666f7260008301527f2073616c650000000000000000000000000000000000000000000000000000006020830152604082019050919050565b6000613baa601783613ffb565b91507f4e616666793a20496e76616c6964204e4654204974656d0000000000000000006000830152602082019050919050565b6000613bea601f83613ffb565b91507f4e616666793a20596f7520616c7265616479206f776e204e4654204974656d006000830152602082019050919050565b613c2681614126565b82525050565b6000602082019050613c41600083018461377a565b92915050565b6000604082019050613c5c600083018561377a565b613c69602083018461377a565b9392505050565b6000606082019050613c85600083018661377a565b613c92602083018561377a565b613c9f6040830184613c1d565b949350505050565b600060a082019050613cbc600083018861377a565b613cc9602083018761377a565b613cd66040830186613c1d565b613ce36060830185613c1d565b613cf06080830184613c1d565b9695505050505050565b6000604082019050613d0f600083018561377a565b613d1c6020830184613c1d565b9392505050565b600060c082019050613d38600083018961377a565b613d456020830188613c1d565b613d5260408301876137a7565b613d5f60608301866137b6565b613d6c608083018561377a565b613d7960a0830184613789565b979650505050505050565b600060c082019050613d99600083018961377a565b613da66020830188613c1d565b613db36040830187613c1d565b613dc0606083018661377a565b613dcd6080830185613789565b613dda60a0830184613789565b979650505050505050565b6000602082019050613dfa6000830184613798565b92915050565b60006020820190508181036000830152613e19816137c5565b9050919050565b60006020820190508181036000830152613e3981613805565b9050919050565b60006020820190508181036000830152613e5981613845565b9050919050565b60006020820190508181036000830152613e7981613885565b9050919050565b60006020820190508181036000830152613e99816138eb565b9050919050565b60006020820190508181036000830152613eb98161392b565b9050919050565b60006020820190508181036000830152613ed98161396b565b9050919050565b60006020820190508181036000830152613ef9816139ab565b9050919050565b60006020820190508181036000830152613f1981613a11565b9050919050565b60006020820190508181036000830152613f3981613a51565b9050919050565b60006020820190508181036000830152613f5981613a91565b9050919050565b60006020820190508181036000830152613f7981613af7565b9050919050565b60006020820190508181036000830152613f9981613b37565b9050919050565b60006020820190508181036000830152613fb981613b9d565b9050919050565b60006020820190508181036000830152613fd981613bdd565b9050919050565b6000602082019050613ff56000830184613c1d565b92915050565b600082825260208201905092915050565b600061401782614126565b915061402283614126565b9250827fffffffffffffffffffffffffffffffffffffffffffffffffffffffffffffffff038211156140575761405661419d565b5b828201905092915050565b600061406d82614126565b915061407883614126565b92508282101561408b5761408a61419d565b5b828203905092915050565b60006140a182614106565b9050919050565b60008115159050919050565b60007fffffffff0000000000000000000000000000000000000000000000000000000082169050919050565b60008190506140ee826141fb565b919050565b60008190506141018261420f565b919050565b600073ffffffffffffffffffffffffffffffffffffffff82169050919050565b6000819050919050565b600061413b826140e0565b9050919050565b600061414d826140f3565b9050919050565b600061415f82614126565b91507fffffffffffffffffffffffffffffffffffffffffffffffffffffffffffffffff8214156141925761419161419d565b5b600182019050919050565b7f4e487b7100000000000000000000000000000000000000000000000000000000600052601160045260246000fd5b7f4e487b7100000000000000000000000000000000000000000000000000000000600052602160045260246000fd5b6003811061420c5761420b6141cc565b5b50565b600481106142205761421f6141cc565b5b50565b61422c81614096565b811461423757600080fd5b50565b614243816140a8565b811461424e57600080fd5b50565b6004811061425e57600080fd5b50565b61426a81614126565b811461427557600080fd5b5056fea2646970667358221220893562d0ab974f7af5e7a22926a1828674ab43ff399081b1c0e7144363ffe46664736f6c63430008000033a2646970667358221220cfc53d2dda81bee1ae39dc9395c8cb2029634f6f2c32f68761b92b852d84a5e864736f6c63430008000033",
  "immutableReferences": {},
  "source": "// SPDX-License-Identifier: MIT\npragma solidity ^0.8.0;\n\nimport \"./Creator.sol\";\n\ncontract CreatorFactory {\n  mapping(address => address) public ownerToCreator;\n  mapping(address => uint256) public addressToId;\n  Creator[] public creators;\n\n  event CreatorCreated(address _address, address _owner);\n\n  function newCreator(address _cusd, address _ceur) external {\n    require(ownerToCreator[msg.sender] == address(0), \"Naffy: You already have a creator account\");\n\n    uint256 _id = getCreatorsLength();\n\n    address _creator = _deployNewCreator(_cusd, _ceur);\n    addressToId[_creator] = _id;\n    ownerToCreator[msg.sender] = _creator;\n\n    emit CreatorCreated(_creator, msg.sender);\n  }\n\n  function _deployNewCreator(address _cusd, address _ceur) internal returns (address) {\n    Creator _creator = new Creator(msg.sender, _cusd, _ceur);\n    creators.push(_creator);\n\n    return address(_creator);\n  }\n\n  function getCreatorsLength() public view returns (uint256) {\n    return creators.length;\n  }\n}\n",
  "sourcePath": "/home/abdulrahman/Desktop/projects/naffy/contracts/contracts/CreatorFactory.sol",
  "compiler": {
    "name": "solc",
    "version": "0.8.0+commit.c7dfd78e.Emscripten.clang"
  },
  "schemaVersion": "3.4.1",
  "updatedAt": "2021-11-23T03:40:15.557Z",
  "devdoc": {
    "kind": "dev",
    "methods": {},
    "version": 1
  },
  "userdoc": {
    "kind": "user",
    "methods": {},
    "version": 1
  }
}