{
  "contractName": "NaffyNFT",
  "abi": [
    {
      "inputs": [],
      "stateMutability": "nonpayable",
      "type": "constructor"
    },
    {
      "anonymous": false,
      "inputs": [
        {
          "indexed": true,
          "internalType": "address",
          "name": "owner",
          "type": "address"
        },
        {
          "indexed": true,
          "internalType": "address",
          "name": "approved",
          "type": "address"
        },
        {
          "indexed": true,
          "internalType": "uint256",
          "name": "tokenId",
          "type": "uint256"
        }
      ],
      "name": "Approval",
      "type": "event"
    },
    {
      "anonymous": false,
      "inputs": [
        {
          "indexed": true,
          "internalType": "address",
          "name": "owner",
          "type": "address"
        },
        {
          "indexed": true,
          "internalType": "address",
          "name": "operator",
          "type": "address"
        },
        {
          "indexed": false,
          "internalType": "bool",
          "name": "approved",
          "type": "bool"
        }
      ],
      "name": "ApprovalForAll",
      "type": "event"
    },
    {
      "anonymous": false,
      "inputs": [
        {
          "indexed": true,
          "internalType": "address",
          "name": "from",
          "type": "address"
        },
        {
          "indexed": true,
          "internalType": "address",
          "name": "to",
          "type": "address"
        },
        {
          "indexed": true,
          "internalType": "uint256",
          "name": "tokenId",
          "type": "uint256"
        }
      ],
      "name": "Transfer",
      "type": "event"
    },
    {
      "inputs": [
        {
          "internalType": "address",
          "name": "to",
          "type": "address"
        },
        {
          "internalType": "uint256",
          "name": "tokenId",
          "type": "uint256"
        }
      ],
      "name": "approve",
      "outputs": [],
      "stateMutability": "nonpayable",
      "type": "function"
    },
    {
      "inputs": [
        {
          "internalType": "address",
          "name": "owner",
          "type": "address"
        }
      ],
      "name": "balanceOf",
      "outputs": [
        {
          "internalType": "uint256",
          "name": "",
          "type": "uint256"
        }
      ],
      "stateMutability": "view",
      "type": "function"
    },
    {
      "inputs": [
        {
          "internalType": "uint256",
          "name": "tokenId",
          "type": "uint256"
        }
      ],
      "name": "getApproved",
      "outputs": [
        {
          "internalType": "address",
          "name": "",
          "type": "address"
        }
      ],
      "stateMutability": "view",
      "type": "function"
    },
    {
      "inputs": [
        {
          "internalType": "address",
          "name": "owner",
          "type": "address"
        },
        {
          "internalType": "address",
          "name": "operator",
          "type": "address"
        }
      ],
      "name": "isApprovedForAll",
      "outputs": [
        {
          "internalType": "bool",
          "name": "",
          "type": "bool"
        }
      ],
      "stateMutability": "view",
      "type": "function"
    },
    {
      "inputs": [],
      "name": "name",
      "outputs": [
        {
          "internalType": "string",
          "name": "",
          "type": "string"
        }
      ],
      "stateMutability": "view",
      "type": "function"
    },
    {
      "inputs": [
        {
          "internalType": "uint256",
          "name": "tokenId",
          "type": "uint256"
        }
      ],
      "name": "ownerOf",
      "outputs": [
        {
          "internalType": "address",
          "name": "",
          "type": "address"
        }
      ],
      "stateMutability": "view",
      "type": "function"
    },
    {
      "inputs": [
        {
          "internalType": "address",
          "name": "from",
          "type": "address"
        },
        {
          "internalType": "address",
          "name": "to",
          "type": "address"
        },
        {
          "internalType": "uint256",
          "name": "tokenId",
          "type": "uint256"
        }
      ],
      "name": "safeTransferFrom",
      "outputs": [],
      "stateMutability": "nonpayable",
      "type": "function"
    },
    {
      "inputs": [
        {
          "internalType": "address",
          "name": "from",
          "type": "address"
        },
        {
          "internalType": "address",
          "name": "to",
          "type": "address"
        },
        {
          "internalType": "uint256",
          "name": "tokenId",
          "type": "uint256"
        },
        {
          "internalType": "bytes",
          "name": "_data",
          "type": "bytes"
        }
      ],
      "name": "safeTransferFrom",
      "outputs": [],
      "stateMutability": "nonpayable",
      "type": "function"
    },
    {
      "inputs": [
        {
          "internalType": "address",
          "name": "operator",
          "type": "address"
        },
        {
          "internalType": "bool",
          "name": "approved",
          "type": "bool"
        }
      ],
      "name": "setApprovalForAll",
      "outputs": [],
      "stateMutability": "nonpayable",
      "type": "function"
    },
    {
      "inputs": [
        {
          "internalType": "bytes4",
          "name": "interfaceId",
          "type": "bytes4"
        }
      ],
      "name": "supportsInterface",
      "outputs": [
        {
          "internalType": "bool",
          "name": "",
          "type": "bool"
        }
      ],
      "stateMutability": "view",
      "type": "function"
    },
    {
      "inputs": [],
      "name": "symbol",
      "outputs": [
        {
          "internalType": "string",
          "name": "",
          "type": "string"
        }
      ],
      "stateMutability": "view",
      "type": "function"
    },
    {
      "inputs": [
        {
          "internalType": "uint256",
          "name": "tokenId",
          "type": "uint256"
        }
      ],
      "name": "tokenURI",
      "outputs": [
        {
          "internalType": "string",
          "name": "",
          "type": "string"
        }
      ],
      "stateMutability": "view",
      "type": "function"
    },
    {
      "inputs": [
        {
          "internalType": "address",
          "name": "from",
          "type": "address"
        },
        {
          "internalType": "address",
          "name": "to",
          "type": "address"
        },
        {
          "internalType": "uint256",
          "name": "tokenId",
          "type": "uint256"
        }
      ],
      "name": "transferFrom",
      "outputs": [],
      "stateMutability": "nonpayable",
      "type": "function"
    },
    {
      "inputs": [
        {
          "internalType": "string",
          "name": "tokenURI",
          "type": "string"
        }
      ],
      "name": "mintToken",
      "outputs": [
        {
          "internalType": "uint256",
          "name": "",
          "type": "uint256"
        }
      ],
      "stateMutability": "nonpayable",
      "type": "function"
    },
    {
      "inputs": [
        {
          "internalType": "string",
          "name": "tokenURI",
          "type": "string"
        },
        {
          "internalType": "address",
          "name": "creatorAddress",
          "type": "address"
        }
      ],
      "name": "mintToken",
      "outputs": [
        {
          "internalType": "uint256",
          "name": "",
          "type": "uint256"
        }
      ],
      "stateMutability": "nonpayable",
      "type": "function"
    }
  ],
  "bytecode": "0x60806040523480156200001157600080fd5b506040518060400160405280600581526020017f4e616666790000000000000000000000000000000000000000000000000000008152506040518060400160405280600381526020017f4e46590000000000000000000000000000000000000000000000000000000000815250816000908051906020019062000096929190620000b8565b508060019080519060200190620000af929190620000b8565b505050620001cd565b828054620000c69062000168565b90600052602060002090601f016020900481019282620000ea576000855562000136565b82601f106200010557805160ff191683800117855562000136565b8280016001018555821562000136579182015b828111156200013557825182559160200191906001019062000118565b5b50905062000145919062000149565b5090565b5b80821115620001645760008160009055506001016200014a565b5090565b600060028204905060018216806200018157607f821691505b602082108114156200019857620001976200019e565b5b50919050565b7f4e487b7100000000000000000000000000000000000000000000000000000000600052602260045260246000fd5b612bbc80620001dd6000396000f3fe608060405234801561001057600080fd5b50600436106100f55760003560e01c80634ae550cd11610097578063a22cb46511610066578063a22cb465146102aa578063b88d4fde146102c6578063c87b56dd146102e2578063e985e9c514610312576100f5565b80634ae550cd146101fc5780636352211e1461022c57806370a082311461025c57806395d89b411461028c576100f5565b8063095ea7b3116100d3578063095ea7b31461017857806323b872dd1461019457806333eba49a146101b057806342842e0e146101e0576100f5565b806301ffc9a7146100fa57806306fdde031461012a578063081812fc14610148575b600080fd5b610114600480360381019061010f9190611cbb565b610342565b6040516101219190612514565b60405180910390f35b610132610424565b60405161013f919061252f565b60405180910390f35b610162600480360381019061015d9190611da2565b6104b6565b60405161016f91906124ad565b60405180910390f35b610192600480360381019061018d9190611c7f565b61053b565b005b6101ae60048036038101906101a99190611b79565b610653565b005b6101ca60048036038101906101c59190611d0d565b6106b3565b6040516101d79190612751565b60405180910390f35b6101fa60048036038101906101f59190611b79565b6106ea565b005b61021660048036038101906102119190611d4e565b61070a565b6040516102239190612751565b60405180910390f35b61024660048036038101906102419190611da2565b61074d565b60405161025391906124ad565b60405180910390f35b61027660048036038101906102719190611b14565b6107ff565b6040516102839190612751565b60405180910390f35b6102946108b7565b6040516102a1919061252f565b60405180910390f35b6102c460048036038101906102bf9190611c43565b610949565b005b6102e060048036038101906102db9190611bc8565b610aca565b005b6102fc60048036038101906102f79190611da2565b610b2c565b604051610309919061252f565b60405180910390f35b61032c60048036038101906103279190611b3d565b610c7e565b6040516103399190612514565b60405180910390f35b60007f80ac58cd000000000000000000000000000000000000000000000000000000007bffffffffffffffffffffffffffffffffffffffffffffffffffffffff1916827bffffffffffffffffffffffffffffffffffffffffffffffffffffffff1916148061040d57507f5b5e139f000000000000000000000000000000000000000000000000000000007bffffffffffffffffffffffffffffffffffffffffffffffffffffffff1916827bffffffffffffffffffffffffffffffffffffffffffffffffffffffff1916145b8061041d575061041c82610d12565b5b9050919050565b606060008054610433906129b1565b80601f016020809104026020016040519081016040528092919081815260200182805461045f906129b1565b80156104ac5780601f10610481576101008083540402835291602001916104ac565b820191906000526020600020905b81548152906001019060200180831161048f57829003601f168201915b5050505050905090565b60006104c182610d7c565b610500576040517f08c379a00000000000000000000000000000000000000000000000000000000081526004016104f7906126b1565b60405180910390fd5b6004600083815260200190815260200160002060009054906101000a900473ffffffffffffffffffffffffffffffffffffffff169050919050565b60006105468261074d565b90508073ffffffffffffffffffffffffffffffffffffffff168373ffffffffffffffffffffffffffffffffffffffff1614156105b7576040517f08c379a00000000000000000000000000000000000000000000000000000000081526004016105ae90612711565b60405180910390fd5b8073ffffffffffffffffffffffffffffffffffffffff166105d6610de8565b73ffffffffffffffffffffffffffffffffffffffff1614806106055750610604816105ff610de8565b610c7e565b5b610644576040517f08c379a000000000000000000000000000000000000000000000000000000000815260040161063b906125f1565b60405180910390fd5b61064e8383610df0565b505050565b61066461065e610de8565b82610ea9565b6106a3576040517f08c379a000000000000000000000000000000000000000000000000000000000815260040161069a90612731565b60405180910390fd5b6106ae838383610f87565b505050565b60006106bf60076111e3565b60006106cb60076111f9565b90506106d73382611207565b6106e18184611225565b80915050919050565b61070583838360405180602001604052806000815250610aca565b505050565b600061071660076111e3565b600061072260076111f9565b905061072e3382611207565b6107388185611225565b610743836001610949565b8091505092915050565b6000806002600084815260200190815260200160002060009054906101000a900473ffffffffffffffffffffffffffffffffffffffff169050600073ffffffffffffffffffffffffffffffffffffffff168173ffffffffffffffffffffffffffffffffffffffff1614156107f6576040517f08c379a00000000000000000000000000000000000000000000000000000000081526004016107ed90612631565b60405180910390fd5b80915050919050565b60008073ffffffffffffffffffffffffffffffffffffffff168273ffffffffffffffffffffffffffffffffffffffff161415610870576040517f08c379a000000000000000000000000000000000000000000000000000000000815260040161086790612611565b60405180910390fd5b600360008373ffffffffffffffffffffffffffffffffffffffff1673ffffffffffffffffffffffffffffffffffffffff168152602001908152602001600020549050919050565b6060600180546108c6906129b1565b80601f01602080910402602001604051908101604052809291908181526020018280546108f2906129b1565b801561093f5780601f106109145761010080835404028352916020019161093f565b820191906000526020600020905b81548152906001019060200180831161092257829003601f168201915b5050505050905090565b610951610de8565b73ffffffffffffffffffffffffffffffffffffffff168273ffffffffffffffffffffffffffffffffffffffff1614156109bf576040517f08c379a00000000000000000000000000000000000000000000000000000000081526004016109b6906125b1565b60405180910390fd5b80600560006109cc610de8565b73ffffffffffffffffffffffffffffffffffffffff1673ffffffffffffffffffffffffffffffffffffffff16815260200190815260200160002060008473ffffffffffffffffffffffffffffffffffffffff1673ffffffffffffffffffffffffffffffffffffffff16815260200190815260200160002060006101000a81548160ff0219169083151502179055508173ffffffffffffffffffffffffffffffffffffffff16610a79610de8565b73ffffffffffffffffffffffffffffffffffffffff167f17307eab39ab6107e8899845ad3d59bd9653f200f220920489ca2b5937696c3183604051610abe9190612514565b60405180910390a35050565b610adb610ad5610de8565b83610ea9565b610b1a576040517f08c379a0000000000000000000000000000000000000000000000000000000008152600401610b1190612731565b60405180910390fd5b610b2684848484611299565b50505050565b6060610b3782610d7c565b610b76576040517f08c379a0000000000000000000000000000000000000000000000000000000008152600401610b6d90612691565b60405180910390fd5b6000600660008481526020019081526020016000208054610b96906129b1565b80601f0160208091040260200160405190810160405280929190818152602001828054610bc2906129b1565b8015610c0f5780601f10610be457610100808354040283529160200191610c0f565b820191906000526020600020905b815481529060010190602001808311610bf257829003601f168201915b505050505090506000610c206112f5565b9050600081511415610c36578192505050610c79565b600082511115610c6b578082604051602001610c53929190612489565b60405160208183030381529060405292505050610c79565b610c748461130c565b925050505b919050565b6000600560008473ffffffffffffffffffffffffffffffffffffffff1673ffffffffffffffffffffffffffffffffffffffff16815260200190815260200160002060008373ffffffffffffffffffffffffffffffffffffffff1673ffffffffffffffffffffffffffffffffffffffff16815260200190815260200160002060009054906101000a900460ff16905092915050565b60007f01ffc9a7000000000000000000000000000000000000000000000000000000007bffffffffffffffffffffffffffffffffffffffffffffffffffffffff1916827bffffffffffffffffffffffffffffffffffffffffffffffffffffffff1916149050919050565b60008073ffffffffffffffffffffffffffffffffffffffff166002600084815260200190815260200160002060009054906101000a900473ffffffffffffffffffffffffffffffffffffffff1673ffffffffffffffffffffffffffffffffffffffff1614159050919050565b600033905090565b816004600083815260200190815260200160002060006101000a81548173ffffffffffffffffffffffffffffffffffffffff021916908373ffffffffffffffffffffffffffffffffffffffff160217905550808273ffffffffffffffffffffffffffffffffffffffff16610e638361074d565b73ffffffffffffffffffffffffffffffffffffffff167f8c5be1e5ebec7d5bd14f71427d1e84f3dd0314c0f7b2291e5b200ac8c7c3b92560405160405180910390a45050565b6000610eb482610d7c565b610ef3576040517f08c379a0000000000000000000000000000000000000000000000000000000008152600401610eea906125d1565b60405180910390fd5b6000610efe8361074d565b90508073ffffffffffffffffffffffffffffffffffffffff168473ffffffffffffffffffffffffffffffffffffffff161480610f6d57508373ffffffffffffffffffffffffffffffffffffffff16610f55846104b6565b73ffffffffffffffffffffffffffffffffffffffff16145b80610f7e5750610f7d8185610c7e565b5b91505092915050565b8273ffffffffffffffffffffffffffffffffffffffff16610fa78261074d565b73ffffffffffffffffffffffffffffffffffffffff1614610ffd576040517f08c379a0000000000000000000000000000000000000000000000000000000008152600401610ff4906126d1565b60405180910390fd5b600073ffffffffffffffffffffffffffffffffffffffff168273ffffffffffffffffffffffffffffffffffffffff16141561106d576040517f08c379a000000000000000000000000000000000000000000000000000000000815260040161106490612591565b60405180910390fd5b6110788383836113b3565b611083600082610df0565b6001600360008573ffffffffffffffffffffffffffffffffffffffff1673ffffffffffffffffffffffffffffffffffffffff16815260200190815260200160002060008282546110d391906128c7565b925050819055506001600360008473ffffffffffffffffffffffffffffffffffffffff1673ffffffffffffffffffffffffffffffffffffffff168152602001908152602001600020600082825461112a9190612840565b92505081905550816002600083815260200190815260200160002060006101000a81548173ffffffffffffffffffffffffffffffffffffffff021916908373ffffffffffffffffffffffffffffffffffffffff160217905550808273ffffffffffffffffffffffffffffffffffffffff168473ffffffffffffffffffffffffffffffffffffffff167fddf252ad1be2c89b69c2b068fc378daa952ba7f163c4a11628f55a4df523b3ef60405160405180910390a4505050565b6001816000016000828254019250508190555050565b600081600001549050919050565b6112218282604051806020016040528060008152506113b8565b5050565b61122e82610d7c565b61126d576040517f08c379a000000000000000000000000000000000000000000000000000000000815260040161126490612651565b60405180910390fd5b80600660008481526020019081526020016000209080519060200190611294929190611938565b505050565b6112a4848484610f87565b6112b084848484611413565b6112ef576040517f08c379a00000000000000000000000000000000000000000000000000000000081526004016112e690612551565b60405180910390fd5b50505050565b606060405180602001604052806000815250905090565b606061131782610d7c565b611356576040517f08c379a000000000000000000000000000000000000000000000000000000000815260040161134d906126f1565b60405180910390fd5b60006113606112f5565b9050600081511161138057604051806020016040528060008152506113ab565b8061138a846115aa565b60405160200161139b929190612489565b6040516020818303038152906040525b915050919050565b505050565b6113c28383611757565b6113cf6000848484611413565b61140e576040517f08c379a000000000000000000000000000000000000000000000000000000000815260040161140590612551565b60405180910390fd5b505050565b60006114348473ffffffffffffffffffffffffffffffffffffffff16611925565b1561159d578373ffffffffffffffffffffffffffffffffffffffff1663150b7a0261145d610de8565b8786866040518563ffffffff1660e01b815260040161147f94939291906124c8565b602060405180830381600087803b15801561149957600080fd5b505af19250505080156114ca57506040513d601f19601f820116820180604052508101906114c79190611ce4565b60015b61154d573d80600081146114fa576040519150601f19603f3d011682016040523d82523d6000602084013e6114ff565b606091505b50600081511415611545576040517f08c379a000000000000000000000000000000000000000000000000000000000815260040161153c90612551565b60405180910390fd5b805181602001fd5b63150b7a0260e01b7bffffffffffffffffffffffffffffffffffffffffffffffffffffffff1916817bffffffffffffffffffffffffffffffffffffffffffffffffffffffff1916149150506115a2565b600190505b949350505050565b606060008214156115f2576040518060400160405280600181526020017f30000000000000000000000000000000000000000000000000000000000000008152509050611752565b600082905060005b6000821461162457808061160d906129e3565b915050600a8261161d9190612896565b91506115fa565b60008167ffffffffffffffff811115611666577f4e487b7100000000000000000000000000000000000000000000000000000000600052604160045260246000fd5b6040519080825280601f01601f1916602001820160405280156116985781602001600182028036833780820191505090505b5090505b6000851461174b576001826116b191906128c7565b9150600a856116c09190612a2c565b60306116cc9190612840565b60f81b818381518110611708577f4e487b7100000000000000000000000000000000000000000000000000000000600052603260045260246000fd5b60200101907effffffffffffffffffffffffffffffffffffffffffffffffffffffffffffff1916908160001a905350600a856117449190612896565b945061169c565b8093505050505b919050565b600073ffffffffffffffffffffffffffffffffffffffff168273ffffffffffffffffffffffffffffffffffffffff1614156117c7576040517f08c379a00000000000000000000000000000000000000000000000000000000081526004016117be90612671565b60405180910390fd5b6117d081610d7c565b15611810576040517f08c379a000000000000000000000000000000000000000000000000000000000815260040161180790612571565b60405180910390fd5b61181c600083836113b3565b6001600360008473ffffffffffffffffffffffffffffffffffffffff1673ffffffffffffffffffffffffffffffffffffffff168152602001908152602001600020600082825461186c9190612840565b92505081905550816002600083815260200190815260200160002060006101000a81548173ffffffffffffffffffffffffffffffffffffffff021916908373ffffffffffffffffffffffffffffffffffffffff160217905550808273ffffffffffffffffffffffffffffffffffffffff16600073ffffffffffffffffffffffffffffffffffffffff167fddf252ad1be2c89b69c2b068fc378daa952ba7f163c4a11628f55a4df523b3ef60405160405180910390a45050565b600080823b905060008111915050919050565b828054611944906129b1565b90600052602060002090601f01602090048101928261196657600085556119ad565b82601f1061197f57805160ff19168380011785556119ad565b828001600101855582156119ad579182015b828111156119ac578251825591602001919060010190611991565b5b5090506119ba91906119be565b5090565b5b808211156119d75760008160009055506001016119bf565b5090565b60006119ee6119e98461279d565b61276c565b905082815260208101848484011115611a0657600080fd5b611a1184828561296f565b509392505050565b6000611a2c611a27846127cd565b61276c565b905082815260208101848484011115611a4457600080fd5b611a4f84828561296f565b509392505050565b600081359050611a6681612b2a565b92915050565b600081359050611a7b81612b41565b92915050565b600081359050611a9081612b58565b92915050565b600081519050611aa581612b58565b92915050565b600082601f830112611abc57600080fd5b8135611acc8482602086016119db565b91505092915050565b600082601f830112611ae657600080fd5b8135611af6848260208601611a19565b91505092915050565b600081359050611b0e81612b6f565b92915050565b600060208284031215611b2657600080fd5b6000611b3484828501611a57565b91505092915050565b60008060408385031215611b5057600080fd5b6000611b5e85828601611a57565b9250506020611b6f85828601611a57565b9150509250929050565b600080600060608486031215611b8e57600080fd5b6000611b9c86828701611a57565b9350506020611bad86828701611a57565b9250506040611bbe86828701611aff565b9150509250925092565b60008060008060808587031215611bde57600080fd5b6000611bec87828801611a57565b9450506020611bfd87828801611a57565b9350506040611c0e87828801611aff565b925050606085013567ffffffffffffffff811115611c2b57600080fd5b611c3787828801611aab565b91505092959194509250565b60008060408385031215611c5657600080fd5b6000611c6485828601611a57565b9250506020611c7585828601611a6c565b9150509250929050565b60008060408385031215611c9257600080fd5b6000611ca085828601611a57565b9250506020611cb185828601611aff565b9150509250929050565b600060208284031215611ccd57600080fd5b6000611cdb84828501611a81565b91505092915050565b600060208284031215611cf657600080fd5b6000611d0484828501611a96565b91505092915050565b600060208284031215611d1f57600080fd5b600082013567ffffffffffffffff811115611d3957600080fd5b611d4584828501611ad5565b91505092915050565b60008060408385031215611d6157600080fd5b600083013567ffffffffffffffff811115611d7b57600080fd5b611d8785828601611ad5565b9250506020611d9885828601611a57565b9150509250929050565b600060208284031215611db457600080fd5b6000611dc284828501611aff565b91505092915050565b611dd4816128fb565b82525050565b611de38161290d565b82525050565b6000611df4826127fd565b611dfe8185612813565b9350611e0e81856020860161297e565b611e1781612b19565b840191505092915050565b6000611e2d82612808565b611e378185612824565b9350611e4781856020860161297e565b611e5081612b19565b840191505092915050565b6000611e6682612808565b611e708185612835565b9350611e8081856020860161297e565b80840191505092915050565b6000611e99603283612824565b91507f4552433732313a207472616e7366657220746f206e6f6e20455243373231526560008301527f63656976657220696d706c656d656e74657200000000000000000000000000006020830152604082019050919050565b6000611eff601c83612824565b91507f4552433732313a20746f6b656e20616c7265616479206d696e746564000000006000830152602082019050919050565b6000611f3f602483612824565b91507f4552433732313a207472616e7366657220746f20746865207a65726f2061646460008301527f72657373000000000000000000000000000000000000000000000000000000006020830152604082019050919050565b6000611fa5601983612824565b91507f4552433732313a20617070726f766520746f2063616c6c6572000000000000006000830152602082019050919050565b6000611fe5602c83612824565b91507f4552433732313a206f70657261746f7220717565727920666f72206e6f6e657860008301527f697374656e7420746f6b656e00000000000000000000000000000000000000006020830152604082019050919050565b600061204b603883612824565b91507f4552433732313a20617070726f76652063616c6c6572206973206e6f74206f7760008301527f6e6572206e6f7220617070726f76656420666f7220616c6c00000000000000006020830152604082019050919050565b60006120b1602a83612824565b91507f4552433732313a2062616c616e636520717565727920666f7220746865207a6560008301527f726f2061646472657373000000000000000000000000000000000000000000006020830152604082019050919050565b6000612117602983612824565b91507f4552433732313a206f776e657220717565727920666f72206e6f6e657869737460008301527f656e7420746f6b656e00000000000000000000000000000000000000000000006020830152604082019050919050565b600061217d602e83612824565b91507f45524337323155524953746f726167653a2055524920736574206f66206e6f6e60008301527f6578697374656e7420746f6b656e0000000000000000000000000000000000006020830152604082019050919050565b60006121e3602083612824565b91507f4552433732313a206d696e7420746f20746865207a65726f20616464726573736000830152602082019050919050565b6000612223603183612824565b91507f45524337323155524953746f726167653a2055524920717565727920666f722060008301527f6e6f6e6578697374656e7420746f6b656e0000000000000000000000000000006020830152604082019050919050565b6000612289602c83612824565b91507f4552433732313a20617070726f76656420717565727920666f72206e6f6e657860008301527f697374656e7420746f6b656e00000000000000000000000000000000000000006020830152604082019050919050565b60006122ef602983612824565b91507f4552433732313a207472616e73666572206f6620746f6b656e2074686174206960008301527f73206e6f74206f776e00000000000000000000000000000000000000000000006020830152604082019050919050565b6000612355602f83612824565b91507f4552433732314d657461646174613a2055524920717565727920666f72206e6f60008301527f6e6578697374656e7420746f6b656e00000000000000000000000000000000006020830152604082019050919050565b60006123bb602183612824565b91507f4552433732313a20617070726f76616c20746f2063757272656e74206f776e6560008301527f72000000000000000000000000000000000000000000000000000000000000006020830152604082019050919050565b6000612421603183612824565b91507f4552433732313a207472616e736665722063616c6c6572206973206e6f74206f60008301527f776e6572206e6f7220617070726f7665640000000000000000000000000000006020830152604082019050919050565b61248381612965565b82525050565b60006124958285611e5b565b91506124a18284611e5b565b91508190509392505050565b60006020820190506124c26000830184611dcb565b92915050565b60006080820190506124dd6000830187611dcb565b6124ea6020830186611dcb565b6124f7604083018561247a565b81810360608301526125098184611de9565b905095945050505050565b60006020820190506125296000830184611dda565b92915050565b600060208201905081810360008301526125498184611e22565b905092915050565b6000602082019050818103600083015261256a81611e8c565b9050919050565b6000602082019050818103600083015261258a81611ef2565b9050919050565b600060208201905081810360008301526125aa81611f32565b9050919050565b600060208201905081810360008301526125ca81611f98565b9050919050565b600060208201905081810360008301526125ea81611fd8565b9050919050565b6000602082019050818103600083015261260a8161203e565b9050919050565b6000602082019050818103600083015261262a816120a4565b9050919050565b6000602082019050818103600083015261264a8161210a565b9050919050565b6000602082019050818103600083015261266a81612170565b9050919050565b6000602082019050818103600083015261268a816121d6565b9050919050565b600060208201905081810360008301526126aa81612216565b9050919050565b600060208201905081810360008301526126ca8161227c565b9050919050565b600060208201905081810360008301526126ea816122e2565b9050919050565b6000602082019050818103600083015261270a81612348565b9050919050565b6000602082019050818103600083015261272a816123ae565b9050919050565b6000602082019050818103600083015261274a81612414565b9050919050565b6000602082019050612766600083018461247a565b92915050565b6000604051905081810181811067ffffffffffffffff8211171561279357612792612aea565b5b8060405250919050565b600067ffffffffffffffff8211156127b8576127b7612aea565b5b601f19601f8301169050602081019050919050565b600067ffffffffffffffff8211156127e8576127e7612aea565b5b601f19601f8301169050602081019050919050565b600081519050919050565b600081519050919050565b600082825260208201905092915050565b600082825260208201905092915050565b600081905092915050565b600061284b82612965565b915061285683612965565b9250827fffffffffffffffffffffffffffffffffffffffffffffffffffffffffffffffff0382111561288b5761288a612a5d565b5b828201905092915050565b60006128a182612965565b91506128ac83612965565b9250826128bc576128bb612a8c565b5b828204905092915050565b60006128d282612965565b91506128dd83612965565b9250828210156128f0576128ef612a5d565b5b828203905092915050565b600061290682612945565b9050919050565b60008115159050919050565b60007fffffffff0000000000000000000000000000000000000000000000000000000082169050919050565b600073ffffffffffffffffffffffffffffffffffffffff82169050919050565b6000819050919050565b82818337600083830152505050565b60005b8381101561299c578082015181840152602081019050612981565b838111156129ab576000848401525b50505050565b600060028204905060018216806129c957607f821691505b602082108114156129dd576129dc612abb565b5b50919050565b60006129ee82612965565b91507fffffffffffffffffffffffffffffffffffffffffffffffffffffffffffffffff821415612a2157612a20612a5d565b5b600182019050919050565b6000612a3782612965565b9150612a4283612965565b925082612a5257612a51612a8c565b5b828206905092915050565b7f4e487b7100000000000000000000000000000000000000000000000000000000600052601160045260246000fd5b7f4e487b7100000000000000000000000000000000000000000000000000000000600052601260045260246000fd5b7f4e487b7100000000000000000000000000000000000000000000000000000000600052602260045260246000fd5b7f4e487b7100000000000000000000000000000000000000000000000000000000600052604160045260246000fd5b6000601f19601f8301169050919050565b612b33816128fb565b8114612b3e57600080fd5b50565b612b4a8161290d565b8114612b5557600080fd5b50565b612b6181612919565b8114612b6c57600080fd5b50565b612b7881612965565b8114612b8357600080fd5b5056fea26469706673582212203c8be9490379c8fb9eaa2a110c42041f084c8c380161bb5e11f390a3544f681264736f6c63430008000033",
  "immutableReferences": {},
  "source": "// SPDX-License-Identifier: MIT\npragma solidity ^0.8.0;\n\nimport \"@openzeppelin/contracts/utils/Counters.sol\";\nimport \"@openzeppelin/contracts/token/ERC721/extensions/ERC721URIStorage.sol\";\nimport \"@openzeppelin/contracts/token/ERC721/ERC721.sol\";\n\ncontract NaffyNFT is ERC721URIStorage {\n  using Counters for Counters.Counter;\n  Counters.Counter private _tokenIds;\n\n  constructor() ERC721(\"Naffy\", \"NFY\") {}\n\n  function mintToken(string memory tokenURI, address creatorAddress) external returns (uint256) {\n    _tokenIds.increment();\n    uint256 newItemId = _tokenIds.current();\n\n    _safeMint(msg.sender, newItemId);\n    _setTokenURI(newItemId, tokenURI);\n    setApprovalForAll(creatorAddress, true);\n\n    return newItemId;\n  }\n\n  function mintToken(string memory tokenURI) external returns (uint256) {\n    _tokenIds.increment();\n    uint256 newItemId = _tokenIds.current();\n\n    _safeMint(msg.sender, newItemId);\n    _setTokenURI(newItemId, tokenURI);\n\n    return newItemId;\n  }\n}\n",
  "sourcePath": "/home/abdulrahman/Desktop/projects/naffy/contracts/contracts/NaffyNFT.sol",
  "compiler": {
    "name": "solc",
    "version": "0.8.0+commit.c7dfd78e.Emscripten.clang"
  },
  "schemaVersion": "3.4.1",
  "updatedAt": "2021-11-22T00:22:14.621Z",
  "devdoc": {
    "kind": "dev",
    "methods": {
      "approve(address,uint256)": {
        "details": "See {IERC721-approve}."
      },
      "balanceOf(address)": {
        "details": "See {IERC721-balanceOf}."
      },
      "getApproved(uint256)": {
        "details": "See {IERC721-getApproved}."
      },
      "isApprovedForAll(address,address)": {
        "details": "See {IERC721-isApprovedForAll}."
      },
      "name()": {
        "details": "See {IERC721Metadata-name}."
      },
      "ownerOf(uint256)": {
        "details": "See {IERC721-ownerOf}."
      },
      "safeTransferFrom(address,address,uint256)": {
        "details": "See {IERC721-safeTransferFrom}."
      },
      "safeTransferFrom(address,address,uint256,bytes)": {
        "details": "See {IERC721-safeTransferFrom}."
      },
      "setApprovalForAll(address,bool)": {
        "details": "See {IERC721-setApprovalForAll}."
      },
      "supportsInterface(bytes4)": {
        "details": "See {IERC165-supportsInterface}."
      },
      "symbol()": {
        "details": "See {IERC721Metadata-symbol}."
      },
      "tokenURI(uint256)": {
        "details": "See {IERC721Metadata-tokenURI}."
      },
      "transferFrom(address,address,uint256)": {
        "details": "See {IERC721-transferFrom}."
      }
    },
    "version": 1
  },
  "userdoc": {
    "kind": "user",
    "methods": {},
    "version": 1
  }
}