{
  "contractName": "FidiCore",
  "abi": [
    {
      "anonymous": false,
      "inputs": [
        {
          "indexed": true,
          "internalType": "address",
          "name": "buyer",
          "type": "address"
        },
        {
          "indexed": false,
          "internalType": "address",
          "name": "deal",
          "type": "address"
        },
        {
          "indexed": false,
          "internalType": "address",
          "name": "offer",
          "type": "address"
        }
      ],
      "name": "DealCreated",
      "type": "event"
    },
    {
      "anonymous": false,
      "inputs": [
        {
          "indexed": true,
          "internalType": "address",
          "name": "seller",
          "type": "address"
        },
        {
          "indexed": false,
          "internalType": "address",
          "name": "offer",
          "type": "address"
        }
      ],
      "name": "OfferCreated",
      "type": "event"
    },
    {
      "inputs": [
        {
          "internalType": "address",
          "name": "tokenAddress",
          "type": "address"
        }
      ],
      "name": "createOffer",
      "outputs": [
        {
          "internalType": "address",
          "name": "",
          "type": "address"
        }
      ],
      "stateMutability": "nonpayable",
      "type": "function"
    },
    {
      "inputs": [
        {
          "internalType": "address",
          "name": "tokenAddress",
          "type": "address"
        },
        {
          "internalType": "address",
          "name": "offerAddress",
          "type": "address"
        }
      ],
      "name": "createDeal",
      "outputs": [
        {
          "internalType": "address",
          "name": "",
          "type": "address"
        }
      ],
      "stateMutability": "nonpayable",
      "type": "function"
    }
  ],
  "bytecode": "0x608060405234801561001057600080fd5b50612137806100206000396000f3fe608060405234801561001057600080fd5b50600436106100365760003560e01c80635a3f6f4f1461003b578063b91d9e231461006b575b600080fd5b610055600480360381019061005091906101ff565b61009b565b604051610062919061027b565b60405180910390f35b6100856004803603810190610080919061022c565b610133565b604051610092919061027b565b60405180910390f35b600080339050600083826040516100b1906101d0565b6100bc929190610296565b604051809103906000f0801580156100d8573d6000803e3d6000fd5b5090508173ffffffffffffffffffffffffffffffffffffffff167f3200a1a41b9bafe7f1ef24604e6ed0243414cb19d09eb6b16bd15a553df125b882604051610121919061027b565b60405180910390a28092505050919050565b600080339050600084848360405161014a906101dd565b610156939291906102bf565b604051809103906000f080158015610172573d6000803e3d6000fd5b5090508173ffffffffffffffffffffffffffffffffffffffff167f36bb40958b69ee7898a72c66451d3cd29a974199ddd161bfd49ee8e0bfdc8c9a82866040516101bd929190610296565b60405180910390a2809250505092915050565b610d158061034583390190565b6110a88061105a83390190565b6000813590506101f98161032d565b92915050565b60006020828403121561021557610214610328565b5b6000610223848285016101ea565b91505092915050565b6000806040838503121561024357610242610328565b5b6000610251858286016101ea565b9250506020610262858286016101ea565b9150509250929050565b610275816102f6565b82525050565b6000602082019050610290600083018461026c565b92915050565b60006040820190506102ab600083018561026c565b6102b8602083018461026c565b9392505050565b60006060820190506102d4600083018661026c565b6102e1602083018561026c565b6102ee604083018461026c565b949350505050565b600061030182610308565b9050919050565b600073ffffffffffffffffffffffffffffffffffffffff82169050919050565b600080fd5b610336816102f6565b811461034157600080fd5b5056fe608060405260016000806101000a81548160ff02191690831515021790555034801561002a57600080fd5b50604051610d15380380610d15833981810160405281019061004c919061012b565b33600060016101000a81548173ffffffffffffffffffffffffffffffffffffffff021916908373ffffffffffffffffffffffffffffffffffffffff16021790555081600160006101000a81548173ffffffffffffffffffffffffffffffffffffffff021916908373ffffffffffffffffffffffffffffffffffffffff16021790555080600260006101000a81548173ffffffffffffffffffffffffffffffffffffffff021916908373ffffffffffffffffffffffffffffffffffffffff16021790555050506101b9565b600081519050610125816101a2565b92915050565b600080604083850312156101425761014161019d565b5b600061015085828601610116565b925050602061016185828601610116565b9150509250929050565b60006101768261017d565b9050919050565b600073ffffffffffffffffffffffffffffffffffffffff82169050919050565b600080fd5b6101ab8161016b565b81146101b657600080fd5b50565b610b4d806101c86000396000f3fe608060405234801561001057600080fd5b50600436106100885760003560e01c80639d76ea581161005b5780639d76ea5814610103578063a653447014610121578063b16a867c1461012b578063bad4a01f1461014d57610088565b806302fb0c5e1461008d57806308551a53146100ab5780631c0ad646146100c9578063816b1e8f146100e7575b600080fd5b610095610169565b6040516100a29190610a6a565b60405180910390f35b6100b361017a565b6040516100c0919061099c565b60405180910390f35b6100d16101a0565b6040516100de919061099c565b60405180910390f35b61010160048036038101906100fc91906108a8565b6101c6565b005b61010b6103aa565b604051610118919061099c565b60405180910390f35b6101296103d0565b005b61013361056a565b6040516101449594939291906109b7565b60405180910390f35b61016760048036038101906101629190610915565b6106aa565b005b60008054906101000a900460ff1681565b600260009054906101000a900473ffffffffffffffffffffffffffffffffffffffff1681565b600060019054906101000a900473ffffffffffffffffffffffffffffffffffffffff1681565b6000600160009054906101000a900473ffffffffffffffffffffffffffffffffffffffff169050818173ffffffffffffffffffffffffffffffffffffffff166370a08231306040518263ffffffff1660e01b8152600401610227919061099c565b60206040518083038186803b15801561023f57600080fd5b505afa158015610253573d6000803e3d6000fd5b505050506040513d601f19601f820116820180604052508101906102779190610942565b101561028257600080fd5b818173ffffffffffffffffffffffffffffffffffffffff166370a08231856040518263ffffffff1660e01b81526004016102bc919061099c565b60206040518083038186803b1580156102d457600080fd5b505afa1580156102e8573d6000803e3d6000fd5b505050506040513d601f19601f8201168201806040525081019061030c9190610942565b101561031757600080fd5b8073ffffffffffffffffffffffffffffffffffffffff1663a9059cbb84846040518363ffffffff1660e01b8152600401610352929190610a41565b602060405180830381600087803b15801561036c57600080fd5b505af1158015610380573d6000803e3d6000fd5b505050506040513d601f19601f820116820180604052508101906103a491906108e8565b50505050565b600160009054906101000a900473ffffffffffffffffffffffffffffffffffffffff1681565b600260009054906101000a900473ffffffffffffffffffffffffffffffffffffffff1673ffffffffffffffffffffffffffffffffffffffff163373ffffffffffffffffffffffffffffffffffffffff161461042a57600080fd5b6000600160009054906101000a900473ffffffffffffffffffffffffffffffffffffffff1690508073ffffffffffffffffffffffffffffffffffffffff1663a9059cbb338373ffffffffffffffffffffffffffffffffffffffff166370a08231306040518263ffffffff1660e01b81526004016104a7919061099c565b60206040518083038186803b1580156104bf57600080fd5b505afa1580156104d3573d6000803e3d6000fd5b505050506040513d601f19601f820116820180604052508101906104f79190610942565b6040518363ffffffff1660e01b8152600401610514929190610a41565b602060405180830381600087803b15801561052e57600080fd5b505af1158015610542573d6000803e3d6000fd5b505050506040513d601f19601f8201168201806040525081019061056691906108e8565b5050565b600080600080600080600160009054906101000a900473ffffffffffffffffffffffffffffffffffffffff169050600060019054906101000a900473ffffffffffffffffffffffffffffffffffffffff16600160009054906101000a900473ffffffffffffffffffffffffffffffffffffffff16600260009054906101000a900473ffffffffffffffffffffffffffffffffffffffff168373ffffffffffffffffffffffffffffffffffffffff166370a08231306040518263ffffffff1660e01b815260040161063a919061099c565b60206040518083038186803b15801561065257600080fd5b505afa158015610666573d6000803e3d6000fd5b505050506040513d601f19601f8201168201806040525081019061068a9190610942565b60008054906101000a900460ff1695509550955095509550509091929394565b600260009054906101000a900473ffffffffffffffffffffffffffffffffffffffff1673ffffffffffffffffffffffffffffffffffffffff163373ffffffffffffffffffffffffffffffffffffffff161461070457600080fd5b6000600160009054906101000a900473ffffffffffffffffffffffffffffffffffffffff169050818173ffffffffffffffffffffffffffffffffffffffff166370a08231336040518263ffffffff1660e01b8152600401610765919061099c565b60206040518083038186803b15801561077d57600080fd5b505afa158015610791573d6000803e3d6000fd5b505050506040513d601f19601f820116820180604052508101906107b59190610942565b10156107c057600080fd5b8073ffffffffffffffffffffffffffffffffffffffff166323b872dd3330856040518463ffffffff1660e01b81526004016107fd93929190610a0a565b602060405180830381600087803b15801561081757600080fd5b505af115801561082b573d6000803e3d6000fd5b505050506040513d601f19601f8201168201806040525081019061084f91906108e8565b505050565b60008135905061086381610ad2565b92915050565b60008151905061087881610ae9565b92915050565b60008135905061088d81610b00565b92915050565b6000815190506108a281610b00565b92915050565b600080604083850312156108bf576108be610acd565b5b60006108cd85828601610854565b92505060206108de8582860161087e565b9150509250929050565b6000602082840312156108fe576108fd610acd565b5b600061090c84828501610869565b91505092915050565b60006020828403121561092b5761092a610acd565b5b60006109398482850161087e565b91505092915050565b60006020828403121561095857610957610acd565b5b600061096684828501610893565b91505092915050565b61097881610a85565b82525050565b61098781610a97565b82525050565b61099681610ac3565b82525050565b60006020820190506109b1600083018461096f565b92915050565b600060a0820190506109cc600083018861096f565b6109d9602083018761096f565b6109e6604083018661096f565b6109f3606083018561098d565b610a00608083018461097e565b9695505050505050565b6000606082019050610a1f600083018661096f565b610a2c602083018561096f565b610a39604083018461098d565b949350505050565b6000604082019050610a56600083018561096f565b610a63602083018461098d565b9392505050565b6000602082019050610a7f600083018461097e565b92915050565b6000610a9082610aa3565b9050919050565b60008115159050919050565b600073ffffffffffffffffffffffffffffffffffffffff82169050919050565b6000819050919050565b600080fd5b610adb81610a85565b8114610ae657600080fd5b50565b610af281610a97565b8114610afd57600080fd5b50565b610b0981610ac3565b8114610b1457600080fd5b5056fea2646970667358221220b18becc3081712b7e6d98f6c552915c6c9a6afc3aece013b9b163db95468b8d564736f6c63430008070033608060405260016000806101000a81548160ff0219169083151502179055503480156200002b57600080fd5b50604051620010a8380380620010a8833981810160405281019062000051919062000291565b33600060026101000a81548173ffffffffffffffffffffffffffffffffffffffff021916908373ffffffffffffffffffffffffffffffffffffffff16021790555082600160006101000a81548173ffffffffffffffffffffffffffffffffffffffff021916908373ffffffffffffffffffffffffffffffffffffffff16021790555081600260006101000a81548173ffffffffffffffffffffffffffffffffffffffff021916908373ffffffffffffffffffffffffffffffffffffffff16021790555080600460006101000a81548173ffffffffffffffffffffffffffffffffffffffff021916908373ffffffffffffffffffffffffffffffffffffffff1602179055506000600260009054906101000a900473ffffffffffffffffffffffffffffffffffffffff1690508073ffffffffffffffffffffffffffffffffffffffff166308551a536040518163ffffffff1660e01b815260040160206040518083038186803b158015620001c357600080fd5b505afa158015620001d8573d6000803e3d6000fd5b505050506040513d601f19601f82011682018060405250810190620001fe91906200025f565b600360006101000a81548173ffffffffffffffffffffffffffffffffffffffff021916908373ffffffffffffffffffffffffffffffffffffffff1602179055505050505062000340565b600081519050620002598162000326565b92915050565b60006020828403121562000278576200027762000321565b5b6000620002888482850162000248565b91505092915050565b600080600060608486031215620002ad57620002ac62000321565b5b6000620002bd8682870162000248565b9350506020620002d08682870162000248565b9250506040620002e38682870162000248565b9150509250925092565b6000620002fa8262000301565b9050919050565b600073ffffffffffffffffffffffffffffffffffffffff82169050919050565b600080fd5b6200033181620002ed565b81146200033d57600080fd5b50565b610d5880620003506000396000f3fe608060405234801561001057600080fd5b50600436106100cf5760003560e01c80637150d8ae1161008c578063b16a867c11610066578063b16a867c146101ba578063d8dfeb45146101e0578063e2bbb158146101fe578063e2d46f981461021a576100cf565b80637150d8ae146101605780639d76ea581461017e578063aa8c217c1461019c576100cf565b806302fb0c5e146100d457806308551a53146100f25780631c0ad646146101105780633ea42de31461012e57806343d726d61461014c5780636032f4a614610156575b600080fd5b6100dc610238565b6040516100e99190610c71565b60405180910390f35b6100fa610249565b6040516101079190610b69565b60405180910390f35b61011861026f565b6040516101259190610b69565b60405180910390f35b610136610295565b6040516101439190610b69565b60405180910390f35b6101546102bb565b005b61015e6104d6565b005b61016861054d565b6040516101759190610b69565b60405180910390f35b610186610573565b6040516101939190610b69565b60405180910390f35b6101a4610599565b6040516101b19190610c8c565b60405180910390f35b6101c261059f565b6040516101d799989796959493929190610b84565b60405180910390f35b6101e861073d565b6040516101f59190610c8c565b60405180910390f35b61021860048036038101906102139190610afc565b610743565b005b610222610a50565b60405161022f9190610c71565b60405180910390f35b60008054906101000a900460ff1681565b600360009054906101000a900473ffffffffffffffffffffffffffffffffffffffff1681565b600060029054906101000a900473ffffffffffffffffffffffffffffffffffffffff1681565b600260009054906101000a900473ffffffffffffffffffffffffffffffffffffffff1681565b600460009054906101000a900473ffffffffffffffffffffffffffffffffffffffff1673ffffffffffffffffffffffffffffffffffffffff163373ffffffffffffffffffffffffffffffffffffffff161461031557600080fd5b600060019054906101000a900460ff1661032e57600080fd5b6000600160009054906101000a900473ffffffffffffffffffffffffffffffffffffffff1690508073ffffffffffffffffffffffffffffffffffffffff1663a9059cbb600360009054906101000a900473ffffffffffffffffffffffffffffffffffffffff166005546040518363ffffffff1660e01b81526004016103b4929190610c48565b602060405180830381600087803b1580156103ce57600080fd5b505af11580156103e2573d6000803e3d6000fd5b505050506040513d601f19601f820116820180604052508101906104069190610aa2565b508073ffffffffffffffffffffffffffffffffffffffff1663a9059cbb600460009054906101000a900473ffffffffffffffffffffffffffffffffffffffff166006546040518363ffffffff1660e01b8152600401610466929190610c48565b602060405180830381600087803b15801561048057600080fd5b505af1158015610494573d6000803e3d6000fd5b505050506040513d601f19601f820116820180604052508101906104b89190610aa2565b5060008060006101000a81548160ff02191690831515021790555050565b600360009054906101000a900473ffffffffffffffffffffffffffffffffffffffff1673ffffffffffffffffffffffffffffffffffffffff163373ffffffffffffffffffffffffffffffffffffffff161461053057600080fd5b6001600060016101000a81548160ff021916908315150217905550565b600460009054906101000a900473ffffffffffffffffffffffffffffffffffffffff1681565b600160009054906101000a900473ffffffffffffffffffffffffffffffffffffffff1681565b60055481565b600080600080600080600080600080600160009054906101000a900473ffffffffffffffffffffffffffffffffffffffff169050600060029054906101000a900473ffffffffffffffffffffffffffffffffffffffff16600160009054906101000a900473ffffffffffffffffffffffffffffffffffffffff16600260009054906101000a900473ffffffffffffffffffffffffffffffffffffffff16600360009054906101000a900473ffffffffffffffffffffffffffffffffffffffff16600460009054906101000a900473ffffffffffffffffffffffffffffffffffffffff168573ffffffffffffffffffffffffffffffffffffffff166370a08231306040518263ffffffff1660e01b81526004016106bb9190610b69565b60206040518083038186803b1580156106d357600080fd5b505afa1580156106e7573d6000803e3d6000fd5b505050506040513d601f19601f8201168201806040525081019061070b9190610acf565b60055460065460008054906101000a900460ff1699509950995099509950995099509950995050909192939495969798565b60065481565b600460009054906101000a900473ffffffffffffffffffffffffffffffffffffffff1673ffffffffffffffffffffffffffffffffffffffff163373ffffffffffffffffffffffffffffffffffffffff161461079d57600080fd5b81600581905550806006819055506000600160009054906101000a900473ffffffffffffffffffffffffffffffffffffffff1690506005548173ffffffffffffffffffffffffffffffffffffffff166370a08231336040518263ffffffff1660e01b815260040161080e9190610b69565b60206040518083038186803b15801561082657600080fd5b505afa15801561083a573d6000803e3d6000fd5b505050506040513d601f19601f8201168201806040525081019061085e9190610acf565b101561086957600080fd5b6006548173ffffffffffffffffffffffffffffffffffffffff166370a08231600260009054906101000a900473ffffffffffffffffffffffffffffffffffffffff166040518263ffffffff1660e01b81526004016108c79190610b69565b60206040518083038186803b1580156108df57600080fd5b505afa1580156108f3573d6000803e3d6000fd5b505050506040513d601f19601f820116820180604052508101906109179190610acf565b101561092257600080fd5b8073ffffffffffffffffffffffffffffffffffffffff166323b872dd33306005546040518463ffffffff1660e01b815260040161096193929190610c11565b602060405180830381600087803b15801561097b57600080fd5b505af115801561098f573d6000803e3d6000fd5b505050506040513d601f19601f820116820180604052508101906109b39190610aa2565b506000600260009054906101000a900473ffffffffffffffffffffffffffffffffffffffff1690508073ffffffffffffffffffffffffffffffffffffffff1663816b1e8f306006546040518363ffffffff1660e01b8152600401610a18929190610c48565b600060405180830381600087803b158015610a3257600080fd5b505af1158015610a46573d6000803e3d6000fd5b5050505050505050565b600060019054906101000a900460ff1681565b600081519050610a7281610cf4565b92915050565b600081359050610a8781610d0b565b92915050565b600081519050610a9c81610d0b565b92915050565b600060208284031215610ab857610ab7610cef565b5b6000610ac684828501610a63565b91505092915050565b600060208284031215610ae557610ae4610cef565b5b6000610af384828501610a8d565b91505092915050565b60008060408385031215610b1357610b12610cef565b5b6000610b2185828601610a78565b9250506020610b3285828601610a78565b9150509250929050565b610b4581610ca7565b82525050565b610b5481610cb9565b82525050565b610b6381610ce5565b82525050565b6000602082019050610b7e6000830184610b3c565b92915050565b600061012082019050610b9a600083018c610b3c565b610ba7602083018b610b3c565b610bb4604083018a610b3c565b610bc16060830189610b3c565b610bce6080830188610b3c565b610bdb60a0830187610b5a565b610be860c0830186610b5a565b610bf560e0830185610b5a565b610c03610100830184610b4b565b9a9950505050505050505050565b6000606082019050610c266000830186610b3c565b610c336020830185610b3c565b610c406040830184610b5a565b949350505050565b6000604082019050610c5d6000830185610b3c565b610c6a6020830184610b5a565b9392505050565b6000602082019050610c866000830184610b4b565b92915050565b6000602082019050610ca16000830184610b5a565b92915050565b6000610cb282610cc5565b9050919050565b60008115159050919050565b600073ffffffffffffffffffffffffffffffffffffffff82169050919050565b6000819050919050565b600080fd5b610cfd81610cb9565b8114610d0857600080fd5b50565b610d1481610ce5565b8114610d1f57600080fd5b5056fea2646970667358221220338640c598dc617e1e41526d771e4957991186c1b22551cf066b29e75dc7f86f64736f6c63430008070033a264697066735822122061b1fab1cf01115c27812cb7bb8315f032546fcfc2005f04f20bf65ca5c05fd964736f6c63430008070033",
  "immutableReferences": {},
  "source": "// SPDX-License-Identifier: MIT\npragma solidity ^0.8.0;\n\nimport './Offer.sol';\nimport './Deal.sol';\n\n/**\n * @title Fidi.Cash Core Contract\n * @dev Core contract for managing Fidi Offers and Deals\n */\ncontract FidiCore {\n  event OfferCreated(address indexed seller, address offer);\n  event DealCreated(address indexed buyer, address deal, address offer);\n\n  function createOffer(address tokenAddress) public returns (address) {\n    address seller = msg.sender;\n\n    address offerAddress = address(new Offer(tokenAddress, seller));\n    emit OfferCreated(seller, offerAddress);\n    return offerAddress;\n  }\n\n  function createDeal(address tokenAddress, address offerAddress)\n    public\n    returns (address)\n  {\n    address buyer = msg.sender;\n\n    address dealAddress = address(new Deal(tokenAddress, offerAddress, buyer));\n    emit DealCreated(buyer, dealAddress, offerAddress);\n    return dealAddress;\n  }\n}\n",
  "sourcePath": "/Users/alex/projects/crypto/fidi.cash/contracts/contracts/FidiCore.sol",
  "compiler": {
    "name": "solc",
    "version": "0.8.7+commit.e28d00a7.Emscripten.clang"
  },
  "schemaVersion": "3.4.3",
  "updatedAt": "2021-11-28T10:39:34.087Z",
  "networkType": "ethereum",
  "devdoc": {
    "details": "Core contract for managing Fidi Offers and Deals",
    "kind": "dev",
    "methods": {},
    "title": "Fidi.Cash Core Contract",
    "version": 1
  },
  "userdoc": {
    "kind": "user",
    "methods": {},
    "version": 1
  }
}