{
  "contractName": "Offer",
  "abi": [
    {
      "inputs": [
        {
          "internalType": "address",
          "name": "_tokenAddress",
          "type": "address"
        },
        {
          "internalType": "address",
          "name": "_seller",
          "type": "address"
        }
      ],
      "stateMutability": "nonpayable",
      "type": "constructor"
    },
    {
      "inputs": [],
      "name": "active",
      "outputs": [
        {
          "internalType": "bool",
          "name": "",
          "type": "bool"
        }
      ],
      "stateMutability": "view",
      "type": "function"
    },
    {
      "inputs": [],
      "name": "coreAddress",
      "outputs": [
        {
          "internalType": "address",
          "name": "",
          "type": "address"
        }
      ],
      "stateMutability": "view",
      "type": "function"
    },
    {
      "inputs": [],
      "name": "seller",
      "outputs": [
        {
          "internalType": "address",
          "name": "",
          "type": "address"
        }
      ],
      "stateMutability": "view",
      "type": "function"
    },
    {
      "inputs": [],
      "name": "tokenAddress",
      "outputs": [
        {
          "internalType": "address",
          "name": "",
          "type": "address"
        }
      ],
      "stateMutability": "view",
      "type": "function"
    },
    {
      "inputs": [
        {
          "internalType": "uint256",
          "name": "collateral",
          "type": "uint256"
        }
      ],
      "name": "depositCollateral",
      "outputs": [],
      "stateMutability": "nonpayable",
      "type": "function"
    },
    {
      "inputs": [],
      "name": "redeemCollateral",
      "outputs": [],
      "stateMutability": "nonpayable",
      "type": "function"
    },
    {
      "inputs": [
        {
          "internalType": "address",
          "name": "dealAddress",
          "type": "address"
        },
        {
          "internalType": "uint256",
          "name": "amount",
          "type": "uint256"
        }
      ],
      "name": "transferCollateral",
      "outputs": [],
      "stateMutability": "nonpayable",
      "type": "function"
    },
    {
      "inputs": [],
      "name": "summary",
      "outputs": [
        {
          "internalType": "address",
          "name": "",
          "type": "address"
        },
        {
          "internalType": "address",
          "name": "",
          "type": "address"
        },
        {
          "internalType": "address",
          "name": "",
          "type": "address"
        },
        {
          "internalType": "uint256",
          "name": "",
          "type": "uint256"
        },
        {
          "internalType": "bool",
          "name": "",
          "type": "bool"
        }
      ],
      "stateMutability": "view",
      "type": "function"
    }
  ],
  "bytecode": "0x608060405260016000806101000a81548160ff02191690831515021790555034801561002a57600080fd5b50604051610d15380380610d15833981810160405281019061004c919061012b565b33600060016101000a81548173ffffffffffffffffffffffffffffffffffffffff021916908373ffffffffffffffffffffffffffffffffffffffff16021790555081600160006101000a81548173ffffffffffffffffffffffffffffffffffffffff021916908373ffffffffffffffffffffffffffffffffffffffff16021790555080600260006101000a81548173ffffffffffffffffffffffffffffffffffffffff021916908373ffffffffffffffffffffffffffffffffffffffff16021790555050506101b9565b600081519050610125816101a2565b92915050565b600080604083850312156101425761014161019d565b5b600061015085828601610116565b925050602061016185828601610116565b9150509250929050565b60006101768261017d565b9050919050565b600073ffffffffffffffffffffffffffffffffffffffff82169050919050565b600080fd5b6101ab8161016b565b81146101b657600080fd5b50565b610b4d806101c86000396000f3fe608060405234801561001057600080fd5b50600436106100885760003560e01c80639d76ea581161005b5780639d76ea5814610103578063a653447014610121578063b16a867c1461012b578063bad4a01f1461014d57610088565b806302fb0c5e1461008d57806308551a53146100ab5780631c0ad646146100c9578063816b1e8f146100e7575b600080fd5b610095610169565b6040516100a29190610a6a565b60405180910390f35b6100b361017a565b6040516100c0919061099c565b60405180910390f35b6100d16101a0565b6040516100de919061099c565b60405180910390f35b61010160048036038101906100fc91906108a8565b6101c6565b005b61010b6103aa565b604051610118919061099c565b60405180910390f35b6101296103d0565b005b61013361056a565b6040516101449594939291906109b7565b60405180910390f35b61016760048036038101906101629190610915565b6106aa565b005b60008054906101000a900460ff1681565b600260009054906101000a900473ffffffffffffffffffffffffffffffffffffffff1681565b600060019054906101000a900473ffffffffffffffffffffffffffffffffffffffff1681565b6000600160009054906101000a900473ffffffffffffffffffffffffffffffffffffffff169050818173ffffffffffffffffffffffffffffffffffffffff166370a08231306040518263ffffffff1660e01b8152600401610227919061099c565b60206040518083038186803b15801561023f57600080fd5b505afa158015610253573d6000803e3d6000fd5b505050506040513d601f19601f820116820180604052508101906102779190610942565b101561028257600080fd5b818173ffffffffffffffffffffffffffffffffffffffff166370a08231856040518263ffffffff1660e01b81526004016102bc919061099c565b60206040518083038186803b1580156102d457600080fd5b505afa1580156102e8573d6000803e3d6000fd5b505050506040513d601f19601f8201168201806040525081019061030c9190610942565b101561031757600080fd5b8073ffffffffffffffffffffffffffffffffffffffff1663a9059cbb84846040518363ffffffff1660e01b8152600401610352929190610a41565b602060405180830381600087803b15801561036c57600080fd5b505af1158015610380573d6000803e3d6000fd5b505050506040513d601f19601f820116820180604052508101906103a491906108e8565b50505050565b600160009054906101000a900473ffffffffffffffffffffffffffffffffffffffff1681565b600260009054906101000a900473ffffffffffffffffffffffffffffffffffffffff1673ffffffffffffffffffffffffffffffffffffffff163373ffffffffffffffffffffffffffffffffffffffff161461042a57600080fd5b6000600160009054906101000a900473ffffffffffffffffffffffffffffffffffffffff1690508073ffffffffffffffffffffffffffffffffffffffff1663a9059cbb338373ffffffffffffffffffffffffffffffffffffffff166370a08231306040518263ffffffff1660e01b81526004016104a7919061099c565b60206040518083038186803b1580156104bf57600080fd5b505afa1580156104d3573d6000803e3d6000fd5b505050506040513d601f19601f820116820180604052508101906104f79190610942565b6040518363ffffffff1660e01b8152600401610514929190610a41565b602060405180830381600087803b15801561052e57600080fd5b505af1158015610542573d6000803e3d6000fd5b505050506040513d601f19601f8201168201806040525081019061056691906108e8565b5050565b600080600080600080600160009054906101000a900473ffffffffffffffffffffffffffffffffffffffff169050600060019054906101000a900473ffffffffffffffffffffffffffffffffffffffff16600160009054906101000a900473ffffffffffffffffffffffffffffffffffffffff16600260009054906101000a900473ffffffffffffffffffffffffffffffffffffffff168373ffffffffffffffffffffffffffffffffffffffff166370a08231306040518263ffffffff1660e01b815260040161063a919061099c565b60206040518083038186803b15801561065257600080fd5b505afa158015610666573d6000803e3d6000fd5b505050506040513d601f19601f8201168201806040525081019061068a9190610942565b60008054906101000a900460ff1695509550955095509550509091929394565b600260009054906101000a900473ffffffffffffffffffffffffffffffffffffffff1673ffffffffffffffffffffffffffffffffffffffff163373ffffffffffffffffffffffffffffffffffffffff161461070457600080fd5b6000600160009054906101000a900473ffffffffffffffffffffffffffffffffffffffff169050818173ffffffffffffffffffffffffffffffffffffffff166370a08231336040518263ffffffff1660e01b8152600401610765919061099c565b60206040518083038186803b15801561077d57600080fd5b505afa158015610791573d6000803e3d6000fd5b505050506040513d601f19601f820116820180604052508101906107b59190610942565b10156107c057600080fd5b8073ffffffffffffffffffffffffffffffffffffffff166323b872dd3330856040518463ffffffff1660e01b81526004016107fd93929190610a0a565b602060405180830381600087803b15801561081757600080fd5b505af115801561082b573d6000803e3d6000fd5b505050506040513d601f19601f8201168201806040525081019061084f91906108e8565b505050565b60008135905061086381610ad2565b92915050565b60008151905061087881610ae9565b92915050565b60008135905061088d81610b00565b92915050565b6000815190506108a281610b00565b92915050565b600080604083850312156108bf576108be610acd565b5b60006108cd85828601610854565b92505060206108de8582860161087e565b9150509250929050565b6000602082840312156108fe576108fd610acd565b5b600061090c84828501610869565b91505092915050565b60006020828403121561092b5761092a610acd565b5b60006109398482850161087e565b91505092915050565b60006020828403121561095857610957610acd565b5b600061096684828501610893565b91505092915050565b61097881610a85565b82525050565b61098781610a97565b82525050565b61099681610ac3565b82525050565b60006020820190506109b1600083018461096f565b92915050565b600060a0820190506109cc600083018861096f565b6109d9602083018761096f565b6109e6604083018661096f565b6109f3606083018561098d565b610a00608083018461097e565b9695505050505050565b6000606082019050610a1f600083018661096f565b610a2c602083018561096f565b610a39604083018461098d565b949350505050565b6000604082019050610a56600083018561096f565b610a63602083018461098d565b9392505050565b6000602082019050610a7f600083018461097e565b92915050565b6000610a9082610aa3565b9050919050565b60008115159050919050565b600073ffffffffffffffffffffffffffffffffffffffff82169050919050565b6000819050919050565b600080fd5b610adb81610a85565b8114610ae657600080fd5b50565b610af281610a97565b8114610afd57600080fd5b50565b610b0981610ac3565b8114610b1457600080fd5b5056fea2646970667358221220b18becc3081712b7e6d98f6c552915c6c9a6afc3aece013b9b163db95468b8d564736f6c63430008070033",
  "immutableReferences": {},
  "source": "// SPDX-License-Identifier: MIT\npragma solidity ^0.8.0;\n\nimport './ERC20.sol';\n\n/**\n * @title Offer\n * @dev Offer to sell something on Fidi.Cash\n */\ncontract Offer {\n  bool public active = true;\n\n  address public coreAddress;\n  address public tokenAddress;\n\n  address public seller;\n\n  modifier isActive() {\n    require(active);\n    _;\n  }\n\n  modifier sellerOnly() {\n    require(msg.sender == seller);\n    _;\n  }\n\n  constructor(address _tokenAddress, address _seller) {\n    coreAddress = msg.sender;\n    tokenAddress = _tokenAddress;\n    seller = _seller;\n  }\n\n  function depositCollateral(uint256 collateral) public sellerOnly {\n    ERC20 token = ERC20(tokenAddress);\n    require(token.balanceOf(msg.sender) >= collateral);\n    token.transferFrom(msg.sender, address(this), collateral);\n  }\n\n  function redeemCollateral() public sellerOnly {\n    ERC20 token = ERC20(tokenAddress);\n    token.transfer(msg.sender, token.balanceOf(address(this)));\n  }\n\n  function transferCollateral(address dealAddress, uint256 amount) public {\n    ERC20 token = ERC20(tokenAddress);\n    require(token.balanceOf(address(this)) >= amount);\n    require(token.balanceOf(dealAddress) >= amount);\n\n    token.transfer(dealAddress, amount);\n  }\n\n  function summary()\n    public\n    view\n    returns (\n      address,\n      address,\n      address,\n      uint256,\n      bool\n    )\n  {\n    ERC20 token = ERC20(tokenAddress);\n    return (\n      coreAddress,\n      tokenAddress,\n      seller,\n      token.balanceOf(address(this)),\n      active\n    );\n  }\n}\n",
  "sourcePath": "/Users/alex/projects/crypto/fidi.cash/contracts/contracts/Offer.sol",
  "compiler": {
    "name": "solc",
    "version": "0.8.7+commit.e28d00a7.Emscripten.clang"
  },
  "schemaVersion": "3.4.3",
  "updatedAt": "2021-11-28T10:38:53.085Z",
  "devdoc": {
    "details": "Offer to sell something on Fidi.Cash",
    "kind": "dev",
    "methods": {},
    "title": "Offer",
    "version": 1
  },
  "userdoc": {
    "kind": "user",
    "methods": {},
    "version": 1
  }
}