{
  "_format": "hh-sol-artifact-1",
  "contractName": "TokenCreator",
  "sourceName": "contracts/TokenCreator.sol",
  "abi": [
    {
      "anonymous": false,
      "inputs": [
        {
          "indexed": false,
          "internalType": "contract SimpleToken",
          "name": "SimpleToken",
          "type": "address"
        },
        {
          "indexed": false,
          "internalType": "address",
          "name": "owner",
          "type": "address"
        },
        {
          "indexed": false,
          "internalType": "uint256",
          "name": "initialSupply",
          "type": "uint256"
        },
        {
          "indexed": false,
          "internalType": "string",
          "name": "name",
          "type": "string"
        },
        {
          "indexed": false,
          "internalType": "string",
          "name": "symbol",
          "type": "string"
        }
      ],
      "name": "CreatedSimpleToken",
      "type": "event"
    },
    {
      "anonymous": false,
      "inputs": [
        {
          "indexed": true,
          "internalType": "address",
          "name": "previousOwner",
          "type": "address"
        },
        {
          "indexed": true,
          "internalType": "address",
          "name": "newOwner",
          "type": "address"
        }
      ],
      "name": "OwnershipTransferred",
      "type": "event"
    },
    {
      "inputs": [
        {
          "internalType": "uint256",
          "name": "initialSupply",
          "type": "uint256"
        },
        {
          "internalType": "string",
          "name": "name",
          "type": "string"
        },
        {
          "internalType": "string",
          "name": "symbol",
          "type": "string"
        }
      ],
      "name": "createSimpleToken",
      "outputs": [],
      "stateMutability": "nonpayable",
      "type": "function"
    },
    {
      "inputs": [
        {
          "internalType": "address",
          "name": "owner",
          "type": "address"
        }
      ],
      "name": "getTokensOfOwner",
      "outputs": [
        {
          "components": [
            {
              "internalType": "string",
              "name": "tokenName",
              "type": "string"
            },
            {
              "internalType": "string",
              "name": "tokenSymbol",
              "type": "string"
            },
            {
              "internalType": "uint256",
              "name": "tokenInitialSupply",
              "type": "uint256"
            },
            {
              "internalType": "string",
              "name": "tokenType",
              "type": "string"
            },
            {
              "internalType": "address",
              "name": "tokenAddress",
              "type": "address"
            }
          ],
          "internalType": "struct Token[]",
          "name": "contracts",
          "type": "tuple[]"
        }
      ],
      "stateMutability": "view",
      "type": "function"
    },
    {
      "inputs": [],
      "name": "owner",
      "outputs": [
        {
          "internalType": "address",
          "name": "",
          "type": "address"
        }
      ],
      "stateMutability": "view",
      "type": "function"
    },
    {
      "inputs": [],
      "name": "renounceOwnership",
      "outputs": [],
      "stateMutability": "nonpayable",
      "type": "function"
    },
    {
      "inputs": [
        {
          "internalType": "address",
          "name": "",
          "type": "address"
        },
        {
          "internalType": "uint256",
          "name": "",
          "type": "uint256"
        }
      ],
      "name": "tokensOfOwner",
      "outputs": [
        {
          "internalType": "string",
          "name": "tokenName",
          "type": "string"
        },
        {
          "internalType": "string",
          "name": "tokenSymbol",
          "type": "string"
        },
        {
          "internalType": "uint256",
          "name": "tokenInitialSupply",
          "type": "uint256"
        },
        {
          "internalType": "string",
          "name": "tokenType",
          "type": "string"
        },
        {
          "internalType": "address",
          "name": "tokenAddress",
          "type": "address"
        }
      ],
      "stateMutability": "view",
      "type": "function"
    },
    {
      "inputs": [
        {
          "internalType": "address",
          "name": "newOwner",
          "type": "address"
        }
      ],
      "name": "transferOwnership",
      "outputs": [],
      "stateMutability": "nonpayable",
      "type": "function"
    }
  ],
  "bytecode": "0x608060405234801561001057600080fd5b5061001a3361001f565b61006f565b600080546001600160a01b038381166001600160a01b0319831681178455604051919092169283917f8be0079c531659141344cd1fd0a4f28419497f9722a3daafe3b4186f6b6457e09190a35050565b611a158061007e6000396000f3fe60806040523480156200001157600080fd5b50600436106200006a5760003560e01c80635de6dc55146200006f57806368c179d0146200009e578063715018a614620000c85780638da5cb5b14620000d4578063b8a765ea14620000f0578063f2fde38b1462000107575b600080fd5b620000866200008036600462000973565b6200011e565b604051620000959190620009e8565b60405180910390f35b620000b5620000af36600462000ab0565b62000383565b6040516200009595949392919062000add565b620000d262000590565b005b6000546040516001600160a01b03909116815260200162000095565b620000d26200010136600462000be8565b620005fe565b620000d26200011836600462000973565b62000781565b6001600160a01b0381166000908152600260209081526040808320805482518185028101850190935280835260609492939192909184015b828210156200037857838290600052602060002090600502016040518060a00160405290816000820180546200018c9062000c5c565b80601f0160208091040260200160405190810160405280929190818152602001828054620001ba9062000c5c565b80156200020b5780601f10620001df576101008083540402835291602001916200020b565b820191906000526020600020905b815481529060010190602001808311620001ed57829003601f168201915b50505050508152602001600182018054620002269062000c5c565b80601f0160208091040260200160405190810160405280929190818152602001828054620002549062000c5c565b8015620002a55780601f106200027957610100808354040283529160200191620002a5565b820191906000526020600020905b8154815290600101906020018083116200028757829003601f168201915b5050505050815260200160028201548152602001600382018054620002ca9062000c5c565b80601f0160208091040260200160405190810160405280929190818152602001828054620002f89062000c5c565b8015620003495780601f106200031d5761010080835404028352916020019162000349565b820191906000526020600020905b8154815290600101906020018083116200032b57829003601f168201915b5050509183525050600491909101546001600160a01b0316602091820152908252600192909201910162000156565b505050509050919050565b60026020528160005260406000208181548110620003a057600080fd5b906000526020600020906005020160009150915050806000018054620003c69062000c5c565b80601f0160208091040260200160405190810160405280929190818152602001828054620003f49062000c5c565b8015620004455780601f10620004195761010080835404028352916020019162000445565b820191906000526020600020905b8154815290600101906020018083116200042757829003601f168201915b5050505050908060010180546200045c9062000c5c565b80601f01602080910402602001604051908101604052809291908181526020018280546200048a9062000c5c565b8015620004db5780601f10620004af57610100808354040283529160200191620004db565b820191906000526020600020905b815481529060010190602001808311620004bd57829003601f168201915b505050505090806002015490806003018054620004f89062000c5c565b80601f0160208091040260200160405190810160405280929190818152602001828054620005269062000c5c565b8015620005775780601f106200054b5761010080835404028352916020019162000577565b820191906000526020600020905b8154815290600101906020018083116200055957829003601f168201915b505050600490930154919250506001600160a01b031685565b6000546001600160a01b03163314620005f05760405162461bcd60e51b815260206004820181905260248201527f4f776e61626c653a2063616c6c6572206973206e6f7420746865206f776e657260448201526064015b60405180910390fd5b620005fc600062000852565b565b6000338484846040516200061290620008a2565b62000621949392919062000c99565b604051809103906000f0801580156200063e573d6000803e3d6000fd5b50336000908152600260209081526040808320815160a0810183528881528084018890528083018a90528251808401909352600b83526a29b4b6b83632aa37b5b2b760a91b8385015260608101929092526001600160a01b038516608083015280546001810182559084529282902081518051959650919460059094020192620006cc9284920190620008b0565b506020828101518051620006e79260018501920190620008b0565b5060408201516002820155606082015180516200070f916003840191602090910190620008b0565b5060809190910151600490910180546001600160a01b0319166001600160a01b039092169190911790556040517f36a87ad2165a536412a943aae5b54adcd38a12757284647fc34e308b78443bfd9062000773908390339088908890889062000ce1565b60405180910390a150505050565b6000546001600160a01b03163314620007dd5760405162461bcd60e51b815260206004820181905260248201527f4f776e61626c653a2063616c6c6572206973206e6f7420746865206f776e65726044820152606401620005e7565b6001600160a01b038116620008445760405162461bcd60e51b815260206004820152602660248201527f4f776e61626c653a206e6577206f776e657220697320746865207a65726f206160448201526564647265737360d01b6064820152608401620005e7565b6200084f8162000852565b50565b600080546001600160a01b038381166001600160a01b0319831681178455604051919092169283917f8be0079c531659141344cd1fd0a4f28419497f9722a3daafe3b4186f6b6457e09190a35050565b610ca98062000d3783390190565b828054620008be9062000c5c565b90600052602060002090601f016020900481019282620008e257600085556200092d565b82601f10620008fd57805160ff19168380011785556200092d565b828001600101855582156200092d579182015b828111156200092d57825182559160200191906001019062000910565b506200093b9291506200093f565b5090565b5b808211156200093b576000815560010162000940565b80356001600160a01b03811681146200096e57600080fd5b919050565b6000602082840312156200098657600080fd5b620009918262000956565b9392505050565b6000815180845260005b81811015620009c057602081850181015186830182015201620009a2565b81811115620009d3576000602083870101525b50601f01601f19169290920160200192915050565b60006020808301818452808551808352604092508286019150828160051b87010184880160005b8381101562000aa257603f19898403018552815160a0815181865262000a388287018262000998565b915050888201518582038a87015262000a52828262000998565b91505087820151888601526060808301518683038288015262000a76838262000998565b6080948501516001600160a01b0316979094019690965250509487019492509086019060010162000a0f565b509098975050505050505050565b6000806040838503121562000ac457600080fd5b62000acf8362000956565b946020939093013593505050565b60a08152600062000af260a083018862000998565b828103602084015262000b06818862000998565b9050856040840152828103606084015262000b22818662000998565b91505060018060a01b03831660808301529695505050505050565b634e487b7160e01b600052604160045260246000fd5b600082601f83011262000b6557600080fd5b813567ffffffffffffffff8082111562000b835762000b8362000b3d565b604051601f8301601f19908116603f0116810190828211818310171562000bae5762000bae62000b3d565b8160405283815286602085880101111562000bc857600080fd5b836020870160208301376000602085830101528094505050505092915050565b60008060006060848603121562000bfe57600080fd5b83359250602084013567ffffffffffffffff8082111562000c1e57600080fd5b62000c2c8783880162000b53565b9350604086013591508082111562000c4357600080fd5b5062000c528682870162000b53565b9150509250925092565b600181811c9082168062000c7157607f821691505b6020821081141562000c9357634e487b7160e01b600052602260045260246000fd5b50919050565b60018060a01b038516815283602082015260806040820152600062000cc2608083018562000998565b828103606084015262000cd6818562000998565b979650505050505050565b6001600160a01b038681168252851660208201526040810184905260a06060820181905260009062000d169083018562000998565b828103608084015262000d2a818562000998565b9897505050505050505056fe60806040523480156200001157600080fd5b5060405162000ca938038062000ca98339810160408190526200003491620002dd565b8151829082906200004d9060039060208501906200016a565b508051620000639060049060208401906200016a565b5050506200007884846200008260201b60201c565b50505050620003d5565b6001600160a01b038216620000dd5760405162461bcd60e51b815260206004820152601f60248201527f45524332303a206d696e7420746f20746865207a65726f206164647265737300604482015260640160405180910390fd5b8060026000828254620000f1919062000371565b90915550506001600160a01b038216600090815260208190526040812080548392906200012090849062000371565b90915550506040518181526001600160a01b038316906000907fddf252ad1be2c89b69c2b068fc378daa952ba7f163c4a11628f55a4df523b3ef9060200160405180910390a35050565b828054620001789062000398565b90600052602060002090601f0160209004810192826200019c5760008555620001e7565b82601f10620001b757805160ff1916838001178555620001e7565b82800160010185558215620001e7579182015b82811115620001e7578251825591602001919060010190620001ca565b50620001f5929150620001f9565b5090565b5b80821115620001f55760008155600101620001fa565b634e487b7160e01b600052604160045260246000fd5b600082601f8301126200023857600080fd5b81516001600160401b038082111562000255576200025562000210565b604051601f8301601f19908116603f0116810190828211818310171562000280576200028062000210565b816040528381526020925086838588010111156200029d57600080fd5b600091505b83821015620002c15785820183015181830184015290820190620002a2565b83821115620002d35760008385830101525b9695505050505050565b60008060008060808587031215620002f457600080fd5b84516001600160a01b03811681146200030c57600080fd5b6020860151604087015191955093506001600160401b03808211156200033157600080fd5b6200033f8883890162000226565b935060608701519150808211156200035657600080fd5b50620003658782880162000226565b91505092959194509250565b600082198211156200039357634e487b7160e01b600052601160045260246000fd5b500190565b600181811c90821680620003ad57607f821691505b60208210811415620003cf57634e487b7160e01b600052602260045260246000fd5b50919050565b6108c480620003e56000396000f3fe608060405234801561001057600080fd5b50600436106100a95760003560e01c80633950935111610071578063395093511461012357806370a082311461013657806395d89b411461015f578063a457c2d714610167578063a9059cbb1461017a578063dd62ed3e1461018d57600080fd5b806306fdde03146100ae578063095ea7b3146100cc57806318160ddd146100ef57806323b872dd14610101578063313ce56714610114575b600080fd5b6100b66101c6565b6040516100c39190610701565b60405180910390f35b6100df6100da366004610772565b610258565b60405190151581526020016100c3565b6002545b6040519081526020016100c3565b6100df61010f36600461079c565b61026e565b604051601281526020016100c3565b6100df610131366004610772565b61031d565b6100f36101443660046107d8565b6001600160a01b031660009081526020819052604090205490565b6100b6610359565b6100df610175366004610772565b610368565b6100df610188366004610772565b610401565b6100f361019b3660046107fa565b6001600160a01b03918216600090815260016020908152604080832093909416825291909152205490565b6060600380546101d59061082d565b80601f01602080910402602001604051908101604052809291908181526020018280546102019061082d565b801561024e5780601f106102235761010080835404028352916020019161024e565b820191906000526020600020905b81548152906001019060200180831161023157829003601f168201915b5050505050905090565b600061026533848461040e565b50600192915050565b600061027b848484610532565b6001600160a01b0384166000908152600160209081526040808320338452909152902054828110156103055760405162461bcd60e51b815260206004820152602860248201527f45524332303a207472616e7366657220616d6f756e74206578636565647320616044820152676c6c6f77616e636560c01b60648201526084015b60405180910390fd5b610312853385840361040e565b506001949350505050565b3360008181526001602090815260408083206001600160a01b03871684529091528120549091610265918590610354908690610868565b61040e565b6060600480546101d59061082d565b3360009081526001602090815260408083206001600160a01b0386168452909152812054828110156103ea5760405162461bcd60e51b815260206004820152602560248201527f45524332303a2064656372656173656420616c6c6f77616e63652062656c6f77604482015264207a65726f60d81b60648201526084016102fc565b6103f7338585840361040e565b5060019392505050565b6000610265338484610532565b6001600160a01b0383166104705760405162461bcd60e51b8152602060048201526024808201527f45524332303a20617070726f76652066726f6d20746865207a65726f206164646044820152637265737360e01b60648201526084016102fc565b6001600160a01b0382166104d15760405162461bcd60e51b815260206004820152602260248201527f45524332303a20617070726f766520746f20746865207a65726f206164647265604482015261737360f01b60648201526084016102fc565b6001600160a01b0383811660008181526001602090815260408083209487168084529482529182902085905590518481527f8c5be1e5ebec7d5bd14f71427d1e84f3dd0314c0f7b2291e5b200ac8c7c3b925910160405180910390a3505050565b6001600160a01b0383166105965760405162461bcd60e51b815260206004820152602560248201527f45524332303a207472616e736665722066726f6d20746865207a65726f206164604482015264647265737360d81b60648201526084016102fc565b6001600160a01b0382166105f85760405162461bcd60e51b815260206004820152602360248201527f45524332303a207472616e7366657220746f20746865207a65726f206164647260448201526265737360e81b60648201526084016102fc565b6001600160a01b038316600090815260208190526040902054818110156106705760405162461bcd60e51b815260206004820152602660248201527f45524332303a207472616e7366657220616d6f756e7420657863656564732062604482015265616c616e636560d01b60648201526084016102fc565b6001600160a01b038085166000908152602081905260408082208585039055918516815290812080548492906106a7908490610868565b92505081905550826001600160a01b0316846001600160a01b03167fddf252ad1be2c89b69c2b068fc378daa952ba7f163c4a11628f55a4df523b3ef846040516106f391815260200190565b60405180910390a350505050565b600060208083528351808285015260005b8181101561072e57858101830151858201604001528201610712565b81811115610740576000604083870101525b50601f01601f1916929092016040019392505050565b80356001600160a01b038116811461076d57600080fd5b919050565b6000806040838503121561078557600080fd5b61078e83610756565b946020939093013593505050565b6000806000606084860312156107b157600080fd5b6107ba84610756565b92506107c860208501610756565b9150604084013590509250925092565b6000602082840312156107ea57600080fd5b6107f382610756565b9392505050565b6000806040838503121561080d57600080fd5b61081683610756565b915061082460208401610756565b90509250929050565b600181811c9082168061084157607f821691505b6020821081141561086257634e487b7160e01b600052602260045260246000fd5b50919050565b6000821982111561088957634e487b7160e01b600052601160045260246000fd5b50019056fea2646970667358221220c3ed14375930222658e1220a979ffbdf2559f6e668758637ae862b8b6dbaba5364736f6c634300080a0033a2646970667358221220a17390d4e01228709e83bf0121fce67f305f2f75dbe98526a4b2c3f7f8059c8a64736f6c634300080a0033",
  "linkReferences": {},
  "deployedLinkReferences": {}
}