{
  "contractName": "Nftzi",
  "abi": [
    {
      "inputs": [],
      "stateMutability": "nonpayable",
      "type": "constructor"
    },
    {
      "anonymous": false,
      "inputs": [
        {
          "indexed": true,
          "internalType": "address",
          "name": "owner",
          "type": "address"
        },
        {
          "indexed": true,
          "internalType": "address",
          "name": "approved",
          "type": "address"
        },
        {
          "indexed": true,
          "internalType": "uint256",
          "name": "tokenId",
          "type": "uint256"
        }
      ],
      "name": "Approval",
      "type": "event"
    },
    {
      "anonymous": false,
      "inputs": [
        {
          "indexed": true,
          "internalType": "address",
          "name": "owner",
          "type": "address"
        },
        {
          "indexed": true,
          "internalType": "address",
          "name": "operator",
          "type": "address"
        },
        {
          "indexed": false,
          "internalType": "bool",
          "name": "approved",
          "type": "bool"
        }
      ],
      "name": "ApprovalForAll",
      "type": "event"
    },
    {
      "anonymous": false,
      "inputs": [
        {
          "indexed": true,
          "internalType": "address",
          "name": "from",
          "type": "address"
        },
        {
          "indexed": true,
          "internalType": "address",
          "name": "to",
          "type": "address"
        },
        {
          "indexed": true,
          "internalType": "uint256",
          "name": "tokenId",
          "type": "uint256"
        }
      ],
      "name": "Transfer",
      "type": "event"
    },
    {
      "inputs": [],
      "name": "_comission",
      "outputs": [
        {
          "internalType": "uint256",
          "name": "",
          "type": "uint256"
        }
      ],
      "stateMutability": "view",
      "type": "function",
      "constant": true
    },
    {
      "inputs": [
        {
          "internalType": "address",
          "name": "to",
          "type": "address"
        },
        {
          "internalType": "uint256",
          "name": "tokenId",
          "type": "uint256"
        }
      ],
      "name": "approve",
      "outputs": [],
      "stateMutability": "nonpayable",
      "type": "function"
    },
    {
      "inputs": [
        {
          "internalType": "address",
          "name": "owner",
          "type": "address"
        }
      ],
      "name": "balanceOf",
      "outputs": [
        {
          "internalType": "uint256",
          "name": "",
          "type": "uint256"
        }
      ],
      "stateMutability": "view",
      "type": "function",
      "constant": true
    },
    {
      "inputs": [
        {
          "internalType": "uint256",
          "name": "tokenId",
          "type": "uint256"
        }
      ],
      "name": "getApproved",
      "outputs": [
        {
          "internalType": "address",
          "name": "",
          "type": "address"
        }
      ],
      "stateMutability": "view",
      "type": "function",
      "constant": true
    },
    {
      "inputs": [
        {
          "internalType": "address",
          "name": "owner",
          "type": "address"
        },
        {
          "internalType": "address",
          "name": "operator",
          "type": "address"
        }
      ],
      "name": "isApprovedForAll",
      "outputs": [
        {
          "internalType": "bool",
          "name": "",
          "type": "bool"
        }
      ],
      "stateMutability": "view",
      "type": "function",
      "constant": true
    },
    {
      "inputs": [],
      "name": "name",
      "outputs": [
        {
          "internalType": "string",
          "name": "",
          "type": "string"
        }
      ],
      "stateMutability": "view",
      "type": "function",
      "constant": true
    },
    {
      "inputs": [
        {
          "internalType": "uint256",
          "name": "tokenId",
          "type": "uint256"
        }
      ],
      "name": "ownerOf",
      "outputs": [
        {
          "internalType": "address",
          "name": "",
          "type": "address"
        }
      ],
      "stateMutability": "view",
      "type": "function",
      "constant": true
    },
    {
      "inputs": [],
      "name": "rentPriceCelo",
      "outputs": [
        {
          "internalType": "uint256",
          "name": "",
          "type": "uint256"
        }
      ],
      "stateMutability": "view",
      "type": "function",
      "constant": true
    },
    {
      "inputs": [
        {
          "internalType": "address",
          "name": "from",
          "type": "address"
        },
        {
          "internalType": "address",
          "name": "to",
          "type": "address"
        },
        {
          "internalType": "uint256",
          "name": "tokenId",
          "type": "uint256"
        }
      ],
      "name": "safeTransferFrom",
      "outputs": [],
      "stateMutability": "nonpayable",
      "type": "function"
    },
    {
      "inputs": [
        {
          "internalType": "address",
          "name": "from",
          "type": "address"
        },
        {
          "internalType": "address",
          "name": "to",
          "type": "address"
        },
        {
          "internalType": "uint256",
          "name": "tokenId",
          "type": "uint256"
        },
        {
          "internalType": "bytes",
          "name": "_data",
          "type": "bytes"
        }
      ],
      "name": "safeTransferFrom",
      "outputs": [],
      "stateMutability": "nonpayable",
      "type": "function"
    },
    {
      "inputs": [
        {
          "internalType": "address",
          "name": "operator",
          "type": "address"
        },
        {
          "internalType": "bool",
          "name": "approved",
          "type": "bool"
        }
      ],
      "name": "setApprovalForAll",
      "outputs": [],
      "stateMutability": "nonpayable",
      "type": "function"
    },
    {
      "inputs": [
        {
          "internalType": "bytes4",
          "name": "interfaceId",
          "type": "bytes4"
        }
      ],
      "name": "supportsInterface",
      "outputs": [
        {
          "internalType": "bool",
          "name": "",
          "type": "bool"
        }
      ],
      "stateMutability": "view",
      "type": "function",
      "constant": true
    },
    {
      "inputs": [],
      "name": "symbol",
      "outputs": [
        {
          "internalType": "string",
          "name": "",
          "type": "string"
        }
      ],
      "stateMutability": "view",
      "type": "function",
      "constant": true
    },
    {
      "inputs": [
        {
          "internalType": "address",
          "name": "from",
          "type": "address"
        },
        {
          "internalType": "address",
          "name": "to",
          "type": "address"
        },
        {
          "internalType": "uint256",
          "name": "tokenId",
          "type": "uint256"
        }
      ],
      "name": "transferFrom",
      "outputs": [],
      "stateMutability": "nonpayable",
      "type": "function"
    },
    {
      "inputs": [
        {
          "internalType": "uint256",
          "name": "tokenId",
          "type": "uint256"
        }
      ],
      "name": "tokenURI",
      "outputs": [
        {
          "internalType": "string",
          "name": "",
          "type": "string"
        }
      ],
      "stateMutability": "view",
      "type": "function",
      "constant": true
    },
    {
      "inputs": [],
      "name": "tokensInfo",
      "outputs": [
        {
          "components": [
            {
              "internalType": "uint256",
              "name": "tokenId",
              "type": "uint256"
            },
            {
              "internalType": "string",
              "name": "URI",
              "type": "string"
            },
            {
              "internalType": "address",
              "name": "creator",
              "type": "address"
            },
            {
              "internalType": "uint256",
              "name": "rentedAt",
              "type": "uint256"
            },
            {
              "internalType": "address",
              "name": "rentedBy",
              "type": "address"
            },
            {
              "internalType": "uint256",
              "name": "balance",
              "type": "uint256"
            }
          ],
          "internalType": "struct Nftzi.TokenInfoStruct[]",
          "name": "",
          "type": "tuple[]"
        }
      ],
      "stateMutability": "view",
      "type": "function",
      "constant": true
    },
    {
      "inputs": [
        {
          "internalType": "uint256",
          "name": "tokenId",
          "type": "uint256"
        }
      ],
      "name": "rent",
      "outputs": [],
      "stateMutability": "nonpayable",
      "type": "function"
    },
    {
      "inputs": [
        {
          "internalType": "uint256",
          "name": "tokenId",
          "type": "uint256"
        }
      ],
      "name": "redeem",
      "outputs": [],
      "stateMutability": "nonpayable",
      "type": "function"
    },
    {
      "inputs": [
        {
          "internalType": "string",
          "name": "_tokenURI",
          "type": "string"
        },
        {
          "internalType": "address",
          "name": "rent_token_address",
          "type": "address"
        }
      ],
      "name": "safeMint",
      "outputs": [],
      "stateMutability": "nonpayable",
      "type": "function"
    }
  ],
  "bytecode": "0x6080604052670de0b6b3a7640000600655662386f26fc100006007553480156200002857600080fd5b506040518060400160405280600581526020017f4e66747a690000000000000000000000000000000000000000000000000000008152506040518060400160405280600481526020017f4e46545a000000000000000000000000000000000000000000000000000000008152508160009080519060200190620000ad9291906200011a565b508060019080519060200190620000c69291906200011a565b50505042600881905550620000e7600a6200010460201b620016221760201c565b620000fe600b6200010460201b620016221760201c565b6200022f565b6001816000016000828254019250508190555050565b8280546200012890620001f9565b90600052602060002090601f0160209004810192826200014c576000855562000198565b82601f106200016757805160ff191683800117855562000198565b8280016001018555821562000198579182015b82811115620001975782518255916020019190600101906200017a565b5b509050620001a79190620001ab565b5090565b5b80821115620001c6576000816000905550600101620001ac565b5090565b7f4e487b7100000000000000000000000000000000000000000000000000000000600052602260045260246000fd5b600060028204905060018216806200021257607f821691505b60208210811415620002295762000228620001ca565b5b50919050565b613c3e806200023f6000396000f3fe608060405234801561001057600080fd5b50600436106101215760003560e01c80637456be7d116100ad578063c6f0577111610071578063c6f0577114610306578063c87b56dd14610322578063db006a7514610352578063e79c28fe1461036e578063e985e9c51461038c57610121565b80637456be7d1461027657806395d89b4114610292578063a22cb465146102b0578063a69bd72c146102cc578063b88d4fde146102ea57610121565b8063095ea7b3116100f4578063095ea7b3146101c257806323b872dd146101de57806342842e0e146101fa5780636352211e1461021657806370a082311461024657610121565b806301ffc9a71461012657806306ef93ad1461015657806306fdde0314610174578063081812fc14610192575b600080fd5b610140600480360381019061013b919061268c565b6103bc565b60405161014d91906126d4565b60405180910390f35b61015e61049e565b60405161016b9190612708565b60405180910390f35b61017c6104a4565b60405161018991906127bc565b60405180910390f35b6101ac60048036038101906101a7919061280a565b610536565b6040516101b99190612878565b60405180910390f35b6101dc60048036038101906101d791906128bf565b6105bb565b005b6101f860048036038101906101f391906128ff565b6106d3565b005b610214600480360381019061020f91906128ff565b610733565b005b610230600480360381019061022b919061280a565b610753565b60405161023d9190612878565b60405180910390f35b610260600480360381019061025b9190612952565b610805565b60405161026d9190612708565b60405180910390f35b610290600480360381019061028b919061280a565b6108bd565b005b61029a610bcf565b6040516102a791906127bc565b60405180910390f35b6102ca60048036038101906102c591906129ab565b610c61565b005b6102d4610de2565b6040516102e19190612708565b60405180910390f35b61030460048036038101906102ff9190612b20565b610de8565b005b610320600480360381019061031b9190612c44565b610e4a565b005b61033c6004803603810190610337919061280a565b610f35565b60405161034991906127bc565b60405180910390f35b61036c6004803603810190610367919061280a565b611028565b005b610376611328565b6040516103839190612e53565b60405180910390f35b6103a660048036038101906103a19190612e75565b61158e565b6040516103b391906126d4565b60405180910390f35b60007f80ac58cd000000000000000000000000000000000000000000000000000000007bffffffffffffffffffffffffffffffffffffffffffffffffffffffff1916827bffffffffffffffffffffffffffffffffffffffffffffffffffffffff1916148061048757507f5b5e139f000000000000000000000000000000000000000000000000000000007bffffffffffffffffffffffffffffffffffffffffffffffffffffffff1916827bffffffffffffffffffffffffffffffffffffffffffffffffffffffff1916145b80610497575061049682611638565b5b9050919050565b60075481565b6060600080546104b390612ee4565b80601f01602080910402602001604051908101604052809291908181526020018280546104df90612ee4565b801561052c5780601f106105015761010080835404028352916020019161052c565b820191906000526020600020905b81548152906001019060200180831161050f57829003601f168201915b5050505050905090565b6000610541826116a2565b610580576040517f08c379a000000000000000000000000000000000000000000000000000000000815260040161057790612f88565b60405180910390fd5b6004600083815260200190815260200160002060009054906101000a900473ffffffffffffffffffffffffffffffffffffffff169050919050565b60006105c682610753565b90508073ffffffffffffffffffffffffffffffffffffffff168373ffffffffffffffffffffffffffffffffffffffff161415610637576040517f08c379a000000000000000000000000000000000000000000000000000000000815260040161062e9061301a565b60405180910390fd5b8073ffffffffffffffffffffffffffffffffffffffff1661065661170e565b73ffffffffffffffffffffffffffffffffffffffff16148061068557506106848161067f61170e565b61158e565b5b6106c4576040517f08c379a00000000000000000000000000000000000000000000000000000000081526004016106bb906130ac565b60405180910390fd5b6106ce8383611716565b505050565b6106e46106de61170e565b826117cf565b610723576040517f08c379a000000000000000000000000000000000000000000000000000000000815260040161071a9061313e565b60405180910390fd5b61072e838383611889565b505050565b61074e83838360405180602001604052806000815250610de8565b505050565b6000806002600084815260200190815260200160002060009054906101000a900473ffffffffffffffffffffffffffffffffffffffff169050600073ffffffffffffffffffffffffffffffffffffffff168173ffffffffffffffffffffffffffffffffffffffff1614156107fc576040517f08c379a00000000000000000000000000000000000000000000000000000000081526004016107f3906131d0565b60405180910390fd5b80915050919050565b60008073ffffffffffffffffffffffffffffffffffffffff168273ffffffffffffffffffffffffffffffffffffffff161415610876576040517f08c379a000000000000000000000000000000000000000000000000000000000815260040161086d90613262565b60405180910390fd5b600360008373ffffffffffffffffffffffffffffffffffffffff1673ffffffffffffffffffffffffffffffffffffffff168152602001908152602001600020549050919050565b6108c6816116a2565b610905576040517f08c379a00000000000000000000000000000000000000000000000000000000081526004016108fc906132f4565b60405180910390fd5b6000600f600083815260200190815260200160002060009054906101000a900473ffffffffffffffffffffffffffffffffffffffff1690506006548173ffffffffffffffffffffffffffffffffffffffff166370a08231336040518263ffffffff1660e01b81526004016109799190612878565b602060405180830381865afa158015610996573d6000803e3d6000fd5b505050506040513d601f19601f820116820180604052508101906109ba9190613329565b10156109c557600080fd5b8073ffffffffffffffffffffffffffffffffffffffff166323b872dd33306006546040518463ffffffff1660e01b8152600401610a0493929190613356565b6020604051808303816000875af1158015610a23573d6000803e3d6000fd5b505050506040513d601f19601f82011682018060405250810190610a4791906133a2565b50600754600654610a5891906133fe565b600e60008481526020019081526020016000206000828254610a7a9190613432565b925050819055506000610a8d600b611ae5565b905060405180606001604052804281526020018481526020013373ffffffffffffffffffffffffffffffffffffffff1681525060106000838152602001908152602001600020600082015181600001556020820151816001015560408201518160020160006101000a81548173ffffffffffffffffffffffffffffffffffffffff021916908373ffffffffffffffffffffffffffffffffffffffff160217905550905050610b7f600d600085815260200190815260200160002060009054906101000a900473ffffffffffffffffffffffffffffffffffffffff16338560405180602001604052806000815250611af3565b6009819080600181540180825580915050600190039060005260206000200160009091909190915055806011600085815260200190815260200160002081905550610bca600b611622565b505050565b606060018054610bde90612ee4565b80601f0160208091040260200160405190810160405280929190818152602001828054610c0a90612ee4565b8015610c575780601f10610c2c57610100808354040283529160200191610c57565b820191906000526020600020905b815481529060010190602001808311610c3a57829003601f168201915b5050505050905090565b610c6961170e565b73ffffffffffffffffffffffffffffffffffffffff168273ffffffffffffffffffffffffffffffffffffffff161415610cd7576040517f08c379a0000000000000000000000000000000000000000000000000000000008152600401610cce906134d4565b60405180910390fd5b8060056000610ce461170e565b73ffffffffffffffffffffffffffffffffffffffff1673ffffffffffffffffffffffffffffffffffffffff16815260200190815260200160002060008473ffffffffffffffffffffffffffffffffffffffff1673ffffffffffffffffffffffffffffffffffffffff16815260200190815260200160002060006101000a81548160ff0219169083151502179055508173ffffffffffffffffffffffffffffffffffffffff16610d9161170e565b73ffffffffffffffffffffffffffffffffffffffff167f17307eab39ab6107e8899845ad3d59bd9653f200f220920489ca2b5937696c3183604051610dd691906126d4565b60405180910390a35050565b60065481565b610df9610df361170e565b836117cf565b610e38576040517f08c379a0000000000000000000000000000000000000000000000000000000008152600401610e2f9061313e565b60405180910390fd5b610e4484848484611af3565b50505050565b610e52611b4f565b6000610e5e600a611ae5565b9050610e6a600a611622565b610e7b610e7561170e565b82611b60565b610e858184611b7e565b610e8d61170e565b600d600083815260200190815260200160002060006101000a81548173ffffffffffffffffffffffffffffffffffffffff021916908373ffffffffffffffffffffffffffffffffffffffff16021790555081600f600083815260200190815260200160002060006101000a81548173ffffffffffffffffffffffffffffffffffffffff021916908373ffffffffffffffffffffffffffffffffffffffff160217905550505050565b6060610f40826116a2565b610f7f576040517f08c379a0000000000000000000000000000000000000000000000000000000008152600401610f7690613566565b60405180910390fd5b6000600c60008481526020019081526020016000208054610f9f90612ee4565b80601f0160208091040260200160405190810160405280929190818152602001828054610fcb90612ee4565b80156110185780601f10610fed57610100808354040283529160200191611018565b820191906000526020600020905b815481529060010190602001808311610ffb57829003601f168201915b5050505050905080915050919050565b42600881905550611038816116a2565b611077576040517f08c379a000000000000000000000000000000000000000000000000000000000815260040161106e906132f4565b60405180910390fd5b600d600082815260200190815260200160002060009054906101000a900473ffffffffffffffffffffffffffffffffffffffff1673ffffffffffffffffffffffffffffffffffffffff163373ffffffffffffffffffffffffffffffffffffffff1614611118576040517f08c379a000000000000000000000000000000000000000000000000000000000815260040161110f906135f8565b60405180910390fd5b6000603c600e60008481526020019081526020016000205461113a9190613647565b9050600060106000601160008681526020019081526020016000205481526020019081526020016000206000015460085461117591906133fe565b9050600081836111859190613678565b90506000600f600086815260200190815260200160002060009054906101000a900473ffffffffffffffffffffffffffffffffffffffff169050818173ffffffffffffffffffffffffffffffffffffffff166370a08231306040518263ffffffff1660e01b81526004016111f99190612878565b602060405180830381865afa158015611216573d6000803e3d6000fd5b505050506040513d601f19601f8201168201806040525081019061123a9190613329565b101561124557600080fd5b8073ffffffffffffffffffffffffffffffffffffffff1663a9059cbb600d600088815260200190815260200160002060009054906101000a900473ffffffffffffffffffffffffffffffffffffffff16846040518363ffffffff1660e01b81526004016112b39291906136d2565b6020604051808303816000875af11580156112d2573d6000803e3d6000fd5b505050506040513d601f19601f820116820180604052508101906112f691906133a2565b5081600e6000878152602001908152602001600020600082825461131a91906133fe565b925050819055505050505050565b6060806000611337600a611ae5565b90506000811115611586578067ffffffffffffffff81111561135c5761135b6129f5565b5b60405190808252806020026020018201604052801561139557816020015b61138261251b565b81526020019060019003908161137a5790505b5091506000600190505b81811015611584576040518060c00160405280828152602001600c600084815260200190815260200160002080546113d690612ee4565b80601f016020809104026020016040519081016040528092919081815260200182805461140290612ee4565b801561144f5780601f106114245761010080835404028352916020019161144f565b820191906000526020600020905b81548152906001019060200180831161143257829003601f168201915b50505050508152602001600d600084815260200190815260200160002060009054906101000a900473ffffffffffffffffffffffffffffffffffffffff1673ffffffffffffffffffffffffffffffffffffffff1681526020016010600060116000868152602001908152602001600020548152602001908152602001600020600001548152602001601060006011600086815260200190815260200160002054815260200190815260200160002060020160009054906101000a900473ffffffffffffffffffffffffffffffffffffffff1673ffffffffffffffffffffffffffffffffffffffff168152602001600e600084815260200190815260200160002054815250838281518110611566576115656136fb565b5b6020026020010181905250808061157c9061372a565b91505061139f565b505b819250505090565b6000600560008473ffffffffffffffffffffffffffffffffffffffff1673ffffffffffffffffffffffffffffffffffffffff16815260200190815260200160002060008373ffffffffffffffffffffffffffffffffffffffff1673ffffffffffffffffffffffffffffffffffffffff16815260200190815260200160002060009054906101000a900460ff16905092915050565b6001816000016000828254019250508190555050565b60007f01ffc9a7000000000000000000000000000000000000000000000000000000007bffffffffffffffffffffffffffffffffffffffffffffffffffffffff1916827bffffffffffffffffffffffffffffffffffffffffffffffffffffffff1916149050919050565b60008073ffffffffffffffffffffffffffffffffffffffff166002600084815260200190815260200160002060009054906101000a900473ffffffffffffffffffffffffffffffffffffffff1673ffffffffffffffffffffffffffffffffffffffff1614159050919050565b600033905090565b816004600083815260200190815260200160002060006101000a81548173ffffffffffffffffffffffffffffffffffffffff021916908373ffffffffffffffffffffffffffffffffffffffff160217905550808273ffffffffffffffffffffffffffffffffffffffff1661178983610753565b73ffffffffffffffffffffffffffffffffffffffff167f8c5be1e5ebec7d5bd14f71427d1e84f3dd0314c0f7b2291e5b200ac8c7c3b92560405160405180910390a45050565b60006117da826116a2565b611819576040517f08c379a0000000000000000000000000000000000000000000000000000000008152600401611810906137e5565b60405180910390fd5b6000600d600084815260200190815260200160002060009054906101000a900473ffffffffffffffffffffffffffffffffffffffff1690508073ffffffffffffffffffffffffffffffffffffffff168473ffffffffffffffffffffffffffffffffffffffff161491505092915050565b8273ffffffffffffffffffffffffffffffffffffffff166118a982610753565b73ffffffffffffffffffffffffffffffffffffffff16146118ff576040517f08c379a00000000000000000000000000000000000000000000000000000000081526004016118f690613877565b60405180910390fd5b600073ffffffffffffffffffffffffffffffffffffffff168273ffffffffffffffffffffffffffffffffffffffff16141561196f576040517f08c379a000000000000000000000000000000000000000000000000000000000815260040161196690613909565b60405180910390fd5b61197a838383611bf2565b611985600082611716565b6001600360008573ffffffffffffffffffffffffffffffffffffffff1673ffffffffffffffffffffffffffffffffffffffff16815260200190815260200160002060008282546119d591906133fe565b925050819055506001600360008473ffffffffffffffffffffffffffffffffffffffff1673ffffffffffffffffffffffffffffffffffffffff1681526020019081526020016000206000828254611a2c9190613432565b92505081905550816002600083815260200190815260200160002060006101000a81548173ffffffffffffffffffffffffffffffffffffffff021916908373ffffffffffffffffffffffffffffffffffffffff160217905550808273ffffffffffffffffffffffffffffffffffffffff168473ffffffffffffffffffffffffffffffffffffffff167fddf252ad1be2c89b69c2b068fc378daa952ba7f163c4a11628f55a4df523b3ef60405160405180910390a4505050565b600081600001549050919050565b611afe848484611889565b611b0a84848484611bf7565b611b49576040517f08c379a0000000000000000000000000000000000000000000000000000000008152600401611b409061399b565b60405180910390fd5b50505050565b42600881905550611b5e611d7f565b565b611b7a8282604051806020016040528060008152506120b9565b5050565b611b87826116a2565b611bc6576040517f08c379a0000000000000000000000000000000000000000000000000000000008152600401611bbd90613a2d565b60405180910390fd5b80600c60008481526020019081526020016000209080519060200190611bed92919061257d565b505050565b505050565b6000611c188473ffffffffffffffffffffffffffffffffffffffff16612114565b15611d72578373ffffffffffffffffffffffffffffffffffffffff1663150b7a02611c4161170e565b8786866040518563ffffffff1660e01b8152600401611c639493929190613aa2565b6020604051808303816000875af1925050508015611c9f57506040513d601f19601f82011682018060405250810190611c9c9190613b03565b60015b611d22573d8060008114611ccf576040519150601f19603f3d011682016040523d82523d6000602084013e611cd4565b606091505b50600081511415611d1a576040517f08c379a0000000000000000000000000000000000000000000000000000000008152600401611d119061399b565b60405180910390fd5b805181602001fd5b63150b7a0260e01b7bffffffffffffffffffffffffffffffffffffffffffffffffffffffff1916817bffffffffffffffffffffffffffffffffffffffffffffffffffffffff191614915050611d77565b600190505b949350505050565b600060098054905067ffffffffffffffff811115611da057611d9f6129f5565b5b604051908082528060200260200182016040528015611dce5781602001602082028036833780820191505090505b50905060005b600980549050811015611efd5760006010600060098481548110611dfb57611dfa6136fb565b5b9060005260206000200154815260200190815260200160002060405180606001604052908160008201548152602001600182015481526020016002820160009054906101000a900473ffffffffffffffffffffffffffffffffffffffff1673ffffffffffffffffffffffffffffffffffffffff1673ffffffffffffffffffffffffffffffffffffffff16815250509050603c8160000151600854611e9f91906133fe565b1015611eab5750611efd565b60098281548110611ebf57611ebe6136fb565b5b9060005260206000200154838381518110611edd57611edc6136fb565b5b602002602001018181525050508080611ef59061372a565b915050611dd4565b5060005b81518110156120b5576000828281518110611f1f57611f1e6136fb565b5b602002602001015111156120a257600060106000848481518110611f4657611f456136fb565b5b6020026020010151815260200190815260200160002060405180606001604052908160008201548152602001600182015481526020016002820160009054906101000a900473ffffffffffffffffffffffffffffffffffffffff1673ffffffffffffffffffffffffffffffffffffffff1673ffffffffffffffffffffffffffffffffffffffff16815250509050611fe581602001518260400151612127565b60106000848481518110611ffc57611ffb6136fb565b5b6020026020010151815260200190815260200160002060008082016000905560018201600090556002820160006101000a81549073ffffffffffffffffffffffffffffffffffffffff021916905550506009600081548110612061576120606136fb565b5b906000526020600020016000905560116000848481518110612086576120856136fb565b5b6020026020010151815260200190815260200160002060009055505b80806120ad9061372a565b915050611f01565b5050565b6120c3838361234d565b6120d06000848484611bf7565b61210f576040517f08c379a00000000000000000000000000000000000000000000000000000000081526004016121069061399b565b60405180910390fd5b505050565b600080823b905060008111915050919050565b6000600f600084815260200190815260200160002060009054906101000a900473ffffffffffffffffffffffffffffffffffffffff169050600e6000848152602001908152602001600020548173ffffffffffffffffffffffffffffffffffffffff166370a08231306040518263ffffffff1660e01b81526004016121ac9190612878565b602060405180830381865afa1580156121c9573d6000803e3d6000fd5b505050506040513d601f19601f820116820180604052508101906121ed9190613329565b10156121f857600080fd5b8073ffffffffffffffffffffffffffffffffffffffff1663a9059cbb600d600086815260200190815260200160002060009054906101000a900473ffffffffffffffffffffffffffffffffffffffff16600e6000878152602001908152602001600020546040518363ffffffff1660e01b81526004016122799291906136d2565b6020604051808303816000875af1158015612298573d6000803e3d6000fd5b505050506040513d601f19601f820116820180604052508101906122bc91906133a2565b50600e600084815260200190815260200160002054600e600085815260200190815260200160002060008282546122f391906133fe565b9250508190555061234882600d600086815260200190815260200160002060009054906101000a900473ffffffffffffffffffffffffffffffffffffffff168560405180602001604052806000815250611af3565b505050565b600073ffffffffffffffffffffffffffffffffffffffff168273ffffffffffffffffffffffffffffffffffffffff1614156123bd576040517f08c379a00000000000000000000000000000000000000000000000000000000081526004016123b490613b7c565b60405180910390fd5b6123c6816116a2565b15612406576040517f08c379a00000000000000000000000000000000000000000000000000000000081526004016123fd90613be8565b60405180910390fd5b61241260008383611bf2565b6001600360008473ffffffffffffffffffffffffffffffffffffffff1673ffffffffffffffffffffffffffffffffffffffff16815260200190815260200160002060008282546124629190613432565b92505081905550816002600083815260200190815260200160002060006101000a81548173ffffffffffffffffffffffffffffffffffffffff021916908373ffffffffffffffffffffffffffffffffffffffff160217905550808273ffffffffffffffffffffffffffffffffffffffff16600073ffffffffffffffffffffffffffffffffffffffff167fddf252ad1be2c89b69c2b068fc378daa952ba7f163c4a11628f55a4df523b3ef60405160405180910390a45050565b6040518060c001604052806000815260200160608152602001600073ffffffffffffffffffffffffffffffffffffffff16815260200160008152602001600073ffffffffffffffffffffffffffffffffffffffff168152602001600081525090565b82805461258990612ee4565b90600052602060002090601f0160209004810192826125ab57600085556125f2565b82601f106125c457805160ff19168380011785556125f2565b828001600101855582156125f2579182015b828111156125f15782518255916020019190600101906125d6565b5b5090506125ff9190612603565b5090565b5b8082111561261c576000816000905550600101612604565b5090565b6000604051905090565b600080fd5b600080fd5b60007fffffffff0000000000000000000000000000000000000000000000000000000082169050919050565b61266981612634565b811461267457600080fd5b50565b60008135905061268681612660565b92915050565b6000602082840312156126a2576126a161262a565b5b60006126b084828501612677565b91505092915050565b60008115159050919050565b6126ce816126b9565b82525050565b60006020820190506126e960008301846126c5565b92915050565b6000819050919050565b612702816126ef565b82525050565b600060208201905061271d60008301846126f9565b92915050565b600081519050919050565b600082825260208201905092915050565b60005b8381101561275d578082015181840152602081019050612742565b8381111561276c576000848401525b50505050565b6000601f19601f8301169050919050565b600061278e82612723565b612798818561272e565b93506127a881856020860161273f565b6127b181612772565b840191505092915050565b600060208201905081810360008301526127d68184612783565b905092915050565b6127e7816126ef565b81146127f257600080fd5b50565b600081359050612804816127de565b92915050565b6000602082840312156128205761281f61262a565b5b600061282e848285016127f5565b91505092915050565b600073ffffffffffffffffffffffffffffffffffffffff82169050919050565b600061286282612837565b9050919050565b61287281612857565b82525050565b600060208201905061288d6000830184612869565b92915050565b61289c81612857565b81146128a757600080fd5b50565b6000813590506128b981612893565b92915050565b600080604083850312156128d6576128d561262a565b5b60006128e4858286016128aa565b92505060206128f5858286016127f5565b9150509250929050565b6000806000606084860312156129185761291761262a565b5b6000612926868287016128aa565b9350506020612937868287016128aa565b9250506040612948868287016127f5565b9150509250925092565b6000602082840312156129685761296761262a565b5b6000612976848285016128aa565b91505092915050565b612988816126b9565b811461299357600080fd5b50565b6000813590506129a58161297f565b92915050565b600080604083850312156129c2576129c161262a565b5b60006129d0858286016128aa565b92505060206129e185828601612996565b9150509250929050565b600080fd5b600080fd5b7f4e487b7100000000000000000000000000000000000000000000000000000000600052604160045260246000fd5b612a2d82612772565b810181811067ffffffffffffffff82111715612a4c57612a4b6129f5565b5b80604052505050565b6000612a5f612620565b9050612a6b8282612a24565b919050565b600067ffffffffffffffff821115612a8b57612a8a6129f5565b5b612a9482612772565b9050602081019050919050565b82818337600083830152505050565b6000612ac3612abe84612a70565b612a55565b905082815260208101848484011115612adf57612ade6129f0565b5b612aea848285612aa1565b509392505050565b600082601f830112612b0757612b066129eb565b5b8135612b17848260208601612ab0565b91505092915050565b60008060008060808587031215612b3a57612b3961262a565b5b6000612b48878288016128aa565b9450506020612b59878288016128aa565b9350506040612b6a878288016127f5565b925050606085013567ffffffffffffffff811115612b8b57612b8a61262f565b5b612b9787828801612af2565b91505092959194509250565b600067ffffffffffffffff821115612bbe57612bbd6129f5565b5b612bc782612772565b9050602081019050919050565b6000612be7612be284612ba3565b612a55565b905082815260208101848484011115612c0357612c026129f0565b5b612c0e848285612aa1565b509392505050565b600082601f830112612c2b57612c2a6129eb565b5b8135612c3b848260208601612bd4565b91505092915050565b60008060408385031215612c5b57612c5a61262a565b5b600083013567ffffffffffffffff811115612c7957612c7861262f565b5b612c8585828601612c16565b9250506020612c96858286016128aa565b9150509250929050565b600081519050919050565b600082825260208201905092915050565b6000819050602082019050919050565b612cd5816126ef565b82525050565b600082825260208201905092915050565b6000612cf782612723565b612d018185612cdb565b9350612d1181856020860161273f565b612d1a81612772565b840191505092915050565b612d2e81612857565b82525050565b600060c083016000830151612d4c6000860182612ccc565b5060208301518482036020860152612d648282612cec565b9150506040830151612d796040860182612d25565b506060830151612d8c6060860182612ccc565b506080830151612d9f6080860182612d25565b5060a0830151612db260a0860182612ccc565b508091505092915050565b6000612dc98383612d34565b905092915050565b6000602082019050919050565b6000612de982612ca0565b612df38185612cab565b935083602082028501612e0585612cbc565b8060005b85811015612e415784840389528151612e228582612dbd565b9450612e2d83612dd1565b925060208a01995050600181019050612e09565b50829750879550505050505092915050565b60006020820190508181036000830152612e6d8184612dde565b905092915050565b60008060408385031215612e8c57612e8b61262a565b5b6000612e9a858286016128aa565b9250506020612eab858286016128aa565b9150509250929050565b7f4e487b7100000000000000000000000000000000000000000000000000000000600052602260045260246000fd5b60006002820490506001821680612efc57607f821691505b60208210811415612f1057612f0f612eb5565b5b50919050565b7f4552433732313a20617070726f76656420717565727920666f72206e6f6e657860008201527f697374656e7420746f6b656e0000000000000000000000000000000000000000602082015250565b6000612f72602c8361272e565b9150612f7d82612f16565b604082019050919050565b60006020820190508181036000830152612fa181612f65565b9050919050565b7f4552433732313a20617070726f76616c20746f2063757272656e74206f776e6560008201527f7200000000000000000000000000000000000000000000000000000000000000602082015250565b600061300460218361272e565b915061300f82612fa8565b604082019050919050565b6000602082019050818103600083015261303381612ff7565b9050919050565b7f4552433732313a20617070726f76652063616c6c6572206973206e6f74206f7760008201527f6e6572206e6f7220617070726f76656420666f7220616c6c0000000000000000602082015250565b600061309660388361272e565b91506130a18261303a565b604082019050919050565b600060208201905081810360008301526130c581613089565b9050919050565b7f4552433732313a207472616e736665722063616c6c6572206973206e6f74206f60008201527f776e6572206e6f7220617070726f766564000000000000000000000000000000602082015250565b600061312860318361272e565b9150613133826130cc565b604082019050919050565b600060208201905081810360008301526131578161311b565b9050919050565b7f4552433732313a206f776e657220717565727920666f72206e6f6e657869737460008201527f656e7420746f6b656e0000000000000000000000000000000000000000000000602082015250565b60006131ba60298361272e565b91506131c58261315e565b604082019050919050565b600060208201905081810360008301526131e9816131ad565b9050919050565b7f4552433732313a2062616c616e636520717565727920666f7220746865207a6560008201527f726f206164647265737300000000000000000000000000000000000000000000602082015250565b600061324c602a8361272e565b9150613257826131f0565b604082019050919050565b6000602082019050818103600083015261327b8161323f565b9050919050565b7f4552433732313a2072656e7420717565727920666f72206e6f6e65786973746560008201527f6e7420746f6b656e000000000000000000000000000000000000000000000000602082015250565b60006132de60288361272e565b91506132e982613282565b604082019050919050565b6000602082019050818103600083015261330d816132d1565b9050919050565b600081519050613323816127de565b92915050565b60006020828403121561333f5761333e61262a565b5b600061334d84828501613314565b91505092915050565b600060608201905061336b6000830186612869565b6133786020830185612869565b61338560408301846126f9565b949350505050565b60008151905061339c8161297f565b92915050565b6000602082840312156133b8576133b761262a565b5b60006133c68482850161338d565b91505092915050565b7f4e487b7100000000000000000000000000000000000000000000000000000000600052601160045260246000fd5b6000613409826126ef565b9150613414836126ef565b925082821015613427576134266133cf565b5b828203905092915050565b600061343d826126ef565b9150613448836126ef565b9250827fffffffffffffffffffffffffffffffffffffffffffffffffffffffffffffffff0382111561347d5761347c6133cf565b5b828201905092915050565b7f4552433732313a20617070726f766520746f2063616c6c657200000000000000600082015250565b60006134be60198361272e565b91506134c982613488565b602082019050919050565b600060208201905081810360008301526134ed816134b1565b9050919050565b7f4552433732314d657461646174613a2055524920717565727920666f72206e6f60008201527f6e6578697374656e7420746f6b656e0000000000000000000000000000000000602082015250565b6000613550602f8361272e565b915061355b826134f4565b604082019050919050565b6000602082019050818103600083015261357f81613543565b9050919050565b7f52656465656d3a2063616c6c6572206973206e6f74207468652063726561746f60008201527f7200000000000000000000000000000000000000000000000000000000000000602082015250565b60006135e260218361272e565b91506135ed82613586565b604082019050919050565b60006020820190508181036000830152613611816135d5565b9050919050565b7f4e487b7100000000000000000000000000000000000000000000000000000000600052601260045260246000fd5b6000613652826126ef565b915061365d836126ef565b92508261366d5761366c613618565b5b828204905092915050565b6000613683826126ef565b915061368e836126ef565b9250817fffffffffffffffffffffffffffffffffffffffffffffffffffffffffffffffff04831182151516156136c7576136c66133cf565b5b828202905092915050565b60006040820190506136e76000830185612869565b6136f460208301846126f9565b9392505050565b7f4e487b7100000000000000000000000000000000000000000000000000000000600052603260045260246000fd5b6000613735826126ef565b91507fffffffffffffffffffffffffffffffffffffffffffffffffffffffffffffffff821415613768576137676133cf565b5b600182019050919050565b7f4552433732313a206f70657261746f7220717565727920666f72206e6f6e657860008201527f697374656e7420746f6b656e0000000000000000000000000000000000000000602082015250565b60006137cf602c8361272e565b91506137da82613773565b604082019050919050565b600060208201905081810360008301526137fe816137c2565b9050919050565b7f4552433732313a207472616e73666572206f6620746f6b656e2074686174206960008201527f73206e6f74206f776e0000000000000000000000000000000000000000000000602082015250565b600061386160298361272e565b915061386c82613805565b604082019050919050565b6000602082019050818103600083015261389081613854565b9050919050565b7f4552433732313a207472616e7366657220746f20746865207a65726f2061646460008201527f7265737300000000000000000000000000000000000000000000000000000000602082015250565b60006138f360248361272e565b91506138fe82613897565b604082019050919050565b60006020820190508181036000830152613922816138e6565b9050919050565b7f4552433732313a207472616e7366657220746f206e6f6e20455243373231526560008201527f63656976657220696d706c656d656e7465720000000000000000000000000000602082015250565b600061398560328361272e565b915061399082613929565b604082019050919050565b600060208201905081810360008301526139b481613978565b9050919050565b7f4552433732314d657461646174613a205552492073657420666f72206e6f6e6560008201527f78697374656e7420746f6b656e00000000000000000000000000000000000000602082015250565b6000613a17602d8361272e565b9150613a22826139bb565b604082019050919050565b60006020820190508181036000830152613a4681613a0a565b9050919050565b600081519050919050565b600082825260208201905092915050565b6000613a7482613a4d565b613a7e8185613a58565b9350613a8e81856020860161273f565b613a9781612772565b840191505092915050565b6000608082019050613ab76000830187612869565b613ac46020830186612869565b613ad160408301856126f9565b8181036060830152613ae38184613a69565b905095945050505050565b600081519050613afd81612660565b92915050565b600060208284031215613b1957613b1861262a565b5b6000613b2784828501613aee565b91505092915050565b7f4552433732313a206d696e7420746f20746865207a65726f2061646472657373600082015250565b6000613b6660208361272e565b9150613b7182613b30565b602082019050919050565b60006020820190508181036000830152613b9581613b59565b9050919050565b7f4552433732313a20746f6b656e20616c7265616479206d696e74656400000000600082015250565b6000613bd2601c8361272e565b9150613bdd82613b9c565b602082019050919050565b60006020820190508181036000830152613c0181613bc5565b905091905056fea2646970667358221220e64497f17ea12887518443d07c97bceb5ad9a9093296ad6349211c348a348af864736f6c634300080a0033",
  "immutableReferences": {},
  "source": "// SPDX-License-Identifier: MIT\npragma solidity ^0.8.0;\n\nimport \"@openzeppelin/contracts/token/ERC721/ERC721.sol\";\nimport \"@openzeppelin/contracts/utils/Counters.sol\";\nimport \"@openzeppelin/contracts/token/ERC20/ERC20.sol\";\n\ncontract Nftzi is ERC721 {\n    struct RentalStruct{\n        uint256 rentedAt;\n        uint256 tokenId;\n        address rentedBy;\n    }\n\n    struct TokenInfoStruct{\n        uint256 tokenId;\n        string URI;\n        address creator;\n        uint256 rentedAt;\n        address rentedBy;\n        uint256 balance;\n    }\n\n    using Counters for Counters.Counter;\n\n    uint256 public rentPriceCelo = 1 ether;\n    uint256 public _comission = 0.01 ether;\n\n    uint256 private _lastRun;\n    uint256[] private rentedSeq;\n\n    Counters.Counter private _tokenIdCounter;\n    Counters.Counter private _seqCounter;\n\n    mapping (uint256 => string) private _tokenURIs;\n    mapping (uint256 => address) private _tokenCreators;\n    mapping (uint256 => uint256) private _balances;\n    mapping (uint256 => address) private _tokenCurrencies;\n    mapping (uint256 => RentalStruct) private _rentedAt;\n    mapping (uint256 => uint256) private _tokenToSeq;\n\n    constructor() ERC721(\"Nftzi\", \"NFTZ\") {\n        _lastRun = block.timestamp;\n        _tokenIdCounter.increment();\n        _seqCounter.increment();\n    }\n\n    function _isApprovedOrOwner(address spender, uint256 tokenId) internal view virtual override returns (bool) {\n        require(_exists(tokenId), \"ERC721: operator query for nonexistent token\");\n        address creator = _tokenCreators[tokenId];\n        return (spender == creator);\n    }\n\n    function _setTokenURI(uint256 tokenId, string memory _tokenURI) internal virtual {\n        require(_exists(tokenId), \"ERC721Metadata: URI set for nonexistent token\");\n        _tokenURIs[tokenId] = _tokenURI;\n    }\n        \n    function tokenURI(uint256 tokenId) public view virtual override returns (string memory) {\n        require(_exists(tokenId), \"ERC721Metadata: URI query for nonexistent token\");\n        string memory _tokenURI = _tokenURIs[tokenId];\n        return _tokenURI;\n    }\n\n    function tokensInfo() public view returns(TokenInfoStruct[] memory) {\n        TokenInfoStruct[] memory _toReturn;\n        uint256 lastTokenId = _tokenIdCounter.current();\n        if (lastTokenId > 0) {\n            _toReturn = new TokenInfoStruct[](lastTokenId);\n            for (uint i = 1; i < lastTokenId; i++) {\n                _toReturn[i] = TokenInfoStruct(\n                  i,\n                  _tokenURIs[i],\n                  _tokenCreators[i],\n                  _rentedAt[_tokenToSeq[i]].rentedAt,\n                  _rentedAt[_tokenToSeq[i]].rentedBy,\n                  _balances[i]\n                );\n            }\n        }\n        return _toReturn;\n    }\n\n    function rent(uint256 tokenId) public {\n        require(_exists(tokenId), \"ERC721: rent query for nonexistent token\");\n\n        ERC20 token = ERC20(_tokenCurrencies[tokenId]);\n        require(token.balanceOf(msg.sender) >= rentPriceCelo);\n        token.transferFrom(msg.sender, address(this), rentPriceCelo);\n\n        _balances[tokenId] += rentPriceCelo - _comission;\n        uint256 currentSeq = _seqCounter.current();\n        _rentedAt[currentSeq] = RentalStruct(block.timestamp, tokenId, msg.sender);\n        _safeTransfer(_tokenCreators[tokenId], msg.sender, tokenId, \"\");\n        rentedSeq.push(currentSeq);\n        _tokenToSeq[tokenId] = currentSeq;\n        _seqCounter.increment();\n    }\n\n    function _tick() internal virtual {\n        _lastRun = block.timestamp;\n        _checkReturns();\n    }\n\n    function _checkReturns() internal virtual {\n        uint256[] memory _toReturn = new uint256[](rentedSeq.length);\n        for (uint i = 0; i < rentedSeq.length ; i++) {\n            RentalStruct memory _rentInfo = _rentedAt[rentedSeq[i]];\n            if (_lastRun - _rentInfo.rentedAt < 1 minutes) {\n                break;\n            } else {\n                _toReturn[i] = rentedSeq[i];\n            }\n        }\n        for (uint i = 0; i < _toReturn.length; i++) {\n            if (_toReturn[i] > 0) {\n                RentalStruct memory _rentInfo = _rentedAt[_toReturn[i]];\n                _returnRented(_rentInfo.tokenId, _rentInfo.rentedBy);\n                delete _rentedAt[_toReturn[i]];\n                delete rentedSeq[0];\n                delete _tokenToSeq[_toReturn[i]];\n            }\n        }\n    }\n\n    function _returnRented(uint256 tokenId, address rentedBy) internal virtual {\n        ERC20 token = ERC20(_tokenCurrencies[tokenId]);\n        require(token.balanceOf(address(this)) >= _balances[tokenId]);\n        token.transfer(_tokenCreators[tokenId], _balances[tokenId]);\n\n        _balances[tokenId] -= _balances[tokenId];\n\n        _safeTransfer(rentedBy, _tokenCreators[tokenId], tokenId, \"\");\n    }\n\n    function redeem(uint256 tokenId) public {\n        _lastRun = block.timestamp;\n\n        require(_exists(tokenId), \"ERC721: rent query for nonexistent token\");\n        require(msg.sender == _tokenCreators[tokenId], \"Redeem: caller is not the creator\");\n\n        uint256 _toRedeemPart = _balances[tokenId] / 1 minutes;\n        uint256 _toRedeemSeconds = _lastRun - _rentedAt[_tokenToSeq[tokenId]].rentedAt;\n        uint256 _toRedeem = _toRedeemPart * _toRedeemSeconds;\n\n        ERC20 token = ERC20(_tokenCurrencies[tokenId]);\n        require(token.balanceOf(address(this)) >= _toRedeem);\n\n        token.transfer(_tokenCreators[tokenId], _toRedeem);\n        _balances[tokenId] -= _toRedeem;\n    }\n\n    function safeMint(string memory _tokenURI, address rent_token_address) external {\n        _tick();\n        uint256 tokenId = _tokenIdCounter.current();\n        _tokenIdCounter.increment();\n        _safeMint(_msgSender(), tokenId);\n        _setTokenURI(tokenId, _tokenURI);\n        _tokenCreators[tokenId] = _msgSender();\n        _tokenCurrencies[tokenId] = rent_token_address;\n    }\n}\n",
  "sourcePath": "/Users/vf/Nftzi/contracts/Nftzi.sol",
  "compiler": {
    "name": "solc",
    "version": "0.8.10+commit.fc410830.Emscripten.clang"
  },
  "schemaVersion": "3.4.1",
  "updatedAt": "2021-11-28T14:51:39.372Z",
  "networkType": "ethereum",
  "devdoc": {
    "kind": "dev",
    "methods": {
      "approve(address,uint256)": {
        "details": "See {IERC721-approve}."
      },
      "balanceOf(address)": {
        "details": "See {IERC721-balanceOf}."
      },
      "getApproved(uint256)": {
        "details": "See {IERC721-getApproved}."
      },
      "isApprovedForAll(address,address)": {
        "details": "See {IERC721-isApprovedForAll}."
      },
      "name()": {
        "details": "See {IERC721Metadata-name}."
      },
      "ownerOf(uint256)": {
        "details": "See {IERC721-ownerOf}."
      },
      "safeTransferFrom(address,address,uint256)": {
        "details": "See {IERC721-safeTransferFrom}."
      },
      "safeTransferFrom(address,address,uint256,bytes)": {
        "details": "See {IERC721-safeTransferFrom}."
      },
      "setApprovalForAll(address,bool)": {
        "details": "See {IERC721-setApprovalForAll}."
      },
      "supportsInterface(bytes4)": {
        "details": "See {IERC165-supportsInterface}."
      },
      "symbol()": {
        "details": "See {IERC721Metadata-symbol}."
      },
      "tokenURI(uint256)": {
        "details": "See {IERC721Metadata-tokenURI}."
      },
      "transferFrom(address,address,uint256)": {
        "details": "See {IERC721-transferFrom}."
      }
    },
    "version": 1
  },
  "userdoc": {
    "kind": "user",
    "methods": {},
    "version": 1
  }
}