{
  "contractName": "Deal",
  "abi": [
    {
      "inputs": [
        {
          "internalType": "address",
          "name": "_tokenAddress",
          "type": "address"
        },
        {
          "internalType": "address",
          "name": "_offerAddress",
          "type": "address"
        },
        {
          "internalType": "address",
          "name": "_buyer",
          "type": "address"
        }
      ],
      "stateMutability": "nonpayable",
      "type": "constructor"
    },
    {
      "inputs": [],
      "name": "active",
      "outputs": [
        {
          "internalType": "bool",
          "name": "",
          "type": "bool"
        }
      ],
      "stateMutability": "view",
      "type": "function"
    },
    {
      "inputs": [],
      "name": "amount",
      "outputs": [
        {
          "internalType": "uint256",
          "name": "",
          "type": "uint256"
        }
      ],
      "stateMutability": "view",
      "type": "function"
    },
    {
      "inputs": [],
      "name": "buyer",
      "outputs": [
        {
          "internalType": "address",
          "name": "",
          "type": "address"
        }
      ],
      "stateMutability": "view",
      "type": "function"
    },
    {
      "inputs": [],
      "name": "collateral",
      "outputs": [
        {
          "internalType": "uint256",
          "name": "",
          "type": "uint256"
        }
      ],
      "stateMutability": "view",
      "type": "function"
    },
    {
      "inputs": [],
      "name": "coreAddress",
      "outputs": [
        {
          "internalType": "address",
          "name": "",
          "type": "address"
        }
      ],
      "stateMutability": "view",
      "type": "function"
    },
    {
      "inputs": [],
      "name": "fulfilled",
      "outputs": [
        {
          "internalType": "bool",
          "name": "",
          "type": "bool"
        }
      ],
      "stateMutability": "view",
      "type": "function"
    },
    {
      "inputs": [],
      "name": "offerAddress",
      "outputs": [
        {
          "internalType": "address",
          "name": "",
          "type": "address"
        }
      ],
      "stateMutability": "view",
      "type": "function"
    },
    {
      "inputs": [],
      "name": "seller",
      "outputs": [
        {
          "internalType": "address",
          "name": "",
          "type": "address"
        }
      ],
      "stateMutability": "view",
      "type": "function"
    },
    {
      "inputs": [],
      "name": "tokenAddress",
      "outputs": [
        {
          "internalType": "address",
          "name": "",
          "type": "address"
        }
      ],
      "stateMutability": "view",
      "type": "function"
    },
    {
      "inputs": [
        {
          "internalType": "uint256",
          "name": "_amount",
          "type": "uint256"
        },
        {
          "internalType": "uint256",
          "name": "_collateral",
          "type": "uint256"
        }
      ],
      "name": "deposit",
      "outputs": [],
      "stateMutability": "nonpayable",
      "type": "function"
    },
    {
      "inputs": [],
      "name": "fulfill",
      "outputs": [],
      "stateMutability": "nonpayable",
      "type": "function"
    },
    {
      "inputs": [],
      "name": "close",
      "outputs": [],
      "stateMutability": "nonpayable",
      "type": "function"
    },
    {
      "inputs": [],
      "name": "summary",
      "outputs": [
        {
          "internalType": "address",
          "name": "",
          "type": "address"
        },
        {
          "internalType": "address",
          "name": "",
          "type": "address"
        },
        {
          "internalType": "address",
          "name": "",
          "type": "address"
        },
        {
          "internalType": "address",
          "name": "",
          "type": "address"
        },
        {
          "internalType": "address",
          "name": "",
          "type": "address"
        },
        {
          "internalType": "uint256",
          "name": "",
          "type": "uint256"
        },
        {
          "internalType": "uint256",
          "name": "",
          "type": "uint256"
        },
        {
          "internalType": "uint256",
          "name": "",
          "type": "uint256"
        },
        {
          "internalType": "bool",
          "name": "",
          "type": "bool"
        }
      ],
      "stateMutability": "view",
      "type": "function"
    }
  ],
  "bytecode": "0x608060405260016000806101000a81548160ff0219169083151502179055503480156200002b57600080fd5b50604051620010a8380380620010a8833981810160405281019062000051919062000291565b33600060026101000a81548173ffffffffffffffffffffffffffffffffffffffff021916908373ffffffffffffffffffffffffffffffffffffffff16021790555082600160006101000a81548173ffffffffffffffffffffffffffffffffffffffff021916908373ffffffffffffffffffffffffffffffffffffffff16021790555081600260006101000a81548173ffffffffffffffffffffffffffffffffffffffff021916908373ffffffffffffffffffffffffffffffffffffffff16021790555080600460006101000a81548173ffffffffffffffffffffffffffffffffffffffff021916908373ffffffffffffffffffffffffffffffffffffffff1602179055506000600260009054906101000a900473ffffffffffffffffffffffffffffffffffffffff1690508073ffffffffffffffffffffffffffffffffffffffff166308551a536040518163ffffffff1660e01b815260040160206040518083038186803b158015620001c357600080fd5b505afa158015620001d8573d6000803e3d6000fd5b505050506040513d601f19601f82011682018060405250810190620001fe91906200025f565b600360006101000a81548173ffffffffffffffffffffffffffffffffffffffff021916908373ffffffffffffffffffffffffffffffffffffffff1602179055505050505062000340565b600081519050620002598162000326565b92915050565b60006020828403121562000278576200027762000321565b5b6000620002888482850162000248565b91505092915050565b600080600060608486031215620002ad57620002ac62000321565b5b6000620002bd8682870162000248565b9350506020620002d08682870162000248565b9250506040620002e38682870162000248565b9150509250925092565b6000620002fa8262000301565b9050919050565b600073ffffffffffffffffffffffffffffffffffffffff82169050919050565b600080fd5b6200033181620002ed565b81146200033d57600080fd5b50565b610d5880620003506000396000f3fe608060405234801561001057600080fd5b50600436106100cf5760003560e01c80637150d8ae1161008c578063b16a867c11610066578063b16a867c146101ba578063d8dfeb45146101e0578063e2bbb158146101fe578063e2d46f981461021a576100cf565b80637150d8ae146101605780639d76ea581461017e578063aa8c217c1461019c576100cf565b806302fb0c5e146100d457806308551a53146100f25780631c0ad646146101105780633ea42de31461012e57806343d726d61461014c5780636032f4a614610156575b600080fd5b6100dc610238565b6040516100e99190610c71565b60405180910390f35b6100fa610249565b6040516101079190610b69565b60405180910390f35b61011861026f565b6040516101259190610b69565b60405180910390f35b610136610295565b6040516101439190610b69565b60405180910390f35b6101546102bb565b005b61015e6104d6565b005b61016861054d565b6040516101759190610b69565b60405180910390f35b610186610573565b6040516101939190610b69565b60405180910390f35b6101a4610599565b6040516101b19190610c8c565b60405180910390f35b6101c261059f565b6040516101d799989796959493929190610b84565b60405180910390f35b6101e861073d565b6040516101f59190610c8c565b60405180910390f35b61021860048036038101906102139190610afc565b610743565b005b610222610a50565b60405161022f9190610c71565b60405180910390f35b60008054906101000a900460ff1681565b600360009054906101000a900473ffffffffffffffffffffffffffffffffffffffff1681565b600060029054906101000a900473ffffffffffffffffffffffffffffffffffffffff1681565b600260009054906101000a900473ffffffffffffffffffffffffffffffffffffffff1681565b600460009054906101000a900473ffffffffffffffffffffffffffffffffffffffff1673ffffffffffffffffffffffffffffffffffffffff163373ffffffffffffffffffffffffffffffffffffffff161461031557600080fd5b600060019054906101000a900460ff1661032e57600080fd5b6000600160009054906101000a900473ffffffffffffffffffffffffffffffffffffffff1690508073ffffffffffffffffffffffffffffffffffffffff1663a9059cbb600360009054906101000a900473ffffffffffffffffffffffffffffffffffffffff166005546040518363ffffffff1660e01b81526004016103b4929190610c48565b602060405180830381600087803b1580156103ce57600080fd5b505af11580156103e2573d6000803e3d6000fd5b505050506040513d601f19601f820116820180604052508101906104069190610aa2565b508073ffffffffffffffffffffffffffffffffffffffff1663a9059cbb600460009054906101000a900473ffffffffffffffffffffffffffffffffffffffff166006546040518363ffffffff1660e01b8152600401610466929190610c48565b602060405180830381600087803b15801561048057600080fd5b505af1158015610494573d6000803e3d6000fd5b505050506040513d601f19601f820116820180604052508101906104b89190610aa2565b5060008060006101000a81548160ff02191690831515021790555050565b600360009054906101000a900473ffffffffffffffffffffffffffffffffffffffff1673ffffffffffffffffffffffffffffffffffffffff163373ffffffffffffffffffffffffffffffffffffffff161461053057600080fd5b6001600060016101000a81548160ff021916908315150217905550565b600460009054906101000a900473ffffffffffffffffffffffffffffffffffffffff1681565b600160009054906101000a900473ffffffffffffffffffffffffffffffffffffffff1681565b60055481565b600080600080600080600080600080600160009054906101000a900473ffffffffffffffffffffffffffffffffffffffff169050600060029054906101000a900473ffffffffffffffffffffffffffffffffffffffff16600160009054906101000a900473ffffffffffffffffffffffffffffffffffffffff16600260009054906101000a900473ffffffffffffffffffffffffffffffffffffffff16600360009054906101000a900473ffffffffffffffffffffffffffffffffffffffff16600460009054906101000a900473ffffffffffffffffffffffffffffffffffffffff168573ffffffffffffffffffffffffffffffffffffffff166370a08231306040518263ffffffff1660e01b81526004016106bb9190610b69565b60206040518083038186803b1580156106d357600080fd5b505afa1580156106e7573d6000803e3d6000fd5b505050506040513d601f19601f8201168201806040525081019061070b9190610acf565b60055460065460008054906101000a900460ff1699509950995099509950995099509950995050909192939495969798565b60065481565b600460009054906101000a900473ffffffffffffffffffffffffffffffffffffffff1673ffffffffffffffffffffffffffffffffffffffff163373ffffffffffffffffffffffffffffffffffffffff161461079d57600080fd5b81600581905550806006819055506000600160009054906101000a900473ffffffffffffffffffffffffffffffffffffffff1690506005548173ffffffffffffffffffffffffffffffffffffffff166370a08231336040518263ffffffff1660e01b815260040161080e9190610b69565b60206040518083038186803b15801561082657600080fd5b505afa15801561083a573d6000803e3d6000fd5b505050506040513d601f19601f8201168201806040525081019061085e9190610acf565b101561086957600080fd5b6006548173ffffffffffffffffffffffffffffffffffffffff166370a08231600260009054906101000a900473ffffffffffffffffffffffffffffffffffffffff166040518263ffffffff1660e01b81526004016108c79190610b69565b60206040518083038186803b1580156108df57600080fd5b505afa1580156108f3573d6000803e3d6000fd5b505050506040513d601f19601f820116820180604052508101906109179190610acf565b101561092257600080fd5b8073ffffffffffffffffffffffffffffffffffffffff166323b872dd33306005546040518463ffffffff1660e01b815260040161096193929190610c11565b602060405180830381600087803b15801561097b57600080fd5b505af115801561098f573d6000803e3d6000fd5b505050506040513d601f19601f820116820180604052508101906109b39190610aa2565b506000600260009054906101000a900473ffffffffffffffffffffffffffffffffffffffff1690508073ffffffffffffffffffffffffffffffffffffffff1663816b1e8f306006546040518363ffffffff1660e01b8152600401610a18929190610c48565b600060405180830381600087803b158015610a3257600080fd5b505af1158015610a46573d6000803e3d6000fd5b5050505050505050565b600060019054906101000a900460ff1681565b600081519050610a7281610cf4565b92915050565b600081359050610a8781610d0b565b92915050565b600081519050610a9c81610d0b565b92915050565b600060208284031215610ab857610ab7610cef565b5b6000610ac684828501610a63565b91505092915050565b600060208284031215610ae557610ae4610cef565b5b6000610af384828501610a8d565b91505092915050565b60008060408385031215610b1357610b12610cef565b5b6000610b2185828601610a78565b9250506020610b3285828601610a78565b9150509250929050565b610b4581610ca7565b82525050565b610b5481610cb9565b82525050565b610b6381610ce5565b82525050565b6000602082019050610b7e6000830184610b3c565b92915050565b600061012082019050610b9a600083018c610b3c565b610ba7602083018b610b3c565b610bb4604083018a610b3c565b610bc16060830189610b3c565b610bce6080830188610b3c565b610bdb60a0830187610b5a565b610be860c0830186610b5a565b610bf560e0830185610b5a565b610c03610100830184610b4b565b9a9950505050505050505050565b6000606082019050610c266000830186610b3c565b610c336020830185610b3c565b610c406040830184610b5a565b949350505050565b6000604082019050610c5d6000830185610b3c565b610c6a6020830184610b5a565b9392505050565b6000602082019050610c866000830184610b4b565b92915050565b6000602082019050610ca16000830184610b5a565b92915050565b6000610cb282610cc5565b9050919050565b60008115159050919050565b600073ffffffffffffffffffffffffffffffffffffffff82169050919050565b6000819050919050565b600080fd5b610cfd81610cb9565b8114610d0857600080fd5b50565b610d1481610ce5565b8114610d1f57600080fd5b5056fea2646970667358221220338640c598dc617e1e41526d771e4957991186c1b22551cf066b29e75dc7f86f64736f6c63430008070033",
  "immutableReferences": {},
  "source": "// SPDX-License-Identifier: MIT\npragma solidity ^0.8.0;\n\nimport './ERC20.sol';\nimport './Offer.sol';\n\n/**\n * @title Deal\n * @dev Deal of exchanging something on Fidi.Cash\n */\ncontract Deal {\n  bool public active = true;\n\n  bool public fulfilled;\n\n  address public coreAddress;\n  address public tokenAddress;\n  address public offerAddress;\n\n  address public seller;\n  address public buyer;\n\n  uint256 public amount;\n  uint256 public collateral;\n\n  modifier isActive() {\n    require(active);\n    _;\n  }\n\n  modifier sellerOnly() {\n    require(msg.sender == seller);\n    _;\n  }\n\n  modifier buyerOnly() {\n    require(msg.sender == buyer);\n    _;\n  }\n\n  constructor(\n    address _tokenAddress,\n    address _offerAddress,\n    address _buyer\n  ) {\n    coreAddress = msg.sender;\n    tokenAddress = _tokenAddress;\n    offerAddress = _offerAddress;\n    buyer = _buyer;\n\n    Offer offer = Offer(offerAddress);\n    seller = offer.seller();\n  }\n\n  function deposit(uint256 _amount, uint256 _collateral) public buyerOnly {\n    amount = _amount;\n    collateral = _collateral;\n\n    ERC20 token = ERC20(tokenAddress);\n    require(token.balanceOf(msg.sender) >= amount);\n    require(token.balanceOf(offerAddress) >= collateral);\n\n    token.transferFrom(msg.sender, address(this), amount);\n\n    Offer offer = Offer(offerAddress);\n    offer.transferCollateral(address(this), collateral);\n  }\n\n  function fulfill() public sellerOnly {\n    fulfilled = true;\n  }\n\n  function close() public buyerOnly {\n    require(fulfilled);\n\n    ERC20 token = ERC20(tokenAddress);\n    token.transfer(seller, amount);\n    token.transfer(buyer, collateral);\n\n    active = false;\n  }\n\n  function summary()\n    public\n    view\n    returns (\n      address,\n      address,\n      address,\n      address,\n      address,\n      uint256,\n      uint256,\n      uint256,\n      bool\n    )\n  {\n    ERC20 token = ERC20(tokenAddress);\n    return (\n      coreAddress,\n      tokenAddress,\n      offerAddress,\n      seller,\n      buyer,\n      token.balanceOf(address(this)),\n      amount,\n      collateral,\n      active\n    );\n  }\n}\n",
  "sourcePath": "/Users/alex/projects/crypto/fidi.cash/contracts/contracts/Deal.sol",
  "compiler": {
    "name": "solc",
    "version": "0.8.7+commit.e28d00a7.Emscripten.clang"
  },
  "schemaVersion": "3.4.3",
  "updatedAt": "2021-11-28T10:38:53.021Z",
  "devdoc": {
    "details": "Deal of exchanging something on Fidi.Cash",
    "kind": "dev",
    "methods": {},
    "title": "Deal",
    "version": 1
  },
  "userdoc": {
    "kind": "user",
    "methods": {},
    "version": 1
  }
}