{
  "_format": "hh-sol-artifact-1",
  "contractName": "DogeGame",
  "sourceName": "contracts/DogeGame.sol",
  "abi": [
    {
      "inputs": [
        {
          "components": [
            {
              "internalType": "string",
              "name": "name",
              "type": "string"
            },
            {
              "internalType": "string",
              "name": "image",
              "type": "string"
            }
          ],
          "internalType": "struct DogeGame.PersonParam[]",
          "name": "_persons",
          "type": "tuple[]"
        }
      ],
      "stateMutability": "nonpayable",
      "type": "constructor"
    },
    {
      "anonymous": false,
      "inputs": [
        {
          "indexed": true,
          "internalType": "address",
          "name": "account",
          "type": "address"
        },
        {
          "indexed": false,
          "internalType": "uint256",
          "name": "allowance",
          "type": "uint256"
        }
      ],
      "name": "AllowanceUpdate",
      "type": "event"
    },
    {
      "anonymous": false,
      "inputs": [
        {
          "indexed": true,
          "internalType": "address",
          "name": "previousOwner",
          "type": "address"
        },
        {
          "indexed": true,
          "internalType": "address",
          "name": "newOwner",
          "type": "address"
        }
      ],
      "name": "OwnershipTransferred",
      "type": "event"
    },
    {
      "anonymous": false,
      "inputs": [],
      "name": "Paused",
      "type": "event"
    },
    {
      "anonymous": false,
      "inputs": [
        {
          "indexed": true,
          "internalType": "address",
          "name": "buyer",
          "type": "address"
        },
        {
          "indexed": true,
          "internalType": "uint256",
          "name": "personId",
          "type": "uint256"
        },
        {
          "indexed": false,
          "internalType": "string",
          "name": "punchline",
          "type": "string"
        }
      ],
      "name": "Purchase",
      "type": "event"
    },
    {
      "anonymous": false,
      "inputs": [],
      "name": "Unpaused",
      "type": "event"
    },
    {
      "anonymous": false,
      "inputs": [
        {
          "indexed": true,
          "internalType": "address",
          "name": "beneficiary",
          "type": "address"
        },
        {
          "indexed": false,
          "internalType": "uint256",
          "name": "amount",
          "type": "uint256"
        }
      ],
      "name": "Withdrawn",
      "type": "event"
    },
    {
      "inputs": [
        {
          "internalType": "address",
          "name": "",
          "type": "address"
        }
      ],
      "name": "addressToAllowance",
      "outputs": [
        {
          "internalType": "uint256",
          "name": "value",
          "type": "uint256"
        },
        {
          "internalType": "uint256",
          "name": "timestamp",
          "type": "uint256"
        }
      ],
      "stateMutability": "view",
      "type": "function"
    },
    {
      "inputs": [
        {
          "internalType": "uint256",
          "name": "",
          "type": "uint256"
        }
      ],
      "name": "allowanceAddresses",
      "outputs": [
        {
          "internalType": "address",
          "name": "",
          "type": "address"
        }
      ],
      "stateMutability": "view",
      "type": "function"
    },
    {
      "inputs": [
        {
          "internalType": "uint256",
          "name": "_personId",
          "type": "uint256"
        },
        {
          "internalType": "string",
          "name": "_punchline",
          "type": "string"
        }
      ],
      "name": "buy",
      "outputs": [],
      "stateMutability": "payable",
      "type": "function"
    },
    {
      "inputs": [],
      "name": "defaultPunchline",
      "outputs": [
        {
          "internalType": "string",
          "name": "",
          "type": "string"
        }
      ],
      "stateMutability": "view",
      "type": "function"
    },
    {
      "inputs": [],
      "name": "distributePrizePool",
      "outputs": [],
      "stateMutability": "nonpayable",
      "type": "function"
    },
    {
      "inputs": [],
      "name": "fullWithdrawal",
      "outputs": [],
      "stateMutability": "nonpayable",
      "type": "function"
    },
    {
      "inputs": [],
      "name": "getLastWinners",
      "outputs": [
        {
          "components": [
            {
              "internalType": "address",
              "name": "winner",
              "type": "address"
            },
            {
              "internalType": "uint256",
              "name": "prize",
              "type": "uint256"
            },
            {
              "internalType": "uint256",
              "name": "score",
              "type": "uint256"
            }
          ],
          "internalType": "struct DogeGame.Winner[8]",
          "name": "",
          "type": "tuple[8]"
        }
      ],
      "stateMutability": "view",
      "type": "function"
    },
    {
      "inputs": [],
      "name": "getLeaderboard",
      "outputs": [
        {
          "components": [
            {
              "internalType": "address",
              "name": "player",
              "type": "address"
            },
            {
              "internalType": "uint256",
              "name": "score",
              "type": "uint256"
            }
          ],
          "internalType": "struct DogeGame.Player[]",
          "name": "",
          "type": "tuple[]"
        }
      ],
      "stateMutability": "view",
      "type": "function"
    },
    {
      "inputs": [],
      "name": "getNoOfPlayers",
      "outputs": [
        {
          "internalType": "uint256",
          "name": "noOfPlayers",
          "type": "uint256"
        }
      ],
      "stateMutability": "view",
      "type": "function"
    },
    {
      "inputs": [
        {
          "internalType": "uint256",
          "name": "_personId",
          "type": "uint256"
        }
      ],
      "name": "getPerson",
      "outputs": [
        {
          "components": [
            {
              "internalType": "uint256",
              "name": "id",
              "type": "uint256"
            },
            {
              "internalType": "string",
              "name": "name",
              "type": "string"
            },
            {
              "internalType": "string",
              "name": "image",
              "type": "string"
            },
            {
              "internalType": "string",
              "name": "punchline",
              "type": "string"
            },
            {
              "internalType": "address",
              "name": "owner",
              "type": "address"
            },
            {
              "internalType": "bool",
              "name": "active",
              "type": "bool"
            },
            {
              "internalType": "uint256",
              "name": "timestamp",
              "type": "uint256"
            }
          ],
          "internalType": "struct DogeGame.Person",
          "name": "person",
          "type": "tuple"
        }
      ],
      "stateMutability": "view",
      "type": "function"
    },
    {
      "inputs": [],
      "name": "getPersons",
      "outputs": [
        {
          "components": [
            {
              "internalType": "uint256",
              "name": "id",
              "type": "uint256"
            },
            {
              "internalType": "string",
              "name": "name",
              "type": "string"
            },
            {
              "internalType": "string",
              "name": "image",
              "type": "string"
            },
            {
              "internalType": "string",
              "name": "punchline",
              "type": "string"
            },
            {
              "internalType": "address",
              "name": "owner",
              "type": "address"
            },
            {
              "internalType": "bool",
              "name": "active",
              "type": "bool"
            },
            {
              "internalType": "uint256",
              "name": "timestamp",
              "type": "uint256"
            }
          ],
          "internalType": "struct DogeGame.Person[]",
          "name": "toReturn",
          "type": "tuple[]"
        }
      ],
      "stateMutability": "view",
      "type": "function"
    },
    {
      "inputs": [],
      "name": "getPlayers",
      "outputs": [
        {
          "internalType": "address[]",
          "name": "",
          "type": "address[]"
        }
      ],
      "stateMutability": "view",
      "type": "function"
    },
    {
      "inputs": [
        {
          "internalType": "uint256",
          "name": "k",
          "type": "uint256"
        }
      ],
      "name": "getTop",
      "outputs": [
        {
          "internalType": "address[]",
          "name": "",
          "type": "address[]"
        }
      ],
      "stateMutability": "view",
      "type": "function"
    },
    {
      "inputs": [
        {
          "internalType": "uint256",
          "name": "",
          "type": "uint256"
        }
      ],
      "name": "lastWinners",
      "outputs": [
        {
          "internalType": "address",
          "name": "winner",
          "type": "address"
        },
        {
          "internalType": "uint256",
          "name": "prize",
          "type": "uint256"
        },
        {
          "internalType": "uint256",
          "name": "score",
          "type": "uint256"
        }
      ],
      "stateMutability": "view",
      "type": "function"
    },
    {
      "inputs": [
        {
          "internalType": "string",
          "name": "_name",
          "type": "string"
        },
        {
          "internalType": "string",
          "name": "_image",
          "type": "string"
        }
      ],
      "name": "mint",
      "outputs": [],
      "stateMutability": "nonpayable",
      "type": "function"
    },
    {
      "inputs": [
        {
          "internalType": "address",
          "name": "",
          "type": "address"
        }
      ],
      "name": "nextPlayers",
      "outputs": [
        {
          "internalType": "address",
          "name": "",
          "type": "address"
        }
      ],
      "stateMutability": "view",
      "type": "function"
    },
    {
      "inputs": [],
      "name": "owner",
      "outputs": [
        {
          "internalType": "address",
          "name": "",
          "type": "address"
        }
      ],
      "stateMutability": "view",
      "type": "function"
    },
    {
      "inputs": [
        {
          "internalType": "address",
          "name": "_player",
          "type": "address"
        }
      ],
      "name": "ownerWithdraw",
      "outputs": [],
      "stateMutability": "nonpayable",
      "type": "function"
    },
    {
      "inputs": [],
      "name": "pause",
      "outputs": [],
      "stateMutability": "nonpayable",
      "type": "function"
    },
    {
      "inputs": [],
      "name": "paused",
      "outputs": [
        {
          "internalType": "bool",
          "name": "",
          "type": "bool"
        }
      ],
      "stateMutability": "view",
      "type": "function"
    },
    {
      "inputs": [],
      "name": "price",
      "outputs": [
        {
          "internalType": "uint256",
          "name": "",
          "type": "uint256"
        }
      ],
      "stateMutability": "view",
      "type": "function"
    },
    {
      "inputs": [],
      "name": "prizePool",
      "outputs": [
        {
          "internalType": "uint256",
          "name": "",
          "type": "uint256"
        }
      ],
      "stateMutability": "view",
      "type": "function"
    },
    {
      "inputs": [],
      "name": "renounceOwnership",
      "outputs": [],
      "stateMutability": "nonpayable",
      "type": "function"
    },
    {
      "inputs": [],
      "name": "retake",
      "outputs": [],
      "stateMutability": "nonpayable",
      "type": "function"
    },
    {
      "inputs": [
        {
          "internalType": "address",
          "name": "",
          "type": "address"
        }
      ],
      "name": "scores",
      "outputs": [
        {
          "internalType": "uint256",
          "name": "",
          "type": "uint256"
        }
      ],
      "stateMutability": "view",
      "type": "function"
    },
    {
      "inputs": [
        {
          "internalType": "string",
          "name": "_punchline",
          "type": "string"
        }
      ],
      "name": "setDefaultPunchline",
      "outputs": [],
      "stateMutability": "nonpayable",
      "type": "function"
    },
    {
      "inputs": [
        {
          "internalType": "uint256",
          "name": "_price",
          "type": "uint256"
        }
      ],
      "name": "setPrice",
      "outputs": [],
      "stateMutability": "nonpayable",
      "type": "function"
    },
    {
      "inputs": [],
      "name": "state",
      "outputs": [
        {
          "internalType": "enum DogeGame.State",
          "name": "",
          "type": "uint8"
        }
      ],
      "stateMutability": "view",
      "type": "function"
    },
    {
      "inputs": [
        {
          "internalType": "address",
          "name": "newOwner",
          "type": "address"
        }
      ],
      "name": "transferOwnership",
      "outputs": [],
      "stateMutability": "nonpayable",
      "type": "function"
    },
    {
      "inputs": [],
      "name": "unpause",
      "outputs": [],
      "stateMutability": "nonpayable",
      "type": "function"
    },
    {
      "inputs": [
        {
          "internalType": "uint256",
          "name": "_personId",
          "type": "uint256"
        },
        {
          "internalType": "string",
          "name": "_image",
          "type": "string"
        }
      ],
      "name": "updatePeronImage",
      "outputs": [],
      "stateMutability": "nonpayable",
      "type": "function"
    },
    {
      "inputs": [
        {
          "internalType": "uint256",
          "name": "_personId",
          "type": "uint256"
        },
        {
          "internalType": "bool",
          "name": "_active",
          "type": "bool"
        }
      ],
      "name": "updatePersonActive",
      "outputs": [],
      "stateMutability": "nonpayable",
      "type": "function"
    },
    {
      "inputs": [
        {
          "internalType": "uint256",
          "name": "_personId",
          "type": "uint256"
        },
        {
          "internalType": "string",
          "name": "_name",
          "type": "string"
        }
      ],
      "name": "updatePersonName",
      "outputs": [],
      "stateMutability": "nonpayable",
      "type": "function"
    },
    {
      "inputs": [],
      "name": "wipePlayers",
      "outputs": [],
      "stateMutability": "nonpayable",
      "type": "function"
    },
    {
      "inputs": [],
      "name": "withdraw",
      "outputs": [],
      "stateMutability": "nonpayable",
      "type": "function"
    },
    {
      "stateMutability": "payable",
      "type": "receive"
    }
  ],
  "bytecode": "0x670de0b6b3a7640000601f5560c0604052600960808190526841646f7074204d652160b81b60a090815262000038916021919062000311565b506022805461ffff19166101011790553480156200005557600080fd5b506040516200395d3803806200395d83398101604081905262000078916200044c565b6200008333620002c1565b6001600081815260046020527fabd6e7cb50984ff9c2f3e18a2660c3353dadf4e3291deeb275dae2cd1e44fe0580546001600160a01b03191690921790915581516002555b600254811015620002b9576040518060e00160405280828152602001838381518110620000f957620000f962000645565b60200260200101516000015181526020018383815181106200011f576200011f62000645565b6020026020010151602001518152602001602180546200013f90620005de565b80601f01602080910402602001604051908101604052809291908181526020018280546200016d90620005de565b8015620001be5780601f106200019257610100808354040283529160200191620001be565b820191906000526020600020905b815481529060010190602001808311620001a057829003601f168201915b5050509183525050602001620001dc6000546001600160a01b031690565b6001600160a01b03168152600160208083018290526000604093840181905285815282825292909220835181558383015180519193620002229385019291019062000311565b50604082015180516200024091600284019160209091019062000311565b50606082015180516200025e91600384019160209091019062000311565b50608082015160048201805460a08501511515600160a01b026001600160a81b03199091166001600160a01b039093169290921791909117905560c09091015160059091015580620002b0816200061b565b915050620000c8565b505062000671565b600080546001600160a01b038381166001600160a01b0319831681178455604051919092169283917f8be0079c531659141344cd1fd0a4f28419497f9722a3daafe3b4186f6b6457e09190a35050565b8280546200031f90620005de565b90600052602060002090601f0160209004810192826200034357600085556200038e565b82601f106200035e57805160ff19168380011785556200038e565b828001600101855582156200038e579182015b828111156200038e57825182559160200191906001019062000371565b506200039c929150620003a0565b5090565b5b808211156200039c5760008155600101620003a1565b600082601f830112620003c957600080fd5b81516001600160401b03811115620003e557620003e56200065b565b6020620003fb601f8301601f19168201620005ab565b82815285828487010111156200041057600080fd5b60005b838110156200043057858101830151828201840152820162000413565b83811115620004425760008385840101525b5095945050505050565b600060208083850312156200046057600080fd5b82516001600160401b03808211156200047857600080fd5b818501915085601f8301126200048d57600080fd5b815181811115620004a257620004a26200065b565b8060051b620004b3858201620005ab565b8281528581019085870183870188018b1015620004cf57600080fd5b600093505b848410156200057257805186811115620004ed57600080fd5b87016040818d03601f19018113156200050557600080fd5b6200050f62000580565b8a830151898111156200052157600080fd5b620005318f8d83870101620003b7565b8252509082015190888211156200054757600080fd5b620005578e8c84860101620003b7565b818c01528552505060019390930192918701918701620004d4565b509998505050505050505050565b604080519081016001600160401b0381118282101715620005a557620005a56200065b565b60405290565b604051601f8201601f191681016001600160401b0381118282101715620005d657620005d66200065b565b604052919050565b600181811c90821680620005f357607f821691505b602082108114156200061557634e487b7160e01b600052602260045260246000fd5b50919050565b60006000198214156200063e57634e487b7160e01b600052601160045260246000fd5b5060010190565b634e487b7160e01b600052603260045260246000fd5b634e487b7160e01b600052604160045260246000fd5b6132dc80620006816000396000f3fe6080604052600436106102385760003560e01c80638456cb5911610138578063adda2c2e116100b0578063c9f1f7de1161007f578063eb41540d11610064578063eb41540d1461068d578063f2fde38b146106ad578063f9bfaa7d146106cd57600080fd5b8063c9f1f7de14610658578063e84d69871461066d57600080fd5b8063adda2c2e146105bf578063b23b104214610604578063b7dc3b1814610619578063c19d93fb1461062c57600080fd5b806391b7f5ed116101075780639c87c38c116100ec5780639c87c38c146105745780639ef3c45814610594578063a035b1fe146105a957600080fd5b806391b7f5ed14610532578063956909361461055257600080fd5b80638456cb59146104ca5780638aa0fdad146104df5780638b5b9ccc146104ff5780638da5cb5b1461051457600080fd5b80633f4ba83a116101cb5780635c975abb1161019a578063715018a61161017f578063715018a614610472578063719ce73e1461048757806376dd110f1461049d57600080fd5b80635c975abb146104265780636d763a6e1461045057600080fd5b80633f4ba83a146103815780634c6b6c6f14610396578063513f1990146103b85780635bce402a146103f057600080fd5b806335343c2d1161020757806335343c2d1461030857806337011d3d1461031f57806337caa8b61461033f5780633ccfd60b1461036c57600080fd5b80630731b1dc146102445780630d32c3761461026f578063246982c4146102b8578063319b97c4146102e557600080fd5b3661023f57005b600080fd5b34801561025057600080fd5b506102596106ed565b6040516102669190613148565b60405180910390f35b34801561027b57600080fd5b506102a361028a366004612d5f565b601e602052600090815260409020805460019091015482565b60408051928352602083019190915201610266565b3480156102c457600080fd5b506102d86102d3366004612e65565b61077b565b604051610266919061315b565b3480156102f157600080fd5b506102fa6109d3565b604051908152602001610266565b34801561031457600080fd5b5061031d610a2a565b005b34801561032b57600080fd5b5061031d61033a366004612eb3565b610b3d565b34801561034b57600080fd5b5061035f61035a366004612e65565b610baf565b6040516102669190612fc5565b34801561037857600080fd5b5061031d610cef565b34801561038d57600080fd5b5061031d610e0a565b3480156103a257600080fd5b506103ab610ee7565b6040516102669190613012565b3480156103c457600080fd5b506103d86103d3366004612e65565b6111c9565b6040516001600160a01b039091168152602001610266565b3480156103fc57600080fd5b506103d861040b366004612d5f565b6004602052600090815260409020546001600160a01b031681565b34801561043257600080fd5b506022546104409060ff1681565b6040519015158152602001610266565b34801561045c57600080fd5b506104656111f3565b6040516102669190613074565b34801561047e57600080fd5b5061031d611380565b34801561049357600080fd5b506102fa60205481565b3480156104a957600080fd5b506102fa6104b8366004612d5f565b60036020526000908152604090205481565b3480156104d657600080fd5b5061031d6113d2565b3480156104eb57600080fd5b5061031d6104fa366004612e01565b6114be565b34801561050b57600080fd5b5061035f6116bc565b34801561052057600080fd5b506000546001600160a01b03166103d8565b34801561053e57600080fd5b5061031d61054d366004612e65565b6116ce565b34801561055e57600080fd5b50610567611764565b60405161026691906130cc565b34801561058057600080fd5b5061031d61058f366004612d8f565b6117d6565b3480156105a057600080fd5b5061031d61182a565b3480156105b557600080fd5b506102fa601f5481565b3480156105cb57600080fd5b506105df6105da366004612e65565b611ee5565b604080516001600160a01b039094168452602084019290925290820152606001610266565b34801561061057600080fd5b5061031d611f16565b61031d610627366004612eb3565b6120c7565b34801561063857600080fd5b5060225461064b90610100900460ff1681565b6040516102669190613120565b34801561066457600080fd5b5061031d612252565b34801561067957600080fd5b5061031d610688366004612eb3565b612436565b34801561069957600080fd5b5061031d6106a8366004612e7e565b6124a3565b3480156106b957600080fd5b5061031d6106c8366004612d5f565b612558565b3480156106d957600080fd5b5061031d6106e8366004612d5f565b612628565b602180546106fa906131de565b80601f0160208091040260200160405190810160405280929190818152602001828054610726906131de565b80156107735780601f1061074857610100808354040283529160200191610773565b820191906000526020600020905b81548152906001019060200180831161075657829003601f168201915b505050505081565b6107c66040518060e001604052806000815260200160608152602001606081526020016060815260200160006001600160a01b03168152602001600015158152602001600081525090565b600082815260016020818152604092839020835160e08101909452805484529182018054918401916107f7906131de565b80601f0160208091040260200160405190810160405280929190818152602001828054610823906131de565b80156108705780601f1061084557610100808354040283529160200191610870565b820191906000526020600020905b81548152906001019060200180831161085357829003601f168201915b50505050508152602001600282018054610889906131de565b80601f01602080910402602001604051908101604052809291908181526020018280546108b5906131de565b80156109025780601f106108d757610100808354040283529160200191610902565b820191906000526020600020905b8154815290600101906020018083116108e557829003601f168201915b5050505050815260200160038201805461091b906131de565b80601f0160208091040260200160405190810160405280929190818152602001828054610947906131de565b80156109945780601f1061096957610100808354040283529160200191610994565b820191906000526020600020905b81548152906001019060200180831161097757829003601f168201915b505050918352505060048201546001600160a01b0381166020830152600160a01b900460ff161515604082015260059091015460609091015292915050565b600060015b6001600160a01b0381811660009081526004602052604090205416600114610a2657610a0382613213565b6001600160a01b03918216600090815260046020526040902054909250166109d8565b5090565b6000546001600160a01b03163314610a775760405162461bcd60e51b8152602060048201819052602482015260008051602061328783398151915260448201526064015b60405180910390fd5b60225460ff16610ac05760405162461bcd60e51b815260206004820152601460248201527314185d5cd8589b194e881b9bdd081c185d5cd95960621b6044820152606401610a6e565b4780610ac95750565b600080546040516001600160a01b039091169183156108fc02918491818181858888f19350505050158015610b02573d6000803e3d6000fd5b5060405181815233907f7084f5476618d8e60b11ef0d7d3f06914655adb8793e28ff7f018d4c76d505d5906020015b60405180910390a2505b565b6000546001600160a01b03163314610b855760405162461bcd60e51b815260206004820181905260248201526000805160206132878339815191526044820152606401610a6e565b60008281526001602090815260409091208251610baa92600290920191840190612afb565b505050565b606060008267ffffffffffffffff811115610bcc57610bcc613270565b604051908082528060200260200182016040528015610bf5578160200160208202803683370190505b506001600090815260046020527fabd6e7cb50984ff9c2f3e18a2660c3353dadf4e3291deeb275dae2cd1e44fe05549192506001600160a01b03909116905b84811015610ce6576001600160a01b03821660011415610c91576000546001600160a01b0316838281518110610c6c57610c6c61325a565b60200260200101906001600160a01b031690816001600160a01b031681525050610cd6565b81838281518110610ca457610ca461325a565b6001600160a01b0392831660209182029290920181019190915292811660009081526004909352604090922054909116905b610cdf81613213565b9050610c34565b50909392505050565b6000546001600160a01b03163314610d475760225460ff1615610d475760405162461bcd60e51b815260206004820152601060248201526f14185d5cd8589b194e881c185d5cd95960821b6044820152606401610a6e565b336000908152601e602052604090205480610d5f5750565b336000818152601e6020526040808220828155426001909101555183156108fc0291849190818181858888f19350505050158015610da1573d6000803e3d6000fd5b5060405181815233907f7084f5476618d8e60b11ef0d7d3f06914655adb8793e28ff7f018d4c76d505d59060200160405180910390a26040516000815233907fd41e2c2e6ff6073e0a0966a496aca69c77c01d9d7f46a54f74a6682d9e537f1690602001610b31565b60225460ff16610e535760405162461bcd60e51b815260206004820152601460248201527314185d5cd8589b194e881b9bdd081c185d5cd95960621b6044820152606401610a6e565b6000546001600160a01b03163314610e9b5760405162461bcd60e51b815260206004820181905260248201526000805160206132878339815191526044820152606401610a6e565b6022805460ff191690556040517fa45f47fdea8a1efdd9029a5691c7f759c32b7c698632b563573e155625d1693390600090a1602280546000919061ff001916610100835b0217905550565b606060025467ffffffffffffffff811115610f0457610f04613270565b604051908082528060200260200182016040528015610f8057816020015b610f6d6040518060e001604052806000815260200160608152602001606081526020016060815260200160006001600160a01b03168152602001600015158152602001600081525090565b815260200190600190039081610f225790505b50905060005b600254811015610a2657600081815260016020818152604092839020835160e0810190945280548452918201805491840191610fc1906131de565b80601f0160208091040260200160405190810160405280929190818152602001828054610fed906131de565b801561103a5780601f1061100f5761010080835404028352916020019161103a565b820191906000526020600020905b81548152906001019060200180831161101d57829003601f168201915b50505050508152602001600282018054611053906131de565b80601f016020809104026020016040519081016040528092919081815260200182805461107f906131de565b80156110cc5780601f106110a1576101008083540402835291602001916110cc565b820191906000526020600020905b8154815290600101906020018083116110af57829003601f168201915b505050505081526020016003820180546110e5906131de565b80601f0160208091040260200160405190810160405280929190818152602001828054611111906131de565b801561115e5780601f106111335761010080835404028352916020019161115e565b820191906000526020600020905b81548152906001019060200180831161114157829003601f168201915b505050918352505060048201546001600160a01b0381166020830152600160a01b900460ff161515604082015260059091015460609091015282518390839081106111ab576111ab61325a565b602002602001018190525080806111c190613213565b915050610f86565b601d81815481106111d957600080fd5b6000918252602090912001546001600160a01b0316905081565b606060006111ff6109d3565b905060008167ffffffffffffffff81111561121c5761121c613270565b60405190808252806020026020018201604052801561126157816020015b604080518082019091526000808252602082015281526020019060019003908161123a5790505b506001600090815260046020527fabd6e7cb50984ff9c2f3e18a2660c3353dadf4e3291deeb275dae2cd1e44fe05549192506001600160a01b03909116905b83811015610ce6576001600160a01b038216600114156113025760405162461bcd60e51b815260206004820152601560248201527f43616e27742067657420746f7020706c617965727300000000000000000000006044820152606401610a6e565b6040805180820182526001600160a01b038416808252600090815260036020908152929020549181019190915283518490839081106113435761134361325a565b6020908102919091018101919091526001600160a01b039283166000908152600490915260409020549091169061137981613213565b90506112a0565b6000546001600160a01b031633146113c85760405162461bcd60e51b815260206004820181905260248201526000805160206132878339815191526044820152606401610a6e565b610b3b6000612762565b6000546001600160a01b0316331461142a5760225460ff161561142a5760405162461bcd60e51b815260206004820152601060248201526f14185d5cd8589b194e881c185d5cd95960821b6044820152606401610a6e565b6000546001600160a01b031633146114725760405162461bcd60e51b815260206004820181905260248201526000805160206132878339815191526044820152606401610a6e565b6022805460ff191660011790556040517f9e87fac88ff661f02d44f95383c817fece4bce600a3dab7a54406878b965e75290600090a1602280546001919061ff00191661010083610ee0565b6000546001600160a01b031633146115065760405162461bcd60e51b815260206004820181905260248201526000805160206132878339815191526044820152606401610a6e565b6040518060e00160405280600254815260200183815260200182815260200160218054611532906131de565b80601f016020809104026020016040519081016040528092919081815260200182805461155e906131de565b80156115ab5780601f10611580576101008083540402835291602001916115ab565b820191906000526020600020905b81548152906001019060200180831161158e57829003601f168201915b505050505081526020016115c76000546001600160a01b031690565b6001600160a01b03168152600160208083018290526000604093840181905260025481528282529290922083518155838301518051919361160d93850192910190612afb565b5060408201518051611629916002840191602090910190612afb565b5060608201518051611645916003840191602090910190612afb565b50608082015160048201805460a08501511515600160a01b027fffffffffffffffffffffff0000000000000000000000000000000000000000009091166001600160a01b039093169290921791909117905560c090910151600590910155600280549060006116b383613213565b91905055505050565b60606116c961035a6109d3565b905090565b6000546001600160a01b031633146117165760405162461bcd60e51b815260206004820181905260248201526000805160206132878339815191526044820152606401610a6e565b60225460ff1661175f5760405162461bcd60e51b815260206004820152601460248201527314185d5cd8589b194e881b9bdd081c185d5cd95960621b6044820152606401610a6e565b601f55565b61176c612b7b565b604080516101008101909152600560086000835b828210156117cd576040805160608101825260038402860180546001600160a01b031682526001808201546020808501919091526002909201549383019390935290835292019101611780565b50505050905090565b6000546001600160a01b0316331461181e5760405162461bcd60e51b815260206004820181905260248201526000805160206132878339815191526044820152606401610a6e565b610baa60218383612bce565b6000546001600160a01b031633146118725760405162461bcd60e51b815260206004820181905260248201526000805160206132878339815191526044820152606401610a6e565b60225460ff166118bb5760405162461bcd60e51b815260206004820152601460248201527314185d5cd8589b194e881b9bdd081c185d5cd95960621b6044820152606401610a6e565b6002602254610100900460ff1660048111156118d9576118d9613244565b146119265760405162461bcd60e51b815260206004820152601760248201527f73746174652073686f756c6420626520726574616b656e0000000000000000006044820152606401610a6e565b60006119326008610baf565b60408051600880825261012082019092529192506000919060208201610100803683370190505090506032602054601061196c91906131a8565b6119769190613186565b816000815181106119895761198961325a565b6020026020010181815250506032602054600b6119a691906131a8565b6119b09190613186565b816001815181106119c3576119c361325a565b6020026020010181815250506002816001815181106119e4576119e461325a565b60200260200101516119f69190613186565b81600281518110611a0957611a0961325a565b60200260200101818152505060196020546002611a2691906131a8565b611a309190613186565b81600381518110611a4357611a4361325a565b60200260200101818152505060326020546003611a6091906131a8565b611a6a9190613186565b81600481518110611a7d57611a7d61325a565b6020026020010181815250506014602054611a989190613186565b81600581518110611aab57611aab61325a565b6020026020010181815250506019602054611ac69190613186565b81600681518110611ad957611ad961325a565b6020026020010181815250506032602054611af49190613186565b81600781518110611b0757611b0761325a565b60200260200101818152505060005b6008811015611d1d576000838281518110611b3357611b3361325a565b60200260200101519050601e6000826001600160a01b03166001600160a01b031681526020019081526020016000206001015460001415611bba57601d80546001810182556000919091527f6d4407e7be21f808e6509aa9fa9143369579dd7d760fe20a2c09680fc146134f0180546001600160a01b0319166001600160a01b0383161790555b828281518110611bcc57611bcc61325a565b6020026020010151601e6000836001600160a01b03166001600160a01b031681526020019081526020016000206000016000828254611c0b919061316e565b90915550506001600160a01b0381166000818152601e60209081526040918290204260018201555491519182527fd41e2c2e6ff6073e0a0966a496aca69c77c01d9d7f46a54f74a6682d9e537f16910160405180910390a26040518060600160405280826001600160a01b03168152602001848481518110611c8f57611c8f61325a565b60209081029190910181015182526001600160a01b038416600090815260038252604090205491015260058360088110611ccb57611ccb61325a565b82516003919091029190910180546001600160a01b0319166001600160a01b03909216919091178155602082015160018201556040909101516002909101555080611d1581613213565b915050611b16565b5080600781518110611d3157611d3161325a565b602002602001015181600681518110611d4c57611d4c61325a565b602002602001015182600581518110611d6757611d6761325a565b602002602001015183600481518110611d8257611d8261325a565b602002602001015184600381518110611d9d57611d9d61325a565b602002602001015185600281518110611db857611db861325a565b602002602001015186600181518110611dd357611dd361325a565b602002602001015187600081518110611dee57611dee61325a565b6020026020010151602054611e0391906131c7565b611e0d91906131c7565b611e1791906131c7565b611e2191906131c7565b611e2b91906131c7565b611e3591906131c7565b611e3f91906131c7565b611e4991906131c7565b601e6000611e5f6000546001600160a01b031690565b6001600160a01b03166001600160a01b031681526020019081526020016000206000016000828254611e91919061316e565b90915550429050601e6000611eae6000546001600160a01b031690565b6001600160a01b031681526020808201929092526040016000908120600101929092555550506022805461ff001916610300179055565b60058160088110611ef557600080fd5b60030201805460018201546002909201546001600160a01b03909116925083565b60225460ff16611f5f5760405162461bcd60e51b815260206004820152601460248201527314185d5cd8589b194e881b9bdd081c185d5cd95960621b6044820152606401610a6e565b6000546001600160a01b03163314611fa75760405162461bcd60e51b815260206004820181905260248201526000805160206132878339815191526044820152606401610a6e565b6003602254610100900460ff166004811115611fc557611fc5613244565b146120125760405162461bcd60e51b815260206004820152601b60248201527f73746174652073686f756c6420626520646973747269627574656400000000006044820152606401610a6e565b60015b6001600160a01b0381811660009081526004602052604090205416600114612070576001600160a01b039081166000818152600460208181526040808420805487168552600383529084208490559390925290525416612015565b60016000819052600460208190527fabd6e7cb50984ff9c2f3e18a2660c3353dadf4e3291deeb275dae2cd1e44fe0580546001600160a01b0319169092179091556022805461ff001916610100835b021790555050565b6000546001600160a01b0316331461211f5760225460ff161561211f5760405162461bcd60e51b815260206004820152601060248201526f14185d5cd8589b194e881c185d5cd95960821b6044820152606401610a6e565b601f543410156121715760405162461bcd60e51b815260206004820152601660248201527f7061796d656e7420616d6f756e7420746f6f206c6f77000000000000000000006044820152606401610a6e565b6000828152600160205260408120905460048201546001600160a01b039081169116146121c75760008160050154426121aa91906131c7565b60048301549091506121c5906001600160a01b0316826127b2565b505b6004810180546001600160a01b0319163317905581516121f09060038301906020850190612afb565b50426005820155601f546020805460009061220c90849061316e565b9091555050604051839033907fd3aa7599e4b0c574b10dc23d7bf5acf28f2193861951c1ba95a90f8a68073fa090612245908690613148565b60405180910390a3505050565b6000546001600160a01b0316331461229a5760405162461bcd60e51b815260206004820181905260248201526000805160206132878339815191526044820152606401610a6e565b60225460ff166122e35760405162461bcd60e51b815260206004820152601460248201527314185d5cd8589b194e881b9bdd081c185d5cd95960621b6044820152606401610a6e565b6001602254610100900460ff16600481111561230157612301613244565b1461234e5760405162461bcd60e51b815260206004820152601660248201527f73746174652073686f756c6420626520706175736564000000000000000000006044820152606401610a6e565b6000805b60025481101561241f576000818152600160205260409020915061237e6000546001600160a01b031690565b60048301546001600160a01b0390811691161461240d5760008260050154426123a791906131c7565b60048401549091506123c2906001600160a01b0316826127b2565b4260058401556000546004840180546001600160a01b0319166001600160a01b03909216919091179055602180546003850191906123ff906131de565b61240a929190612c42565b50505b8061241781613213565b915050612352565b50602280546002919061ff001916610100836120bf565b6000546001600160a01b0316331461247e5760405162461bcd60e51b815260206004820181905260248201526000805160206132878339815191526044820152606401610a6e565b60008281526001602081815260409092208351610baa93919092019190840190612afb565b6000546001600160a01b031633146124eb5760405162461bcd60e51b815260206004820181905260248201526000805160206132878339815191526044820152606401610a6e565b60008281526001602052604090206004015460ff600160a01b9091041615158115151461255457600082815260016020526040902060040180547fffffffffffffffffffffff00ffffffffffffffffffffffffffffffffffffffff16600160a01b831515021790555b5050565b6000546001600160a01b031633146125a05760405162461bcd60e51b815260206004820181905260248201526000805160206132878339815191526044820152606401610a6e565b6001600160a01b03811661261c5760405162461bcd60e51b815260206004820152602660248201527f4f776e61626c653a206e6577206f776e657220697320746865207a65726f206160448201527f64647265737300000000000000000000000000000000000000000000000000006064820152608401610a6e565b61262581612762565b50565b6000546001600160a01b031633146126705760405162461bcd60e51b815260206004820181905260248201526000805160206132878339815191526044820152606401610a6e565b6001600160a01b0381166000908152601e602052604090205480612692575050565b6001600160a01b038281166000908152601e6020526040808220828155426001909101558154905192169183156108fc0291849190818181858888f193505050501580156126e4573d6000803e3d6000fd5b5060405181815233907f7084f5476618d8e60b11ef0d7d3f06914655adb8793e28ff7f018d4c76d505d59060200160405180910390a2816001600160a01b03167fd41e2c2e6ff6073e0a0966a496aca69c77c01d9d7f46a54f74a6682d9e537f16600060405161275691815260200190565b60405180910390a25050565b600080546001600160a01b038381166001600160a01b0319831681178455604051919092169283917f8be0079c531659141344cd1fd0a4f28419497f9722a3daafe3b4186f6b6457e09190a35050565b6001600160a01b03828116600090815260046020526040902054166127db57612554828261280a565b6001600160a01b03821660009081526003602052604090205461255490839061280590849061316e565b612898565b6001600160a01b03828116600090815260046020526040902054161561282f57600080fd5b600061283a8261292e565b6001600160a01b03938416600081815260036020908152604080832096909655928616808252600490935284812080548383529582208054969097166001600160a01b03199687161790965591909152835490921690911790915550565b6001600160a01b03828116600090815260046020526040902054166128bc57600080fd5b60006128c78361298c565b6001600160a01b03808516600090815260046020526040902054919250166128f0828483612a07565b15612915576001600160a01b0384166000908152600360205260409020839055612928565b61291e84612a77565b612928848461280a565b50505050565b600060015b6001600160a01b0380821660009081526004602052604090205461295b918391869116612a07565b156129665792915050565b6001600160a01b0390811660009081526004602052604090205416612933565b50919050565b600060015b6001600160a01b03818116600090815260046020526040902054166001146129fe576001600160a01b03808216600090815260046020526040902054811690841614156129de5792915050565b6001600160a01b0390811660009081526004602052604090205416612991565b50600092915050565b60006001600160a01b03841660011480612a3957506001600160a01b0384166000908152600360205260409020548311155b8015612a6f57506001600160a01b03821660011480612a6f57506001600160a01b03821660009081526003602052604090205483115b949350505050565b6001600160a01b0381811660009081526004602052604090205416612a9b57600080fd5b6000612aa68261298c565b6001600160a01b039283166000818152600460209081526040808320805495881684528184208054969098166001600160a01b0319968716179097559282528554909316909455600390915282209190915550565b828054612b07906131de565b90600052602060002090601f016020900481019282612b295760008555612b6f565b82601f10612b4257805160ff1916838001178555612b6f565b82800160010185558215612b6f579182015b82811115612b6f578251825591602001919060010190612b54565b50610a26929150612cbd565b6040518061010001604052806008905b612bb8604051806060016040528060006001600160a01b0316815260200160008152602001600081525090565b815260200190600190039081612b8b5790505090565b828054612bda906131de565b90600052602060002090601f016020900481019282612bfc5760008555612b6f565b82601f10612c155782800160ff19823516178555612b6f565b82800160010185558215612b6f579182015b82811115612b6f578235825591602001919060010190612c27565b828054612c4e906131de565b90600052602060002090601f016020900481019282612c705760008555612b6f565b82601f10612c815780548555612b6f565b82800160010185558215612b6f57600052602060002091601f016020900482015b82811115612b6f578254825591600101919060010190612ca2565b5b80821115610a265760008155600101612cbe565b600082601f830112612ce357600080fd5b813567ffffffffffffffff80821115612cfe57612cfe613270565b604051601f8301601f19908116603f01168101908282118183101715612d2657612d26613270565b81604052838152866020858801011115612d3f57600080fd5b836020870160208301376000602085830101528094505050505092915050565b600060208284031215612d7157600080fd5b81356001600160a01b0381168114612d8857600080fd5b9392505050565b60008060208385031215612da257600080fd5b823567ffffffffffffffff80821115612dba57600080fd5b818501915085601f830112612dce57600080fd5b813581811115612ddd57600080fd5b866020828501011115612def57600080fd5b60209290920196919550909350505050565b60008060408385031215612e1457600080fd5b823567ffffffffffffffff80821115612e2c57600080fd5b612e3886838701612cd2565b93506020850135915080821115612e4e57600080fd5b50612e5b85828601612cd2565b9150509250929050565b600060208284031215612e7757600080fd5b5035919050565b60008060408385031215612e9157600080fd5b8235915060208301358015158114612ea857600080fd5b809150509250929050565b60008060408385031215612ec657600080fd5b82359150602083013567ffffffffffffffff811115612ee457600080fd5b612e5b85828601612cd2565b6000815180845260005b81811015612f1657602081850181015186830182015201612efa565b81811115612f28576000602083870101525b50601f01601f19169290920160200192915050565b805182526000602082015160e06020850152612f5c60e0850182612ef0565b905060408301518482036040860152612f758282612ef0565b91505060608301518482036060860152612f8f8282612ef0565b9150506001600160a01b03608084015116608085015260a0830151151560a085015260c083015160c08501528091505092915050565b6020808252825182820181905260009190848201906040850190845b818110156130065783516001600160a01b031683529284019291840191600101612fe1565b50909695505050505050565b6000602080830181845280855180835260408601915060408160051b870101925083870160005b8281101561306757603f19888603018452613055858351612f3d565b94509285019290850190600101613039565b5092979650505050505050565b602080825282518282018190526000919060409081850190868401855b828110156130bf57815180516001600160a01b03168552860151868501529284019290850190600101613091565b5091979650505050505050565b6103008101818360005b600881101561311757815180516001600160a01b031684526020808201518186015260409182015191850191909152606090930192909101906001016130d6565b50505092915050565b602081016005831061314257634e487b7160e01b600052602160045260246000fd5b91905290565b602081526000612d886020830184612ef0565b602081526000612d886020830184612f3d565b600082198211156131815761318161322e565b500190565b6000826131a357634e487b7160e01b600052601260045260246000fd5b500490565b60008160001904831182151516156131c2576131c261322e565b500290565b6000828210156131d9576131d961322e565b500390565b600181811c908216806131f257607f821691505b6020821081141561298657634e487b7160e01b600052602260045260246000fd5b60006000198214156132275761322761322e565b5060010190565b634e487b7160e01b600052601160045260246000fd5b634e487b7160e01b600052602160045260246000fd5b634e487b7160e01b600052603260045260246000fd5b634e487b7160e01b600052604160045260246000fdfe4f776e61626c653a2063616c6c6572206973206e6f7420746865206f776e6572a2646970667358221220aff98c5d6d51badff773bde8c545d25364d2c9c630c7f082f99257e9abd9d21464736f6c63430008060033",
  "linkReferences": {},
  "deployedLinkReferences": {}
}