{
  "_format": "hh-sol-artifact-1",
  "contractName": "DogeGame",
  "sourceName": "contracts/DogeGame.sol",
  "abi": [
    {
      "inputs": [
        {
          "components": [
            {
              "internalType": "string",
              "name": "name",
              "type": "string"
            },
            {
              "internalType": "string",
              "name": "image",
              "type": "string"
            }
          ],
          "internalType": "struct DogeGame.PersonParam[]",
          "name": "_persons",
          "type": "tuple[]"
        }
      ],
      "stateMutability": "nonpayable",
      "type": "constructor"
    },
    {
      "anonymous": false,
      "inputs": [
        {
          "indexed": true,
          "internalType": "address",
          "name": "account",
          "type": "address"
        },
        {
          "indexed": false,
          "internalType": "uint256",
          "name": "allowance",
          "type": "uint256"
        }
      ],
      "name": "AllowanceUpdate",
      "type": "event"
    },
    {
      "anonymous": false,
      "inputs": [
        {
          "indexed": true,
          "internalType": "address",
          "name": "previousOwner",
          "type": "address"
        },
        {
          "indexed": true,
          "internalType": "address",
          "name": "newOwner",
          "type": "address"
        }
      ],
      "name": "OwnershipTransferred",
      "type": "event"
    },
    {
      "anonymous": false,
      "inputs": [],
      "name": "Paused",
      "type": "event"
    },
    {
      "anonymous": false,
      "inputs": [
        {
          "indexed": true,
          "internalType": "address",
          "name": "buyer",
          "type": "address"
        },
        {
          "indexed": true,
          "internalType": "uint256",
          "name": "personId",
          "type": "uint256"
        },
        {
          "indexed": false,
          "internalType": "string",
          "name": "punchline",
          "type": "string"
        }
      ],
      "name": "Purchase",
      "type": "event"
    },
    {
      "anonymous": false,
      "inputs": [],
      "name": "Unpaused",
      "type": "event"
    },
    {
      "anonymous": false,
      "inputs": [
        {
          "indexed": true,
          "internalType": "address",
          "name": "beneficiary",
          "type": "address"
        },
        {
          "indexed": false,
          "internalType": "uint256",
          "name": "amount",
          "type": "uint256"
        }
      ],
      "name": "Withdrawn",
      "type": "event"
    },
    {
      "inputs": [
        {
          "internalType": "address",
          "name": "",
          "type": "address"
        }
      ],
      "name": "addressToAllowance",
      "outputs": [
        {
          "internalType": "uint256",
          "name": "value",
          "type": "uint256"
        },
        {
          "internalType": "uint256",
          "name": "timestamp",
          "type": "uint256"
        }
      ],
      "stateMutability": "view",
      "type": "function"
    },
    {
      "inputs": [
        {
          "internalType": "uint256",
          "name": "",
          "type": "uint256"
        }
      ],
      "name": "allowanceAddresses",
      "outputs": [
        {
          "internalType": "address",
          "name": "",
          "type": "address"
        }
      ],
      "stateMutability": "view",
      "type": "function"
    },
    {
      "inputs": [
        {
          "internalType": "uint256",
          "name": "_personId",
          "type": "uint256"
        },
        {
          "internalType": "string",
          "name": "_punchline",
          "type": "string"
        }
      ],
      "name": "buy",
      "outputs": [],
      "stateMutability": "payable",
      "type": "function"
    },
    {
      "inputs": [],
      "name": "defaultPunchline",
      "outputs": [
        {
          "internalType": "string",
          "name": "",
          "type": "string"
        }
      ],
      "stateMutability": "view",
      "type": "function"
    },
    {
      "inputs": [],
      "name": "distributePrizePool",
      "outputs": [],
      "stateMutability": "nonpayable",
      "type": "function"
    },
    {
      "inputs": [],
      "name": "fullWithdrawal",
      "outputs": [],
      "stateMutability": "nonpayable",
      "type": "function"
    },
    {
      "inputs": [],
      "name": "getLastWinners",
      "outputs": [
        {
          "components": [
            {
              "internalType": "address",
              "name": "winner",
              "type": "address"
            },
            {
              "internalType": "uint256",
              "name": "prize",
              "type": "uint256"
            },
            {
              "internalType": "uint256",
              "name": "score",
              "type": "uint256"
            }
          ],
          "internalType": "struct DogeGame.Winner[8]",
          "name": "",
          "type": "tuple[8]"
        }
      ],
      "stateMutability": "view",
      "type": "function"
    },
    {
      "inputs": [],
      "name": "getLeaderboard",
      "outputs": [
        {
          "components": [
            {
              "internalType": "address",
              "name": "player",
              "type": "address"
            },
            {
              "internalType": "uint256",
              "name": "score",
              "type": "uint256"
            }
          ],
          "internalType": "struct DogeGame.Player[]",
          "name": "",
          "type": "tuple[]"
        }
      ],
      "stateMutability": "view",
      "type": "function"
    },
    {
      "inputs": [],
      "name": "getNoOfPlayers",
      "outputs": [
        {
          "internalType": "uint256",
          "name": "noOfPlayers",
          "type": "uint256"
        }
      ],
      "stateMutability": "view",
      "type": "function"
    },
    {
      "inputs": [
        {
          "internalType": "uint256",
          "name": "_personId",
          "type": "uint256"
        }
      ],
      "name": "getPerson",
      "outputs": [
        {
          "components": [
            {
              "internalType": "uint256",
              "name": "id",
              "type": "uint256"
            },
            {
              "internalType": "string",
              "name": "name",
              "type": "string"
            },
            {
              "internalType": "string",
              "name": "image",
              "type": "string"
            },
            {
              "internalType": "string",
              "name": "punchline",
              "type": "string"
            },
            {
              "internalType": "address",
              "name": "owner",
              "type": "address"
            },
            {
              "internalType": "bool",
              "name": "active",
              "type": "bool"
            },
            {
              "internalType": "uint256",
              "name": "timestamp",
              "type": "uint256"
            }
          ],
          "internalType": "struct DogeGame.Person",
          "name": "person",
          "type": "tuple"
        }
      ],
      "stateMutability": "view",
      "type": "function"
    },
    {
      "inputs": [],
      "name": "getPersons",
      "outputs": [
        {
          "components": [
            {
              "internalType": "uint256",
              "name": "id",
              "type": "uint256"
            },
            {
              "internalType": "string",
              "name": "name",
              "type": "string"
            },
            {
              "internalType": "string",
              "name": "image",
              "type": "string"
            },
            {
              "internalType": "string",
              "name": "punchline",
              "type": "string"
            },
            {
              "internalType": "address",
              "name": "owner",
              "type": "address"
            },
            {
              "internalType": "bool",
              "name": "active",
              "type": "bool"
            },
            {
              "internalType": "uint256",
              "name": "timestamp",
              "type": "uint256"
            }
          ],
          "internalType": "struct DogeGame.Person[]",
          "name": "toReturn",
          "type": "tuple[]"
        }
      ],
      "stateMutability": "view",
      "type": "function"
    },
    {
      "inputs": [],
      "name": "getPlayers",
      "outputs": [
        {
          "internalType": "address[]",
          "name": "",
          "type": "address[]"
        }
      ],
      "stateMutability": "view",
      "type": "function"
    },
    {
      "inputs": [
        {
          "internalType": "uint256",
          "name": "k",
          "type": "uint256"
        }
      ],
      "name": "getTop",
      "outputs": [
        {
          "internalType": "address[]",
          "name": "",
          "type": "address[]"
        }
      ],
      "stateMutability": "view",
      "type": "function"
    },
    {
      "inputs": [
        {
          "internalType": "uint256",
          "name": "",
          "type": "uint256"
        }
      ],
      "name": "lastWinners",
      "outputs": [
        {
          "internalType": "address",
          "name": "winner",
          "type": "address"
        },
        {
          "internalType": "uint256",
          "name": "prize",
          "type": "uint256"
        },
        {
          "internalType": "uint256",
          "name": "score",
          "type": "uint256"
        }
      ],
      "stateMutability": "view",
      "type": "function"
    },
    {
      "inputs": [
        {
          "internalType": "string",
          "name": "_name",
          "type": "string"
        },
        {
          "internalType": "string",
          "name": "_image",
          "type": "string"
        }
      ],
      "name": "mint",
      "outputs": [],
      "stateMutability": "nonpayable",
      "type": "function"
    },
    {
      "inputs": [
        {
          "internalType": "address",
          "name": "",
          "type": "address"
        }
      ],
      "name": "nextPlayers",
      "outputs": [
        {
          "internalType": "address",
          "name": "",
          "type": "address"
        }
      ],
      "stateMutability": "view",
      "type": "function"
    },
    {
      "inputs": [],
      "name": "owner",
      "outputs": [
        {
          "internalType": "address",
          "name": "",
          "type": "address"
        }
      ],
      "stateMutability": "view",
      "type": "function"
    },
    {
      "inputs": [
        {
          "internalType": "address",
          "name": "_player",
          "type": "address"
        }
      ],
      "name": "ownerWithdraw",
      "outputs": [],
      "stateMutability": "nonpayable",
      "type": "function"
    },
    {
      "inputs": [],
      "name": "pause",
      "outputs": [],
      "stateMutability": "nonpayable",
      "type": "function"
    },
    {
      "inputs": [],
      "name": "paused",
      "outputs": [
        {
          "internalType": "bool",
          "name": "",
          "type": "bool"
        }
      ],
      "stateMutability": "view",
      "type": "function"
    },
    {
      "inputs": [],
      "name": "price",
      "outputs": [
        {
          "internalType": "uint256",
          "name": "",
          "type": "uint256"
        }
      ],
      "stateMutability": "view",
      "type": "function"
    },
    {
      "inputs": [],
      "name": "prizePool",
      "outputs": [
        {
          "internalType": "uint256",
          "name": "",
          "type": "uint256"
        }
      ],
      "stateMutability": "view",
      "type": "function"
    },
    {
      "inputs": [],
      "name": "renounceOwnership",
      "outputs": [],
      "stateMutability": "nonpayable",
      "type": "function"
    },
    {
      "inputs": [],
      "name": "retake",
      "outputs": [],
      "stateMutability": "nonpayable",
      "type": "function"
    },
    {
      "inputs": [
        {
          "internalType": "address",
          "name": "",
          "type": "address"
        }
      ],
      "name": "scores",
      "outputs": [
        {
          "internalType": "uint256",
          "name": "",
          "type": "uint256"
        }
      ],
      "stateMutability": "view",
      "type": "function"
    },
    {
      "inputs": [
        {
          "internalType": "uint256",
          "name": "_price",
          "type": "uint256"
        }
      ],
      "name": "setPrice",
      "outputs": [],
      "stateMutability": "nonpayable",
      "type": "function"
    },
    {
      "inputs": [],
      "name": "state",
      "outputs": [
        {
          "internalType": "enum DogeGame.State",
          "name": "",
          "type": "uint8"
        }
      ],
      "stateMutability": "view",
      "type": "function"
    },
    {
      "inputs": [
        {
          "internalType": "address",
          "name": "newOwner",
          "type": "address"
        }
      ],
      "name": "transferOwnership",
      "outputs": [],
      "stateMutability": "nonpayable",
      "type": "function"
    },
    {
      "inputs": [],
      "name": "unpause",
      "outputs": [],
      "stateMutability": "nonpayable",
      "type": "function"
    },
    {
      "inputs": [
        {
          "internalType": "uint256",
          "name": "_personId",
          "type": "uint256"
        },
        {
          "internalType": "string",
          "name": "_image",
          "type": "string"
        }
      ],
      "name": "updatePeronImage",
      "outputs": [],
      "stateMutability": "nonpayable",
      "type": "function"
    },
    {
      "inputs": [
        {
          "internalType": "uint256",
          "name": "_personId",
          "type": "uint256"
        },
        {
          "internalType": "bool",
          "name": "_active",
          "type": "bool"
        }
      ],
      "name": "updatePersonActive",
      "outputs": [],
      "stateMutability": "nonpayable",
      "type": "function"
    },
    {
      "inputs": [
        {
          "internalType": "uint256",
          "name": "_personId",
          "type": "uint256"
        },
        {
          "internalType": "string",
          "name": "_name",
          "type": "string"
        }
      ],
      "name": "updatePersonName",
      "outputs": [],
      "stateMutability": "nonpayable",
      "type": "function"
    },
    {
      "inputs": [],
      "name": "wipePlayers",
      "outputs": [],
      "stateMutability": "nonpayable",
      "type": "function"
    },
    {
      "inputs": [],
      "name": "withdraw",
      "outputs": [],
      "stateMutability": "nonpayable",
      "type": "function"
    },
    {
      "stateMutability": "payable",
      "type": "receive"
    }
  ],
  "bytecode": "0x6080604052670de0b6b3a7640000601f556021805461ffff19166101011790553480156200002c57600080fd5b50604051620035f4380380620035f48339810160408190526200004f91620003c1565b6200005a3362000227565b6001600081815260046020527fabd6e7cb50984ff9c2f3e18a2660c3353dadf4e3291deeb275dae2cd1e44fe0580546001600160a01b03191690921790915581516002555b6002548110156200021f576040518060e00160405280828152602001838381518110620000d057620000d0620005ba565b6020026020010151600001518152602001838381518110620000f657620000f6620005ba565b60200260200101516020015181526020016040518060400160405280600d81526020016c54616b65204d65204f7665722160981b8152508152602001620001426200027760201b60201c565b6001600160a01b03168152600160208083018290526000604093840181905285815282825292909220835181558383015180519193620001889385019291019062000286565b5060408201518051620001a691600284019160209091019062000286565b5060608201518051620001c491600384019160209091019062000286565b50608082015160048201805460a08501511515600160a01b026001600160a81b03199091166001600160a01b039093169290921791909117905560c09091015160059091015580620002168162000590565b9150506200009f565b5050620005e6565b600080546001600160a01b038381166001600160a01b0319831681178455604051919092169283917f8be0079c531659141344cd1fd0a4f28419497f9722a3daafe3b4186f6b6457e09190a35050565b6000546001600160a01b031690565b828054620002949062000553565b90600052602060002090601f016020900481019282620002b8576000855562000303565b82601f10620002d357805160ff191683800117855562000303565b8280016001018555821562000303579182015b8281111562000303578251825591602001919060010190620002e6565b506200031192915062000315565b5090565b5b8082111562000311576000815560010162000316565b600082601f8301126200033e57600080fd5b81516001600160401b038111156200035a576200035a620005d0565b602062000370601f8301601f1916820162000520565b82815285828487010111156200038557600080fd5b60005b83811015620003a557858101830151828201840152820162000388565b83811115620003b75760008385840101525b5095945050505050565b60006020808385031215620003d557600080fd5b82516001600160401b0380821115620003ed57600080fd5b818501915085601f8301126200040257600080fd5b815181811115620004175762000417620005d0565b8060051b6200042885820162000520565b8281528581019085870183870188018b10156200044457600080fd5b600093505b84841015620004e7578051868111156200046257600080fd5b87016040818d03601f19018113156200047a57600080fd5b62000484620004f5565b8a830151898111156200049657600080fd5b620004a68f8d838701016200032c565b825250908201519088821115620004bc57600080fd5b620004cc8e8c848601016200032c565b818c0152855250506001939093019291870191870162000449565b509998505050505050505050565b604080519081016001600160401b03811182821017156200051a576200051a620005d0565b60405290565b604051601f8201601f191681016001600160401b03811182821017156200054b576200054b620005d0565b604052919050565b600181811c908216806200056857607f821691505b602082108114156200058a57634e487b7160e01b600052602260045260246000fd5b50919050565b6000600019821415620005b357634e487b7160e01b600052601160045260246000fd5b5060010190565b634e487b7160e01b600052603260045260246000fd5b634e487b7160e01b600052604160045260246000fd5b612ffe80620005f66000396000f3fe60806040526004361061021d5760003560e01c80638456cb591161011d578063adda2c2e116100b0578063c9f1f7de1161007f578063eb41540d11610064578063eb41540d14610676578063f2fde38b14610696578063f9bfaa7d146106b657600080fd5b8063c9f1f7de14610641578063e84d69871461065657600080fd5b8063adda2c2e146105a8578063b23b1042146105ed578063b7dc3b1814610602578063c19d93fb1461061557600080fd5b806391b7f5ed116100ec57806391b7f5ed1461053b578063956909361461055b5780639ef3c4581461057d578063a035b1fe1461059257600080fd5b80638456cb59146104d35780638aa0fdad146104e85780638b5b9ccc146105085780638da5cb5b1461051d57600080fd5b80633f4ba83a116101b05780635c975abb1161017f578063715018a611610164578063715018a61461047b578063719ce73e1461049057806376dd110f146104a657600080fd5b80635c975abb1461042f5780636d763a6e1461045957600080fd5b80633f4ba83a1461038a5780634c6b6c6f1461039f578063513f1990146103c15780635bce402a146103f957600080fd5b806335343c2d116101ec57806335343c2d1461031157806337011d3d1461032857806337caa8b6146103485780633ccfd60b1461037557600080fd5b80630731b1dc146102295780630d32c37614610278578063246982c4146102c1578063319b97c4146102ee57600080fd5b3661022457005b600080fd5b34801561023557600080fd5b506102626040518060400160405280600d81526020016c54616b65204d65204f7665722160981b81525081565b60405161026f9190612e6a565b60405180910390f35b34801561028457600080fd5b506102ac610293366004612af3565b601e602052600090815260409020805460019091015482565b6040805192835260208301919091520161026f565b3480156102cd57600080fd5b506102e16102dc366004612b87565b6106d6565b60405161026f9190612e7d565b3480156102fa57600080fd5b5061030361092e565b60405190815260200161026f565b34801561031d57600080fd5b50610326610985565b005b34801561033457600080fd5b50610326610343366004612bd5565b610a98565b34801561035457600080fd5b50610368610363366004612b87565b610b0a565b60405161026f9190612ce7565b34801561038157600080fd5b50610326610c4a565b34801561039657600080fd5b50610326610d65565b3480156103ab57600080fd5b506103b4610e42565b60405161026f9190612d34565b3480156103cd57600080fd5b506103e16103dc366004612b87565b611124565b6040516001600160a01b03909116815260200161026f565b34801561040557600080fd5b506103e1610414366004612af3565b6004602052600090815260409020546001600160a01b031681565b34801561043b57600080fd5b506021546104499060ff1681565b604051901515815260200161026f565b34801561046557600080fd5b5061046e61114e565b60405161026f9190612d96565b34801561048757600080fd5b506103266112db565b34801561049c57600080fd5b5061030360205481565b3480156104b257600080fd5b506103036104c1366004612af3565b60036020526000908152604090205481565b3480156104df57600080fd5b5061032661132d565b3480156104f457600080fd5b50610326610503366004612b23565b611419565b34801561051457600080fd5b506103686115b2565b34801561052957600080fd5b506000546001600160a01b03166103e1565b34801561054757600080fd5b50610326610556366004612b87565b6115c4565b34801561056757600080fd5b5061057061165a565b60405161026f9190612dee565b34801561058957600080fd5b506103266116cc565b34801561059e57600080fd5b50610303601f5481565b3480156105b457600080fd5b506105c86105c3366004612b87565b611d87565b604080516001600160a01b03909416845260208401929092529082015260600161026f565b3480156105f957600080fd5b50610326611db8565b610326610610366004612bd5565b611f69565b34801561062157600080fd5b5060215461063490610100900460ff1681565b60405161026f9190612e42565b34801561064d57600080fd5b506103266120f4565b34801561066257600080fd5b50610326610671366004612bd5565b6122b9565b34801561068257600080fd5b50610326610691366004612ba0565b612326565b3480156106a257600080fd5b506103266106b1366004612af3565b6123db565b3480156106c257600080fd5b506103266106d1366004612af3565b6124ab565b6107216040518060e001604052806000815260200160608152602001606081526020016060815260200160006001600160a01b03168152602001600015158152602001600081525090565b600082815260016020818152604092839020835160e081019094528054845291820180549184019161075290612f00565b80601f016020809104026020016040519081016040528092919081815260200182805461077e90612f00565b80156107cb5780601f106107a0576101008083540402835291602001916107cb565b820191906000526020600020905b8154815290600101906020018083116107ae57829003601f168201915b505050505081526020016002820180546107e490612f00565b80601f016020809104026020016040519081016040528092919081815260200182805461081090612f00565b801561085d5780601f106108325761010080835404028352916020019161085d565b820191906000526020600020905b81548152906001019060200180831161084057829003601f168201915b5050505050815260200160038201805461087690612f00565b80601f01602080910402602001604051908101604052809291908181526020018280546108a290612f00565b80156108ef5780601f106108c4576101008083540402835291602001916108ef565b820191906000526020600020905b8154815290600101906020018083116108d257829003601f168201915b505050918352505060048201546001600160a01b0381166020830152600160a01b900460ff161515604082015260059091015460609091015292915050565b600060015b6001600160a01b03818116600090815260046020526040902054166001146109815761095e82612f35565b6001600160a01b0391821660009081526004602052604090205490925016610933565b5090565b6000546001600160a01b031633146109d25760405162461bcd60e51b81526020600482018190526024820152600080516020612fa983398151915260448201526064015b60405180910390fd5b60215460ff16610a1b5760405162461bcd60e51b815260206004820152601460248201527314185d5cd8589b194e881b9bdd081c185d5cd95960621b60448201526064016109c9565b4780610a245750565b600080546040516001600160a01b039091169183156108fc02918491818181858888f19350505050158015610a5d573d6000803e3d6000fd5b5060405181815233907f7084f5476618d8e60b11ef0d7d3f06914655adb8793e28ff7f018d4c76d505d5906020015b60405180910390a2505b565b6000546001600160a01b03163314610ae05760405162461bcd60e51b81526020600482018190526024820152600080516020612fa983398151915260448201526064016109c9565b60008281526001602090815260409091208251610b059260029092019184019061297e565b505050565b606060008267ffffffffffffffff811115610b2757610b27612f92565b604051908082528060200260200182016040528015610b50578160200160208202803683370190505b506001600090815260046020527fabd6e7cb50984ff9c2f3e18a2660c3353dadf4e3291deeb275dae2cd1e44fe05549192506001600160a01b03909116905b84811015610c41576001600160a01b03821660011415610bec576000546001600160a01b0316838281518110610bc757610bc7612f7c565b60200260200101906001600160a01b031690816001600160a01b031681525050610c31565b81838281518110610bff57610bff612f7c565b6001600160a01b0392831660209182029290920181019190915292811660009081526004909352604090922054909116905b610c3a81612f35565b9050610b8f565b50909392505050565b6000546001600160a01b03163314610ca25760215460ff1615610ca25760405162461bcd60e51b815260206004820152601060248201526f14185d5cd8589b194e881c185d5cd95960821b60448201526064016109c9565b336000908152601e602052604090205480610cba5750565b336000818152601e6020526040808220828155426001909101555183156108fc0291849190818181858888f19350505050158015610cfc573d6000803e3d6000fd5b5060405181815233907f7084f5476618d8e60b11ef0d7d3f06914655adb8793e28ff7f018d4c76d505d59060200160405180910390a26040516000815233907fd41e2c2e6ff6073e0a0966a496aca69c77c01d9d7f46a54f74a6682d9e537f1690602001610a8c565b60215460ff16610dae5760405162461bcd60e51b815260206004820152601460248201527314185d5cd8589b194e881b9bdd081c185d5cd95960621b60448201526064016109c9565b6000546001600160a01b03163314610df65760405162461bcd60e51b81526020600482018190526024820152600080516020612fa983398151915260448201526064016109c9565b6021805460ff191690556040517fa45f47fdea8a1efdd9029a5691c7f759c32b7c698632b563573e155625d1693390600090a1602180546000919061ff001916610100835b0217905550565b606060025467ffffffffffffffff811115610e5f57610e5f612f92565b604051908082528060200260200182016040528015610edb57816020015b610ec86040518060e001604052806000815260200160608152602001606081526020016060815260200160006001600160a01b03168152602001600015158152602001600081525090565b815260200190600190039081610e7d5790505b50905060005b60025481101561098157600081815260016020818152604092839020835160e0810190945280548452918201805491840191610f1c90612f00565b80601f0160208091040260200160405190810160405280929190818152602001828054610f4890612f00565b8015610f955780601f10610f6a57610100808354040283529160200191610f95565b820191906000526020600020905b815481529060010190602001808311610f7857829003601f168201915b50505050508152602001600282018054610fae90612f00565b80601f0160208091040260200160405190810160405280929190818152602001828054610fda90612f00565b80156110275780601f10610ffc57610100808354040283529160200191611027565b820191906000526020600020905b81548152906001019060200180831161100a57829003601f168201915b5050505050815260200160038201805461104090612f00565b80601f016020809104026020016040519081016040528092919081815260200182805461106c90612f00565b80156110b95780601f1061108e576101008083540402835291602001916110b9565b820191906000526020600020905b81548152906001019060200180831161109c57829003601f168201915b505050918352505060048201546001600160a01b0381166020830152600160a01b900460ff1615156040820152600590910154606090910152825183908390811061110657611106612f7c565b6020026020010181905250808061111c90612f35565b915050610ee1565b601d818154811061113457600080fd5b6000918252602090912001546001600160a01b0316905081565b6060600061115a61092e565b905060008167ffffffffffffffff81111561117757611177612f92565b6040519080825280602002602001820160405280156111bc57816020015b60408051808201909152600080825260208201528152602001906001900390816111955790505b506001600090815260046020527fabd6e7cb50984ff9c2f3e18a2660c3353dadf4e3291deeb275dae2cd1e44fe05549192506001600160a01b03909116905b83811015610c41576001600160a01b0382166001141561125d5760405162461bcd60e51b815260206004820152601560248201527f43616e27742067657420746f7020706c6179657273000000000000000000000060448201526064016109c9565b6040805180820182526001600160a01b0384168082526000908152600360209081529290205491810191909152835184908390811061129e5761129e612f7c565b6020908102919091018101919091526001600160a01b03928316600090815260049091526040902054909116906112d481612f35565b90506111fb565b6000546001600160a01b031633146113235760405162461bcd60e51b81526020600482018190526024820152600080516020612fa983398151915260448201526064016109c9565b610a9660006125e5565b6000546001600160a01b031633146113855760215460ff16156113855760405162461bcd60e51b815260206004820152601060248201526f14185d5cd8589b194e881c185d5cd95960821b60448201526064016109c9565b6000546001600160a01b031633146113cd5760405162461bcd60e51b81526020600482018190526024820152600080516020612fa983398151915260448201526064016109c9565b6021805460ff191660011790556040517f9e87fac88ff661f02d44f95383c817fece4bce600a3dab7a54406878b965e75290600090a1602180546001919061ff00191661010083610e3b565b6000546001600160a01b031633146114615760405162461bcd60e51b81526020600482018190526024820152600080516020612fa983398151915260448201526064016109c9565b6040518060e0016040528060025481526020018381526020018281526020016040518060400160405280600d81526020016c54616b65204d65204f7665722160981b81525081526020016114bd6000546001600160a01b031690565b6001600160a01b0316815260016020808301829052600060409384018190526002548152828252929092208351815583830151805191936115039385019291019061297e565b506040820151805161151f91600284019160209091019061297e565b506060820151805161153b91600384019160209091019061297e565b50608082015160048201805460a08501511515600160a01b027fffffffffffffffffffffff0000000000000000000000000000000000000000009091166001600160a01b039093169290921791909117905560c090910151600590910155600280549060006115a983612f35565b91905055505050565b60606115bf61036361092e565b905090565b6000546001600160a01b0316331461160c5760405162461bcd60e51b81526020600482018190526024820152600080516020612fa983398151915260448201526064016109c9565b60215460ff166116555760405162461bcd60e51b815260206004820152601460248201527314185d5cd8589b194e881b9bdd081c185d5cd95960621b60448201526064016109c9565b601f55565b6116626129fe565b604080516101008101909152600560086000835b828210156116c3576040805160608101825260038402860180546001600160a01b031682526001808201546020808501919091526002909201549383019390935290835292019101611676565b50505050905090565b6000546001600160a01b031633146117145760405162461bcd60e51b81526020600482018190526024820152600080516020612fa983398151915260448201526064016109c9565b60215460ff1661175d5760405162461bcd60e51b815260206004820152601460248201527314185d5cd8589b194e881b9bdd081c185d5cd95960621b60448201526064016109c9565b6002602154610100900460ff16600481111561177b5761177b612f66565b146117c85760405162461bcd60e51b815260206004820152601760248201527f73746174652073686f756c6420626520726574616b656e00000000000000000060448201526064016109c9565b60006117d46008610b0a565b60408051600880825261012082019092529192506000919060208201610100803683370190505090506032602054601061180e9190612eca565b6118189190612ea8565b8160008151811061182b5761182b612f7c565b6020026020010181815250506032602054600b6118489190612eca565b6118529190612ea8565b8160018151811061186557611865612f7c565b60200260200101818152505060028160018151811061188657611886612f7c565b60200260200101516118989190612ea8565b816002815181106118ab576118ab612f7c565b602002602001018181525050601960205460026118c89190612eca565b6118d29190612ea8565b816003815181106118e5576118e5612f7c565b602002602001018181525050603260205460036119029190612eca565b61190c9190612ea8565b8160048151811061191f5761191f612f7c565b602002602001018181525050601460205461193a9190612ea8565b8160058151811061194d5761194d612f7c565b60200260200101818152505060196020546119689190612ea8565b8160068151811061197b5761197b612f7c565b60200260200101818152505060326020546119969190612ea8565b816007815181106119a9576119a9612f7c565b60200260200101818152505060005b6008811015611bbf5760008382815181106119d5576119d5612f7c565b60200260200101519050601e6000826001600160a01b03166001600160a01b031681526020019081526020016000206001015460001415611a5c57601d80546001810182556000919091527f6d4407e7be21f808e6509aa9fa9143369579dd7d760fe20a2c09680fc146134f0180546001600160a01b0319166001600160a01b0383161790555b828281518110611a6e57611a6e612f7c565b6020026020010151601e6000836001600160a01b03166001600160a01b031681526020019081526020016000206000016000828254611aad9190612e90565b90915550506001600160a01b0381166000818152601e60209081526040918290204260018201555491519182527fd41e2c2e6ff6073e0a0966a496aca69c77c01d9d7f46a54f74a6682d9e537f16910160405180910390a26040518060600160405280826001600160a01b03168152602001848481518110611b3157611b31612f7c565b60209081029190910181015182526001600160a01b038416600090815260038252604090205491015260058360088110611b6d57611b6d612f7c565b82516003919091029190910180546001600160a01b0319166001600160a01b03909216919091178155602082015160018201556040909101516002909101555080611bb781612f35565b9150506119b8565b5080600781518110611bd357611bd3612f7c565b602002602001015181600681518110611bee57611bee612f7c565b602002602001015182600581518110611c0957611c09612f7c565b602002602001015183600481518110611c2457611c24612f7c565b602002602001015184600381518110611c3f57611c3f612f7c565b602002602001015185600281518110611c5a57611c5a612f7c565b602002602001015186600181518110611c7557611c75612f7c565b602002602001015187600081518110611c9057611c90612f7c565b6020026020010151602054611ca59190612ee9565b611caf9190612ee9565b611cb99190612ee9565b611cc39190612ee9565b611ccd9190612ee9565b611cd79190612ee9565b611ce19190612ee9565b611ceb9190612ee9565b601e6000611d016000546001600160a01b031690565b6001600160a01b03166001600160a01b031681526020019081526020016000206000016000828254611d339190612e90565b90915550429050601e6000611d506000546001600160a01b031690565b6001600160a01b031681526020808201929092526040016000908120600101929092555550506021805461ff001916610300179055565b60058160088110611d9757600080fd5b60030201805460018201546002909201546001600160a01b03909116925083565b60215460ff16611e015760405162461bcd60e51b815260206004820152601460248201527314185d5cd8589b194e881b9bdd081c185d5cd95960621b60448201526064016109c9565b6000546001600160a01b03163314611e495760405162461bcd60e51b81526020600482018190526024820152600080516020612fa983398151915260448201526064016109c9565b6003602154610100900460ff166004811115611e6757611e67612f66565b14611eb45760405162461bcd60e51b815260206004820152601b60248201527f73746174652073686f756c64206265206469737472696275746564000000000060448201526064016109c9565b60015b6001600160a01b0381811660009081526004602052604090205416600114611f12576001600160a01b039081166000818152600460208181526040808420805487168552600383529084208490559390925290525416611eb7565b60016000819052600460208190527fabd6e7cb50984ff9c2f3e18a2660c3353dadf4e3291deeb275dae2cd1e44fe0580546001600160a01b0319169092179091556021805461ff001916610100835b021790555050565b6000546001600160a01b03163314611fc15760215460ff1615611fc15760405162461bcd60e51b815260206004820152601060248201526f14185d5cd8589b194e881c185d5cd95960821b60448201526064016109c9565b601f543410156120135760405162461bcd60e51b815260206004820152601660248201527f7061796d656e7420616d6f756e7420746f6f206c6f770000000000000000000060448201526064016109c9565b6000828152600160205260408120905460048201546001600160a01b0390811691161461206957600081600501544261204c9190612ee9565b6004830154909150612067906001600160a01b031682612635565b505b6004810180546001600160a01b031916331790558151612092906003830190602085019061297e565b50426005820155601f54602080546000906120ae908490612e90565b9091555050604051839033907fd3aa7599e4b0c574b10dc23d7bf5acf28f2193861951c1ba95a90f8a68073fa0906120e7908690612e6a565b60405180910390a3505050565b6000546001600160a01b0316331461213c5760405162461bcd60e51b81526020600482018190526024820152600080516020612fa983398151915260448201526064016109c9565b60215460ff166121855760405162461bcd60e51b815260206004820152601460248201527314185d5cd8589b194e881b9bdd081c185d5cd95960621b60448201526064016109c9565b6001602154610100900460ff1660048111156121a3576121a3612f66565b146121f05760405162461bcd60e51b815260206004820152601660248201527f73746174652073686f756c64206265207061757365640000000000000000000060448201526064016109c9565b6000805b6002548110156122a257600081815260016020526040902091506122206000546001600160a01b031690565b60048301546001600160a01b039081169116146122905760008260050154426122499190612ee9565b6004840154909150612264906001600160a01b031682612635565b504260058301556000546004830180546001600160a01b0319166001600160a01b039092169190911790555b8061229a81612f35565b9150506121f4565b50602180546002919061ff00191661010083611f61565b6000546001600160a01b031633146123015760405162461bcd60e51b81526020600482018190526024820152600080516020612fa983398151915260448201526064016109c9565b60008281526001602081815260409092208351610b059391909201919084019061297e565b6000546001600160a01b0316331461236e5760405162461bcd60e51b81526020600482018190526024820152600080516020612fa983398151915260448201526064016109c9565b60008281526001602052604090206004015460ff600160a01b909104161515811515146123d757600082815260016020526040902060040180547fffffffffffffffffffffff00ffffffffffffffffffffffffffffffffffffffff16600160a01b831515021790555b5050565b6000546001600160a01b031633146124235760405162461bcd60e51b81526020600482018190526024820152600080516020612fa983398151915260448201526064016109c9565b6001600160a01b03811661249f5760405162461bcd60e51b815260206004820152602660248201527f4f776e61626c653a206e6577206f776e657220697320746865207a65726f206160448201527f646472657373000000000000000000000000000000000000000000000000000060648201526084016109c9565b6124a8816125e5565b50565b6000546001600160a01b031633146124f35760405162461bcd60e51b81526020600482018190526024820152600080516020612fa983398151915260448201526064016109c9565b6001600160a01b0381166000908152601e602052604090205480612515575050565b6001600160a01b038281166000908152601e6020526040808220828155426001909101558154905192169183156108fc0291849190818181858888f19350505050158015612567573d6000803e3d6000fd5b5060405181815233907f7084f5476618d8e60b11ef0d7d3f06914655adb8793e28ff7f018d4c76d505d59060200160405180910390a2816001600160a01b03167fd41e2c2e6ff6073e0a0966a496aca69c77c01d9d7f46a54f74a6682d9e537f1660006040516125d991815260200190565b60405180910390a25050565b600080546001600160a01b038381166001600160a01b0319831681178455604051919092169283917f8be0079c531659141344cd1fd0a4f28419497f9722a3daafe3b4186f6b6457e09190a35050565b6001600160a01b038281166000908152600460205260409020541661265e576123d7828261268d565b6001600160a01b0382166000908152600360205260409020546123d7908390612688908490612e90565b61271b565b6001600160a01b0382811660009081526004602052604090205416156126b257600080fd5b60006126bd826127b1565b6001600160a01b03938416600081815260036020908152604080832096909655928616808252600490935284812080548383529582208054969097166001600160a01b03199687161790965591909152835490921690911790915550565b6001600160a01b038281166000908152600460205260409020541661273f57600080fd5b600061274a8361280f565b6001600160a01b038085166000908152600460205260409020549192501661277382848361288a565b15612798576001600160a01b03841660009081526003602052604090208390556127ab565b6127a1846128fa565b6127ab848461268d565b50505050565b600060015b6001600160a01b038082166000908152600460205260409020546127de91839186911661288a565b156127e95792915050565b6001600160a01b03908116600090815260046020526040902054166127b6565b50919050565b600060015b6001600160a01b0381811660009081526004602052604090205416600114612881576001600160a01b03808216600090815260046020526040902054811690841614156128615792915050565b6001600160a01b0390811660009081526004602052604090205416612814565b50600092915050565b60006001600160a01b038416600114806128bc57506001600160a01b0384166000908152600360205260409020548311155b80156128f257506001600160a01b038216600114806128f257506001600160a01b03821660009081526003602052604090205483115b949350505050565b6001600160a01b038181166000908152600460205260409020541661291e57600080fd5b60006129298261280f565b6001600160a01b039283166000818152600460209081526040808320805495881684528184208054969098166001600160a01b0319968716179097559282528554909316909455600390915282209190915550565b82805461298a90612f00565b90600052602060002090601f0160209004810192826129ac57600085556129f2565b82601f106129c557805160ff19168380011785556129f2565b828001600101855582156129f2579182015b828111156129f25782518255916020019190600101906129d7565b50610981929150612a51565b6040518061010001604052806008905b612a3b604051806060016040528060006001600160a01b0316815260200160008152602001600081525090565b815260200190600190039081612a0e5790505090565b5b808211156109815760008155600101612a52565b600082601f830112612a7757600080fd5b813567ffffffffffffffff80821115612a9257612a92612f92565b604051601f8301601f19908116603f01168101908282118183101715612aba57612aba612f92565b81604052838152866020858801011115612ad357600080fd5b836020870160208301376000602085830101528094505050505092915050565b600060208284031215612b0557600080fd5b81356001600160a01b0381168114612b1c57600080fd5b9392505050565b60008060408385031215612b3657600080fd5b823567ffffffffffffffff80821115612b4e57600080fd5b612b5a86838701612a66565b93506020850135915080821115612b7057600080fd5b50612b7d85828601612a66565b9150509250929050565b600060208284031215612b9957600080fd5b5035919050565b60008060408385031215612bb357600080fd5b8235915060208301358015158114612bca57600080fd5b809150509250929050565b60008060408385031215612be857600080fd5b82359150602083013567ffffffffffffffff811115612c0657600080fd5b612b7d85828601612a66565b6000815180845260005b81811015612c3857602081850181015186830182015201612c1c565b81811115612c4a576000602083870101525b50601f01601f19169290920160200192915050565b805182526000602082015160e06020850152612c7e60e0850182612c12565b905060408301518482036040860152612c978282612c12565b91505060608301518482036060860152612cb18282612c12565b9150506001600160a01b03608084015116608085015260a0830151151560a085015260c083015160c08501528091505092915050565b6020808252825182820181905260009190848201906040850190845b81811015612d285783516001600160a01b031683529284019291840191600101612d03565b50909695505050505050565b6000602080830181845280855180835260408601915060408160051b870101925083870160005b82811015612d8957603f19888603018452612d77858351612c5f565b94509285019290850190600101612d5b565b5092979650505050505050565b602080825282518282018190526000919060409081850190868401855b82811015612de157815180516001600160a01b03168552860151868501529284019290850190600101612db3565b5091979650505050505050565b6103008101818360005b6008811015612e3957815180516001600160a01b03168452602080820151818601526040918201519185019190915260609093019290910190600101612df8565b50505092915050565b6020810160058310612e6457634e487b7160e01b600052602160045260246000fd5b91905290565b602081526000612b1c6020830184612c12565b602081526000612b1c6020830184612c5f565b60008219821115612ea357612ea3612f50565b500190565b600082612ec557634e487b7160e01b600052601260045260246000fd5b500490565b6000816000190483118215151615612ee457612ee4612f50565b500290565b600082821015612efb57612efb612f50565b500390565b600181811c90821680612f1457607f821691505b6020821081141561280957634e487b7160e01b600052602260045260246000fd5b6000600019821415612f4957612f49612f50565b5060010190565b634e487b7160e01b600052601160045260246000fd5b634e487b7160e01b600052602160045260246000fd5b634e487b7160e01b600052603260045260246000fd5b634e487b7160e01b600052604160045260246000fdfe4f776e61626c653a2063616c6c6572206973206e6f7420746865206f776e6572a2646970667358221220bd0c355cb0bad88e6a66580d49648c4869054d8f9c6c4047c4bf3dc30703a6be64736f6c63430008060033",
  "linkReferences": {},
  "deployedLinkReferences": {}
}