{
  "contractName": "Authentication",
  "abi": [
    {
      "inputs": [],
      "stateMutability": "nonpayable",
      "type": "constructor"
    },
    {
      "inputs": [],
      "name": "nbOfUsers",
      "outputs": [
        {
          "internalType": "uint256",
          "name": "",
          "type": "uint256"
        }
      ],
      "stateMutability": "view",
      "type": "function",
      "constant": true
    },
    {
      "inputs": [
        {
          "internalType": "string",
          "name": "_hash",
          "type": "string"
        }
      ],
      "name": "register",
      "outputs": [],
      "stateMutability": "nonpayable",
      "type": "function"
    },
    {
      "inputs": [],
      "name": "getSignatureHash",
      "outputs": [
        {
          "internalType": "string",
          "name": "",
          "type": "string"
        }
      ],
      "stateMutability": "view",
      "type": "function",
      "constant": true
    },
    {
      "inputs": [],
      "name": "getUserAddress",
      "outputs": [
        {
          "internalType": "address",
          "name": "",
          "type": "address"
        }
      ],
      "stateMutability": "view",
      "type": "function",
      "constant": true
    }
  ],
  "bytecode": "0x608060405234801561001057600080fd5b5060008081905550610a03806100276000396000f3fe608060405234801561001057600080fd5b506004361061004c5760003560e01c80631267932314610051578063c127ae411461006f578063ebc3eee81461008d578063f2c298be146100ab575b600080fd5b6100596100c7565b6040516100669190610712565b60405180910390f35b6100776100cd565b60405161008491906106b0565b60405180910390f35b61009561026f565b6040516100a29190610695565b60405180910390f35b6100c560048036038101906100c091906105af565b6102d9565b005b60005481565b6060600160003373ffffffffffffffffffffffffffffffffffffffff1673ffffffffffffffffffffffffffffffffffffffff16815260200190815260200160002060010160009054906101000a900473ffffffffffffffffffffffffffffffffffffffff1673ffffffffffffffffffffffffffffffffffffffff163373ffffffffffffffffffffffffffffffffffffffff161461019f576040517f08c379a0000000000000000000000000000000000000000000000000000000008152600401610196906106f2565b60405180910390fd5b600160003373ffffffffffffffffffffffffffffffffffffffff1673ffffffffffffffffffffffffffffffffffffffff16815260200190815260200160002060000180546101ec9061081d565b80601f01602080910402602001604051908101604052809291908181526020018280546102189061081d565b80156102655780601f1061023a57610100808354040283529160200191610265565b820191906000526020600020905b81548152906001019060200180831161024857829003601f168201915b5050505050905090565b6000600160003373ffffffffffffffffffffffffffffffffffffffff1673ffffffffffffffffffffffffffffffffffffffff16815260200190815260200160002060010160009054906101000a900473ffffffffffffffffffffffffffffffffffffffff16905090565b600073ffffffffffffffffffffffffffffffffffffffff16600160003373ffffffffffffffffffffffffffffffffffffffff1673ffffffffffffffffffffffffffffffffffffffff16815260200190815260200160002060010160009054906101000a900473ffffffffffffffffffffffffffffffffffffffff1673ffffffffffffffffffffffffffffffffffffffff16146103aa576040517f08c379a00000000000000000000000000000000000000000000000000000000081526004016103a1906106d2565b60405180910390fd5b80600160003373ffffffffffffffffffffffffffffffffffffffff1673ffffffffffffffffffffffffffffffffffffffff168152602001908152602001600020600001908051906020019061040092919061049c565b5033600160003373ffffffffffffffffffffffffffffffffffffffff1673ffffffffffffffffffffffffffffffffffffffff16815260200190815260200160002060010160006101000a81548173ffffffffffffffffffffffffffffffffffffffff021916908373ffffffffffffffffffffffffffffffffffffffff16021790555060008081548092919061049490610880565b919050555050565b8280546104a89061081d565b90600052602060002090601f0160209004810192826104ca5760008555610511565b82601f106104e357805160ff1916838001178555610511565b82800160010185558215610511579182015b828111156105105782518255916020019190600101906104f5565b5b50905061051e9190610522565b5090565b5b8082111561053b576000816000905550600101610523565b5090565b600061055261054d84610752565b61072d565b90508281526020810184848401111561056e5761056d61095b565b5b6105798482856107db565b509392505050565b600082601f83011261059657610595610956565b5b81356105a684826020860161053f565b91505092915050565b6000602082840312156105c5576105c4610965565b5b600082013567ffffffffffffffff8111156105e3576105e2610960565b5b6105ef84828501610581565b91505092915050565b6106018161079f565b82525050565b600061061282610783565b61061c818561078e565b935061062c8185602086016107ea565b6106358161096a565b840191505092915050565b600061064d60128361078e565b91506106588261097b565b602082019050919050565b6000610670600b8361078e565b915061067b826109a4565b602082019050919050565b61068f816107d1565b82525050565b60006020820190506106aa60008301846105f8565b92915050565b600060208201905081810360008301526106ca8184610607565b905092915050565b600060208201905081810360008301526106eb81610640565b9050919050565b6000602082019050818103600083015261070b81610663565b9050919050565b60006020820190506107276000830184610686565b92915050565b6000610737610748565b9050610743828261084f565b919050565b6000604051905090565b600067ffffffffffffffff82111561076d5761076c610927565b5b6107768261096a565b9050602081019050919050565b600081519050919050565b600082825260208201905092915050565b60006107aa826107b1565b9050919050565b600073ffffffffffffffffffffffffffffffffffffffff82169050919050565b6000819050919050565b82818337600083830152505050565b60005b838110156108085780820151818401526020810190506107ed565b83811115610817576000848401525b50505050565b6000600282049050600182168061083557607f821691505b60208210811415610849576108486108f8565b5b50919050565b6108588261096a565b810181811067ffffffffffffffff8211171561087757610876610927565b5b80604052505050565b600061088b826107d1565b91507fffffffffffffffffffffffffffffffffffffffffffffffffffffffffffffffff8214156108be576108bd6108c9565b5b600182019050919050565b7f4e487b7100000000000000000000000000000000000000000000000000000000600052601160045260246000fd5b7f4e487b7100000000000000000000000000000000000000000000000000000000600052602260045260246000fd5b7f4e487b7100000000000000000000000000000000000000000000000000000000600052604160045260246000fd5b600080fd5b600080fd5b600080fd5b600080fd5b6000601f19601f8301169050919050565b7f616c726561647920726567697374657265640000000000000000000000000000600082015250565b7f4e6f7420616c6c6f77656400000000000000000000000000000000000000000060008201525056fea2646970667358221220d093fdc0e31ba3963406ce76994e07c76d77565a70bed6c60dcade9b5265065864736f6c63430008060033",
  "immutableReferences": {},
  "source": "\r\n// SPDX-License-Identifier: MIT\r\npragma solidity >=0.5.16;\r\n\r\n\r\ncontract Authentication {\r\n    uint256 public nbOfUsers;\r\n\r\n    struct User {\r\n        string signatureHash;\r\n        address userAddress;\r\n    }\r\n\r\n    mapping(address => User) private user;\r\n\r\n    constructor() {\r\n        nbOfUsers = 0;\r\n    }\r\n\r\n    function register(string memory _hash) public {\r\n        require(\r\n            user[msg.sender].userAddress ==\r\n                address(0x0000000000000000000000000000000000000000),\r\n            \"already registered\"\r\n        );\r\n\r\n        user[msg.sender].signatureHash = _hash;\r\n        user[msg.sender].userAddress = msg.sender;\r\n        nbOfUsers++;\r\n    }\r\n\r\n    function getSignatureHash() public view returns (string memory) {\r\n        require(msg.sender == user[msg.sender].userAddress, \"Not allowed\");\r\n\r\n        return user[msg.sender].signatureHash;\r\n    }\r\n\r\n    function getUserAddress() public view returns (address) {\r\n        return user[msg.sender].userAddress;\r\n    }\r\n}",
  "sourcePath": "C:\\SE-project\\StreamEzy\\contracts\\Authentication.sol",
  "compiler": {
    "name": "solc",
    "version": "0.8.6+commit.11564f7e.Emscripten.clang"
  },
  "schemaVersion": "3.4.3",
  "updatedAt": "2021-11-21T10:33:42.783Z",
  "networkType": "ethereum",
  "devdoc": {
    "kind": "dev",
    "methods": {},
    "version": 1
  },
  "userdoc": {
    "kind": "user",
    "methods": {},
    "version": 1
  }
}