{
  "_format": "hh-sol-artifact-1",
  "contractName": "PackagePrices",
  "sourceName": "contracts/RecyclingMachine.sol",
  "abi": [
    {
      "inputs": [],
      "name": "GetPrices",
      "outputs": [
        {
          "internalType": "uint256",
          "name": "_pet",
          "type": "uint256"
        },
        {
          "internalType": "uint256",
          "name": "_tetra_pak",
          "type": "uint256"
        },
        {
          "internalType": "uint256",
          "name": "_glass",
          "type": "uint256"
        },
        {
          "internalType": "uint256",
          "name": "_aluminium",
          "type": "uint256"
        }
      ],
      "stateMutability": "view",
      "type": "function"
    },
    {
      "inputs": [
        {
          "internalType": "uint256",
          "name": "pet_price",
          "type": "uint256"
        },
        {
          "internalType": "uint256",
          "name": "tetra_pak_price",
          "type": "uint256"
        },
        {
          "internalType": "uint256",
          "name": "glass_price",
          "type": "uint256"
        },
        {
          "internalType": "uint256",
          "name": "aluminium_price",
          "type": "uint256"
        }
      ],
      "name": "SetPrices",
      "outputs": [],
      "stateMutability": "nonpayable",
      "type": "function"
    }
  ],
  "bytecode": "0x608060405234801561001057600080fd5b506101e6806100206000396000f3fe608060405234801561001057600080fd5b50600436106100365760003560e01c8063763444ac1461003b578063acc1acad14610057575b600080fd5b610055600480360381019061005091906100cf565b610078565b005b61005f61009a565b60405161006f9493929190610145565b60405180910390f35b8360008190555082600181905550816002819055508060038190555050505050565b600080600080600054600154600254600354935093509350935090919293565b6000813590506100c981610199565b92915050565b600080600080608085870312156100e9576100e8610194565b5b60006100f7878288016100ba565b9450506020610108878288016100ba565b9350506040610119878288016100ba565b925050606061012a878288016100ba565b91505092959194509250565b61013f8161018a565b82525050565b600060808201905061015a6000830187610136565b6101676020830186610136565b6101746040830185610136565b6101816060830184610136565b95945050505050565b6000819050919050565b600080fd5b6101a28161018a565b81146101ad57600080fd5b5056fea264697066735822122018cdf6d69c939ed358a3cb2cd33348bedb73345f38c74be5497e34c6da31bab464736f6c63430008070033",
  "linkReferences": {},
  "deployedLinkReferences": {}
}