{
  "_format": "hh-sol-artifact-1",
  "contractName": "RecyclingMachine",
  "sourceName": "contracts/RecyclingMachine.sol",
  "abi": [
    {
      "inputs": [
        {
          "internalType": "uint256",
          "name": "amount",
          "type": "uint256"
        }
      ],
      "name": "addDonation",
      "outputs": [],
      "stateMutability": "nonpayable",
      "type": "function"
    },
    {
      "inputs": [],
      "name": "addFunds",
      "outputs": [],
      "stateMutability": "payable",
      "type": "function"
    },
    {
      "inputs": [
        {
          "internalType": "address payable",
          "name": "receiver",
          "type": "address"
        },
        {
          "internalType": "address",
          "name": "tokenAddress",
          "type": "address"
        }
      ],
      "name": "donate",
      "outputs": [],
      "stateMutability": "nonpayable",
      "type": "function"
    },
    {
      "inputs": [
        {
          "internalType": "address payable",
          "name": "receiver",
          "type": "address"
        },
        {
          "internalType": "uint256",
          "name": "amount",
          "type": "uint256"
        },
        {
          "internalType": "address",
          "name": "tokenAddress",
          "type": "address"
        }
      ],
      "name": "payOut",
      "outputs": [],
      "stateMutability": "payable",
      "type": "function"
    },
    {
      "inputs": [
        {
          "internalType": "address",
          "name": "ownerAddress",
          "type": "address"
        }
      ],
      "stateMutability": "nonpayable",
      "type": "constructor"
    },
    {
      "anonymous": false,
      "inputs": [
        {
          "indexed": true,
          "internalType": "address",
          "name": "to",
          "type": "address"
        },
        {
          "indexed": true,
          "internalType": "address",
          "name": "from",
          "type": "address"
        },
        {
          "indexed": false,
          "internalType": "uint256",
          "name": "amount",
          "type": "uint256"
        }
      ],
      "name": "Paid",
      "type": "event"
    },
    {
      "inputs": [],
      "name": "withdraw",
      "outputs": [],
      "stateMutability": "payable",
      "type": "function"
    },
    {
      "inputs": [],
      "name": "checkBalance",
      "outputs": [
        {
          "internalType": "uint256",
          "name": "",
          "type": "uint256"
        }
      ],
      "stateMutability": "view",
      "type": "function"
    },
    {
      "inputs": [],
      "name": "getStatistics",
      "outputs": [
        {
          "internalType": "uint256",
          "name": "_amountToDonate",
          "type": "uint256"
        },
        {
          "internalType": "uint256",
          "name": "_numOfDonations",
          "type": "uint256"
        },
        {
          "internalType": "uint256",
          "name": "_totalAmountDonated",
          "type": "uint256"
        },
        {
          "internalType": "uint256",
          "name": "_numOfPayouts",
          "type": "uint256"
        },
        {
          "internalType": "uint256",
          "name": "_totalAmountPaidOut",
          "type": "uint256"
        }
      ],
      "stateMutability": "view",
      "type": "function"
    }
  ],
  "bytecode": "0x608060405234801561001057600080fd5b50604051610c91380380610c91833981810160405281019061003291906100f7565b806000806101000a81548173ffffffffffffffffffffffffffffffffffffffff021916908373ffffffffffffffffffffffffffffffffffffffff16021790555081600160006101000a81548173ffffffffffffffffffffffffffffffffffffffff021916908373ffffffffffffffffffffffffffffffffffffffff160217905550600060028190555060006003819055506000600481905550600060058190555060006006819055505050610185565b6000815190506100f18161016e565b92915050565b6000806040838503121561010e5761010d610169565b5b600061011c858286016100e2565b925050602061012d858286016100e2565b9150509250929050565b600061014282610149565b9050919050565b600073ffffffffffffffffffffffffffffffffffffffff82169050919050565b600080fd5b61017781610137565b811461018257600080fd5b50565b610afd806101946000396000f3fe60806040526004361061007a5760003560e01c80633ccfd60b1161004e5780633ccfd60b14610111578063a26759cb1461011b578063c71daccb14610125578063d8251a14146101505761007a565b8062362a951461007f5780630221038a1461009b5780632127fcc6146100b7578063372d6b27146100e2575b600080fd5b610099600480360381019061009491906106f0565b610179565b005b6100b560048036038101906100b0919061071d565b6102f2565b005b3480156100c357600080fd5b506100cc610478565b6040516100d99190610814565b60405180910390f35b3480156100ee57600080fd5b506100f7610528565b60405161010895949392919061082f565b60405180910390f35b610119610550565b005b6101236105f1565b005b34801561013157600080fd5b5061013a6105f3565b6040516101479190610814565b60405180910390f35b34801561015c57600080fd5b506101776004803603810190610172919061075d565b6105fb565b005b60008054906101000a900473ffffffffffffffffffffffffffffffffffffffff1673ffffffffffffffffffffffffffffffffffffffff163373ffffffffffffffffffffffffffffffffffffffff16146101d157600080fd5b60006101db610478565b69d3c21bcecceda10000006002546101f39190610909565b6101fd91906108d8565b90508173ffffffffffffffffffffffffffffffffffffffff166108fc829081150290604051600060405180830381858888f19350505050158015610245573d6000803e3d6000fd5b506002546004600082825461025a9190610882565b92505081905550600060028190555060008054906101000a900473ffffffffffffffffffffffffffffffffffffffff1673ffffffffffffffffffffffffffffffffffffffff168273ffffffffffffffffffffffffffffffffffffffff167f9def4e2802183d68ce90a6a226a2962b59298616c27165f12c4fbc5c84cdd778836040516102e69190610814565b60405180910390a35050565b60008054906101000a900473ffffffffffffffffffffffffffffffffffffffff1673ffffffffffffffffffffffffffffffffffffffff163373ffffffffffffffffffffffffffffffffffffffff161461034a57600080fd5b6000610354610478565b69d3c21bcecceda10000008361036a9190610909565b61037491906108d8565b90508273ffffffffffffffffffffffffffffffffffffffff166108fc829081150290604051600060405180830381858888f193505050501580156103bc573d6000803e3d6000fd5b50600560008154809291906103d0906109bf565b919050555081600660008282546103e79190610882565b9250508190555060008054906101000a900473ffffffffffffffffffffffffffffffffffffffff1673ffffffffffffffffffffffffffffffffffffffff168373ffffffffffffffffffffffffffffffffffffffff167f9def4e2802183d68ce90a6a226a2962b59298616c27165f12c4fbc5c84cdd7788360405161046b9190610814565b60405180910390a3505050565b600080600160009054906101000a900473ffffffffffffffffffffffffffffffffffffffff1673ffffffffffffffffffffffffffffffffffffffff1663feaf968c6040518163ffffffff1660e01b815260040160a06040518083038186803b1580156104e357600080fd5b505afa1580156104f7573d6000803e3d6000fd5b505050506040513d601f19601f8201168201806040525081019061051b919061078a565b5050509150508091505090565b6000806000806000600254600354600454600554600654945094509450945094509091929394565b60008054906101000a900473ffffffffffffffffffffffffffffffffffffffff1673ffffffffffffffffffffffffffffffffffffffff163373ffffffffffffffffffffffffffffffffffffffff16146105a857600080fd5b3373ffffffffffffffffffffffffffffffffffffffff166108fc479081150290604051600060405180830381858888f193505050501580156105ee573d6000803e3d6000fd5b50565b565b600047905090565b60008054906101000a900473ffffffffffffffffffffffffffffffffffffffff1673ffffffffffffffffffffffffffffffffffffffff163373ffffffffffffffffffffffffffffffffffffffff161461065357600080fd5b60036000815480929190610666906109bf565b9190505550806002600082825461067d9190610882565b9250508190555050565b60008135905061069681610a6b565b92915050565b6000815190506106ab81610a82565b92915050565b6000813590506106c081610a99565b92915050565b6000815190506106d581610a99565b92915050565b6000815190506106ea81610ab0565b92915050565b60006020828403121561070657610705610a66565b5b600061071484828501610687565b91505092915050565b6000806040838503121561073457610733610a66565b5b600061074285828601610687565b9250506020610753858286016106b1565b9150509250929050565b60006020828403121561077357610772610a66565b5b6000610781848285016106b1565b91505092915050565b600080600080600060a086880312156107a6576107a5610a66565b5b60006107b4888289016106db565b95505060206107c58882890161069c565b94505060406107d6888289016106c6565b93505060606107e7888289016106c6565b92505060806107f8888289016106db565b9150509295509295909350565b61080e8161099f565b82525050565b60006020820190506108296000830184610805565b92915050565b600060a0820190506108446000830188610805565b6108516020830187610805565b61085e6040830186610805565b61086b6060830185610805565b6108786080830184610805565b9695505050505050565b600061088d8261099f565b91506108988361099f565b9250827fffffffffffffffffffffffffffffffffffffffffffffffffffffffffffffffff038211156108cd576108cc610a08565b5b828201905092915050565b60006108e38261099f565b91506108ee8361099f565b9250826108fe576108fd610a37565b5b828204905092915050565b60006109148261099f565b915061091f8361099f565b9250817fffffffffffffffffffffffffffffffffffffffffffffffffffffffffffffffff048311821515161561095857610957610a08565b5b828202905092915050565b600061096e8261097f565b9050919050565b6000819050919050565b600073ffffffffffffffffffffffffffffffffffffffff82169050919050565b6000819050919050565b600069ffffffffffffffffffff82169050919050565b60006109ca8261099f565b91507fffffffffffffffffffffffffffffffffffffffffffffffffffffffffffffffff8214156109fd576109fc610a08565b5b600182019050919050565b7f4e487b7100000000000000000000000000000000000000000000000000000000600052601160045260246000fd5b7f4e487b7100000000000000000000000000000000000000000000000000000000600052601260045260246000fd5b600080fd5b610a7481610963565b8114610a7f57600080fd5b50565b610a8b81610975565b8114610a9657600080fd5b50565b610aa28161099f565b8114610aad57600080fd5b50565b610ab9816109a9565b8114610ac457600080fd5b5056fea2646970667358221220290ba6e9f4facf58b3bd953752a1b6866708fc1e819424316172d6823fe18e3164736f6c63430008070033",
  "linkReferences": {},
  "deployedLinkReferences": {}
}