{
  "contractName": "LockedCGLD",
  "abi": [
    {
      "inputs": [
        {
          "internalType": "address",
          "name": "tokenAddress",
          "type": "address"
        },
        {
          "internalType": "uint256",
          "name": "unlockingPeriod",
          "type": "uint256"
        }
      ],
      "stateMutability": "nonpayable",
      "type": "constructor"
    },
    {
      "anonymous": false,
      "inputs": [
        {
          "indexed": true,
          "internalType": "address",
          "name": "account",
          "type": "address"
        },
        {
          "indexed": false,
          "internalType": "uint256",
          "name": "value",
          "type": "uint256"
        }
      ],
      "name": "TokenLocked",
      "type": "event"
    },
    {
      "anonymous": false,
      "inputs": [
        {
          "indexed": true,
          "internalType": "address",
          "name": "account",
          "type": "address"
        },
        {
          "indexed": false,
          "internalType": "uint256",
          "name": "value",
          "type": "uint256"
        }
      ],
      "name": "TokenRelocked",
      "type": "event"
    },
    {
      "anonymous": false,
      "inputs": [
        {
          "indexed": true,
          "internalType": "address",
          "name": "account",
          "type": "address"
        },
        {
          "indexed": false,
          "internalType": "uint256",
          "name": "value",
          "type": "uint256"
        },
        {
          "indexed": false,
          "internalType": "uint256",
          "name": "available",
          "type": "uint256"
        }
      ],
      "name": "TokenUnlocked",
      "type": "event"
    },
    {
      "anonymous": false,
      "inputs": [
        {
          "indexed": true,
          "internalType": "address",
          "name": "account",
          "type": "address"
        },
        {
          "indexed": false,
          "internalType": "uint256",
          "name": "value",
          "type": "uint256"
        }
      ],
      "name": "TokenWithdrawn",
      "type": "event"
    },
    {
      "anonymous": false,
      "inputs": [
        {
          "indexed": false,
          "internalType": "uint256",
          "name": "period",
          "type": "uint256"
        }
      ],
      "name": "UnlockingPeriodSet",
      "type": "event"
    },
    {
      "inputs": [
        {
          "internalType": "address",
          "name": "account",
          "type": "address"
        },
        {
          "internalType": "uint256",
          "name": "value",
          "type": "uint256"
        }
      ],
      "name": "decrementNonvotingAccountBalance",
      "outputs": [],
      "stateMutability": "nonpayable",
      "type": "function"
    },
    {
      "inputs": [],
      "name": "electionAddress",
      "outputs": [
        {
          "internalType": "address",
          "name": "",
          "type": "address"
        }
      ],
      "stateMutability": "view",
      "type": "function",
      "constant": true
    },
    {
      "inputs": [],
      "name": "erc20",
      "outputs": [
        {
          "internalType": "contract IERC20",
          "name": "",
          "type": "address"
        }
      ],
      "stateMutability": "view",
      "type": "function",
      "constant": true
    },
    {
      "inputs": [],
      "name": "erc20Address",
      "outputs": [
        {
          "internalType": "address",
          "name": "",
          "type": "address"
        }
      ],
      "stateMutability": "view",
      "type": "function",
      "constant": true
    },
    {
      "inputs": [
        {
          "internalType": "address",
          "name": "account",
          "type": "address"
        }
      ],
      "name": "getAccountNonvotingLockedToken",
      "outputs": [
        {
          "internalType": "uint256",
          "name": "",
          "type": "uint256"
        }
      ],
      "stateMutability": "view",
      "type": "function",
      "constant": true
    },
    {
      "inputs": [
        {
          "internalType": "address",
          "name": "account",
          "type": "address"
        }
      ],
      "name": "getAccountTotalLockedToken",
      "outputs": [
        {
          "internalType": "uint256",
          "name": "",
          "type": "uint256"
        }
      ],
      "stateMutability": "view",
      "type": "function",
      "constant": true
    },
    {
      "inputs": [],
      "name": "getERC20Address",
      "outputs": [
        {
          "internalType": "address",
          "name": "",
          "type": "address"
        }
      ],
      "stateMutability": "view",
      "type": "function",
      "constant": true
    },
    {
      "inputs": [],
      "name": "getNonvotingLockedToken",
      "outputs": [
        {
          "internalType": "uint256",
          "name": "",
          "type": "uint256"
        }
      ],
      "stateMutability": "view",
      "type": "function",
      "constant": true
    },
    {
      "inputs": [
        {
          "internalType": "address",
          "name": "account",
          "type": "address"
        }
      ],
      "name": "getPendingWithdrawals",
      "outputs": [
        {
          "internalType": "uint256[]",
          "name": "",
          "type": "uint256[]"
        },
        {
          "internalType": "uint256[]",
          "name": "",
          "type": "uint256[]"
        }
      ],
      "stateMutability": "view",
      "type": "function",
      "constant": true
    },
    {
      "inputs": [],
      "name": "getTotalLockedToken",
      "outputs": [
        {
          "internalType": "uint256",
          "name": "",
          "type": "uint256"
        }
      ],
      "stateMutability": "view",
      "type": "function",
      "constant": true
    },
    {
      "inputs": [
        {
          "internalType": "address",
          "name": "account",
          "type": "address"
        }
      ],
      "name": "getTotalPendingWithdrawals",
      "outputs": [
        {
          "internalType": "uint256",
          "name": "",
          "type": "uint256"
        }
      ],
      "stateMutability": "view",
      "type": "function",
      "constant": true
    },
    {
      "inputs": [
        {
          "internalType": "address",
          "name": "account",
          "type": "address"
        },
        {
          "internalType": "uint256",
          "name": "value",
          "type": "uint256"
        }
      ],
      "name": "incrementNonvotingAccountBalance",
      "outputs": [],
      "stateMutability": "nonpayable",
      "type": "function"
    },
    {
      "inputs": [
        {
          "internalType": "uint256",
          "name": "amount",
          "type": "uint256"
        }
      ],
      "name": "lock",
      "outputs": [],
      "stateMutability": "nonpayable",
      "type": "function"
    },
    {
      "inputs": [
        {
          "internalType": "uint256",
          "name": "index",
          "type": "uint256"
        },
        {
          "internalType": "uint256",
          "name": "value",
          "type": "uint256"
        }
      ],
      "name": "relock",
      "outputs": [],
      "stateMutability": "nonpayable",
      "type": "function"
    },
    {
      "inputs": [
        {
          "internalType": "address",
          "name": "_electionAddress",
          "type": "address"
        }
      ],
      "name": "setElection",
      "outputs": [],
      "stateMutability": "nonpayable",
      "type": "function"
    },
    {
      "inputs": [],
      "name": "totalNonvoting",
      "outputs": [
        {
          "internalType": "uint256",
          "name": "",
          "type": "uint256"
        }
      ],
      "stateMutability": "view",
      "type": "function",
      "constant": true
    },
    {
      "inputs": [
        {
          "internalType": "uint256",
          "name": "value",
          "type": "uint256"
        }
      ],
      "name": "unlock",
      "outputs": [],
      "stateMutability": "nonpayable",
      "type": "function"
    },
    {
      "inputs": [],
      "name": "unlockingPeriod",
      "outputs": [
        {
          "internalType": "uint256",
          "name": "",
          "type": "uint256"
        }
      ],
      "stateMutability": "view",
      "type": "function",
      "constant": true
    },
    {
      "inputs": [
        {
          "internalType": "uint256",
          "name": "index",
          "type": "uint256"
        }
      ],
      "name": "withdraw",
      "outputs": [],
      "stateMutability": "nonpayable",
      "type": "function"
    }
  ],
  "bytecode": "0x60806040523480156200001157600080fd5b50604051620021b7380380620021b78339818101604052810190620000379190620001b2565b8181600160008190555081600460006101000a81548173ffffffffffffffffffffffffffffffffffffffff021916908373ffffffffffffffffffffffffffffffffffffffff16021790555081600560006101000a81548173ffffffffffffffffffffffffffffffffffffffff021916908373ffffffffffffffffffffffffffffffffffffffff160217905550806003819055507fd9274a7c98edc7c66931fc71872764091e7023fe3867358f8504d4c21b161fc581604051620000fb91906200020a565b60405180910390a15050505062000227565b600080fd5b600073ffffffffffffffffffffffffffffffffffffffff82169050919050565b60006200013f8262000112565b9050919050565b620001518162000132565b81146200015d57600080fd5b50565b600081519050620001718162000146565b92915050565b6000819050919050565b6200018c8162000177565b81146200019857600080fd5b50565b600081519050620001ac8162000181565b92915050565b60008060408385031215620001cc57620001cb6200010d565b5b6000620001dc8582860162000160565b9250506020620001ef858286016200019b565b9150509250929050565b620002048162000177565b82525050565b6000602082019050620002216000830184620001f9565b92915050565b611f8080620002376000396000f3fe608060405234801561001057600080fd5b50600436106101215760003560e01c80637d36fdc9116100ad578063c1867f6d11610071578063c1867f6d146102f6578063dd46706414610314578063f340c0d014610330578063f454368014610361578063f87828b91461037d57610121565b80637d36fdc91461022c5780639f60f1491461025c578063b2fb30cb1461028c578063b6e1e49d146102a8578063b9f890de146102d857610121565b80632e1a7d4d116100f45780632e1a7d4d1461019c5780635631eb49146101b85780636198e339146101d65780636edf77a5146101f2578063785e9e861461020e57610121565b806316af320e1461012657806318a4ff8c1461014457806320637d8e14610160578063276184ae1461017e575b600080fd5b61012e61039b565b60405161013b9190611663565b60405180910390f35b61015e6004803603810190610159919061170d565b6103a5565b005b610168610443565b6040516101759190611663565b60405180910390f35b610186610449565b604051610193919061175c565b60405180910390f35b6101b660048036038101906101b19190611777565b61046f565b005b6101c06107a9565b6040516101cd9190611663565b60405180910390f35b6101f060048036038101906101eb9190611777565b610860565b005b61020c6004803603810190610207919061170d565b6109f1565b005b610216610a8f565b6040516102239190611803565b60405180910390f35b6102466004803603810190610241919061181e565b610ab5565b6040516102539190611663565b60405180910390f35b6102766004803603810190610271919061181e565b610b01565b6040516102839190611663565b60405180910390f35b6102a660048036038101906102a1919061184b565b610c01565b005b6102c260048036038101906102bd919061181e565b610dee565b6040516102cf9190611663565b60405180910390f35b6102e0610f0a565b6040516102ed919061175c565b60405180910390f35b6102fe610f34565b60405161030b9190611663565b60405180910390f35b61032e60048036038101906103299190611777565b610f3a565b005b61034a6004803603810190610345919061181e565b61116e565b604051610358929190611949565b60405180910390f35b61037b6004803603810190610376919061181e565b611358565b005b6103856113dd565b604051610392919061175c565b60405180910390f35b6000600254905090565b600660009054906101000a900473ffffffffffffffffffffffffffffffffffffffff1673ffffffffffffffffffffffffffffffffffffffff163373ffffffffffffffffffffffffffffffffffffffff1614610435576040517f08c379a000000000000000000000000000000000000000000000000000000000815260040161042c906119dd565b60405180910390fd5b61043f8282611403565b5050565b60035481565b600460009054906101000a900473ffffffffffffffffffffffffffffffffffffffff1681565b600260005414156104b5576040517f08c379a00000000000000000000000000000000000000000000000000000000081526004016104ac90611a49565b60405180910390fd5b60026000819055506000600160003373ffffffffffffffffffffffffffffffffffffffff1673ffffffffffffffffffffffffffffffffffffffff168152602001908152602001600020905080600101805490508210610549576040517f08c379a000000000000000000000000000000000000000000000000000000000815260040161054090611ab5565b60405180910390fd5b600081600101838154811061056157610560611ad5565b5b9060005260206000209060020201905080600101544210156105b8576040517f08c379a00000000000000000000000000000000000000000000000000000000081526004016105af90611b50565b60405180910390fd5b6000816000015490506105ce83600101856114bd565b600560009054906101000a900473ffffffffffffffffffffffffffffffffffffffff1673ffffffffffffffffffffffffffffffffffffffff166370a08231306040518263ffffffff1660e01b8152600401610629919061175c565b602060405180830381865afa158015610646573d6000803e3d6000fd5b505050506040513d601f19601f8201168201806040525081019061066a9190611b85565b8111156106ac576040517f08c379a00000000000000000000000000000000000000000000000000000000081526004016106a390611bfe565b60405180910390fd5b600560009054906101000a900473ffffffffffffffffffffffffffffffffffffffff1673ffffffffffffffffffffffffffffffffffffffff1663a9059cbb33836040518363ffffffff1660e01b8152600401610709929190611c1e565b6020604051808303816000875af1158015610728573d6000803e3d6000fd5b505050506040513d601f19601f8201168201806040525081019061074c9190611c7f565b503373ffffffffffffffffffffffffffffffffffffffff167fa2bd9fcfcdba69f52bcd9a520846ad4bd685b187483f53efc42d035b2ddebff0826040516107939190611663565b60405180910390a2505050600160008190555050565b600061085b600760009054906101000a900473ffffffffffffffffffffffffffffffffffffffff1673ffffffffffffffffffffffffffffffffffffffff16639d3c259a306040518263ffffffff1660e01b8152600401610809919061175c565b602060405180830381865afa158015610826573d6000803e3d6000fd5b505050506040513d601f19601f8201168201806040525081019061084a9190611b85565b60025461156490919063ffffffff16565b905090565b600260005414156108a6576040517f08c379a000000000000000000000000000000000000000000000000000000000815260040161089d90611a49565b60405180910390fd5b60026000819055506000600160003373ffffffffffffffffffffffffffffffffffffffff1673ffffffffffffffffffffffffffffffffffffffff168152602001908152602001600020905061090c826108fe33610b01565b61157a90919063ffffffff16565b6000111561091957600080fd5b6109233383611403565b600061093a6003544261156490919063ffffffff16565b9050816001016040518060400160405280858152602001838152509080600181540180825580915050600190039060005260206000209060020201600090919091909150600082015181600001556020820151816001015550503373ffffffffffffffffffffffffffffffffffffffff167f6257d77b7eaf282a68ca9b51c3de34795eeba4216930c28d45a255c3cec8f41384836040516109dc929190611cac565b60405180910390a25050600160008190555050565b600660009054906101000a900473ffffffffffffffffffffffffffffffffffffffff1673ffffffffffffffffffffffffffffffffffffffff163373ffffffffffffffffffffffffffffffffffffffff1614610a81576040517f08c379a0000000000000000000000000000000000000000000000000000000008152600401610a78906119dd565b60405180910390fd5b610a8b8282611590565b5050565b600560009054906101000a900473ffffffffffffffffffffffffffffffffffffffff1681565b6000600160008373ffffffffffffffffffffffffffffffffffffffff1673ffffffffffffffffffffffffffffffffffffffff168152602001908152602001600020600001549050919050565b600080600160008473ffffffffffffffffffffffffffffffffffffffff1673ffffffffffffffffffffffffffffffffffffffff168152602001908152602001600020600001549050610bf9600760009054906101000a900473ffffffffffffffffffffffffffffffffffffffff1673ffffffffffffffffffffffffffffffffffffffff16631b6236af30866040518363ffffffff1660e01b8152600401610ba9929190611cd5565b602060405180830381865afa158015610bc6573d6000803e3d6000fd5b505050506040513d601f19601f82011682018060405250810190610bea9190611b85565b8261156490919063ffffffff16565b915050919050565b60026000541415610c47576040517f08c379a0000000000000000000000000000000000000000000000000000000008152600401610c3e90611a49565b60405180910390fd5b60026000819055506000600160003373ffffffffffffffffffffffffffffffffffffffff1673ffffffffffffffffffffffffffffffffffffffff168152602001908152602001600020905080600101805490508310610cdb576040517f08c379a0000000000000000000000000000000000000000000000000000000008152600401610cd290611ab5565b60405180910390fd5b6000816001018481548110610cf357610cf2611ad5565b5b906000526020600020906002020190508060000154831115610d4a576040517f08c379a0000000000000000000000000000000000000000000000000000000008152600401610d4190611d70565b60405180910390fd5b8060000154831415610d6857610d6382600101856114bd565b610d88565b610d7f83826000015461157a90919063ffffffff16565b81600001819055505b610d923384611590565b3373ffffffffffffffffffffffffffffffffffffffff167f908a9c5a3a4cf0a935c0f1540a5cf2f4737a58553fe304590b5a69066e3c6c6f84604051610dd89190611663565b60405180910390a2505060016000819055505050565b600080600090506000600160008573ffffffffffffffffffffffffffffffffffffffff1673ffffffffffffffffffffffffffffffffffffffff168152602001908152602001600020600101805480602002602001604051908101604052809291908181526020016000905b82821015610e9f57838290600052602060002090600202016040518060400160405290816000820154815260200160018201548152505081526020019060010190610e59565b50505050905060005b8151811015610eff57610ee2828281518110610ec757610ec6611ad5565b5b6020026020010151600001518461156490919063ffffffff16565b9250610ef860018261156490919063ffffffff16565b9050610ea8565b508192505050919050565b6000600460009054906101000a900473ffffffffffffffffffffffffffffffffffffffff16905090565b60025481565b60026000541415610f80576040517f08c379a0000000000000000000000000000000000000000000000000000000008152600401610f7790611a49565b60405180910390fd5b6002600081905550600560009054906101000a900473ffffffffffffffffffffffffffffffffffffffff1673ffffffffffffffffffffffffffffffffffffffff1663dd62ed3e33306040518363ffffffff1660e01b8152600401610fe5929190611cd5565b602060405180830381865afa158015611002573d6000803e3d6000fd5b505050506040513d601f19601f820116820180604052508101906110269190611b85565b811115611068576040517f08c379a000000000000000000000000000000000000000000000000000000000815260040161105f90611ddc565b60405180910390fd5b600560009054906101000a900473ffffffffffffffffffffffffffffffffffffffff1673ffffffffffffffffffffffffffffffffffffffff166323b872dd3330846040518463ffffffff1660e01b81526004016110c793929190611dfc565b6020604051808303816000875af11580156110e6573d6000803e3d6000fd5b505050506040513d601f19601f8201168201806040525081019061110a9190611c7f565b506111153382611590565b3373ffffffffffffffffffffffffffffffffffffffff167ff9626bca62c59d77fa45a204dc096874ee066a5c5e124aa9ce6c438dbdf7387a8260405161115b9190611663565b60405180910390a2600160008190555050565b6060806000600160008573ffffffffffffffffffffffffffffffffffffffff1673ffffffffffffffffffffffffffffffffffffffff16815260200190815260200160002060010180549050905060008167ffffffffffffffff8111156111d7576111d6611e33565b5b6040519080825280602002602001820160405280156112055781602001602082028036833780820191505090505b50905060008267ffffffffffffffff81111561122457611223611e33565b5b6040519080825280602002602001820160405280156112525781602001602082028036833780820191505090505b50905060005b83811015611349576000600160008973ffffffffffffffffffffffffffffffffffffffff1673ffffffffffffffffffffffffffffffffffffffff16815260200190815260200160002060010182815481106112b6576112b5611ad5565b5b906000526020600020906002020160405180604001604052908160008201548152602001600182015481525050905080600001518483815181106112fd576112fc611ad5565b5b602002602001018181525050806020015183838151811061132157611320611ad5565b5b6020026020010181815250505061134260018261156490919063ffffffff16565b9050611258565b50818194509450505050915091565b80600660006101000a81548173ffffffffffffffffffffffffffffffffffffffff021916908373ffffffffffffffffffffffffffffffffffffffff16021790555080600760006101000a81548173ffffffffffffffffffffffffffffffffffffffff021916908373ffffffffffffffffffffffffffffffffffffffff16021790555050565b600660009054906101000a900473ffffffffffffffffffffffffffffffffffffffff1681565b61145881600160008573ffffffffffffffffffffffffffffffffffffffff1673ffffffffffffffffffffffffffffffffffffffff1681526020019081526020016000206000015461157a90919063ffffffff16565b600160008473ffffffffffffffffffffffffffffffffffffffff1673ffffffffffffffffffffffffffffffffffffffff168152602001908152602001600020600001819055506114b38160025461157a90919063ffffffff16565b6002819055505050565b81600183805490506114cf9190611e91565b815481106114e0576114df611ad5565b5b906000526020600020906002020182828154811061150157611500611ad5565b5b906000526020600020906002020160008201548160000155600182015481600101559050508180548061153757611536611ec5565b5b60019003818190600052602060002090600202016000808201600090556001820160009055505090555050565b600081836115729190611ef4565b905092915050565b600081836115889190611e91565b905092915050565b6115e581600160008573ffffffffffffffffffffffffffffffffffffffff1673ffffffffffffffffffffffffffffffffffffffff1681526020019081526020016000206000015461156490919063ffffffff16565b600160008473ffffffffffffffffffffffffffffffffffffffff1673ffffffffffffffffffffffffffffffffffffffff168152602001908152602001600020600001819055506116408160025461156490919063ffffffff16565b6002819055505050565b6000819050919050565b61165d8161164a565b82525050565b60006020820190506116786000830184611654565b92915050565b600080fd5b600073ffffffffffffffffffffffffffffffffffffffff82169050919050565b60006116ae82611683565b9050919050565b6116be816116a3565b81146116c957600080fd5b50565b6000813590506116db816116b5565b92915050565b6116ea8161164a565b81146116f557600080fd5b50565b600081359050611707816116e1565b92915050565b600080604083850312156117245761172361167e565b5b6000611732858286016116cc565b9250506020611743858286016116f8565b9150509250929050565b611756816116a3565b82525050565b6000602082019050611771600083018461174d565b92915050565b60006020828403121561178d5761178c61167e565b5b600061179b848285016116f8565b91505092915050565b6000819050919050565b60006117c96117c46117bf84611683565b6117a4565b611683565b9050919050565b60006117db826117ae565b9050919050565b60006117ed826117d0565b9050919050565b6117fd816117e2565b82525050565b600060208201905061181860008301846117f4565b92915050565b6000602082840312156118345761183361167e565b5b6000611842848285016116cc565b91505092915050565b600080604083850312156118625761186161167e565b5b6000611870858286016116f8565b9250506020611881858286016116f8565b9150509250929050565b600081519050919050565b600082825260208201905092915050565b6000819050602082019050919050565b6118c08161164a565b82525050565b60006118d283836118b7565b60208301905092915050565b6000602082019050919050565b60006118f68261188b565b6119008185611896565b935061190b836118a7565b8060005b8381101561193c57815161192388826118c6565b975061192e836118de565b92505060018101905061190f565b5085935050505092915050565b6000604082019050818103600083015261196381856118eb565b9050818103602083015261197781846118eb565b90509392505050565b600082825260208201905092915050565b7f6f6e6c7920656c656374696f6e20636f6e747261637400000000000000000000600082015250565b60006119c7601683611980565b91506119d282611991565b602082019050919050565b600060208201905081810360008301526119f6816119ba565b9050919050565b7f5265656e7472616e637947756172643a207265656e7472616e742063616c6c00600082015250565b6000611a33601f83611980565b9150611a3e826119fd565b602082019050919050565b60006020820190508181036000830152611a6281611a26565b9050919050565b7f4261642070656e64696e67207769746864726177616c20696e64657800000000600082015250565b6000611a9f601c83611980565b9150611aaa82611a69565b602082019050919050565b60006020820190508181036000830152611ace81611a92565b9050919050565b7f4e487b7100000000000000000000000000000000000000000000000000000000600052603260045260246000fd5b7f50656e64696e67207769746864726177616c206e6f7420617661696c61626c65600082015250565b6000611b3a602083611980565b9150611b4582611b04565b602082019050919050565b60006020820190508181036000830152611b6981611b2d565b9050919050565b600081519050611b7f816116e1565b92915050565b600060208284031215611b9b57611b9a61167e565b5b6000611ba984828501611b70565b91505092915050565b7f496e636f6e73697374656e742062616c616e6365000000000000000000000000600082015250565b6000611be8601483611980565b9150611bf382611bb2565b602082019050919050565b60006020820190508181036000830152611c1781611bdb565b9050919050565b6000604082019050611c33600083018561174d565b611c406020830184611654565b9392505050565b60008115159050919050565b611c5c81611c47565b8114611c6757600080fd5b50565b600081519050611c7981611c53565b92915050565b600060208284031215611c9557611c9461167e565b5b6000611ca384828501611c6a565b91505092915050565b6000604082019050611cc16000830185611654565b611cce6020830184611654565b9392505050565b6000604082019050611cea600083018561174d565b611cf7602083018461174d565b9392505050565b7f5265717565737465642076616c7565206c6172676572207468616e2070656e6460008201527f696e672076616c75650000000000000000000000000000000000000000000000602082015250565b6000611d5a602983611980565b9150611d6582611cfe565b604082019050919050565b60006020820190508181036000830152611d8981611d4d565b9050919050565b7f696e73756666696369656e7420616c6c6f77616e636500000000000000000000600082015250565b6000611dc6601683611980565b9150611dd182611d90565b602082019050919050565b60006020820190508181036000830152611df581611db9565b9050919050565b6000606082019050611e11600083018661174d565b611e1e602083018561174d565b611e2b6040830184611654565b949350505050565b7f4e487b7100000000000000000000000000000000000000000000000000000000600052604160045260246000fd5b7f4e487b7100000000000000000000000000000000000000000000000000000000600052601160045260246000fd5b6000611e9c8261164a565b9150611ea78361164a565b925082821015611eba57611eb9611e62565b5b828203905092915050565b7f4e487b7100000000000000000000000000000000000000000000000000000000600052603160045260246000fd5b6000611eff8261164a565b9150611f0a8361164a565b9250827fffffffffffffffffffffffffffffffffffffffffffffffffffffffffffffffff03821115611f3f57611f3e611e62565b5b82820190509291505056fea26469706673582212208a679fe57ada1741e3472a56ccac74a8b6dbd63b3511f16f1c270e97207bb85964736f6c634300080a0033",
  "immutableReferences": {},
  "source": "pragma solidity ^0.8.0;\n\nimport \"./LockedToken.sol\";\n\ncontract LockedCGLD is LockedToken {\n    constructor(address tokenAddress, uint256 unlockingPeriod) LockedToken(tokenAddress, unlockingPeriod) {}\n}",
  "sourcePath": "/mnt/d/Projects/code/make-crypto-mobile-hackathon/proof_of_deposit/codebase/contracts/contracts/LockedCGLD.sol",
  "compiler": {
    "name": "solc",
    "version": "0.8.10+commit.fc410830.Emscripten.clang"
  },
  "schemaVersion": "3.4.1",
  "updatedAt": "2021-11-25T16:23:17.110Z",
  "networkType": "ethereum",
  "devdoc": {
    "kind": "dev",
    "methods": {
      "decrementNonvotingAccountBalance(address,uint256)": {
        "details": "Can only be called by the registered \"Election\" smart contract.",
        "params": {
          "account": "The account whose non-voting balance should be decremented.",
          "value": "The amount by which to decrement."
        }
      },
      "getAccountNonvotingLockedToken(address)": {
        "params": {
          "account": "The account."
        },
        "returns": {
          "_0": "The total amount of non-voting locked token for an account."
        }
      },
      "getAccountTotalLockedToken(address)": {
        "params": {
          "account": "The account."
        },
        "returns": {
          "_0": "The total amount of locked token for an account."
        }
      },
      "getNonvotingLockedToken()": {
        "returns": {
          "_0": "The total amount of locked token not being used to vote in elections."
        }
      },
      "getPendingWithdrawals(address)": {
        "params": {
          "account": "The address of the account."
        },
        "returns": {
          "_0": "The value and timestamp for each pending withdrawal."
        }
      },
      "getTotalLockedToken()": {
        "returns": {
          "_0": "The total amount of locked token in the system."
        }
      },
      "getTotalPendingWithdrawals(address)": {
        "params": {
          "account": "The address of the account."
        },
        "returns": {
          "_0": "Total amount to withdraw."
        }
      },
      "incrementNonvotingAccountBalance(address,uint256)": {
        "details": "Can only be called by the registered Election smart contract.",
        "params": {
          "account": "The account whose non-voting balance should be incremented.",
          "value": "The amount by which to increment."
        }
      },
      "relock(uint256,uint256)": {
        "params": {
          "index": "The index of the pending withdrawal to relock from.",
          "value": "The value to relock from the specified pending withdrawal."
        }
      },
      "unlock(uint256)": {
        "params": {
          "value": "The amount of token to unlock."
        }
      },
      "withdraw(uint256)": {
        "params": {
          "index": "The index of the pending withdrawal to withdraw."
        }
      }
    },
    "version": 1
  },
  "userdoc": {
    "kind": "user",
    "methods": {
      "decrementNonvotingAccountBalance(address,uint256)": {
        "notice": "Decrements the non-voting balance for an account."
      },
      "getAccountNonvotingLockedToken(address)": {
        "notice": "Returns the total amount of non-voting locked token for an account."
      },
      "getAccountTotalLockedToken(address)": {
        "notice": "Returns the total amount of locked token for an account."
      },
      "getERC20Address()": {
        "notice": "Gets address of the ERC20 smart contract."
      },
      "getNonvotingLockedToken()": {
        "notice": "Returns the total amount of locked token not being used to vote in elections."
      },
      "getPendingWithdrawals(address)": {
        "notice": "Returns the pending withdrawals from unlocked token for an account."
      },
      "getTotalLockedToken()": {
        "notice": "Returns the total amount of locked token in the system. Note that this does not include   token that has been unlocked but not yet withdrawn."
      },
      "getTotalPendingWithdrawals(address)": {
        "notice": "Returns the total amount to withdraw from unlocked token for an account."
      },
      "incrementNonvotingAccountBalance(address,uint256)": {
        "notice": "Increments the non-voting balance for an account."
      },
      "lock(uint256)": {
        "notice": "Locks token to be used for voting."
      },
      "relock(uint256,uint256)": {
        "notice": "Relocks token that has been unlocked but not withdrawn."
      },
      "setElection(address)": {
        "notice": "Set address of election smart contract."
      },
      "unlock(uint256)": {
        "notice": "Unlocks token that becomes withdrawable after the unlocking period."
      },
      "withdraw(uint256)": {
        "notice": "Withdraws token that has been unlocked after the unlocking period has passed."
      }
    },
    "version": 1
  }
}