{
  "_format": "hh-sol-artifact-1",
  "contractName": "Creator",
  "sourceName": "contracts/Creator.sol",
  "abi": [
    {
      "inputs": [
        {
          "internalType": "string",
          "name": "_username",
          "type": "string"
        },
        {
          "internalType": "string",
          "name": "_name",
          "type": "string"
        },
        {
          "internalType": "string",
          "name": "_bio",
          "type": "string"
        },
        {
          "internalType": "string",
          "name": "_profilePicUrl",
          "type": "string"
        },
        {
          "internalType": "string",
          "name": "_nftCollectionName",
          "type": "string"
        },
        {
          "internalType": "string",
          "name": "_nftCollectionSymbol",
          "type": "string"
        }
      ],
      "stateMutability": "nonpayable",
      "type": "constructor"
    },
    {
      "anonymous": false,
      "inputs": [
        {
          "indexed": true,
          "internalType": "address",
          "name": "previousOwner",
          "type": "address"
        },
        {
          "indexed": true,
          "internalType": "address",
          "name": "newOwner",
          "type": "address"
        }
      ],
      "name": "OwnershipTransferred",
      "type": "event"
    },
    {
      "inputs": [],
      "name": "bio",
      "outputs": [
        {
          "internalType": "string",
          "name": "",
          "type": "string"
        }
      ],
      "stateMutability": "view",
      "type": "function"
    },
    {
      "inputs": [],
      "name": "name",
      "outputs": [
        {
          "internalType": "string",
          "name": "",
          "type": "string"
        }
      ],
      "stateMutability": "view",
      "type": "function"
    },
    {
      "inputs": [],
      "name": "nftCollectionAddress",
      "outputs": [
        {
          "internalType": "address",
          "name": "",
          "type": "address"
        }
      ],
      "stateMutability": "view",
      "type": "function"
    },
    {
      "inputs": [],
      "name": "nftCollectionName",
      "outputs": [
        {
          "internalType": "string",
          "name": "",
          "type": "string"
        }
      ],
      "stateMutability": "view",
      "type": "function"
    },
    {
      "inputs": [],
      "name": "nftCollectionSymbol",
      "outputs": [
        {
          "internalType": "string",
          "name": "",
          "type": "string"
        }
      ],
      "stateMutability": "view",
      "type": "function"
    },
    {
      "inputs": [],
      "name": "owner",
      "outputs": [
        {
          "internalType": "address",
          "name": "",
          "type": "address"
        }
      ],
      "stateMutability": "view",
      "type": "function"
    },
    {
      "inputs": [],
      "name": "profilePicUrl",
      "outputs": [
        {
          "internalType": "string",
          "name": "",
          "type": "string"
        }
      ],
      "stateMutability": "view",
      "type": "function"
    },
    {
      "inputs": [],
      "name": "renounceOwnership",
      "outputs": [],
      "stateMutability": "nonpayable",
      "type": "function"
    },
    {
      "inputs": [
        {
          "internalType": "address",
          "name": "newOwner",
          "type": "address"
        }
      ],
      "name": "transferOwnership",
      "outputs": [],
      "stateMutability": "nonpayable",
      "type": "function"
    },
    {
      "inputs": [],
      "name": "username",
      "outputs": [
        {
          "internalType": "string",
          "name": "",
          "type": "string"
        }
      ],
      "stateMutability": "view",
      "type": "function"
    }
  ],
  "bytecode": "0x60806040523480156200001157600080fd5b5060405162004c9c38038062004c9c8339818101604052810190620000379190620003e7565b620000576200004b620001eb60201b60201c565b620001f360201b60201c565b84600290805190602001906200006f929190620002b7565b50856001908051906020019062000088929190620002b7565b508360039080519060200190620000a1929190620002b7565b508260049080519060200190620000ba929190620002b7565b508160059080519060200190620000d3929190620002b7565b508060069080519060200190620000ec929190620002b7565b50600060056006604051620001019062000348565b6200010e929190620005cd565b604051809103906000f0801580156200012b573d6000803e3d6000fd5b5090508073ffffffffffffffffffffffffffffffffffffffff1663f2fde38b326040518263ffffffff1660e01b8152600401620001699190620005b0565b600060405180830381600087803b1580156200018457600080fd5b505af115801562000199573d6000803e3d6000fd5b5050505080600760006101000a81548173ffffffffffffffffffffffffffffffffffffffff021916908373ffffffffffffffffffffffffffffffffffffffff16021790555050505050505050620007d2565b600033905090565b60008060009054906101000a900473ffffffffffffffffffffffffffffffffffffffff169050816000806101000a81548173ffffffffffffffffffffffffffffffffffffffff021916908373ffffffffffffffffffffffffffffffffffffffff1602179055508173ffffffffffffffffffffffffffffffffffffffff168173ffffffffffffffffffffffffffffffffffffffff167f8be0079c531659141344cd1fd0a4f28419497f9722a3daafe3b4186f6b6457e060405160405180910390a35050565b828054620002c590620006f7565b90600052602060002090601f016020900481019282620002e9576000855562000335565b82601f106200030457805160ff191683800117855562000335565b8280016001018555821562000335579182015b828111156200033457825182559160200191906001019062000317565b5b50905062000344919062000356565b5090565b613a11806200128b83390190565b5b808211156200037157600081600090555060010162000357565b5090565b60006200038c620003868462000631565b62000608565b905082815260208101848484011115620003a557600080fd5b620003b2848285620006c1565b509392505050565b600082601f830112620003cc57600080fd5b8151620003de84826020860162000375565b91505092915050565b60008060008060008060c087890312156200040157600080fd5b600087015167ffffffffffffffff8111156200041c57600080fd5b6200042a89828a01620003ba565b965050602087015167ffffffffffffffff8111156200044857600080fd5b6200045689828a01620003ba565b955050604087015167ffffffffffffffff8111156200047457600080fd5b6200048289828a01620003ba565b945050606087015167ffffffffffffffff811115620004a057600080fd5b620004ae89828a01620003ba565b935050608087015167ffffffffffffffff811115620004cc57600080fd5b620004da89828a01620003ba565b92505060a087015167ffffffffffffffff811115620004f857600080fd5b6200050689828a01620003ba565b9150509295509295509295565b6200051e816200068d565b82525050565b600081546200053381620006f7565b6200053f81866200067c565b945060018216600081146200055d57600181146200057057620005a7565b60ff1983168652602086019350620005a7565b6200057b8562000667565b60005b838110156200059f578154818901526001820191506020810190506200057e565b808801955050505b50505092915050565b6000602082019050620005c7600083018462000513565b92915050565b60006040820190508181036000830152620005e9818562000524565b90508181036020830152620005ff818462000524565b90509392505050565b60006200061462000627565b90506200062282826200072d565b919050565b6000604051905090565b600067ffffffffffffffff8211156200064f576200064e62000792565b5b6200065a82620007c1565b9050602081019050919050565b60008190508160005260206000209050919050565b600082825260208201905092915050565b60006200069a82620006a1565b9050919050565b600073ffffffffffffffffffffffffffffffffffffffff82169050919050565b60005b83811015620006e1578082015181840152602081019050620006c4565b83811115620006f1576000848401525b50505050565b600060028204905060018216806200071057607f821691505b6020821081141562000727576200072662000763565b5b50919050565b6200073882620007c1565b810181811067ffffffffffffffff821117156200075a576200075962000792565b5b80604052505050565b7f4e487b7100000000000000000000000000000000000000000000000000000000600052602260045260246000fd5b7f4e487b7100000000000000000000000000000000000000000000000000000000600052604160045260246000fd5b6000601f19601f8301169050919050565b610aa980620007e26000396000f3fe608060405234801561001057600080fd5b506004361061009e5760003560e01c8063715018a611610066578063715018a61461013957806383a2325d146101435780638da5cb5b14610161578063f2fde38b1461017f578063f516b4221461019b5761009e565b806306fdde03146100a3578063232982ae146100c1578063573a5353146100df57806361fac54d146100fd5780636e3f7f6c1461011b575b600080fd5b6100ab6101b9565b6040516100b8919061088f565b60405180910390f35b6100c9610247565b6040516100d6919061088f565b60405180910390f35b6100e76102d5565b6040516100f4919061088f565b60405180910390f35b610105610363565b604051610112919061088f565b60405180910390f35b6101236103f1565b604051610130919061088f565b60405180910390f35b61014161047f565b005b61014b610507565b6040516101589190610874565b60405180910390f35b61016961052d565b6040516101769190610874565b60405180910390f35b610199600480360381019061019491906107bd565b610556565b005b6101a361064e565b6040516101b0919061088f565b60405180910390f35b600280546101c690610972565b80601f01602080910402602001604051908101604052809291908181526020018280546101f290610972565b801561023f5780601f106102145761010080835404028352916020019161023f565b820191906000526020600020905b81548152906001019060200180831161022257829003601f168201915b505050505081565b6006805461025490610972565b80601f016020809104026020016040519081016040528092919081815260200182805461028090610972565b80156102cd5780601f106102a2576101008083540402835291602001916102cd565b820191906000526020600020905b8154815290600101906020018083116102b057829003601f168201915b505050505081565b600580546102e290610972565b80601f016020809104026020016040519081016040528092919081815260200182805461030e90610972565b801561035b5780601f106103305761010080835404028352916020019161035b565b820191906000526020600020905b81548152906001019060200180831161033e57829003601f168201915b505050505081565b6001805461037090610972565b80601f016020809104026020016040519081016040528092919081815260200182805461039c90610972565b80156103e95780601f106103be576101008083540402835291602001916103e9565b820191906000526020600020905b8154815290600101906020018083116103cc57829003601f168201915b505050505081565b600480546103fe90610972565b80601f016020809104026020016040519081016040528092919081815260200182805461042a90610972565b80156104775780601f1061044c57610100808354040283529160200191610477565b820191906000526020600020905b81548152906001019060200180831161045a57829003601f168201915b505050505081565b6104876106dc565b73ffffffffffffffffffffffffffffffffffffffff166104a561052d565b73ffffffffffffffffffffffffffffffffffffffff16146104fb576040517f08c379a00000000000000000000000000000000000000000000000000000000081526004016104f2906108d1565b60405180910390fd5b61050560006106e4565b565b600760009054906101000a900473ffffffffffffffffffffffffffffffffffffffff1681565b60008060009054906101000a900473ffffffffffffffffffffffffffffffffffffffff16905090565b61055e6106dc565b73ffffffffffffffffffffffffffffffffffffffff1661057c61052d565b73ffffffffffffffffffffffffffffffffffffffff16146105d2576040517f08c379a00000000000000000000000000000000000000000000000000000000081526004016105c9906108d1565b60405180910390fd5b600073ffffffffffffffffffffffffffffffffffffffff168173ffffffffffffffffffffffffffffffffffffffff161415610642576040517f08c379a0000000000000000000000000000000000000000000000000000000008152600401610639906108b1565b60405180910390fd5b61064b816106e4565b50565b6003805461065b90610972565b80601f016020809104026020016040519081016040528092919081815260200182805461068790610972565b80156106d45780601f106106a9576101008083540402835291602001916106d4565b820191906000526020600020905b8154815290600101906020018083116106b757829003601f168201915b505050505081565b600033905090565b60008060009054906101000a900473ffffffffffffffffffffffffffffffffffffffff169050816000806101000a81548173ffffffffffffffffffffffffffffffffffffffff021916908373ffffffffffffffffffffffffffffffffffffffff1602179055508173ffffffffffffffffffffffffffffffffffffffff168173ffffffffffffffffffffffffffffffffffffffff167f8be0079c531659141344cd1fd0a4f28419497f9722a3daafe3b4186f6b6457e060405160405180910390a35050565b6000813590506107b781610a5c565b92915050565b6000602082840312156107cf57600080fd5b60006107dd848285016107a8565b91505092915050565b6107ef8161090d565b82525050565b6000610800826108f1565b61080a81856108fc565b935061081a81856020860161093f565b610823816109d3565b840191505092915050565b600061083b6026836108fc565b9150610846826109e4565b604082019050919050565b600061085e6020836108fc565b915061086982610a33565b602082019050919050565b600060208201905061088960008301846107e6565b92915050565b600060208201905081810360008301526108a981846107f5565b905092915050565b600060208201905081810360008301526108ca8161082e565b9050919050565b600060208201905081810360008301526108ea81610851565b9050919050565b600081519050919050565b600082825260208201905092915050565b60006109188261091f565b9050919050565b600073ffffffffffffffffffffffffffffffffffffffff82169050919050565b60005b8381101561095d578082015181840152602081019050610942565b8381111561096c576000848401525b50505050565b6000600282049050600182168061098a57607f821691505b6020821081141561099e5761099d6109a4565b5b50919050565b7f4e487b7100000000000000000000000000000000000000000000000000000000600052602260045260246000fd5b6000601f19601f8301169050919050565b7f4f776e61626c653a206e6577206f776e657220697320746865207a65726f206160008201527f6464726573730000000000000000000000000000000000000000000000000000602082015250565b7f4f776e61626c653a2063616c6c6572206973206e6f7420746865206f776e6572600082015250565b610a658161090d565b8114610a7057600080fd5b5056fea2646970667358221220b75f24b2e830e274adf6fa1df353f4fc23910883a70fd5e5a809569566c6c13264736f6c6343000804003360806040523480156200001157600080fd5b5060405162003a1138038062003a11833981810160405281019062000037919062000285565b818181600090805190602001906200005192919062000163565b5080600190805190602001906200006a92919062000163565b5050506200008d620000816200009560201b60201c565b6200009d60201b60201c565b505062000468565b600033905090565b6000600a60009054906101000a900473ffffffffffffffffffffffffffffffffffffffff16905081600a60006101000a81548173ffffffffffffffffffffffffffffffffffffffff021916908373ffffffffffffffffffffffffffffffffffffffff1602179055508173ffffffffffffffffffffffffffffffffffffffff168173ffffffffffffffffffffffffffffffffffffffff167f8be0079c531659141344cd1fd0a4f28419497f9722a3daafe3b4186f6b6457e060405160405180910390a35050565b82805462000171906200038d565b90600052602060002090601f016020900481019282620001955760008555620001e1565b82601f10620001b057805160ff1916838001178555620001e1565b82800160010185558215620001e1579182015b82811115620001e0578251825591602001919060010190620001c3565b5b509050620001f09190620001f4565b5090565b5b808211156200020f576000816000905550600101620001f5565b5090565b60006200022a620002248462000321565b620002f8565b9050828152602081018484840111156200024357600080fd5b6200025084828562000357565b509392505050565b600082601f8301126200026a57600080fd5b81516200027c84826020860162000213565b91505092915050565b600080604083850312156200029957600080fd5b600083015167ffffffffffffffff811115620002b457600080fd5b620002c28582860162000258565b925050602083015167ffffffffffffffff811115620002e057600080fd5b620002ee8582860162000258565b9150509250929050565b60006200030462000317565b9050620003128282620003c3565b919050565b6000604051905090565b600067ffffffffffffffff8211156200033f576200033e62000428565b5b6200034a8262000457565b9050602081019050919050565b60005b83811015620003775780820151818401526020810190506200035a565b8381111562000387576000848401525b50505050565b60006002820490506001821680620003a657607f821691505b60208210811415620003bd57620003bc620003f9565b5b50919050565b620003ce8262000457565b810181811067ffffffffffffffff82111715620003f057620003ef62000428565b5b80604052505050565b7f4e487b7100000000000000000000000000000000000000000000000000000000600052602260045260246000fd5b7f4e487b7100000000000000000000000000000000000000000000000000000000600052604160045260246000fd5b6000601f19601f8301169050919050565b61359980620004786000396000f3fe6080604052600436106101855760003560e01c806370a08231116100d157806395d89b411161008a578063b88d4fde11610064578063b88d4fde146105eb578063c87b56dd14610614578063e985e9c514610651578063f2fde38b1461068e5761018c565b806395d89b411461055a578063a22cb46514610585578063a6b9f2b9146105ae5761018c565b806370a0823114610424578063715018a61461046157806372b3b6201461047857806376a17510146104b55780638da5cb5b146104f257806395a193e21461051d5761018c565b80632f745c591161013e57806349aa82e11161011857806349aa82e1146103305780634f6ccce71461036d5780635b71ecb5146103aa5780636352211e146103e75761018c565b80632f745c59146102b35780633ccfd60b146102f057806342842e0e146103075761018c565b806301ffc9a71461019157806306fdde03146101ce578063081812fc146101f9578063095ea7b31461023657806318160ddd1461025f57806323b872dd1461028a5761018c565b3661018c57005b600080fd5b34801561019d57600080fd5b506101b860048036038101906101b391906126c0565b6106b7565b6040516101c59190612ae8565b60405180910390f35b3480156101da57600080fd5b506101e36106c9565b6040516101f09190612b03565b60405180910390f35b34801561020557600080fd5b50610220600480360381019061021b9190612766565b61075b565b60405161022d9190612a81565b60405180910390f35b34801561024257600080fd5b5061025d60048036038101906102589190612684565b6107e0565b005b34801561026b57600080fd5b506102746108f8565b6040516102819190612d45565b60405180910390f35b34801561029657600080fd5b506102b160048036038101906102ac919061257e565b610905565b005b3480156102bf57600080fd5b506102da60048036038101906102d59190612684565b610965565b6040516102e79190612d45565b60405180910390f35b3480156102fc57600080fd5b50610305610a0a565b005b34801561031357600080fd5b5061032e6004803603810190610329919061257e565b610acf565b005b34801561033c57600080fd5b5061035760048036038101906103529190612684565b610aef565b6040516103649190612ae8565b60405180910390f35b34801561037957600080fd5b50610394600480360381019061038f9190612766565b610b03565b6040516103a19190612d45565b60405180910390f35b3480156103b657600080fd5b506103d160048036038101906103cc9190612766565b610b9a565b6040516103de9190612a81565b60405180910390f35b3480156103f357600080fd5b5061040e60048036038101906104099190612766565b610bd7565b60405161041b9190612a81565b60405180910390f35b34801561043057600080fd5b5061044b60048036038101906104469190612519565b610c89565b6040516104589190612d45565b60405180910390f35b34801561046d57600080fd5b50610476610d41565b005b34801561048457600080fd5b5061049f600480360381019061049a9190612712565b610dc9565b6040516104ac9190612d45565b60405180910390f35b3480156104c157600080fd5b506104dc60048036038101906104d79190612766565b610e89565b6040516104e99190612d45565b60405180910390f35b3480156104fe57600080fd5b50610507610ea6565b6040516105149190612a81565b60405180910390f35b34801561052957600080fd5b50610544600480360381019061053f9190612766565b610ed0565b6040516105519190612a81565b60405180910390f35b34801561056657600080fd5b5061056f610f03565b60405161057c9190612b03565b60405180910390f35b34801561059157600080fd5b506105ac60048036038101906105a79190612648565b610f95565b005b3480156105ba57600080fd5b506105d560048036038101906105d09190612766565b611116565b6040516105e29190612d45565b60405180910390f35b3480156105f757600080fd5b50610612600480360381019061060d91906125cd565b61112e565b005b34801561062057600080fd5b5061063b60048036038101906106369190612766565b611190565b6040516106489190612b03565b60405180910390f35b34801561065d57600080fd5b5061067860048036038101906106739190612542565b611235565b6040516106859190612ae8565b60405180910390f35b34801561069a57600080fd5b506106b560048036038101906106b09190612519565b6112c9565b005b60006106c2826113c1565b9050919050565b6060600080546106d890612f5f565b80601f016020809104026020016040519081016040528092919081815260200182805461070490612f5f565b80156107515780601f1061072657610100808354040283529160200191610751565b820191906000526020600020905b81548152906001019060200180831161073457829003601f168201915b5050505050905090565b60006107668261143b565b6107a5576040517f08c379a000000000000000000000000000000000000000000000000000000000815260040161079c90612c85565b60405180910390fd5b6004600083815260200190815260200160002060009054906101000a900473ffffffffffffffffffffffffffffffffffffffff169050919050565b60006107eb82610bd7565b90508073ffffffffffffffffffffffffffffffffffffffff168373ffffffffffffffffffffffffffffffffffffffff16141561085c576040517f08c379a000000000000000000000000000000000000000000000000000000000815260040161085390612ce5565b60405180910390fd5b8073ffffffffffffffffffffffffffffffffffffffff1661087b6114a7565b73ffffffffffffffffffffffffffffffffffffffff1614806108aa57506108a9816108a46114a7565b611235565b5b6108e9576040517f08c379a00000000000000000000000000000000000000000000000000000000081526004016108e090612c05565b60405180910390fd5b6108f383836114af565b505050565b6000600880549050905090565b6109166109106114a7565b82611568565b610955576040517f08c379a000000000000000000000000000000000000000000000000000000000815260040161094c90612d05565b60405180910390fd5b610960838383611646565b505050565b600061097083610c89565b82106109b1576040517f08c379a00000000000000000000000000000000000000000000000000000000081526004016109a890612b25565b60405180910390fd5b600660008473ffffffffffffffffffffffffffffffffffffffff1673ffffffffffffffffffffffffffffffffffffffff168152602001908152602001600020600083815260200190815260200160002054905092915050565b610a126114a7565b73ffffffffffffffffffffffffffffffffffffffff16610a30610ea6565b73ffffffffffffffffffffffffffffffffffffffff1614610a86576040517f08c379a0000000000000000000000000000000000000000000000000000000008152600401610a7d90612ca5565b60405180910390fd5b3373ffffffffffffffffffffffffffffffffffffffff166108fc479081150290604051600060405180830381858888f19350505050158015610acc573d6000803e3d6000fd5b50565b610aea8383836040518060200160405280600081525061112e565b505050565b6000610afb8383611568565b905092915050565b6000610b0d6108f8565b8210610b4e576040517f08c379a0000000000000000000000000000000000000000000000000000000008152600401610b4590612d25565b60405180910390fd5b60088281548110610b88577f4e487b7100000000000000000000000000000000000000000000000000000000600052603260045260246000fd5b90600052602060002001549050919050565b6000600e600083815260200190815260200160002060009054906101000a900473ffffffffffffffffffffffffffffffffffffffff169050919050565b6000806002600084815260200190815260200160002060009054906101000a900473ffffffffffffffffffffffffffffffffffffffff169050600073ffffffffffffffffffffffffffffffffffffffff168173ffffffffffffffffffffffffffffffffffffffff161415610c80576040517f08c379a0000000000000000000000000000000000000000000000000000000008152600401610c7790612c45565b60405180910390fd5b80915050919050565b60008073ffffffffffffffffffffffffffffffffffffffff168273ffffffffffffffffffffffffffffffffffffffff161415610cfa576040517f08c379a0000000000000000000000000000000000000000000000000000000008152600401610cf190612c25565b60405180910390fd5b600360008373ffffffffffffffffffffffffffffffffffffffff1673ffffffffffffffffffffffffffffffffffffffff168152602001908152602001600020549050919050565b610d496114a7565b73ffffffffffffffffffffffffffffffffffffffff16610d67610ea6565b73ffffffffffffffffffffffffffffffffffffffff1614610dbd576040517f08c379a0000000000000000000000000000000000000000000000000000000008152600401610db490612ca5565b60405180910390fd5b610dc760006118a2565b565b6000610dd5600b611968565b6000610de1600b61197e565b9050610ded338261198c565b83600c60008381526020019081526020016000209080519060200190610e1492919061233d565b5082600d60008381526020019081526020016000208190555033600e600083815260200190815260200160002060006101000a81548173ffffffffffffffffffffffffffffffffffffffff021916908373ffffffffffffffffffffffffffffffffffffffff1602179055508091505092915050565b6000600d6000838152602001908152602001600020549050919050565b6000600a60009054906101000a900473ffffffffffffffffffffffffffffffffffffffff16905090565b600e6020528060005260406000206000915054906101000a900473ffffffffffffffffffffffffffffffffffffffff1681565b606060018054610f1290612f5f565b80601f0160208091040260200160405190810160405280929190818152602001828054610f3e90612f5f565b8015610f8b5780601f10610f6057610100808354040283529160200191610f8b565b820191906000526020600020905b815481529060010190602001808311610f6e57829003601f168201915b5050505050905090565b610f9d6114a7565b73ffffffffffffffffffffffffffffffffffffffff168273ffffffffffffffffffffffffffffffffffffffff16141561100b576040517f08c379a000000000000000000000000000000000000000000000000000000000815260040161100290612bc5565b60405180910390fd5b80600560006110186114a7565b73ffffffffffffffffffffffffffffffffffffffff1673ffffffffffffffffffffffffffffffffffffffff16815260200190815260200160002060008473ffffffffffffffffffffffffffffffffffffffff1673ffffffffffffffffffffffffffffffffffffffff16815260200190815260200160002060006101000a81548160ff0219169083151502179055508173ffffffffffffffffffffffffffffffffffffffff166110c56114a7565b73ffffffffffffffffffffffffffffffffffffffff167f17307eab39ab6107e8899845ad3d59bd9653f200f220920489ca2b5937696c318360405161110a9190612ae8565b60405180910390a35050565b600d6020528060005260406000206000915090505481565b61113f6111396114a7565b83611568565b61117e576040517f08c379a000000000000000000000000000000000000000000000000000000000815260040161117590612d05565b60405180910390fd5b61118a84848484611b5a565b50505050565b6060600c600083815260200190815260200160002080546111b090612f5f565b80601f01602080910402602001604051908101604052809291908181526020018280546111dc90612f5f565b80156112295780601f106111fe57610100808354040283529160200191611229565b820191906000526020600020905b81548152906001019060200180831161120c57829003601f168201915b50505050509050919050565b6000600560008473ffffffffffffffffffffffffffffffffffffffff1673ffffffffffffffffffffffffffffffffffffffff16815260200190815260200160002060008373ffffffffffffffffffffffffffffffffffffffff1673ffffffffffffffffffffffffffffffffffffffff16815260200190815260200160002060009054906101000a900460ff16905092915050565b6112d16114a7565b73ffffffffffffffffffffffffffffffffffffffff166112ef610ea6565b73ffffffffffffffffffffffffffffffffffffffff1614611345576040517f08c379a000000000000000000000000000000000000000000000000000000000815260040161133c90612ca5565b60405180910390fd5b600073ffffffffffffffffffffffffffffffffffffffff168173ffffffffffffffffffffffffffffffffffffffff1614156113b5576040517f08c379a00000000000000000000000000000000000000000000000000000000081526004016113ac90612b65565b60405180910390fd5b6113be816118a2565b50565b60007f780e9d63000000000000000000000000000000000000000000000000000000007bffffffffffffffffffffffffffffffffffffffffffffffffffffffff1916827bffffffffffffffffffffffffffffffffffffffffffffffffffffffff19161480611434575061143382611bb6565b5b9050919050565b60008073ffffffffffffffffffffffffffffffffffffffff166002600084815260200190815260200160002060009054906101000a900473ffffffffffffffffffffffffffffffffffffffff1673ffffffffffffffffffffffffffffffffffffffff1614159050919050565b600033905090565b816004600083815260200190815260200160002060006101000a81548173ffffffffffffffffffffffffffffffffffffffff021916908373ffffffffffffffffffffffffffffffffffffffff160217905550808273ffffffffffffffffffffffffffffffffffffffff1661152283610bd7565b73ffffffffffffffffffffffffffffffffffffffff167f8c5be1e5ebec7d5bd14f71427d1e84f3dd0314c0f7b2291e5b200ac8c7c3b92560405160405180910390a45050565b60006115738261143b565b6115b2576040517f08c379a00000000000000000000000000000000000000000000000000000000081526004016115a990612be5565b60405180910390fd5b60006115bd83610bd7565b90508073ffffffffffffffffffffffffffffffffffffffff168473ffffffffffffffffffffffffffffffffffffffff16148061162c57508373ffffffffffffffffffffffffffffffffffffffff166116148461075b565b73ffffffffffffffffffffffffffffffffffffffff16145b8061163d575061163c8185611235565b5b91505092915050565b8273ffffffffffffffffffffffffffffffffffffffff1661166682610bd7565b73ffffffffffffffffffffffffffffffffffffffff16146116bc576040517f08c379a00000000000000000000000000000000000000000000000000000000081526004016116b390612cc5565b60405180910390fd5b600073ffffffffffffffffffffffffffffffffffffffff168273ffffffffffffffffffffffffffffffffffffffff16141561172c576040517f08c379a000000000000000000000000000000000000000000000000000000000815260040161172390612ba5565b60405180910390fd5b611737838383611c98565b6117426000826114af565b6001600360008573ffffffffffffffffffffffffffffffffffffffff1673ffffffffffffffffffffffffffffffffffffffff16815260200190815260200160002060008282546117929190612e75565b925050819055506001600360008473ffffffffffffffffffffffffffffffffffffffff1673ffffffffffffffffffffffffffffffffffffffff16815260200190815260200160002060008282546117e99190612e1f565b92505081905550816002600083815260200190815260200160002060006101000a81548173ffffffffffffffffffffffffffffffffffffffff021916908373ffffffffffffffffffffffffffffffffffffffff160217905550808273ffffffffffffffffffffffffffffffffffffffff168473ffffffffffffffffffffffffffffffffffffffff167fddf252ad1be2c89b69c2b068fc378daa952ba7f163c4a11628f55a4df523b3ef60405160405180910390a4505050565b6000600a60009054906101000a900473ffffffffffffffffffffffffffffffffffffffff16905081600a60006101000a81548173ffffffffffffffffffffffffffffffffffffffff021916908373ffffffffffffffffffffffffffffffffffffffff1602179055508173ffffffffffffffffffffffffffffffffffffffff168173ffffffffffffffffffffffffffffffffffffffff167f8be0079c531659141344cd1fd0a4f28419497f9722a3daafe3b4186f6b6457e060405160405180910390a35050565b6001816000016000828254019250508190555050565b600081600001549050919050565b600073ffffffffffffffffffffffffffffffffffffffff168273ffffffffffffffffffffffffffffffffffffffff1614156119fc576040517f08c379a00000000000000000000000000000000000000000000000000000000081526004016119f390612c65565b60405180910390fd5b611a058161143b565b15611a45576040517f08c379a0000000000000000000000000000000000000000000000000000000008152600401611a3c90612b85565b60405180910390fd5b611a5160008383611c98565b6001600360008473ffffffffffffffffffffffffffffffffffffffff1673ffffffffffffffffffffffffffffffffffffffff1681526020019081526020016000206000828254611aa19190612e1f565b92505081905550816002600083815260200190815260200160002060006101000a81548173ffffffffffffffffffffffffffffffffffffffff021916908373ffffffffffffffffffffffffffffffffffffffff160217905550808273ffffffffffffffffffffffffffffffffffffffff16600073ffffffffffffffffffffffffffffffffffffffff167fddf252ad1be2c89b69c2b068fc378daa952ba7f163c4a11628f55a4df523b3ef60405160405180910390a45050565b611b65848484611646565b611b7184848484611dac565b611bb0576040517f08c379a0000000000000000000000000000000000000000000000000000000008152600401611ba790612b45565b60405180910390fd5b50505050565b60007f80ac58cd000000000000000000000000000000000000000000000000000000007bffffffffffffffffffffffffffffffffffffffffffffffffffffffff1916827bffffffffffffffffffffffffffffffffffffffffffffffffffffffff19161480611c8157507f5b5e139f000000000000000000000000000000000000000000000000000000007bffffffffffffffffffffffffffffffffffffffffffffffffffffffff1916827bffffffffffffffffffffffffffffffffffffffffffffffffffffffff1916145b80611c915750611c9082611f43565b5b9050919050565b611ca3838383611fad565b600073ffffffffffffffffffffffffffffffffffffffff168373ffffffffffffffffffffffffffffffffffffffff161415611ce657611ce181611fb2565b611d25565b8173ffffffffffffffffffffffffffffffffffffffff168373ffffffffffffffffffffffffffffffffffffffff1614611d2457611d238382611ffb565b5b5b600073ffffffffffffffffffffffffffffffffffffffff168273ffffffffffffffffffffffffffffffffffffffff161415611d6857611d6381612168565b611da7565b8273ffffffffffffffffffffffffffffffffffffffff168273ffffffffffffffffffffffffffffffffffffffff1614611da657611da582826122ab565b5b5b505050565b6000611dcd8473ffffffffffffffffffffffffffffffffffffffff1661232a565b15611f36578373ffffffffffffffffffffffffffffffffffffffff1663150b7a02611df66114a7565b8786866040518563ffffffff1660e01b8152600401611e189493929190612a9c565b602060405180830381600087803b158015611e3257600080fd5b505af1925050508015611e6357506040513d601f19601f82011682018060405250810190611e6091906126e9565b60015b611ee6573d8060008114611e93576040519150601f19603f3d011682016040523d82523d6000602084013e611e98565b606091505b50600081511415611ede576040517f08c379a0000000000000000000000000000000000000000000000000000000008152600401611ed590612b45565b60405180910390fd5b805181602001fd5b63150b7a0260e01b7bffffffffffffffffffffffffffffffffffffffffffffffffffffffff1916817bffffffffffffffffffffffffffffffffffffffffffffffffffffffff191614915050611f3b565b600190505b949350505050565b60007f01ffc9a7000000000000000000000000000000000000000000000000000000007bffffffffffffffffffffffffffffffffffffffffffffffffffffffff1916827bffffffffffffffffffffffffffffffffffffffffffffffffffffffff1916149050919050565b505050565b6008805490506009600083815260200190815260200160002081905550600881908060018154018082558091505060019003906000526020600020016000909190919091505550565b6000600161200884610c89565b6120129190612e75565b90506000600760008481526020019081526020016000205490508181146120f7576000600660008673ffffffffffffffffffffffffffffffffffffffff1673ffffffffffffffffffffffffffffffffffffffff168152602001908152602001600020600084815260200190815260200160002054905080600660008773ffffffffffffffffffffffffffffffffffffffff1673ffffffffffffffffffffffffffffffffffffffff168152602001908152602001600020600084815260200190815260200160002081905550816007600083815260200190815260200160002081905550505b6007600084815260200190815260200160002060009055600660008573ffffffffffffffffffffffffffffffffffffffff1673ffffffffffffffffffffffffffffffffffffffff16815260200190815260200160002060008381526020019081526020016000206000905550505050565b6000600160088054905061217c9190612e75565b90506000600960008481526020019081526020016000205490506000600883815481106121d2577f4e487b7100000000000000000000000000000000000000000000000000000000600052603260045260246000fd5b90600052602060002001549050806008838154811061221a577f4e487b7100000000000000000000000000000000000000000000000000000000600052603260045260246000fd5b90600052602060002001819055508160096000838152602001908152602001600020819055506009600085815260200190815260200160002060009055600880548061228f577f4e487b7100000000000000000000000000000000000000000000000000000000600052603160045260246000fd5b6001900381819060005260206000200160009055905550505050565b60006122b683610c89565b905081600660008573ffffffffffffffffffffffffffffffffffffffff1673ffffffffffffffffffffffffffffffffffffffff168152602001908152602001600020600083815260200190815260200160002081905550806007600084815260200190815260200160002081905550505050565b600080823b905060008111915050919050565b82805461234990612f5f565b90600052602060002090601f01602090048101928261236b57600085556123b2565b82601f1061238457805160ff19168380011785556123b2565b828001600101855582156123b2579182015b828111156123b1578251825591602001919060010190612396565b5b5090506123bf91906123c3565b5090565b5b808211156123dc5760008160009055506001016123c4565b5090565b60006123f36123ee84612d85565b612d60565b90508281526020810184848401111561240b57600080fd5b612416848285612f1d565b509392505050565b600061243161242c84612db6565b612d60565b90508281526020810184848401111561244957600080fd5b612454848285612f1d565b509392505050565b60008135905061246b81613507565b92915050565b6000813590506124808161351e565b92915050565b60008135905061249581613535565b92915050565b6000815190506124aa81613535565b92915050565b600082601f8301126124c157600080fd5b81356124d18482602086016123e0565b91505092915050565b600082601f8301126124eb57600080fd5b81356124fb84826020860161241e565b91505092915050565b6000813590506125138161354c565b92915050565b60006020828403121561252b57600080fd5b60006125398482850161245c565b91505092915050565b6000806040838503121561255557600080fd5b60006125638582860161245c565b92505060206125748582860161245c565b9150509250929050565b60008060006060848603121561259357600080fd5b60006125a18682870161245c565b93505060206125b28682870161245c565b92505060406125c386828701612504565b9150509250925092565b600080600080608085870312156125e357600080fd5b60006125f18782880161245c565b94505060206126028782880161245c565b935050604061261387828801612504565b925050606085013567ffffffffffffffff81111561263057600080fd5b61263c878288016124b0565b91505092959194509250565b6000806040838503121561265b57600080fd5b60006126698582860161245c565b925050602061267a85828601612471565b9150509250929050565b6000806040838503121561269757600080fd5b60006126a58582860161245c565b92505060206126b685828601612504565b9150509250929050565b6000602082840312156126d257600080fd5b60006126e084828501612486565b91505092915050565b6000602082840312156126fb57600080fd5b60006127098482850161249b565b91505092915050565b6000806040838503121561272557600080fd5b600083013567ffffffffffffffff81111561273f57600080fd5b61274b858286016124da565b925050602061275c85828601612504565b9150509250929050565b60006020828403121561277857600080fd5b600061278684828501612504565b91505092915050565b61279881612ea9565b82525050565b6127a781612ebb565b82525050565b60006127b882612de7565b6127c28185612dfd565b93506127d2818560208601612f2c565b6127db8161304f565b840191505092915050565b60006127f182612df2565b6127fb8185612e0e565b935061280b818560208601612f2c565b6128148161304f565b840191505092915050565b600061282c602b83612e0e565b915061283782613060565b604082019050919050565b600061284f603283612e0e565b915061285a826130af565b604082019050919050565b6000612872602683612e0e565b915061287d826130fe565b604082019050919050565b6000612895601c83612e0e565b91506128a08261314d565b602082019050919050565b60006128b8602483612e0e565b91506128c382613176565b604082019050919050565b60006128db601983612e0e565b91506128e6826131c5565b602082019050919050565b60006128fe602c83612e0e565b9150612909826131ee565b604082019050919050565b6000612921603883612e0e565b915061292c8261323d565b604082019050919050565b6000612944602a83612e0e565b915061294f8261328c565b604082019050919050565b6000612967602983612e0e565b9150612972826132db565b604082019050919050565b600061298a602083612e0e565b91506129958261332a565b602082019050919050565b60006129ad602c83612e0e565b91506129b882613353565b604082019050919050565b60006129d0602083612e0e565b91506129db826133a2565b602082019050919050565b60006129f3602983612e0e565b91506129fe826133cb565b604082019050919050565b6000612a16602183612e0e565b9150612a218261341a565b604082019050919050565b6000612a39603183612e0e565b9150612a4482613469565b604082019050919050565b6000612a5c602c83612e0e565b9150612a67826134b8565b604082019050919050565b612a7b81612f13565b82525050565b6000602082019050612a96600083018461278f565b92915050565b6000608082019050612ab1600083018761278f565b612abe602083018661278f565b612acb6040830185612a72565b8181036060830152612add81846127ad565b905095945050505050565b6000602082019050612afd600083018461279e565b92915050565b60006020820190508181036000830152612b1d81846127e6565b905092915050565b60006020820190508181036000830152612b3e8161281f565b9050919050565b60006020820190508181036000830152612b5e81612842565b9050919050565b60006020820190508181036000830152612b7e81612865565b9050919050565b60006020820190508181036000830152612b9e81612888565b9050919050565b60006020820190508181036000830152612bbe816128ab565b9050919050565b60006020820190508181036000830152612bde816128ce565b9050919050565b60006020820190508181036000830152612bfe816128f1565b9050919050565b60006020820190508181036000830152612c1e81612914565b9050919050565b60006020820190508181036000830152612c3e81612937565b9050919050565b60006020820190508181036000830152612c5e8161295a565b9050919050565b60006020820190508181036000830152612c7e8161297d565b9050919050565b60006020820190508181036000830152612c9e816129a0565b9050919050565b60006020820190508181036000830152612cbe816129c3565b9050919050565b60006020820190508181036000830152612cde816129e6565b9050919050565b60006020820190508181036000830152612cfe81612a09565b9050919050565b60006020820190508181036000830152612d1e81612a2c565b9050919050565b60006020820190508181036000830152612d3e81612a4f565b9050919050565b6000602082019050612d5a6000830184612a72565b92915050565b6000612d6a612d7b565b9050612d768282612f91565b919050565b6000604051905090565b600067ffffffffffffffff821115612da057612d9f613020565b5b612da98261304f565b9050602081019050919050565b600067ffffffffffffffff821115612dd157612dd0613020565b5b612dda8261304f565b9050602081019050919050565b600081519050919050565b600081519050919050565b600082825260208201905092915050565b600082825260208201905092915050565b6000612e2a82612f13565b9150612e3583612f13565b9250827fffffffffffffffffffffffffffffffffffffffffffffffffffffffffffffffff03821115612e6a57612e69612fc2565b5b828201905092915050565b6000612e8082612f13565b9150612e8b83612f13565b925082821015612e9e57612e9d612fc2565b5b828203905092915050565b6000612eb482612ef3565b9050919050565b60008115159050919050565b60007fffffffff0000000000000000000000000000000000000000000000000000000082169050919050565b600073ffffffffffffffffffffffffffffffffffffffff82169050919050565b6000819050919050565b82818337600083830152505050565b60005b83811015612f4a578082015181840152602081019050612f2f565b83811115612f59576000848401525b50505050565b60006002820490506001821680612f7757607f821691505b60208210811415612f8b57612f8a612ff1565b5b50919050565b612f9a8261304f565b810181811067ffffffffffffffff82111715612fb957612fb8613020565b5b80604052505050565b7f4e487b7100000000000000000000000000000000000000000000000000000000600052601160045260246000fd5b7f4e487b7100000000000000000000000000000000000000000000000000000000600052602260045260246000fd5b7f4e487b7100000000000000000000000000000000000000000000000000000000600052604160045260246000fd5b6000601f19601f8301169050919050565b7f455243373231456e756d657261626c653a206f776e657220696e646578206f7560008201527f74206f6620626f756e6473000000000000000000000000000000000000000000602082015250565b7f4552433732313a207472616e7366657220746f206e6f6e20455243373231526560008201527f63656976657220696d706c656d656e7465720000000000000000000000000000602082015250565b7f4f776e61626c653a206e6577206f776e657220697320746865207a65726f206160008201527f6464726573730000000000000000000000000000000000000000000000000000602082015250565b7f4552433732313a20746f6b656e20616c7265616479206d696e74656400000000600082015250565b7f4552433732313a207472616e7366657220746f20746865207a65726f2061646460008201527f7265737300000000000000000000000000000000000000000000000000000000602082015250565b7f4552433732313a20617070726f766520746f2063616c6c657200000000000000600082015250565b7f4552433732313a206f70657261746f7220717565727920666f72206e6f6e657860008201527f697374656e7420746f6b656e0000000000000000000000000000000000000000602082015250565b7f4552433732313a20617070726f76652063616c6c6572206973206e6f74206f7760008201527f6e6572206e6f7220617070726f76656420666f7220616c6c0000000000000000602082015250565b7f4552433732313a2062616c616e636520717565727920666f7220746865207a6560008201527f726f206164647265737300000000000000000000000000000000000000000000602082015250565b7f4552433732313a206f776e657220717565727920666f72206e6f6e657869737460008201527f656e7420746f6b656e0000000000000000000000000000000000000000000000602082015250565b7f4552433732313a206d696e7420746f20746865207a65726f2061646472657373600082015250565b7f4552433732313a20617070726f76656420717565727920666f72206e6f6e657860008201527f697374656e7420746f6b656e0000000000000000000000000000000000000000602082015250565b7f4f776e61626c653a2063616c6c6572206973206e6f7420746865206f776e6572600082015250565b7f4552433732313a207472616e73666572206f6620746f6b656e2074686174206960008201527f73206e6f74206f776e0000000000000000000000000000000000000000000000602082015250565b7f4552433732313a20617070726f76616c20746f2063757272656e74206f776e6560008201527f7200000000000000000000000000000000000000000000000000000000000000602082015250565b7f4552433732313a207472616e736665722063616c6c6572206973206e6f74206f60008201527f776e6572206e6f7220617070726f766564000000000000000000000000000000602082015250565b7f455243373231456e756d657261626c653a20676c6f62616c20696e646578206f60008201527f7574206f6620626f756e64730000000000000000000000000000000000000000602082015250565b61351081612ea9565b811461351b57600080fd5b50565b61352781612ebb565b811461353257600080fd5b50565b61353e81612ec7565b811461354957600080fd5b50565b61355581612f13565b811461356057600080fd5b5056fea264697066735822122050f63a55027da7bbba0c5262db69e747c1d7e4f665daa2ce0cff296261faf75164736f6c63430008040033",
  "linkReferences": {},
  "deployedLinkReferences": {}
}