{
  "_format": "hh-sol-artifact-1",
  "contractName": "NFTMarket",
  "sourceName": "contracts/NFTMarket.sol",
  "abi": [
    {
      "inputs": [],
      "stateMutability": "nonpayable",
      "type": "constructor"
    },
    {
      "anonymous": false,
      "inputs": [
        {
          "indexed": true,
          "internalType": "uint256",
          "name": "itemId",
          "type": "uint256"
        },
        {
          "indexed": true,
          "internalType": "address",
          "name": "nftContract",
          "type": "address"
        },
        {
          "indexed": true,
          "internalType": "uint256",
          "name": "tokenId",
          "type": "uint256"
        },
        {
          "indexed": false,
          "internalType": "address",
          "name": "seller",
          "type": "address"
        },
        {
          "indexed": false,
          "internalType": "address",
          "name": "owner",
          "type": "address"
        },
        {
          "indexed": false,
          "internalType": "uint256",
          "name": "price",
          "type": "uint256"
        },
        {
          "indexed": false,
          "internalType": "bool",
          "name": "sold",
          "type": "bool"
        }
      ],
      "name": "MarketItemCreated",
      "type": "event"
    },
    {
      "anonymous": false,
      "inputs": [
        {
          "indexed": true,
          "internalType": "uint256",
          "name": "itemId",
          "type": "uint256"
        },
        {
          "indexed": true,
          "internalType": "address",
          "name": "nftContract",
          "type": "address"
        },
        {
          "indexed": true,
          "internalType": "uint256",
          "name": "tokenId",
          "type": "uint256"
        },
        {
          "indexed": false,
          "internalType": "address",
          "name": "seller",
          "type": "address"
        },
        {
          "indexed": false,
          "internalType": "address",
          "name": "buyer",
          "type": "address"
        },
        {
          "indexed": false,
          "internalType": "uint256",
          "name": "price",
          "type": "uint256"
        }
      ],
      "name": "MarketItemSold",
      "type": "event"
    },
    {
      "inputs": [
        {
          "internalType": "address payable",
          "name": "nftContract",
          "type": "address"
        },
        {
          "internalType": "uint256",
          "name": "tokenId",
          "type": "uint256"
        },
        {
          "internalType": "uint256",
          "name": "price",
          "type": "uint256"
        }
      ],
      "name": "createMarketItem",
      "outputs": [],
      "stateMutability": "payable",
      "type": "function"
    },
    {
      "inputs": [
        {
          "internalType": "address",
          "name": "nftContract",
          "type": "address"
        },
        {
          "internalType": "uint256",
          "name": "itemId",
          "type": "uint256"
        }
      ],
      "name": "createMarketSale",
      "outputs": [],
      "stateMutability": "payable",
      "type": "function"
    },
    {
      "inputs": [
        {
          "internalType": "address",
          "name": "sender",
          "type": "address"
        }
      ],
      "name": "fetchItemsCreated",
      "outputs": [
        {
          "components": [
            {
              "internalType": "uint256",
              "name": "itemId",
              "type": "uint256"
            },
            {
              "internalType": "address",
              "name": "nftContract",
              "type": "address"
            },
            {
              "internalType": "uint256",
              "name": "tokenId",
              "type": "uint256"
            },
            {
              "internalType": "address payable",
              "name": "seller",
              "type": "address"
            },
            {
              "internalType": "uint256",
              "name": "royaltyPercentage",
              "type": "uint256"
            },
            {
              "internalType": "address payable",
              "name": "royaltyReceiver",
              "type": "address"
            },
            {
              "internalType": "address",
              "name": "owner",
              "type": "address"
            },
            {
              "internalType": "uint256",
              "name": "price",
              "type": "uint256"
            },
            {
              "internalType": "bool",
              "name": "onSale",
              "type": "bool"
            }
          ],
          "internalType": "struct NFTMarket.MarketItem[]",
          "name": "",
          "type": "tuple[]"
        }
      ],
      "stateMutability": "view",
      "type": "function"
    },
    {
      "inputs": [
        {
          "internalType": "address",
          "name": "sender",
          "type": "address"
        }
      ],
      "name": "fetchListedItems",
      "outputs": [
        {
          "components": [
            {
              "internalType": "uint256",
              "name": "itemId",
              "type": "uint256"
            },
            {
              "internalType": "address",
              "name": "nftContract",
              "type": "address"
            },
            {
              "internalType": "uint256",
              "name": "tokenId",
              "type": "uint256"
            },
            {
              "internalType": "address payable",
              "name": "seller",
              "type": "address"
            },
            {
              "internalType": "uint256",
              "name": "royaltyPercentage",
              "type": "uint256"
            },
            {
              "internalType": "address payable",
              "name": "royaltyReceiver",
              "type": "address"
            },
            {
              "internalType": "address",
              "name": "owner",
              "type": "address"
            },
            {
              "internalType": "uint256",
              "name": "price",
              "type": "uint256"
            },
            {
              "internalType": "bool",
              "name": "onSale",
              "type": "bool"
            }
          ],
          "internalType": "struct NFTMarket.MarketItem[]",
          "name": "",
          "type": "tuple[]"
        }
      ],
      "stateMutability": "view",
      "type": "function"
    },
    {
      "inputs": [],
      "name": "fetchMarketItems",
      "outputs": [
        {
          "components": [
            {
              "internalType": "uint256",
              "name": "itemId",
              "type": "uint256"
            },
            {
              "internalType": "address",
              "name": "nftContract",
              "type": "address"
            },
            {
              "internalType": "uint256",
              "name": "tokenId",
              "type": "uint256"
            },
            {
              "internalType": "address payable",
              "name": "seller",
              "type": "address"
            },
            {
              "internalType": "uint256",
              "name": "royaltyPercentage",
              "type": "uint256"
            },
            {
              "internalType": "address payable",
              "name": "royaltyReceiver",
              "type": "address"
            },
            {
              "internalType": "address",
              "name": "owner",
              "type": "address"
            },
            {
              "internalType": "uint256",
              "name": "price",
              "type": "uint256"
            },
            {
              "internalType": "bool",
              "name": "onSale",
              "type": "bool"
            }
          ],
          "internalType": "struct NFTMarket.MarketItem[]",
          "name": "",
          "type": "tuple[]"
        }
      ],
      "stateMutability": "view",
      "type": "function"
    },
    {
      "inputs": [
        {
          "internalType": "address",
          "name": "sender",
          "type": "address"
        }
      ],
      "name": "fetchMyNFTs",
      "outputs": [
        {
          "components": [
            {
              "internalType": "uint256",
              "name": "itemId",
              "type": "uint256"
            },
            {
              "internalType": "address",
              "name": "nftContract",
              "type": "address"
            },
            {
              "internalType": "uint256",
              "name": "tokenId",
              "type": "uint256"
            },
            {
              "internalType": "address payable",
              "name": "seller",
              "type": "address"
            },
            {
              "internalType": "uint256",
              "name": "royaltyPercentage",
              "type": "uint256"
            },
            {
              "internalType": "address payable",
              "name": "royaltyReceiver",
              "type": "address"
            },
            {
              "internalType": "address",
              "name": "owner",
              "type": "address"
            },
            {
              "internalType": "uint256",
              "name": "price",
              "type": "uint256"
            },
            {
              "internalType": "bool",
              "name": "onSale",
              "type": "bool"
            }
          ],
          "internalType": "struct NFTMarket.MarketItem[]",
          "name": "",
          "type": "tuple[]"
        }
      ],
      "stateMutability": "view",
      "type": "function"
    },
    {
      "inputs": [],
      "name": "getListingPrice",
      "outputs": [
        {
          "internalType": "uint256",
          "name": "",
          "type": "uint256"
        }
      ],
      "stateMutability": "view",
      "type": "function"
    },
    {
      "inputs": [
        {
          "internalType": "uint256",
          "name": "itemId",
          "type": "uint256"
        }
      ],
      "name": "getMarketItemById",
      "outputs": [
        {
          "components": [
            {
              "internalType": "uint256",
              "name": "itemId",
              "type": "uint256"
            },
            {
              "internalType": "address",
              "name": "nftContract",
              "type": "address"
            },
            {
              "internalType": "uint256",
              "name": "tokenId",
              "type": "uint256"
            },
            {
              "internalType": "address payable",
              "name": "seller",
              "type": "address"
            },
            {
              "internalType": "uint256",
              "name": "royaltyPercentage",
              "type": "uint256"
            },
            {
              "internalType": "address payable",
              "name": "royaltyReceiver",
              "type": "address"
            },
            {
              "internalType": "address",
              "name": "owner",
              "type": "address"
            },
            {
              "internalType": "uint256",
              "name": "price",
              "type": "uint256"
            },
            {
              "internalType": "bool",
              "name": "onSale",
              "type": "bool"
            }
          ],
          "internalType": "struct NFTMarket.MarketItem",
          "name": "",
          "type": "tuple"
        }
      ],
      "stateMutability": "view",
      "type": "function"
    },
    {
      "inputs": [
        {
          "internalType": "uint256",
          "name": "",
          "type": "uint256"
        }
      ],
      "name": "idToMarketItem",
      "outputs": [
        {
          "internalType": "uint256",
          "name": "itemId",
          "type": "uint256"
        },
        {
          "internalType": "address",
          "name": "nftContract",
          "type": "address"
        },
        {
          "internalType": "uint256",
          "name": "tokenId",
          "type": "uint256"
        },
        {
          "internalType": "address payable",
          "name": "seller",
          "type": "address"
        },
        {
          "internalType": "uint256",
          "name": "royaltyPercentage",
          "type": "uint256"
        },
        {
          "internalType": "address payable",
          "name": "royaltyReceiver",
          "type": "address"
        },
        {
          "internalType": "address",
          "name": "owner",
          "type": "address"
        },
        {
          "internalType": "uint256",
          "name": "price",
          "type": "uint256"
        },
        {
          "internalType": "bool",
          "name": "onSale",
          "type": "bool"
        }
      ],
      "stateMutability": "view",
      "type": "function"
    }
  ],
  "bytecode": "0x60806040526658d15e1762800060045534801561001b57600080fd5b50600160008190555033600360006101000a81548173ffffffffffffffffffffffffffffffffffffffff021916908373ffffffffffffffffffffffffffffffffffffffff1602179055506129f2806100746000396000f3fe6080604052600436106100865760003560e01c806358eb2df51161005957806358eb2df51461015b57806395fb77b914610177578063c23b139e146101b4578063c8338456146101d0578063e61a70c01461020d57610086565b80630f08efe01461008b57806310afee1e146100b657806312e85585146100f357806353dbceb11461011e575b600080fd5b34801561009757600080fd5b506100a0610252565b6040516100ad91906124b1565b60405180910390f35b3480156100c257600080fd5b506100dd60048036038101906100d89190611fd7565b6105de565b6040516100ea91906124b1565b60405180910390f35b3480156100ff57600080fd5b50610108610a30565b604051610115919061256f565b60405180910390f35b34801561012a57600080fd5b50610145600480360381019061014091906120b4565b610a3a565b6040516101529190612553565b60405180910390f35b61017560048036038101906101709190612029565b610c03565b005b34801561018357600080fd5b5061019e60048036038101906101999190611fd7565b6110f6565b6040516101ab91906124b1565b60405180910390f35b6101ce60048036038101906101c99190612078565b611548565b005b3480156101dc57600080fd5b506101f760048036038101906101f29190611fd7565b611974565b60405161020491906124b1565b60405180910390f35b34801561021957600080fd5b50610234600480360381019061022f91906120b4565b611d87565b6040516102499998979695949392919061258a565b60405180910390f35b606060006102606001611e62565b9050600061026e6002611e62565b6102786001611e62565b6102829190612742565b90506000808267ffffffffffffffff8111156102c7577f4e487b7100000000000000000000000000000000000000000000000000000000600052604160045260246000fd5b60405190808252806020026020018201604052801561030057816020015b6102ed611ec8565b8152602001906001900390816102e55790505b50905060005b848110156105d3573073ffffffffffffffffffffffffffffffffffffffff16600660006001846103369190612661565b815260200190815260200160002060060160009054906101000a900473ffffffffffffffffffffffffffffffffffffffff1673ffffffffffffffffffffffffffffffffffffffff1614156105c0576000600660006001846103979190612661565b815260200190815260200160002060000154905060006006600083815260200190815260200160002090508060405180610120016040529081600082015481526020016001820160009054906101000a900473ffffffffffffffffffffffffffffffffffffffff1673ffffffffffffffffffffffffffffffffffffffff1673ffffffffffffffffffffffffffffffffffffffff168152602001600282015481526020016003820160009054906101000a900473ffffffffffffffffffffffffffffffffffffffff1673ffffffffffffffffffffffffffffffffffffffff1673ffffffffffffffffffffffffffffffffffffffff168152602001600482015481526020016005820160009054906101000a900473ffffffffffffffffffffffffffffffffffffffff1673ffffffffffffffffffffffffffffffffffffffff1673ffffffffffffffffffffffffffffffffffffffff1681526020016006820160009054906101000a900473ffffffffffffffffffffffffffffffffffffffff1673ffffffffffffffffffffffffffffffffffffffff1673ffffffffffffffffffffffffffffffffffffffff168152602001600782015481526020016008820160009054906101000a900460ff1615151515815250508486815181106105a3577f4e487b7100000000000000000000000000000000000000000000000000000000600052603260045260246000fd5b60200260200101819052506001856105bb9190612661565b945050505b80806105cb90612806565b915050610306565b508094505050505090565b606060006105ec6001611e62565b905060008060005b83811015610695578573ffffffffffffffffffffffffffffffffffffffff16600660006001846106249190612661565b815260200190815260200160002060060160009054906101000a900473ffffffffffffffffffffffffffffffffffffffff1673ffffffffffffffffffffffffffffffffffffffff1614156106825760018361067f9190612661565b92505b808061068d90612806565b9150506105f4565b5060008267ffffffffffffffff8111156106d8577f4e487b7100000000000000000000000000000000000000000000000000000000600052604160045260246000fd5b60405190808252806020026020018201604052801561071157816020015b6106fe611ec8565b8152602001906001900390816106f65790505b50905060005b84811015610a23578673ffffffffffffffffffffffffffffffffffffffff16600660006001846107479190612661565b815260200190815260200160002060060160009054906101000a900473ffffffffffffffffffffffffffffffffffffffff1673ffffffffffffffffffffffffffffffffffffffff161480156107cf575060001515600660006001846107ac9190612661565b815260200190815260200160002060080160009054906101000a900460ff161515145b15610a10576000600660006001846107e79190612661565b815260200190815260200160002060000154905060006006600083815260200190815260200160002090508060405180610120016040529081600082015481526020016001820160009054906101000a900473ffffffffffffffffffffffffffffffffffffffff1673ffffffffffffffffffffffffffffffffffffffff1673ffffffffffffffffffffffffffffffffffffffff168152602001600282015481526020016003820160009054906101000a900473ffffffffffffffffffffffffffffffffffffffff1673ffffffffffffffffffffffffffffffffffffffff1673ffffffffffffffffffffffffffffffffffffffff168152602001600482015481526020016005820160009054906101000a900473ffffffffffffffffffffffffffffffffffffffff1673ffffffffffffffffffffffffffffffffffffffff1673ffffffffffffffffffffffffffffffffffffffff1681526020016006820160009054906101000a900473ffffffffffffffffffffffffffffffffffffffff1673ffffffffffffffffffffffffffffffffffffffff1673ffffffffffffffffffffffffffffffffffffffff168152602001600782015481526020016008820160009054906101000a900460ff1615151515815250508486815181106109f3577f4e487b7100000000000000000000000000000000000000000000000000000000600052603260045260246000fd5b6020026020010181905250600185610a0b9190612661565b945050505b8080610a1b90612806565b915050610717565b5080945050505050919050565b6000600454905090565b610a42611ec8565b6006600083815260200190815260200160002060405180610120016040529081600082015481526020016001820160009054906101000a900473ffffffffffffffffffffffffffffffffffffffff1673ffffffffffffffffffffffffffffffffffffffff1673ffffffffffffffffffffffffffffffffffffffff168152602001600282015481526020016003820160009054906101000a900473ffffffffffffffffffffffffffffffffffffffff1673ffffffffffffffffffffffffffffffffffffffff1673ffffffffffffffffffffffffffffffffffffffff168152602001600482015481526020016005820160009054906101000a900473ffffffffffffffffffffffffffffffffffffffff1673ffffffffffffffffffffffffffffffffffffffff1673ffffffffffffffffffffffffffffffffffffffff1681526020016006820160009054906101000a900473ffffffffffffffffffffffffffffffffffffffff1673ffffffffffffffffffffffffffffffffffffffff1673ffffffffffffffffffffffffffffffffffffffff168152602001600782015481526020016008820160009054906101000a900460ff1615151515815250509050919050565b60026000541415610c49576040517f08c379a0000000000000000000000000000000000000000000000000000000008152600401610c4090612513565b60405180910390fd5b600260008190555060008111610c94576040517f08c379a0000000000000000000000000000000000000000000000000000000008152600401610c8b90612533565b60405180910390fd5b6004543414610cd8576040517f08c379a0000000000000000000000000000000000000000000000000000000008152600401610ccf906124f3565b60405180910390fd5b610ce26001611e70565b6000610cee6001611e62565b905060008473ffffffffffffffffffffffffffffffffffffffff166376a17510856040518263ffffffff1660e01b8152600401610d2b919061256f565b60206040518083038186803b158015610d4357600080fd5b505afa158015610d57573d6000803e3d6000fd5b505050506040513d601f19601f82011682018060405250810190610d7b91906120dd565b905060008573ffffffffffffffffffffffffffffffffffffffff16635b71ecb5866040518263ffffffff1660e01b8152600401610db8919061256f565b60206040518083038186803b158015610dd057600080fd5b505afa158015610de4573d6000803e3d6000fd5b505050506040513d601f19601f82011682018060405250810190610e089190612000565b90506040518061012001604052808481526020018773ffffffffffffffffffffffffffffffffffffffff1681526020018681526020013373ffffffffffffffffffffffffffffffffffffffff1681526020018381526020018273ffffffffffffffffffffffffffffffffffffffff1681526020013073ffffffffffffffffffffffffffffffffffffffff16815260200185815260200160011515815250600660008581526020019081526020016000206000820151816000015560208201518160010160006101000a81548173ffffffffffffffffffffffffffffffffffffffff021916908373ffffffffffffffffffffffffffffffffffffffff1602179055506040820151816002015560608201518160030160006101000a81548173ffffffffffffffffffffffffffffffffffffffff021916908373ffffffffffffffffffffffffffffffffffffffff1602179055506080820151816004015560a08201518160050160006101000a81548173ffffffffffffffffffffffffffffffffffffffff021916908373ffffffffffffffffffffffffffffffffffffffff16021790555060c08201518160060160006101000a81548173ffffffffffffffffffffffffffffffffffffffff021916908373ffffffffffffffffffffffffffffffffffffffff16021790555060e082015181600701556101008201518160080160006101000a81548160ff0219169083151502179055509050508573ffffffffffffffffffffffffffffffffffffffff166323b872dd3330886040518463ffffffff1660e01b815260040161105d93929190612435565b600060405180830381600087803b15801561107757600080fd5b505af115801561108b573d6000803e3d6000fd5b50505050848673ffffffffffffffffffffffffffffffffffffffff16847f045dfa01dcba2b36aba1d3dc4a874f4b0c5d2fbeb8d2c4b34a7d88c8d8f929d133308960016040516110de949392919061246c565b60405180910390a45050506001600081905550505050565b606060006111046001611e62565b905060008060005b838110156111ad578573ffffffffffffffffffffffffffffffffffffffff166006600060018461113c9190612661565b815260200190815260200160002060030160009054906101000a900473ffffffffffffffffffffffffffffffffffffffff1673ffffffffffffffffffffffffffffffffffffffff16141561119a576001836111979190612661565b92505b80806111a590612806565b91505061110c565b5060008267ffffffffffffffff8111156111f0577f4e487b7100000000000000000000000000000000000000000000000000000000600052604160045260246000fd5b60405190808252806020026020018201604052801561122957816020015b611216611ec8565b81526020019060019003908161120e5790505b50905060005b8481101561153b578673ffffffffffffffffffffffffffffffffffffffff166006600060018461125f9190612661565b815260200190815260200160002060030160009054906101000a900473ffffffffffffffffffffffffffffffffffffffff1673ffffffffffffffffffffffffffffffffffffffff161480156112e7575060011515600660006001846112c49190612661565b815260200190815260200160002060080160009054906101000a900460ff161515145b15611528576000600660006001846112ff9190612661565b815260200190815260200160002060000154905060006006600083815260200190815260200160002090508060405180610120016040529081600082015481526020016001820160009054906101000a900473ffffffffffffffffffffffffffffffffffffffff1673ffffffffffffffffffffffffffffffffffffffff1673ffffffffffffffffffffffffffffffffffffffff168152602001600282015481526020016003820160009054906101000a900473ffffffffffffffffffffffffffffffffffffffff1673ffffffffffffffffffffffffffffffffffffffff1673ffffffffffffffffffffffffffffffffffffffff168152602001600482015481526020016005820160009054906101000a900473ffffffffffffffffffffffffffffffffffffffff1673ffffffffffffffffffffffffffffffffffffffff1673ffffffffffffffffffffffffffffffffffffffff1681526020016006820160009054906101000a900473ffffffffffffffffffffffffffffffffffffffff1673ffffffffffffffffffffffffffffffffffffffff1673ffffffffffffffffffffffffffffffffffffffff168152602001600782015481526020016008820160009054906101000a900460ff16151515158152505084868151811061150b577f4e487b7100000000000000000000000000000000000000000000000000000000600052603260045260246000fd5b60200260200101819052506001856115239190612661565b945050505b808061153390612806565b91505061122f565b5080945050505050919050565b6002600054141561158e576040517f08c379a000000000000000000000000000000000000000000000000000000000815260040161158590612513565b60405180910390fd5b6002600081905550600060066000838152602001908152602001600020600701549050803410156115f4576040517f08c379a00000000000000000000000000000000000000000000000000000000081526004016115eb906124d3565b60405180910390fd5b60006006600084815260200190815260200160002060020154905060006006600085815260200190815260200160002060030160009054906101000a900473ffffffffffffffffffffffffffffffffffffffff1690508473ffffffffffffffffffffffffffffffffffffffff166323b872dd3033856040518463ffffffff1660e01b815260040161168793929190612435565b600060405180830381600087803b1580156116a157600080fd5b505af11580156116b5573d6000803e3d6000fd5b50505050336006600086815260200190815260200160002060060160006101000a81548173ffffffffffffffffffffffffffffffffffffffff021916908373ffffffffffffffffffffffffffffffffffffffff16021790555060006006600086815260200190815260200160002060080160006101000a81548160ff0219169083151502179055506117476002611e70565b60008573ffffffffffffffffffffffffffffffffffffffff166376a17510846040518263ffffffff1660e01b8152600401611782919061256f565b60206040518083038186803b15801561179a57600080fd5b505afa1580156117ae573d6000803e3d6000fd5b505050506040513d601f19601f820116820180604052508101906117d291906120dd565b905060006117fc60646117ee8488611e8690919063ffffffff16565b611e9c90919063ffffffff16565b905060006118138287611eb290919063ffffffff16565b9050600360009054906101000a900473ffffffffffffffffffffffffffffffffffffffff1673ffffffffffffffffffffffffffffffffffffffff166108fc6004549081150290604051600060405180830381858888f1935050505015801561187f573d6000803e3d6000fd5b508373ffffffffffffffffffffffffffffffffffffffff166108fc829081150290604051600060405180830381858888f193505050501580156118c6573d6000803e3d6000fd5b508773ffffffffffffffffffffffffffffffffffffffff166108fc839081150290604051600060405180830381858888f1935050505015801561190d573d6000803e3d6000fd5b50848873ffffffffffffffffffffffffffffffffffffffff16887f6a5f9d2b6ff1f375ebe095556dc91e68fce80a6187d7527cce81c3ab02726c9c87338b60405161195a939291906123fe565b60405180910390a450505050505060016000819055505050565b606060006119826001611e62565b905060008060005b83811015611a2b578573ffffffffffffffffffffffffffffffffffffffff16600660006001846119ba9190612661565b815260200190815260200160002060030160009054906101000a900473ffffffffffffffffffffffffffffffffffffffff1673ffffffffffffffffffffffffffffffffffffffff161415611a1857600183611a159190612661565b92505b8080611a2390612806565b91505061198a565b5060008267ffffffffffffffff811115611a6e577f4e487b7100000000000000000000000000000000000000000000000000000000600052604160045260246000fd5b604051908082528060200260200182016040528015611aa757816020015b611a94611ec8565b815260200190600190039081611a8c5790505b50905060005b84811015611d7a578673ffffffffffffffffffffffffffffffffffffffff1660066000600184611add9190612661565b815260200190815260200160002060030160009054906101000a900473ffffffffffffffffffffffffffffffffffffffff1673ffffffffffffffffffffffffffffffffffffffff161415611d6757600060066000600184611b3e9190612661565b815260200190815260200160002060000154905060006006600083815260200190815260200160002090508060405180610120016040529081600082015481526020016001820160009054906101000a900473ffffffffffffffffffffffffffffffffffffffff1673ffffffffffffffffffffffffffffffffffffffff1673ffffffffffffffffffffffffffffffffffffffff168152602001600282015481526020016003820160009054906101000a900473ffffffffffffffffffffffffffffffffffffffff1673ffffffffffffffffffffffffffffffffffffffff1673ffffffffffffffffffffffffffffffffffffffff168152602001600482015481526020016005820160009054906101000a900473ffffffffffffffffffffffffffffffffffffffff1673ffffffffffffffffffffffffffffffffffffffff1673ffffffffffffffffffffffffffffffffffffffff1681526020016006820160009054906101000a900473ffffffffffffffffffffffffffffffffffffffff1673ffffffffffffffffffffffffffffffffffffffff1673ffffffffffffffffffffffffffffffffffffffff168152602001600782015481526020016008820160009054906101000a900460ff161515151581525050848681518110611d4a577f4e487b7100000000000000000000000000000000000000000000000000000000600052603260045260246000fd5b6020026020010181905250600185611d629190612661565b945050505b8080611d7290612806565b915050611aad565b5080945050505050919050565b60066020528060005260406000206000915090508060000154908060010160009054906101000a900473ffffffffffffffffffffffffffffffffffffffff16908060020154908060030160009054906101000a900473ffffffffffffffffffffffffffffffffffffffff16908060040154908060050160009054906101000a900473ffffffffffffffffffffffffffffffffffffffff16908060060160009054906101000a900473ffffffffffffffffffffffffffffffffffffffff16908060070154908060080160009054906101000a900460ff16905089565b600081600001549050919050565b6001816000016000828254019250508190555050565b60008183611e9491906126e8565b905092915050565b60008183611eaa91906126b7565b905092915050565b60008183611ec09190612742565b905092915050565b60405180610120016040528060008152602001600073ffffffffffffffffffffffffffffffffffffffff16815260200160008152602001600073ffffffffffffffffffffffffffffffffffffffff16815260200160008152602001600073ffffffffffffffffffffffffffffffffffffffff168152602001600073ffffffffffffffffffffffffffffffffffffffff168152602001600081526020016000151581525090565b600081359050611f7d81612977565b92915050565b600081519050611f9281612977565b92915050565b600081359050611fa78161298e565b92915050565b600081359050611fbc816129a5565b92915050565b600081519050611fd1816129a5565b92915050565b600060208284031215611fe957600080fd5b6000611ff784828501611f6e565b91505092915050565b60006020828403121561201257600080fd5b600061202084828501611f83565b91505092915050565b60008060006060848603121561203e57600080fd5b600061204c86828701611f98565b935050602061205d86828701611fad565b925050604061206e86828701611fad565b9150509250925092565b6000806040838503121561208b57600080fd5b600061209985828601611f6e565b92505060206120aa85828601611fad565b9150509250929050565b6000602082840312156120c657600080fd5b60006120d484828501611fad565b91505092915050565b6000602082840312156120ef57600080fd5b60006120fd84828501611fc2565b91505092915050565b60006121128383612272565b6101208301905092915050565b612128816127d0565b82525050565b61213781612788565b82525050565b61214681612788565b82525050565b61215581612776565b82525050565b61216481612776565b82525050565b600061217582612627565b61217f818561263f565b935061218a83612617565b8060005b838110156121bb5781516121a28882612106565b97506121ad83612632565b92505060018101905061218e565b5085935050505092915050565b6121d18161279a565b82525050565b6121e08161279a565b82525050565b60006121f3601c83612650565b91506121fe826128ad565b602082019050919050565b6000612216602483612650565b9150612221826128d6565b604082019050919050565b6000612239601f83612650565b915061224482612925565b602082019050919050565b600061225c601c83612650565b91506122678261294e565b602082019050919050565b6101208201600082015161228960008501826123e0565b50602082015161229c602085018261214c565b5060408201516122af60408501826123e0565b5060608201516122c2606085018261212e565b5060808201516122d560808501826123e0565b5060a08201516122e860a085018261212e565b5060c08201516122fb60c085018261214c565b5060e082015161230e60e08501826123e0565b506101008201516123236101008501826121c8565b50505050565b6101208201600082015161234060008501826123e0565b506020820151612353602085018261214c565b50604082015161236660408501826123e0565b506060820151612379606085018261212e565b50608082015161238c60808501826123e0565b5060a082015161239f60a085018261212e565b5060c08201516123b260c085018261214c565b5060e08201516123c560e08501826123e0565b506101008201516123da6101008501826121c8565b50505050565b6123e9816127c6565b82525050565b6123f8816127c6565b82525050565b6000606082019050612413600083018661211f565b612420602083018561215b565b61242d60408301846123ef565b949350505050565b600060608201905061244a600083018661215b565b612457602083018561215b565b61246460408301846123ef565b949350505050565b6000608082019050612481600083018761215b565b61248e602083018661215b565b61249b60408301856123ef565b6124a860608301846121d7565b95945050505050565b600060208201905081810360008301526124cb818461216a565b905092915050565b600060208201905081810360008301526124ec816121e6565b9050919050565b6000602082019050818103600083015261250c81612209565b9050919050565b6000602082019050818103600083015261252c8161222c565b9050919050565b6000602082019050818103600083015261254c8161224f565b9050919050565b6000610120820190506125696000830184612329565b92915050565b600060208201905061258460008301846123ef565b92915050565b6000610120820190506125a0600083018c6123ef565b6125ad602083018b61215b565b6125ba604083018a6123ef565b6125c7606083018961213d565b6125d460808301886123ef565b6125e160a083018761213d565b6125ee60c083018661215b565b6125fb60e08301856123ef565b6126096101008301846121d7565b9a9950505050505050505050565b6000819050602082019050919050565b600081519050919050565b6000602082019050919050565b600082825260208201905092915050565b600082825260208201905092915050565b600061266c826127c6565b9150612677836127c6565b9250827fffffffffffffffffffffffffffffffffffffffffffffffffffffffffffffffff038211156126ac576126ab61284f565b5b828201905092915050565b60006126c2826127c6565b91506126cd836127c6565b9250826126dd576126dc61287e565b5b828204905092915050565b60006126f3826127c6565b91506126fe836127c6565b9250817fffffffffffffffffffffffffffffffffffffffffffffffffffffffffffffffff04831182151516156127375761273661284f565b5b828202905092915050565b600061274d826127c6565b9150612758836127c6565b92508282101561276b5761276a61284f565b5b828203905092915050565b6000612781826127a6565b9050919050565b6000612793826127a6565b9050919050565b60008115159050919050565b600073ffffffffffffffffffffffffffffffffffffffff82169050919050565b6000819050919050565b60006127db826127e2565b9050919050565b60006127ed826127f4565b9050919050565b60006127ff826127a6565b9050919050565b6000612811826127c6565b91507fffffffffffffffffffffffffffffffffffffffffffffffffffffffffffffffff8214156128445761284361284f565b5b600182019050919050565b7f4e487b7100000000000000000000000000000000000000000000000000000000600052601160045260246000fd5b7f4e487b7100000000000000000000000000000000000000000000000000000000600052601260045260246000fd5b7f53656e6420636f727265637420616d6f756e74206f6620657468657200000000600082015250565b7f5072696365206d75737420626520657175616c20746f206c697374696e67207060008201527f7269636500000000000000000000000000000000000000000000000000000000602082015250565b7f5265656e7472616e637947756172643a207265656e7472616e742063616c6c00600082015250565b7f5072696365206d757374206265206174206c6561737420312077656900000000600082015250565b61298081612776565b811461298b57600080fd5b50565b61299781612788565b81146129a257600080fd5b50565b6129ae816127c6565b81146129b957600080fd5b5056fea26469706673582212207138a47935e34f0a9bfb1c2ed6ccb63457e2de4b52c68189713dc4b90d1d7a1e64736f6c63430008040033",
  "linkReferences": {},
  "deployedLinkReferences": {}
}