{
  "contractName": "NFTMarket",
  "abi": [
    {
      "inputs": [],
      "stateMutability": "nonpayable",
      "type": "constructor"
    },
    {
      "anonymous": false,
      "inputs": [
        {
          "indexed": true,
          "internalType": "uint256",
          "name": "itemId",
          "type": "uint256"
        },
        {
          "indexed": true,
          "internalType": "address",
          "name": "nftContract",
          "type": "address"
        },
        {
          "indexed": true,
          "internalType": "uint256",
          "name": "tokenId",
          "type": "uint256"
        },
        {
          "indexed": false,
          "internalType": "address",
          "name": "seller",
          "type": "address"
        },
        {
          "indexed": false,
          "internalType": "address",
          "name": "owner",
          "type": "address"
        },
        {
          "indexed": false,
          "internalType": "uint256",
          "name": "price",
          "type": "uint256"
        },
        {
          "indexed": false,
          "internalType": "bool",
          "name": "sold",
          "type": "bool"
        }
      ],
      "name": "MarketItemCreated",
      "type": "event"
    },
    {
      "inputs": [
        {
          "internalType": "uint256",
          "name": "",
          "type": "uint256"
        }
      ],
      "name": "idToMarketItem",
      "outputs": [
        {
          "internalType": "uint256",
          "name": "itemId",
          "type": "uint256"
        },
        {
          "internalType": "address",
          "name": "nftContract",
          "type": "address"
        },
        {
          "internalType": "uint256",
          "name": "tokenId",
          "type": "uint256"
        },
        {
          "internalType": "address payable",
          "name": "seller",
          "type": "address"
        },
        {
          "internalType": "address payable",
          "name": "owner",
          "type": "address"
        },
        {
          "internalType": "uint256",
          "name": "price",
          "type": "uint256"
        },
        {
          "internalType": "bool",
          "name": "sold",
          "type": "bool"
        }
      ],
      "stateMutability": "view",
      "type": "function",
      "constant": true
    },
    {
      "inputs": [],
      "name": "listingPrice",
      "outputs": [
        {
          "internalType": "uint256",
          "name": "",
          "type": "uint256"
        }
      ],
      "stateMutability": "view",
      "type": "function",
      "constant": true
    },
    {
      "inputs": [],
      "name": "getListingPrice",
      "outputs": [
        {
          "internalType": "uint256",
          "name": "",
          "type": "uint256"
        }
      ],
      "stateMutability": "view",
      "type": "function",
      "constant": true
    },
    {
      "inputs": [
        {
          "internalType": "address",
          "name": "nftContract",
          "type": "address"
        },
        {
          "internalType": "uint256",
          "name": "tokenId",
          "type": "uint256"
        },
        {
          "internalType": "uint256",
          "name": "price",
          "type": "uint256"
        }
      ],
      "name": "createMarketItem",
      "outputs": [],
      "stateMutability": "payable",
      "type": "function",
      "payable": true
    },
    {
      "inputs": [
        {
          "internalType": "address",
          "name": "nftContract",
          "type": "address"
        },
        {
          "internalType": "uint256",
          "name": "itemId",
          "type": "uint256"
        }
      ],
      "name": "createMarketSale",
      "outputs": [],
      "stateMutability": "payable",
      "type": "function",
      "payable": true
    },
    {
      "inputs": [],
      "name": "fetchMarketItems",
      "outputs": [
        {
          "components": [
            {
              "internalType": "uint256",
              "name": "itemId",
              "type": "uint256"
            },
            {
              "internalType": "address",
              "name": "nftContract",
              "type": "address"
            },
            {
              "internalType": "uint256",
              "name": "tokenId",
              "type": "uint256"
            },
            {
              "internalType": "address payable",
              "name": "seller",
              "type": "address"
            },
            {
              "internalType": "address payable",
              "name": "owner",
              "type": "address"
            },
            {
              "internalType": "uint256",
              "name": "price",
              "type": "uint256"
            },
            {
              "internalType": "bool",
              "name": "sold",
              "type": "bool"
            }
          ],
          "internalType": "struct NFTMarket.MarketItem[]",
          "name": "",
          "type": "tuple[]"
        }
      ],
      "stateMutability": "view",
      "type": "function",
      "constant": true
    },
    {
      "inputs": [],
      "name": "fetchMyNFTs",
      "outputs": [
        {
          "components": [
            {
              "internalType": "uint256",
              "name": "itemId",
              "type": "uint256"
            },
            {
              "internalType": "address",
              "name": "nftContract",
              "type": "address"
            },
            {
              "internalType": "uint256",
              "name": "tokenId",
              "type": "uint256"
            },
            {
              "internalType": "address payable",
              "name": "seller",
              "type": "address"
            },
            {
              "internalType": "address payable",
              "name": "owner",
              "type": "address"
            },
            {
              "internalType": "uint256",
              "name": "price",
              "type": "uint256"
            },
            {
              "internalType": "bool",
              "name": "sold",
              "type": "bool"
            }
          ],
          "internalType": "struct NFTMarket.MarketItem[]",
          "name": "",
          "type": "tuple[]"
        }
      ],
      "stateMutability": "view",
      "type": "function",
      "constant": true
    },
    {
      "inputs": [],
      "name": "fetchItemsCreated",
      "outputs": [
        {
          "components": [
            {
              "internalType": "uint256",
              "name": "itemId",
              "type": "uint256"
            },
            {
              "internalType": "address",
              "name": "nftContract",
              "type": "address"
            },
            {
              "internalType": "uint256",
              "name": "tokenId",
              "type": "uint256"
            },
            {
              "internalType": "address payable",
              "name": "seller",
              "type": "address"
            },
            {
              "internalType": "address payable",
              "name": "owner",
              "type": "address"
            },
            {
              "internalType": "uint256",
              "name": "price",
              "type": "uint256"
            },
            {
              "internalType": "bool",
              "name": "sold",
              "type": "bool"
            }
          ],
          "internalType": "struct NFTMarket.MarketItem[]",
          "name": "",
          "type": "tuple[]"
        }
      ],
      "stateMutability": "view",
      "type": "function",
      "constant": true
    }
  ],
  "bytecode": "0x60806040526658d15e1762800060045534801561001b57600080fd5b50600160008190555033600360006101000a81548173ffffffffffffffffffffffffffffffffffffffff021916908373ffffffffffffffffffffffffffffffffffffffff160217905550611ab0806100746000396000f3fe60806040526004361061007b5760003560e01c8063c23b139e1161004e578063c23b139e1461011d578063c78f19f914610139578063e61a70c014610164578063f064c32e146101a75761007b565b80630f08efe01461008057806312e85585146100ab578063202e3740146100d657806358eb2df514610101575b600080fd5b34801561008c57600080fd5b506100956101d2565b6040516100a29190611627565b60405180910390f35b3480156100b757600080fd5b506100c061049c565b6040516100cd91906116c9565b60405180910390f35b3480156100e257600080fd5b506100eb6104a6565b6040516100f89190611627565b60405180910390f35b61011b60048036038101906101169190611323565b6107f4565b005b610137600480360381019061013291906112e3565b610b58565b005b34801561014557600080fd5b5061014e610e11565b60405161015b91906116c9565b60405180910390f35b34801561017057600080fd5b5061018b60048036038101906101869190611376565b610e17565b60405161019e97969594939291906116e4565b60405180910390f35b3480156101b357600080fd5b506101bc610ec6565b6040516101c99190611627565b60405180910390f35b606060006101e06001611214565b905060006101ee6002611214565b6101f86001611214565b61020291906117f3565b90506000808267ffffffffffffffff81111561022157610220611928565b5b60405190808252806020026020018201604052801561025a57816020015b610247611238565b81526020019060019003908161023f5790505b50905060005b8481101561049157600073ffffffffffffffffffffffffffffffffffffffff1660056000600184610291919061179d565b815260200190815260200160002060040160009054906101000a900473ffffffffffffffffffffffffffffffffffffffff1673ffffffffffffffffffffffffffffffffffffffff16141561047e5760006001826102ee919061179d565b90506000600560008381526020019081526020016000209050806040518060e0016040529081600082015481526020016001820160009054906101000a900473ffffffffffffffffffffffffffffffffffffffff1673ffffffffffffffffffffffffffffffffffffffff1673ffffffffffffffffffffffffffffffffffffffff168152602001600282015481526020016003820160009054906101000a900473ffffffffffffffffffffffffffffffffffffffff1673ffffffffffffffffffffffffffffffffffffffff1673ffffffffffffffffffffffffffffffffffffffff1681526020016004820160009054906101000a900473ffffffffffffffffffffffffffffffffffffffff1673ffffffffffffffffffffffffffffffffffffffff1673ffffffffffffffffffffffffffffffffffffffff168152602001600582015481526020016006820160009054906101000a900460ff161515151581525050848681518110610461576104606118f9565b5b6020026020010181905250600185610479919061179d565b945050505b808061048990611881565b915050610260565b508094505050505090565b6000600454905090565b606060006104b46001611214565b905060008060005b8381101561055d573373ffffffffffffffffffffffffffffffffffffffff16600560006001846104ec919061179d565b815260200190815260200160002060040160009054906101000a900473ffffffffffffffffffffffffffffffffffffffff1673ffffffffffffffffffffffffffffffffffffffff16141561054a57600183610547919061179d565b92505b808061055590611881565b9150506104bc565b5060008267ffffffffffffffff81111561057a57610579611928565b5b6040519080825280602002602001820160405280156105b357816020015b6105a0611238565b8152602001906001900390816105985790505b50905060005b848110156107e9573373ffffffffffffffffffffffffffffffffffffffff16600560006001846105e9919061179d565b815260200190815260200160002060040160009054906101000a900473ffffffffffffffffffffffffffffffffffffffff1673ffffffffffffffffffffffffffffffffffffffff1614156107d6576000600182610646919061179d565b90506000600560008381526020019081526020016000209050806040518060e0016040529081600082015481526020016001820160009054906101000a900473ffffffffffffffffffffffffffffffffffffffff1673ffffffffffffffffffffffffffffffffffffffff1673ffffffffffffffffffffffffffffffffffffffff168152602001600282015481526020016003820160009054906101000a900473ffffffffffffffffffffffffffffffffffffffff1673ffffffffffffffffffffffffffffffffffffffff1673ffffffffffffffffffffffffffffffffffffffff1681526020016004820160009054906101000a900473ffffffffffffffffffffffffffffffffffffffff1673ffffffffffffffffffffffffffffffffffffffff1673ffffffffffffffffffffffffffffffffffffffff168152602001600582015481526020016006820160009054906101000a900460ff1615151515815250508486815181106107b9576107b86118f9565b5b60200260200101819052506001856107d1919061179d565b945050505b80806107e190611881565b9150506105b9565b508094505050505090565b6002600054141561083a576040517f08c379a000000000000000000000000000000000000000000000000000000000815260040161083190611689565b60405180910390fd5b600260008190555060008111610885576040517f08c379a000000000000000000000000000000000000000000000000000000000815260040161087c906116a9565b60405180910390fd5b60045434146108c9576040517f08c379a00000000000000000000000000000000000000000000000000000000081526004016108c090611669565b60405180910390fd5b6108d36001611222565b60006108df6001611214565b90506040518060e001604052808281526020018573ffffffffffffffffffffffffffffffffffffffff1681526020018481526020013373ffffffffffffffffffffffffffffffffffffffff168152602001600073ffffffffffffffffffffffffffffffffffffffff16815260200183815260200160001515815250600560008381526020019081526020016000206000820151816000015560208201518160010160006101000a81548173ffffffffffffffffffffffffffffffffffffffff021916908373ffffffffffffffffffffffffffffffffffffffff1602179055506040820151816002015560608201518160030160006101000a81548173ffffffffffffffffffffffffffffffffffffffff021916908373ffffffffffffffffffffffffffffffffffffffff16021790555060808201518160040160006101000a81548173ffffffffffffffffffffffffffffffffffffffff021916908373ffffffffffffffffffffffffffffffffffffffff16021790555060a0820151816005015560c08201518160060160006101000a81548160ff0219169083151502179055509050508373ffffffffffffffffffffffffffffffffffffffff166323b872dd3330866040518463ffffffff1660e01b8152600401610ac0939291906115ab565b600060405180830381600087803b158015610ada57600080fd5b505af1158015610aee573d6000803e3d6000fd5b50505050828473ffffffffffffffffffffffffffffffffffffffff16827f045dfa01dcba2b36aba1d3dc4a874f4b0c5d2fbeb8d2c4b34a7d88c8d8f929d1336000876000604051610b4294939291906115e2565b60405180910390a4506001600081905550505050565b60026000541415610b9e576040517f08c379a0000000000000000000000000000000000000000000000000000000008152600401610b9590611689565b60405180910390fd5b6002600081905550600060056000838152602001908152602001600020600501549050600060056000848152602001908152602001600020600201549050813414610c1e576040517f08c379a0000000000000000000000000000000000000000000000000000000008152600401610c1590611649565b60405180910390fd5b6005600084815260200190815260200160002060030160009054906101000a900473ffffffffffffffffffffffffffffffffffffffff1673ffffffffffffffffffffffffffffffffffffffff166108fc349081150290604051600060405180830381858888f19350505050158015610c9a573d6000803e3d6000fd5b508373ffffffffffffffffffffffffffffffffffffffff166323b872dd3033846040518463ffffffff1660e01b8152600401610cd8939291906115ab565b600060405180830381600087803b158015610cf257600080fd5b505af1158015610d06573d6000803e3d6000fd5b50505050336005600085815260200190815260200160002060040160006101000a81548173ffffffffffffffffffffffffffffffffffffffff021916908373ffffffffffffffffffffffffffffffffffffffff16021790555060016005600085815260200190815260200160002060060160006101000a81548160ff021916908315150217905550610d986002611222565b600360009054906101000a900473ffffffffffffffffffffffffffffffffffffffff1673ffffffffffffffffffffffffffffffffffffffff166108fc6004549081150290604051600060405180830381858888f19350505050158015610e02573d6000803e3d6000fd5b50505060016000819055505050565b60045481565b60056020528060005260406000206000915090508060000154908060010160009054906101000a900473ffffffffffffffffffffffffffffffffffffffff16908060020154908060030160009054906101000a900473ffffffffffffffffffffffffffffffffffffffff16908060040160009054906101000a900473ffffffffffffffffffffffffffffffffffffffff16908060050154908060060160009054906101000a900460ff16905087565b60606000610ed46001611214565b905060008060005b83811015610f7d573373ffffffffffffffffffffffffffffffffffffffff1660056000600184610f0c919061179d565b815260200190815260200160002060030160009054906101000a900473ffffffffffffffffffffffffffffffffffffffff1673ffffffffffffffffffffffffffffffffffffffff161415610f6a57600183610f67919061179d565b92505b8080610f7590611881565b915050610edc565b5060008267ffffffffffffffff811115610f9a57610f99611928565b5b604051908082528060200260200182016040528015610fd357816020015b610fc0611238565b815260200190600190039081610fb85790505b50905060005b84811015611209573373ffffffffffffffffffffffffffffffffffffffff1660056000600184611009919061179d565b815260200190815260200160002060030160009054906101000a900473ffffffffffffffffffffffffffffffffffffffff1673ffffffffffffffffffffffffffffffffffffffff1614156111f6576000600182611066919061179d565b90506000600560008381526020019081526020016000209050806040518060e0016040529081600082015481526020016001820160009054906101000a900473ffffffffffffffffffffffffffffffffffffffff1673ffffffffffffffffffffffffffffffffffffffff1673ffffffffffffffffffffffffffffffffffffffff168152602001600282015481526020016003820160009054906101000a900473ffffffffffffffffffffffffffffffffffffffff1673ffffffffffffffffffffffffffffffffffffffff1673ffffffffffffffffffffffffffffffffffffffff1681526020016004820160009054906101000a900473ffffffffffffffffffffffffffffffffffffffff1673ffffffffffffffffffffffffffffffffffffffff1673ffffffffffffffffffffffffffffffffffffffff168152602001600582015481526020016006820160009054906101000a900460ff1615151515815250508486815181106111d9576111d86118f9565b5b60200260200101819052506001856111f1919061179d565b945050505b808061120190611881565b915050610fd9565b508094505050505090565b600081600001549050919050565b6001816000016000828254019250508190555050565b6040518060e0016040528060008152602001600073ffffffffffffffffffffffffffffffffffffffff16815260200160008152602001600073ffffffffffffffffffffffffffffffffffffffff168152602001600073ffffffffffffffffffffffffffffffffffffffff168152602001600081526020016000151581525090565b6000813590506112c881611a4c565b92915050565b6000813590506112dd81611a63565b92915050565b600080604083850312156112fa576112f9611957565b5b6000611308858286016112b9565b9250506020611319858286016112ce565b9150509250929050565b60008060006060848603121561133c5761133b611957565b5b600061134a868287016112b9565b935050602061135b868287016112ce565b925050604061136c868287016112ce565b9150509250925092565b60006020828403121561138c5761138b611957565b5b600061139a848285016112ce565b91505092915050565b60006113af83836114ff565b60e08301905092915050565b6113c481611839565b82525050565b6113d381611839565b82525050565b6113e281611827565b82525050565b6113f181611827565b82525050565b600061140282611763565b61140c818561177b565b935061141783611753565b8060005b8381101561144857815161142f88826113a3565b975061143a8361176e565b92505060018101905061141b565b5085935050505092915050565b61145e8161184b565b82525050565b61146d8161184b565b82525050565b600061148060408361178c565b915061148b8261195c565b604082019050919050565b60006114a360248361178c565b91506114ae826119ab565b604082019050919050565b60006114c6601f8361178c565b91506114d1826119fa565b602082019050919050565b60006114e9601c8361178c565b91506114f482611a23565b602082019050919050565b60e082016000820151611515600085018261158d565b50602082015161152860208501826113d9565b50604082015161153b604085018261158d565b50606082015161154e60608501826113bb565b50608082015161156160808501826113bb565b5060a082015161157460a085018261158d565b5060c082015161158760c0850182611455565b50505050565b61159681611877565b82525050565b6115a581611877565b82525050565b60006060820190506115c060008301866113e8565b6115cd60208301856113e8565b6115da604083018461159c565b949350505050565b60006080820190506115f760008301876113e8565b61160460208301866113e8565b611611604083018561159c565b61161e6060830184611464565b95945050505050565b6000602082019050818103600083015261164181846113f7565b905092915050565b6000602082019050818103600083015261166281611473565b9050919050565b6000602082019050818103600083015261168281611496565b9050919050565b600060208201905081810360008301526116a2816114b9565b9050919050565b600060208201905081810360008301526116c2816114dc565b9050919050565b60006020820190506116de600083018461159c565b92915050565b600060e0820190506116f9600083018a61159c565b61170660208301896113e8565b611713604083018861159c565b61172060608301876113ca565b61172d60808301866113ca565b61173a60a083018561159c565b61174760c0830184611464565b98975050505050505050565b6000819050602082019050919050565b600081519050919050565b6000602082019050919050565b600082825260208201905092915050565b600082825260208201905092915050565b60006117a882611877565b91506117b383611877565b9250827fffffffffffffffffffffffffffffffffffffffffffffffffffffffffffffffff038211156117e8576117e76118ca565b5b828201905092915050565b60006117fe82611877565b915061180983611877565b92508282101561181c5761181b6118ca565b5b828203905092915050565b600061183282611857565b9050919050565b600061184482611857565b9050919050565b60008115159050919050565b600073ffffffffffffffffffffffffffffffffffffffff82169050919050565b6000819050919050565b600061188c82611877565b91507fffffffffffffffffffffffffffffffffffffffffffffffffffffffffffffffff8214156118bf576118be6118ca565b5b600182019050919050565b7f4e487b7100000000000000000000000000000000000000000000000000000000600052601160045260246000fd5b7f4e487b7100000000000000000000000000000000000000000000000000000000600052603260045260246000fd5b7f4e487b7100000000000000000000000000000000000000000000000000000000600052604160045260246000fd5b600080fd5b7f506c65617365207375626d6974207468652061736b696e67207072696365206960008201527f6e206f7264657220746f20636f6d706c65746520746865207075726368617365602082015250565b7f5072696365206d75737420626520657175616c20746f206c697374696e67207060008201527f7269636500000000000000000000000000000000000000000000000000000000602082015250565b7f5265656e7472616e637947756172643a207265656e7472616e742063616c6c00600082015250565b7f5072696365206d757374206265206174206c6561737420312077656900000000600082015250565b611a5581611827565b8114611a6057600080fd5b50565b611a6c81611877565b8114611a7757600080fd5b5056fea2646970667358221220a40e234f79e925a95439f664a18c3feed44e60bbe86c414d880f7dc5989e04b564736f6c63430008070033",
  "immutableReferences": {},
  "source": "// SPDX-License-Identifier: MIT OR Apache-2.0\r\n\r\npragma solidity ^0.8.3;\r\n\r\nimport \"@openzeppelin/contracts/utils/Counters.sol\";\r\nimport \"@openzeppelin/contracts/security/ReentrancyGuard.sol\";\r\nimport \"@openzeppelin/contracts/token/ERC721/ERC721.sol\";\r\n\r\ncontract NFTMarket is ReentrancyGuard{\r\n  using Counters for Counters.Counter;\r\n    Counters.Counter private _itemIds;\r\n    Counters.Counter private _itemsSold;\r\n\r\n    address payable owner;\r\n    uint256 public listingPrice = 0.025 ether;\r\n\r\n  constructor() {\r\n    owner = payable(msg.sender);\r\n  }\r\n\r\n  struct MarketItem {\r\n    uint itemId;\r\n    address nftContract;\r\n    uint256 tokenId;\r\n    address payable seller;\r\n    address payable owner;\r\n    uint256 price;\r\n    bool sold;\r\n  }\r\n\r\n  mapping(uint256 => MarketItem) public idToMarketItem;\r\n\r\n  event MarketItemCreated (\r\n    uint indexed itemId,\r\n    address indexed nftContract,\r\n    uint256 indexed tokenId,\r\n    address seller,\r\n    address owner,\r\n    uint256 price,\r\n    bool sold\r\n  );\r\n\r\n  function getListingPrice() public view returns (uint256) {\r\n    return listingPrice;\r\n  }\r\n\r\n  function createMarketItem(\r\n    address nftContract,\r\n    uint256 tokenId,\r\n    uint256 price\r\n  ) public payable nonReentrant {\r\n    require(price > 0, \"Price must be at least 1 wei\");\r\n    require(msg.value == listingPrice, \"Price must be equal to listing price\");\r\n\r\n    _itemIds.increment();\r\n    uint256 itemId = _itemIds.current();\r\n\r\n    idToMarketItem[itemId] =  MarketItem(\r\n      itemId,\r\n      nftContract,\r\n      tokenId,\r\n      payable(msg.sender),\r\n      payable(address(0)),\r\n      price,\r\n      false\r\n    );\r\n\r\n    IERC721(nftContract).transferFrom(msg.sender, address(this), tokenId);\r\n\r\n    emit MarketItemCreated(\r\n      itemId,\r\n      nftContract,\r\n      tokenId,\r\n      msg.sender,\r\n      address(0),\r\n      price,\r\n      false\r\n    );\r\n  }\r\n\r\n    function createMarketSale(\r\n    address nftContract,\r\n    uint256 itemId\r\n    ) public payable nonReentrant {\r\n    uint price = idToMarketItem[itemId].price;\r\n    uint tokenId = idToMarketItem[itemId].tokenId;\r\n    require(msg.value == price, \"Please submit the asking price in order to complete the purchase\");\r\n\r\n    idToMarketItem[itemId].seller.transfer(msg.value);\r\n    IERC721(nftContract).transferFrom(address(this), msg.sender, tokenId);\r\n    idToMarketItem[itemId].owner = payable(msg.sender);\r\n    idToMarketItem[itemId].sold = true;\r\n    _itemsSold.increment();\r\n    payable(owner).transfer(listingPrice);\r\n  }\r\n\r\n  function fetchMarketItems() public view returns (MarketItem[] memory) {\r\n    uint itemCount = _itemIds.current();\r\n    uint unsoldItemCount = _itemIds.current() - _itemsSold.current();\r\n    uint currentIndex = 0;\r\n\r\n    MarketItem[] memory items = new MarketItem[](unsoldItemCount);\r\n    for (uint i = 0; i < itemCount; i++) {\r\n      if (idToMarketItem[i + 1].owner == address(0)) {\r\n        uint currentId = i + 1;\r\n        MarketItem storage currentItem = idToMarketItem[currentId];\r\n        items[currentIndex] = currentItem;\r\n        currentIndex += 1;\r\n      }\r\n    }\r\n    return items;\r\n  }\r\n\r\n  function fetchMyNFTs() public view returns (MarketItem[] memory) {\r\n    uint totalItemCount = _itemIds.current();\r\n    uint itemCount = 0;\r\n    uint currentIndex = 0;\r\n\r\n    for (uint i = 0; i < totalItemCount; i++) {\r\n      if (idToMarketItem[i + 1].owner == msg.sender) {\r\n        itemCount += 1;\r\n      }\r\n    }\r\n\r\n    MarketItem[] memory items = new MarketItem[](itemCount);\r\n    for (uint i = 0; i < totalItemCount; i++) {\r\n      if (idToMarketItem[i + 1].owner == msg.sender) {\r\n        uint currentId = i + 1;\r\n        MarketItem storage currentItem = idToMarketItem[currentId];\r\n        items[currentIndex] = currentItem;\r\n        currentIndex += 1;\r\n      }\r\n    }\r\n    return items;\r\n  }\r\n\r\n  function fetchItemsCreated() public view returns (MarketItem[] memory) {\r\n    uint totalItemCount = _itemIds.current();\r\n    uint itemCount = 0;\r\n    uint currentIndex = 0;\r\n\r\n    for (uint i = 0; i < totalItemCount; i++) {\r\n      if (idToMarketItem[i + 1].seller == msg.sender) {\r\n        itemCount += 1;\r\n      }\r\n    }\r\n\r\n    MarketItem[] memory items = new MarketItem[](itemCount);\r\n    for (uint i = 0; i < totalItemCount; i++) {\r\n      if (idToMarketItem[i + 1].seller == msg.sender) {\r\n        uint currentId = i + 1;\r\n        MarketItem storage currentItem = idToMarketItem[currentId];\r\n        items[currentIndex] = currentItem;\r\n        currentIndex += 1;\r\n      }\r\n    }\r\n    return items;\r\n  }\r\n}\r\n",
  "sourcePath": "C:/Users/Sonika Agarwal/desktop/begin/contracts/NFTMarket.sol",
  "compiler": {
    "name": "solc",
    "version": "0.8.7+commit.e28d00a7.Emscripten.clang"
  },
  "schemaVersion": "3.4.1",
  "updatedAt": "2021-09-26T10:59:53.563Z",
  "networkType": "ethereum",
  "devdoc": {
    "kind": "dev",
    "methods": {},
    "version": 1
  },
  "userdoc": {
    "kind": "user",
    "methods": {},
    "version": 1
  }
}