{
  "contractName": "StripeMarket",
  "abi": [
    {
      "inputs": [],
      "stateMutability": "nonpayable",
      "type": "constructor"
    },
    {
      "anonymous": false,
      "inputs": [
        {
          "indexed": true,
          "internalType": "uint256",
          "name": "itemId",
          "type": "uint256"
        },
        {
          "indexed": true,
          "internalType": "address",
          "name": "nftContract",
          "type": "address"
        },
        {
          "indexed": true,
          "internalType": "uint256",
          "name": "tokenId",
          "type": "uint256"
        },
        {
          "indexed": false,
          "internalType": "string",
          "name": "name",
          "type": "string"
        },
        {
          "indexed": false,
          "internalType": "string",
          "name": "tokenUri",
          "type": "string"
        },
        {
          "indexed": false,
          "internalType": "address",
          "name": "seller",
          "type": "address"
        },
        {
          "indexed": false,
          "internalType": "address",
          "name": "owner",
          "type": "address"
        },
        {
          "indexed": false,
          "internalType": "uint256",
          "name": "price",
          "type": "uint256"
        },
        {
          "indexed": false,
          "internalType": "bool",
          "name": "sold",
          "type": "bool"
        },
        {
          "indexed": false,
          "internalType": "bool",
          "name": "paid",
          "type": "bool"
        }
      ],
      "name": "MarketItemCreated",
      "type": "event"
    },
    {
      "inputs": [
        {
          "internalType": "uint256",
          "name": "",
          "type": "uint256"
        }
      ],
      "name": "idToMarketItem",
      "outputs": [
        {
          "internalType": "uint256",
          "name": "itemId",
          "type": "uint256"
        },
        {
          "internalType": "address",
          "name": "nftContract",
          "type": "address"
        },
        {
          "internalType": "uint256",
          "name": "tokenId",
          "type": "uint256"
        },
        {
          "internalType": "string",
          "name": "name",
          "type": "string"
        },
        {
          "internalType": "string",
          "name": "tokenUri",
          "type": "string"
        },
        {
          "internalType": "address payable",
          "name": "seller",
          "type": "address"
        },
        {
          "internalType": "address payable",
          "name": "owner",
          "type": "address"
        },
        {
          "internalType": "uint256",
          "name": "price",
          "type": "uint256"
        },
        {
          "internalType": "bool",
          "name": "sold",
          "type": "bool"
        },
        {
          "internalType": "bool",
          "name": "paid",
          "type": "bool"
        }
      ],
      "stateMutability": "view",
      "type": "function",
      "constant": true
    },
    {
      "inputs": [],
      "name": "listingPrice",
      "outputs": [
        {
          "internalType": "uint256",
          "name": "",
          "type": "uint256"
        }
      ],
      "stateMutability": "view",
      "type": "function",
      "constant": true
    },
    {
      "stateMutability": "payable",
      "type": "receive",
      "payable": true
    },
    {
      "inputs": [],
      "name": "getListingPrice",
      "outputs": [
        {
          "internalType": "uint256",
          "name": "",
          "type": "uint256"
        }
      ],
      "stateMutability": "view",
      "type": "function",
      "constant": true
    },
    {
      "inputs": [],
      "name": "getItemId",
      "outputs": [
        {
          "internalType": "uint256",
          "name": "",
          "type": "uint256"
        }
      ],
      "stateMutability": "view",
      "type": "function",
      "constant": true
    },
    {
      "inputs": [
        {
          "internalType": "uint256",
          "name": "itemId",
          "type": "uint256"
        }
      ],
      "name": "setPaid",
      "outputs": [],
      "stateMutability": "nonpayable",
      "type": "function"
    },
    {
      "inputs": [
        {
          "internalType": "address",
          "name": "nftContract",
          "type": "address"
        },
        {
          "internalType": "uint256",
          "name": "tokenId",
          "type": "uint256"
        },
        {
          "internalType": "uint256",
          "name": "price",
          "type": "uint256"
        },
        {
          "internalType": "string",
          "name": "name",
          "type": "string"
        }
      ],
      "name": "createItem",
      "outputs": [],
      "stateMutability": "payable",
      "type": "function",
      "payable": true
    },
    {
      "inputs": [
        {
          "internalType": "address",
          "name": "nftContract",
          "type": "address"
        },
        {
          "internalType": "address",
          "name": "buyer",
          "type": "address"
        },
        {
          "internalType": "uint256",
          "name": "itemId",
          "type": "uint256"
        }
      ],
      "name": "createMarketSale",
      "outputs": [],
      "stateMutability": "payable",
      "type": "function",
      "payable": true
    },
    {
      "inputs": [],
      "name": "getItems",
      "outputs": [
        {
          "components": [
            {
              "internalType": "uint256",
              "name": "itemId",
              "type": "uint256"
            },
            {
              "internalType": "address",
              "name": "nftContract",
              "type": "address"
            },
            {
              "internalType": "uint256",
              "name": "tokenId",
              "type": "uint256"
            },
            {
              "internalType": "string",
              "name": "name",
              "type": "string"
            },
            {
              "internalType": "string",
              "name": "tokenUri",
              "type": "string"
            },
            {
              "internalType": "address payable",
              "name": "seller",
              "type": "address"
            },
            {
              "internalType": "address payable",
              "name": "owner",
              "type": "address"
            },
            {
              "internalType": "uint256",
              "name": "price",
              "type": "uint256"
            },
            {
              "internalType": "bool",
              "name": "sold",
              "type": "bool"
            },
            {
              "internalType": "bool",
              "name": "paid",
              "type": "bool"
            }
          ],
          "internalType": "struct StripeMarket.MarketItem[]",
          "name": "",
          "type": "tuple[]"
        }
      ],
      "stateMutability": "view",
      "type": "function",
      "constant": true
    },
    {
      "inputs": [],
      "name": "fetchMarketItems",
      "outputs": [
        {
          "components": [
            {
              "internalType": "uint256",
              "name": "itemId",
              "type": "uint256"
            },
            {
              "internalType": "address",
              "name": "nftContract",
              "type": "address"
            },
            {
              "internalType": "uint256",
              "name": "tokenId",
              "type": "uint256"
            },
            {
              "internalType": "string",
              "name": "name",
              "type": "string"
            },
            {
              "internalType": "string",
              "name": "tokenUri",
              "type": "string"
            },
            {
              "internalType": "address payable",
              "name": "seller",
              "type": "address"
            },
            {
              "internalType": "address payable",
              "name": "owner",
              "type": "address"
            },
            {
              "internalType": "uint256",
              "name": "price",
              "type": "uint256"
            },
            {
              "internalType": "bool",
              "name": "sold",
              "type": "bool"
            },
            {
              "internalType": "bool",
              "name": "paid",
              "type": "bool"
            }
          ],
          "internalType": "struct StripeMarket.MarketItem[]",
          "name": "",
          "type": "tuple[]"
        }
      ],
      "stateMutability": "view",
      "type": "function",
      "constant": true
    },
    {
      "inputs": [],
      "name": "fetchMyNFTs",
      "outputs": [
        {
          "components": [
            {
              "internalType": "uint256",
              "name": "itemId",
              "type": "uint256"
            },
            {
              "internalType": "address",
              "name": "nftContract",
              "type": "address"
            },
            {
              "internalType": "uint256",
              "name": "tokenId",
              "type": "uint256"
            },
            {
              "internalType": "string",
              "name": "name",
              "type": "string"
            },
            {
              "internalType": "string",
              "name": "tokenUri",
              "type": "string"
            },
            {
              "internalType": "address payable",
              "name": "seller",
              "type": "address"
            },
            {
              "internalType": "address payable",
              "name": "owner",
              "type": "address"
            },
            {
              "internalType": "uint256",
              "name": "price",
              "type": "uint256"
            },
            {
              "internalType": "bool",
              "name": "sold",
              "type": "bool"
            },
            {
              "internalType": "bool",
              "name": "paid",
              "type": "bool"
            }
          ],
          "internalType": "struct StripeMarket.MarketItem[]",
          "name": "",
          "type": "tuple[]"
        }
      ],
      "stateMutability": "view",
      "type": "function",
      "constant": true
    },
    {
      "inputs": [],
      "name": "fetchItemsCreated",
      "outputs": [
        {
          "components": [
            {
              "internalType": "uint256",
              "name": "itemId",
              "type": "uint256"
            },
            {
              "internalType": "address",
              "name": "nftContract",
              "type": "address"
            },
            {
              "internalType": "uint256",
              "name": "tokenId",
              "type": "uint256"
            },
            {
              "internalType": "string",
              "name": "name",
              "type": "string"
            },
            {
              "internalType": "string",
              "name": "tokenUri",
              "type": "string"
            },
            {
              "internalType": "address payable",
              "name": "seller",
              "type": "address"
            },
            {
              "internalType": "address payable",
              "name": "owner",
              "type": "address"
            },
            {
              "internalType": "uint256",
              "name": "price",
              "type": "uint256"
            },
            {
              "internalType": "bool",
              "name": "sold",
              "type": "bool"
            },
            {
              "internalType": "bool",
              "name": "paid",
              "type": "bool"
            }
          ],
          "internalType": "struct StripeMarket.MarketItem[]",
          "name": "",
          "type": "tuple[]"
        }
      ],
      "stateMutability": "view",
      "type": "function",
      "constant": true
    }
  ],
  "bytecode": "0x6080604052600260045534801561001557600080fd5b506001600055600380546001600160a01b03191633179055611a048061003c6000396000f3fe6080604052600436106100a05760003560e01c80636d25e48e116100645780636d25e48e14610135578063a211836514610172578063c78f19f914610185578063db84f8a91461019b578063e61a70c0146101ae578063f064c32e146101e457600080fd5b80630f08efe0146100ac57806312e85585146100d7578063202e3740146100f6578063410d59cc1461010b578063445f76d71461012057600080fd5b366100a757005b600080fd5b3480156100b857600080fd5b506100c16101f9565b6040516100ce91906114eb565b60405180910390f35b3480156100e357600080fd5b506004545b6040519081526020016100ce565b34801561010257600080fd5b506100c16104ca565b34801561011757600080fd5b506100c16107d9565b34801561012c57600080fd5b506100e8610a4c565b34801561014157600080fd5b506101706101503660046115f0565b6000908152600560205260409020600801805461ff001916610100179055565b005b610170610180366004611625565b610a5e565b34801561019157600080fd5b506100e860045481565b6101706101a93660046116ce565b610bd8565b3480156101ba57600080fd5b506101ce6101c93660046115f0565b610f16565b6040516100ce9a99989796959493929190611771565b3480156101f057600080fd5b506100c1611094565b6060600061020660015490565b9050600061021360025490565b6001546102209190611804565b9050600080826001600160401b0381111561023d5761023d611661565b60405190808252806020026020018201604052801561027657816020015b6102636113a3565b81526020019060019003908161025b5790505b50905060005b848110156104c157600060058161029484600161181b565b81526020810191909152604001600020600601546001600160a01b031614156104af5760006102c482600161181b565b6000818152600560209081526040918290208251610140810184528154815260018201546001600160a01b03169281019290925260028101549282019290925260038201805493945091929091839160608401919061032290611833565b80601f016020809104026020016040519081016040528092919081815260200182805461034e90611833565b801561039b5780601f106103705761010080835404028352916020019161039b565b820191906000526020600020905b81548152906001019060200180831161037e57829003601f168201915b505050505081526020016004820180546103b490611833565b80601f01602080910402602001604051908101604052809291908181526020018280546103e090611833565b801561042d5780601f106104025761010080835404028352916020019161042d565b820191906000526020600020905b81548152906001019060200180831161041057829003601f168201915b505050918352505060058201546001600160a01b03908116602083015260068301541660408201526007820154606082015260089091015460ff8082161515608084015261010090910416151560a09091015284518590879081106104945761049461186e565b60209081029190910101526104aa60018661181b565b945050505b806104b981611884565b91505061027c565b50949350505050565b606060006104d760015490565b905060008060005b8381101561053a5733600560006104f784600161181b565b81526020810191909152604001600020600601546001600160a01b031614156105285761052560018461181b565b92505b8061053281611884565b9150506104df565b506000826001600160401b0381111561055557610555611661565b60405190808252806020026020018201604052801561058e57816020015b61057b6113a3565b8152602001906001900390816105735790505b50905060005b848110156104c15733600560006105ac84600161181b565b81526020810191909152604001600020600601546001600160a01b031614156107c75760006105dc82600161181b565b6000818152600560209081526040918290208251610140810184528154815260018201546001600160a01b03169281019290925260028101549282019290925260038201805493945091929091839160608401919061063a90611833565b80601f016020809104026020016040519081016040528092919081815260200182805461066690611833565b80156106b35780601f10610688576101008083540402835291602001916106b3565b820191906000526020600020905b81548152906001019060200180831161069657829003601f168201915b505050505081526020016004820180546106cc90611833565b80601f01602080910402602001604051908101604052809291908181526020018280546106f890611833565b80156107455780601f1061071a57610100808354040283529160200191610745565b820191906000526020600020905b81548152906001019060200180831161072857829003601f168201915b505050918352505060058201546001600160a01b03908116602083015260068301541660408201526007820154606082015260089091015460ff8082161515608084015261010090910416151560a09091015284518590879081106107ac576107ac61186e565b60209081029190910101526107c260018661181b565b945050505b806107d181611884565b915050610594565b606060006107e660015490565b90506000816001600160401b0381111561080257610802611661565b60405190808252806020026020018201604052801561083b57816020015b6108286113a3565b8152602001906001900390816108205790505b50905060005b82811015610a4557600060058161085984600161181b565b815260208082019290925260409081016000208151610140810183528154815260018201546001600160a01b0316938101939093526002810154918301919091526003810180546060840191906108af90611833565b80601f01602080910402602001604051908101604052809291908181526020018280546108db90611833565b80156109285780601f106108fd57610100808354040283529160200191610928565b820191906000526020600020905b81548152906001019060200180831161090b57829003601f168201915b5050505050815260200160048201805461094190611833565b80601f016020809104026020016040519081016040528092919081815260200182805461096d90611833565b80156109ba5780601f1061098f576101008083540402835291602001916109ba565b820191906000526020600020905b81548152906001019060200180831161099d57829003601f168201915b505050918352505060058201546001600160a01b03908116602083015260068301541660408201526007820154606082015260089091015460ff8082161515608084015261010090910416151560a09091015283519091508190849084908110610a2657610a2661186e565b6020026020010181905250508080610a3d90611884565b915050610841565b5092915050565b600080610a5860015490565b92915050565b60026000541415610a8a5760405162461bcd60e51b8152600401610a819061189f565b60405180910390fd5b60026000818155828152600560208190526040808320600781015494810154920154905191926001600160a01b039091169184156108fc0291859190818181858888f19350505050158015610ae3573d6000803e3d6000fd5b506040516323b872dd60e01b81526001600160a01b038616906323b872dd90610b14903090889086906004016118d6565b600060405180830381600087803b158015610b2e57600080fd5b505af1158015610b42573d6000803e3d6000fd5b50505060008481526005602052604090206006810180546001600160a01b0388166001600160a01b0319909116179055600801805460ff1916600117905550610b8f600280546001019055565b6003546004546040516001600160a01b039092169181156108fc0291906000818181858888f19350505050158015610bcb573d6000803e3d6000fd5b5050600160005550505050565b60026000541415610bfb5760405162461bcd60e51b8152600401610a819061189f565b60026000556001821015610c4c5760405162461bcd60e51b81526020600482015260186024820152776174206c65617374206d6f7265207468616e20312077656960401b6044820152606401610a81565b6004543414610c965760405162461bcd60e51b81526020600482015260166024820152751b1a5cdd1a5b99c81c1c9a58d9481b9bdd081c185a5960521b6044820152606401610a81565b60405163c87b56dd60e01b8152600481018490526000906001600160a01b0386169063c87b56dd90602401600060405180830381865afa158015610cde573d6000803e3d6000fd5b505050506040513d6000823e601f3d908101601f19168201604052610d0691908101906118fa565b9050610d16600180546001019055565b6000610d2160015490565b60408051610140810182528281526001600160a01b0389811660208084019182528385018b8152606085018a8152608086018a90523360a0870152600060c0870181905260e087018d90526101008701819052610120870181905288815260058452969096208551815592516001840180546001600160a01b031916919095161790935591516002820155925180519495509193849392610dc99260038501929101906113f6565b5060808201518051610de59160048401916020909101906113f6565b5060a08201516005820180546001600160a01b03199081166001600160a01b039384161790915560c084015160068401805490921690831617905560e0830151600783015561010080840151600890930180546101209095015161ffff1990951693151561ff00191693909317931515029290921790556040516323b872dd60e01b8152908816906323b872dd90610e8590339030908b906004016118d6565b600060405180830381600087803b158015610e9f57600080fd5b505af1158015610eb3573d6000803e3d6000fd5b5050505085876001600160a01b0316837fc7d1354d53044c1666b90fbdf3716325847929561b5eddbd6b0d76ec7fc4768587873360008c600080604051610f009796959493929190611970565b60405180910390a4505060016000555050505050565b600560205260009081526040902080546001820154600283015460038401805493946001600160a01b0390931693919291610f5090611833565b80601f0160208091040260200160405190810160405280929190818152602001828054610f7c90611833565b8015610fc95780601f10610f9e57610100808354040283529160200191610fc9565b820191906000526020600020905b815481529060010190602001808311610fac57829003601f168201915b505050505090806004018054610fde90611833565b80601f016020809104026020016040519081016040528092919081815260200182805461100a90611833565b80156110575780601f1061102c57610100808354040283529160200191611057565b820191906000526020600020905b81548152906001019060200180831161103a57829003601f168201915b5050505060058301546006840154600785015460089095015493946001600160a01b03928316949290911692509060ff808216916101009004168a565b606060006110a160015490565b905060008060005b838110156111045733600560006110c184600161181b565b81526020810191909152604001600020600501546001600160a01b031614156110f2576110ef60018461181b565b92505b806110fc81611884565b9150506110a9565b506000826001600160401b0381111561111f5761111f611661565b60405190808252806020026020018201604052801561115857816020015b6111456113a3565b81526020019060019003908161113d5790505b50905060005b848110156104c157336005600061117684600161181b565b81526020810191909152604001600020600501546001600160a01b031614156113915760006111a682600161181b565b6000818152600560209081526040918290208251610140810184528154815260018201546001600160a01b03169281019290925260028101549282019290925260038201805493945091929091839160608401919061120490611833565b80601f016020809104026020016040519081016040528092919081815260200182805461123090611833565b801561127d5780601f106112525761010080835404028352916020019161127d565b820191906000526020600020905b81548152906001019060200180831161126057829003601f168201915b5050505050815260200160048201805461129690611833565b80601f01602080910402602001604051908101604052809291908181526020018280546112c290611833565b801561130f5780601f106112e45761010080835404028352916020019161130f565b820191906000526020600020905b8154815290600101906020018083116112f257829003601f168201915b505050918352505060058201546001600160a01b03908116602083015260068301541660408201526007820154606082015260089091015460ff8082161515608084015261010090910416151560a09091015284518590879081106113765761137661186e565b602090810291909101015261138c60018661181b565b945050505b8061139b81611884565b91505061115e565b60408051610140810182526000808252602082018190529181018290526060808201819052608082015260a0810182905260c0810182905260e08101829052610100810182905261012081019190915290565b82805461140290611833565b90600052602060002090601f016020900481019282611424576000855561146a565b82601f1061143d57805160ff191683800117855561146a565b8280016001018555821561146a579182015b8281111561146a57825182559160200191906001019061144f565b5061147692915061147a565b5090565b5b80821115611476576000815560010161147b565b60005b838110156114aa578181015183820152602001611492565b838111156114b9576000848401525b50505050565b600081518084526114d781602086016020860161148f565b601f01601f19169290920160200192915050565b60006020808301818452808551808352604092508286019150828160051b87010184880160005b838110156115e257888303603f19018552815180518452878101516001600160a01b0381168986015261014090508782015188860152606080830151828288015261155f838801826114bf565b925050506080808301518683038288015261157a83826114bf565b9250505060a080830151611598828801826001600160a01b03169052565b505060c0828101516001600160a01b03169086015260e080830151908601526101008083015115159086015261012091820151151591909401529386019390860190600101611512565b509098975050505050505050565b60006020828403121561160257600080fd5b5035919050565b80356001600160a01b038116811461162057600080fd5b919050565b60008060006060848603121561163a57600080fd5b61164384611609565b925061165160208501611609565b9150604084013590509250925092565b634e487b7160e01b600052604160045260246000fd5b604051601f8201601f191681016001600160401b038111828210171561169f5761169f611661565b604052919050565b60006001600160401b038211156116c0576116c0611661565b50601f01601f191660200190565b600080600080608085870312156116e457600080fd5b6116ed85611609565b9350602085013592506040850135915060608501356001600160401b0381111561171657600080fd5b8501601f8101871361172757600080fd5b803561173a611735826116a7565b611677565b81815288602083850101111561174f57600080fd5b8160208401602083013760006020838301015280935050505092959194509250565b8a81526001600160a01b038a81166020830152604082018a9052610140606083018190526000916117a48483018c6114bf565b915083820360808501526117b8828b6114bf565b98811660a08501529690961660c08301525060e08101939093529015156101008301521515610120909101525095945050505050565b634e487b7160e01b600052601160045260246000fd5b600082821015611816576118166117ee565b500390565b6000821982111561182e5761182e6117ee565b500190565b600181811c9082168061184757607f821691505b6020821081141561186857634e487b7160e01b600052602260045260246000fd5b50919050565b634e487b7160e01b600052603260045260246000fd5b6000600019821415611898576118986117ee565b5060010190565b6020808252601f908201527f5265656e7472616e637947756172643a207265656e7472616e742063616c6c00604082015260600190565b6001600160a01b039384168152919092166020820152604081019190915260600190565b60006020828403121561190c57600080fd5b81516001600160401b0381111561192257600080fd5b8201601f8101841361193357600080fd5b8051611941611735826116a7565b81815285602083850101111561195657600080fd5b61196782602083016020860161148f565b95945050505050565b60e08152600061198360e083018a6114bf565b8281036020840152611995818a6114bf565b6001600160a01b03988916604085015296909716606083015250608081019390935290151560a0830152151560c090910152939250505056fea26469706673582212209da6841b92ae6ecdcfa0c4ebaf30c50cf252458d3a039ee0ff2ef8defdd0540164736f6c634300080a0033",
  "immutableReferences": {},
  "source": "pragma solidity ^0.8.3;\r\n\r\nimport \"@openzeppelin/contracts/utils/Counters.sol\";\r\nimport \"@openzeppelin/contracts/security/ReentrancyGuard.sol\";\r\nimport \"@openzeppelin/contracts/token/ERC721/IERC721.sol\";\r\nimport \"@openzeppelin/contracts/token/ERC721/extensions/IERC721Metadata.sol\";\r\n\r\ncontract StripeMarket is ReentrancyGuard{\r\n  using Counters for Counters.Counter;\r\n    Counters.Counter private _itemIds;\r\n    Counters.Counter private _itemsSold;\r\n\r\n    address payable owner;\r\n    uint256 public listingPrice = 2 ;\r\n\r\n  constructor() {\r\n    owner = payable(msg.sender);\r\n  }\r\n  struct MarketItem {\r\n    uint itemId;\r\n    address nftContract;\r\n    uint256 tokenId;\r\n    string name;\r\n    string tokenUri;\r\n    address payable seller;\r\n    address payable owner;\r\n    uint256 price;\r\n    bool sold;\r\n    bool paid;\r\n  }\r\n\r\n  mapping(uint256 => MarketItem) public idToMarketItem;\r\n\r\n  event MarketItemCreated (\r\n    uint indexed itemId,\r\n    address indexed nftContract,\r\n    uint256 indexed tokenId,\r\n    string name,\r\n    string tokenUri,\r\n    address seller,\r\n    address owner,\r\n    uint256 price,\r\n    bool sold,\r\n    bool paid\r\n  );\r\n\r\n  function getListingPrice() public view returns (uint256) {\r\n    return listingPrice;\r\n  }\r\n\r\n  function getItemId() public view returns(uint256) {\r\n    uint256 itemId = _itemIds.current();\r\n    return  itemId;\r\n  }\r\n  receive () external payable {}\r\n\r\n  function setPaid (uint256 itemId) public {\r\n    idToMarketItem[itemId].paid = true;\r\n  }\r\n\r\n  function createItem(\r\n    address nftContract,\r\n    uint256 tokenId,\r\n    uint256 price,\r\n    string memory name\r\n    ) public payable nonReentrant{\r\n    require(price>=1, 'at least more than 1 wei');\r\n    require(msg.value == listingPrice, \"listing price not paid\");\r\n    string memory tUri = IERC721Metadata(nftContract).tokenURI(tokenId);\r\n    _itemIds.increment();\r\n    uint256 itemId = _itemIds.current();\r\n    MarketItem memory item =  MarketItem(\r\n      itemId,\r\n      nftContract,\r\n      tokenId,\r\n      name,\r\n      tUri,\r\n      payable(msg.sender),\r\n      payable(address(0)),\r\n      price,\r\n      false,\r\n      false\r\n      );\r\n    idToMarketItem[itemId] = item;\r\n    IERC721(nftContract).transferFrom(msg.sender, address(this),tokenId);\r\n    emit MarketItemCreated(\r\n      itemId,\r\n      nftContract,\r\n      tokenId,\r\n      name,\r\n      tUri,\r\n      msg.sender,\r\n      address(0),\r\n      price,\r\n      false,\r\n      false\r\n      );\r\n  }\r\n\r\n  function createMarketSale(\r\n  address nftContract,\r\n  address buyer,\r\n  uint256 itemId\r\n  ) public payable nonReentrant{\r\n    uint price = idToMarketItem[itemId].price;\r\n    uint tokenId = idToMarketItem[itemId].tokenId;\r\n\r\n    idToMarketItem[itemId].seller.transfer(price);\r\n    IERC721(nftContract).transferFrom(address(this), buyer, tokenId);\r\n    idToMarketItem[itemId].owner = payable(buyer);\r\n    idToMarketItem[itemId].sold = true;\r\n    _itemsSold.increment();\r\n    payable(owner).transfer(listingPrice);\r\n}\r\n\r\n  function getItems() public view returns (MarketItem[] memory) {\r\n    uint256 itemId = _itemIds.current();\r\n    MarketItem[] memory items = new MarketItem[](itemId);\r\n    for (uint256 i =0; i<itemId; i++){\r\n      MarketItem memory item = idToMarketItem[i+1];\r\n      items[i] = item;\r\n    }\r\n    return items ;\r\n  }\r\n\r\n  function fetchMarketItems() public view returns (MarketItem[] memory) {\r\n    uint itemCount = _itemIds.current();\r\n    uint unsoldItemCount = _itemIds.current() - _itemsSold.current();\r\n    uint currentIndex = 0;\r\n\r\n    MarketItem[] memory items = new MarketItem[](unsoldItemCount);\r\n    for (uint i = 0; i < itemCount; i++) {\r\n      if (idToMarketItem[i + 1].owner == address(0)) {\r\n        uint currentId = i + 1;\r\n        MarketItem storage currentItem = idToMarketItem[currentId];\r\n        items[currentIndex] = currentItem;\r\n        currentIndex += 1;\r\n      }\r\n    }\r\n    return items;\r\n  }\r\n\r\n  function fetchMyNFTs() public view returns (MarketItem[] memory) {\r\n    uint totalItemCount = _itemIds.current();\r\n    uint itemCount = 0;\r\n    uint currentIndex = 0;\r\n\r\n    for (uint i = 0; i < totalItemCount; i++) {\r\n      if (idToMarketItem[i + 1].owner == msg.sender) {\r\n        itemCount += 1;\r\n      }\r\n    }\r\n\r\n    MarketItem[] memory items = new MarketItem[](itemCount);\r\n    for (uint i = 0; i < totalItemCount; i++) {\r\n      if (idToMarketItem[i + 1].owner == msg.sender) {\r\n        uint currentId = i + 1;\r\n        MarketItem storage currentItem = idToMarketItem[currentId];\r\n        items[currentIndex] = currentItem;\r\n        currentIndex += 1;\r\n      }\r\n    }\r\n    return items;\r\n  }\r\n\r\n  function fetchItemsCreated() public view returns (MarketItem[] memory) {\r\n    uint totalItemCount = _itemIds.current();\r\n    uint itemCount = 0;\r\n    uint currentIndex = 0;\r\n\r\n    for (uint i = 0; i < totalItemCount; i++) {\r\n      if (idToMarketItem[i + 1].seller == msg.sender) {\r\n        itemCount += 1;\r\n      }\r\n    }\r\n\r\n    MarketItem[] memory items = new MarketItem[](itemCount);\r\n    for (uint i = 0; i < totalItemCount; i++) {\r\n      if (idToMarketItem[i + 1].seller == msg.sender) {\r\n        uint currentId = i + 1;\r\n        MarketItem storage currentItem = idToMarketItem[currentId];\r\n        items[currentIndex] = currentItem;\r\n        currentIndex += 1;\r\n      }\r\n    }\r\n    return items;\r\n  }\r\n}\r\n",
  "sourcePath": "C:/Users/Sonika Agarwal/desktop/deedfi/contracts/StripeMarket.sol",
  "compiler": {
    "name": "solc",
    "version": "0.8.10+commit.fc410830.Emscripten.clang"
  },
  "schemaVersion": "3.4.1",
  "updatedAt": "2021-11-25T09:07:42.402Z",
  "networkType": "ethereum",
  "devdoc": {
    "kind": "dev",
    "methods": {},
    "version": 1
  },
  "userdoc": {
    "kind": "user",
    "methods": {},
    "version": 1
  }
}