{
  "_format": "hh-sol-artifact-1",
  "contractName": "NFT",
  "sourceName": "contracts/NFT.sol",
  "abi": [
    {
      "inputs": [],
      "stateMutability": "nonpayable",
      "type": "constructor"
    },
    {
      "anonymous": false,
      "inputs": [
        {
          "indexed": true,
          "internalType": "address",
          "name": "owner",
          "type": "address"
        },
        {
          "indexed": true,
          "internalType": "address",
          "name": "approved",
          "type": "address"
        },
        {
          "indexed": true,
          "internalType": "uint256",
          "name": "tokenId",
          "type": "uint256"
        }
      ],
      "name": "Approval",
      "type": "event"
    },
    {
      "anonymous": false,
      "inputs": [
        {
          "indexed": true,
          "internalType": "address",
          "name": "owner",
          "type": "address"
        },
        {
          "indexed": true,
          "internalType": "address",
          "name": "operator",
          "type": "address"
        },
        {
          "indexed": false,
          "internalType": "bool",
          "name": "approved",
          "type": "bool"
        }
      ],
      "name": "ApprovalForAll",
      "type": "event"
    },
    {
      "anonymous": false,
      "inputs": [
        {
          "indexed": true,
          "internalType": "address",
          "name": "from",
          "type": "address"
        },
        {
          "indexed": true,
          "internalType": "address",
          "name": "to",
          "type": "address"
        },
        {
          "indexed": true,
          "internalType": "uint256",
          "name": "tokenId",
          "type": "uint256"
        }
      ],
      "name": "Transfer",
      "type": "event"
    },
    {
      "inputs": [
        {
          "internalType": "address",
          "name": "to",
          "type": "address"
        },
        {
          "internalType": "uint256",
          "name": "tokenId",
          "type": "uint256"
        }
      ],
      "name": "approve",
      "outputs": [],
      "stateMutability": "nonpayable",
      "type": "function"
    },
    {
      "inputs": [
        {
          "internalType": "address",
          "name": "owner",
          "type": "address"
        }
      ],
      "name": "balanceOf",
      "outputs": [
        {
          "internalType": "uint256",
          "name": "",
          "type": "uint256"
        }
      ],
      "stateMutability": "view",
      "type": "function"
    },
    {
      "inputs": [
        {
          "internalType": "string",
          "name": "tokenURI",
          "type": "string"
        },
        {
          "internalType": "address",
          "name": "marketplaceAddress",
          "type": "address"
        }
      ],
      "name": "createToken",
      "outputs": [
        {
          "internalType": "uint256",
          "name": "",
          "type": "uint256"
        }
      ],
      "stateMutability": "nonpayable",
      "type": "function"
    },
    {
      "inputs": [
        {
          "internalType": "uint256",
          "name": "tokenId",
          "type": "uint256"
        }
      ],
      "name": "getApproved",
      "outputs": [
        {
          "internalType": "address",
          "name": "",
          "type": "address"
        }
      ],
      "stateMutability": "view",
      "type": "function"
    },
    {
      "inputs": [
        {
          "internalType": "address",
          "name": "owner",
          "type": "address"
        },
        {
          "internalType": "address",
          "name": "operator",
          "type": "address"
        }
      ],
      "name": "isApprovedForAll",
      "outputs": [
        {
          "internalType": "bool",
          "name": "",
          "type": "bool"
        }
      ],
      "stateMutability": "view",
      "type": "function"
    },
    {
      "inputs": [],
      "name": "name",
      "outputs": [
        {
          "internalType": "string",
          "name": "",
          "type": "string"
        }
      ],
      "stateMutability": "view",
      "type": "function"
    },
    {
      "inputs": [
        {
          "internalType": "uint256",
          "name": "tokenId",
          "type": "uint256"
        }
      ],
      "name": "ownerOf",
      "outputs": [
        {
          "internalType": "address",
          "name": "",
          "type": "address"
        }
      ],
      "stateMutability": "view",
      "type": "function"
    },
    {
      "inputs": [
        {
          "internalType": "address",
          "name": "from",
          "type": "address"
        },
        {
          "internalType": "address",
          "name": "to",
          "type": "address"
        },
        {
          "internalType": "uint256",
          "name": "tokenId",
          "type": "uint256"
        }
      ],
      "name": "safeTransferFrom",
      "outputs": [],
      "stateMutability": "nonpayable",
      "type": "function"
    },
    {
      "inputs": [
        {
          "internalType": "address",
          "name": "from",
          "type": "address"
        },
        {
          "internalType": "address",
          "name": "to",
          "type": "address"
        },
        {
          "internalType": "uint256",
          "name": "tokenId",
          "type": "uint256"
        },
        {
          "internalType": "bytes",
          "name": "_data",
          "type": "bytes"
        }
      ],
      "name": "safeTransferFrom",
      "outputs": [],
      "stateMutability": "nonpayable",
      "type": "function"
    },
    {
      "inputs": [
        {
          "internalType": "address",
          "name": "operator",
          "type": "address"
        },
        {
          "internalType": "bool",
          "name": "approved",
          "type": "bool"
        }
      ],
      "name": "setApprovalForAll",
      "outputs": [],
      "stateMutability": "nonpayable",
      "type": "function"
    },
    {
      "inputs": [
        {
          "internalType": "bytes4",
          "name": "interfaceId",
          "type": "bytes4"
        }
      ],
      "name": "supportsInterface",
      "outputs": [
        {
          "internalType": "bool",
          "name": "",
          "type": "bool"
        }
      ],
      "stateMutability": "view",
      "type": "function"
    },
    {
      "inputs": [],
      "name": "symbol",
      "outputs": [
        {
          "internalType": "string",
          "name": "",
          "type": "string"
        }
      ],
      "stateMutability": "view",
      "type": "function"
    },
    {
      "inputs": [
        {
          "internalType": "uint256",
          "name": "tokenId",
          "type": "uint256"
        }
      ],
      "name": "tokenURI",
      "outputs": [
        {
          "internalType": "string",
          "name": "",
          "type": "string"
        }
      ],
      "stateMutability": "view",
      "type": "function"
    },
    {
      "inputs": [
        {
          "internalType": "address",
          "name": "from",
          "type": "address"
        },
        {
          "internalType": "address",
          "name": "to",
          "type": "address"
        },
        {
          "internalType": "uint256",
          "name": "tokenId",
          "type": "uint256"
        }
      ],
      "name": "transferFrom",
      "outputs": [],
      "stateMutability": "nonpayable",
      "type": "function"
    }
  ],
  "bytecode": "0x60806040523480156200001157600080fd5b506040518060400160405280600d81526020017f42656e65666920546f6b656e73000000000000000000000000000000000000008152506040518060400160405280600681526020017f42454e4546490000000000000000000000000000000000000000000000000000815250816000908051906020019062000096929190620000b8565b508060019080519060200190620000af929190620000b8565b505050620001cd565b828054620000c69062000168565b90600052602060002090601f016020900481019282620000ea576000855562000136565b82601f106200010557805160ff191683800117855562000136565b8280016001018555821562000136579182015b828111156200013557825182559160200191906001019062000118565b5b50905062000145919062000149565b5090565b5b80821115620001645760008160009055506001016200014a565b5090565b600060028204905060018216806200018157607f821691505b602082108114156200019857620001976200019e565b5b50919050565b7f4e487b7100000000000000000000000000000000000000000000000000000000600052602260045260246000fd5b612b7780620001dd6000396000f3fe608060405234801561001057600080fd5b50600436106100ea5760003560e01c806370a082311161008c578063a22cb46511610066578063a22cb4651461026f578063b88d4fde1461028b578063c87b56dd146102a7578063e985e9c5146102d7576100ea565b806370a08231146101f157806395d89b4114610221578063a21193771461023f576100ea565b8063095ea7b3116100c8578063095ea7b31461016d57806323b872dd1461018957806342842e0e146101a55780636352211e146101c1576100ea565b806301ffc9a7146100ef57806306fdde031461011f578063081812fc1461013d575b600080fd5b61010960048036038101906101049190611bd0565b610307565b604051610116919061202a565b60405180910390f35b6101276103e9565b6040516101349190612045565b60405180910390f35b61015760048036038101906101529190611c76565b61047b565b6040516101649190611fc3565b60405180910390f35b61018760048036038101906101829190611b94565b610500565b005b6101a3600480360381019061019e9190611a8e565b610618565b005b6101bf60048036038101906101ba9190611a8e565b610678565b005b6101db60048036038101906101d69190611c76565b610698565b6040516101e89190611fc3565b60405180910390f35b61020b60048036038101906102069190611a29565b61074a565b6040516102189190612267565b60405180910390f35b610229610802565b6040516102369190612045565b60405180910390f35b61025960048036038101906102549190611c22565b610894565b6040516102669190612267565b60405180910390f35b61028960048036038101906102849190611b58565b6108d7565b005b6102a560048036038101906102a09190611add565b610a58565b005b6102c160048036038101906102bc9190611c76565b610aba565b6040516102ce9190612045565b60405180910390f35b6102f160048036038101906102ec9190611a52565b610c0c565b6040516102fe919061202a565b60405180910390f35b60007f80ac58cd000000000000000000000000000000000000000000000000000000007bffffffffffffffffffffffffffffffffffffffffffffffffffffffff1916827bffffffffffffffffffffffffffffffffffffffffffffffffffffffff191614806103d257507f5b5e139f000000000000000000000000000000000000000000000000000000007bffffffffffffffffffffffffffffffffffffffffffffffffffffffff1916827bffffffffffffffffffffffffffffffffffffffffffffffffffffffff1916145b806103e257506103e182610ca0565b5b9050919050565b6060600080546103f8906124bd565b80601f0160208091040260200160405190810160405280929190818152602001828054610424906124bd565b80156104715780601f1061044657610100808354040283529160200191610471565b820191906000526020600020905b81548152906001019060200180831161045457829003601f168201915b5050505050905090565b600061048682610d0a565b6104c5576040517f08c379a00000000000000000000000000000000000000000000000000000000081526004016104bc906121c7565b60405180910390fd5b6004600083815260200190815260200160002060009054906101000a900473ffffffffffffffffffffffffffffffffffffffff169050919050565b600061050b82610698565b90508073ffffffffffffffffffffffffffffffffffffffff168373ffffffffffffffffffffffffffffffffffffffff16141561057c576040517f08c379a000000000000000000000000000000000000000000000000000000000815260040161057390612227565b60405180910390fd5b8073ffffffffffffffffffffffffffffffffffffffff1661059b610d76565b73ffffffffffffffffffffffffffffffffffffffff1614806105ca57506105c9816105c4610d76565b610c0c565b5b610609576040517f08c379a000000000000000000000000000000000000000000000000000000000815260040161060090612107565b60405180910390fd5b6106138383610d7e565b505050565b610629610623610d76565b82610e37565b610668576040517f08c379a000000000000000000000000000000000000000000000000000000000815260040161065f90612247565b60405180910390fd5b610673838383610f15565b505050565b61069383838360405180602001604052806000815250610a58565b505050565b6000806002600084815260200190815260200160002060009054906101000a900473ffffffffffffffffffffffffffffffffffffffff169050600073ffffffffffffffffffffffffffffffffffffffff168173ffffffffffffffffffffffffffffffffffffffff161415610741576040517f08c379a000000000000000000000000000000000000000000000000000000000815260040161073890612147565b60405180910390fd5b80915050919050565b60008073ffffffffffffffffffffffffffffffffffffffff168273ffffffffffffffffffffffffffffffffffffffff1614156107bb576040517f08c379a00000000000000000000000000000000000000000000000000000000081526004016107b290612127565b60405180910390fd5b600360008373ffffffffffffffffffffffffffffffffffffffff1673ffffffffffffffffffffffffffffffffffffffff168152602001908152602001600020549050919050565b606060018054610811906124bd565b80601f016020809104026020016040519081016040528092919081815260200182805461083d906124bd565b801561088a5780601f1061085f5761010080835404028352916020019161088a565b820191906000526020600020905b81548152906001019060200180831161086d57829003601f168201915b5050505050905090565b60006108a06007611171565b60006108ac6007611187565b90506108b83382611195565b6108c28185611363565b6108cd8360016108d7565b8091505092915050565b6108df610d76565b73ffffffffffffffffffffffffffffffffffffffff168273ffffffffffffffffffffffffffffffffffffffff16141561094d576040517f08c379a0000000000000000000000000000000000000000000000000000000008152600401610944906120c7565b60405180910390fd5b806005600061095a610d76565b73ffffffffffffffffffffffffffffffffffffffff1673ffffffffffffffffffffffffffffffffffffffff16815260200190815260200160002060008473ffffffffffffffffffffffffffffffffffffffff1673ffffffffffffffffffffffffffffffffffffffff16815260200190815260200160002060006101000a81548160ff0219169083151502179055508173ffffffffffffffffffffffffffffffffffffffff16610a07610d76565b73ffffffffffffffffffffffffffffffffffffffff167f17307eab39ab6107e8899845ad3d59bd9653f200f220920489ca2b5937696c3183604051610a4c919061202a565b60405180910390a35050565b610a69610a63610d76565b83610e37565b610aa8576040517f08c379a0000000000000000000000000000000000000000000000000000000008152600401610a9f90612247565b60405180910390fd5b610ab4848484846113d7565b50505050565b6060610ac582610d0a565b610b04576040517f08c379a0000000000000000000000000000000000000000000000000000000008152600401610afb906121a7565b60405180910390fd5b6000600660008481526020019081526020016000208054610b24906124bd565b80601f0160208091040260200160405190810160405280929190818152602001828054610b50906124bd565b8015610b9d5780601f10610b7257610100808354040283529160200191610b9d565b820191906000526020600020905b815481529060010190602001808311610b8057829003601f168201915b505050505090506000610bae611433565b9050600081511415610bc4578192505050610c07565b600082511115610bf9578082604051602001610be1929190611f9f565b60405160208183030381529060405292505050610c07565b610c028461144a565b925050505b919050565b6000600560008473ffffffffffffffffffffffffffffffffffffffff1673ffffffffffffffffffffffffffffffffffffffff16815260200190815260200160002060008373ffffffffffffffffffffffffffffffffffffffff1673ffffffffffffffffffffffffffffffffffffffff16815260200190815260200160002060009054906101000a900460ff16905092915050565b60007f01ffc9a7000000000000000000000000000000000000000000000000000000007bffffffffffffffffffffffffffffffffffffffffffffffffffffffff1916827bffffffffffffffffffffffffffffffffffffffffffffffffffffffff1916149050919050565b60008073ffffffffffffffffffffffffffffffffffffffff166002600084815260200190815260200160002060009054906101000a900473ffffffffffffffffffffffffffffffffffffffff1673ffffffffffffffffffffffffffffffffffffffff1614159050919050565b600033905090565b816004600083815260200190815260200160002060006101000a81548173ffffffffffffffffffffffffffffffffffffffff021916908373ffffffffffffffffffffffffffffffffffffffff160217905550808273ffffffffffffffffffffffffffffffffffffffff16610df183610698565b73ffffffffffffffffffffffffffffffffffffffff167f8c5be1e5ebec7d5bd14f71427d1e84f3dd0314c0f7b2291e5b200ac8c7c3b92560405160405180910390a45050565b6000610e4282610d0a565b610e81576040517f08c379a0000000000000000000000000000000000000000000000000000000008152600401610e78906120e7565b60405180910390fd5b6000610e8c83610698565b90508073ffffffffffffffffffffffffffffffffffffffff168473ffffffffffffffffffffffffffffffffffffffff161480610efb57508373ffffffffffffffffffffffffffffffffffffffff16610ee38461047b565b73ffffffffffffffffffffffffffffffffffffffff16145b80610f0c5750610f0b8185610c0c565b5b91505092915050565b8273ffffffffffffffffffffffffffffffffffffffff16610f3582610698565b73ffffffffffffffffffffffffffffffffffffffff1614610f8b576040517f08c379a0000000000000000000000000000000000000000000000000000000008152600401610f82906121e7565b60405180910390fd5b600073ffffffffffffffffffffffffffffffffffffffff168273ffffffffffffffffffffffffffffffffffffffff161415610ffb576040517f08c379a0000000000000000000000000000000000000000000000000000000008152600401610ff2906120a7565b60405180910390fd5b6110068383836114f1565b611011600082610d7e565b6001600360008573ffffffffffffffffffffffffffffffffffffffff1673ffffffffffffffffffffffffffffffffffffffff168152602001908152602001600020600082825461106191906123d3565b925050819055506001600360008473ffffffffffffffffffffffffffffffffffffffff1673ffffffffffffffffffffffffffffffffffffffff16815260200190815260200160002060008282546110b8919061234c565b92505081905550816002600083815260200190815260200160002060006101000a81548173ffffffffffffffffffffffffffffffffffffffff021916908373ffffffffffffffffffffffffffffffffffffffff160217905550808273ffffffffffffffffffffffffffffffffffffffff168473ffffffffffffffffffffffffffffffffffffffff167fddf252ad1be2c89b69c2b068fc378daa952ba7f163c4a11628f55a4df523b3ef60405160405180910390a4505050565b6001816000016000828254019250508190555050565b600081600001549050919050565b600073ffffffffffffffffffffffffffffffffffffffff168273ffffffffffffffffffffffffffffffffffffffff161415611205576040517f08c379a00000000000000000000000000000000000000000000000000000000081526004016111fc90612187565b60405180910390fd5b61120e81610d0a565b1561124e576040517f08c379a000000000000000000000000000000000000000000000000000000000815260040161124590612087565b60405180910390fd5b61125a600083836114f1565b6001600360008473ffffffffffffffffffffffffffffffffffffffff1673ffffffffffffffffffffffffffffffffffffffff16815260200190815260200160002060008282546112aa919061234c565b92505081905550816002600083815260200190815260200160002060006101000a81548173ffffffffffffffffffffffffffffffffffffffff021916908373ffffffffffffffffffffffffffffffffffffffff160217905550808273ffffffffffffffffffffffffffffffffffffffff16600073ffffffffffffffffffffffffffffffffffffffff167fddf252ad1be2c89b69c2b068fc378daa952ba7f163c4a11628f55a4df523b3ef60405160405180910390a45050565b61136c82610d0a565b6113ab576040517f08c379a00000000000000000000000000000000000000000000000000000000081526004016113a290612167565b60405180910390fd5b806006600084815260200190815260200160002090805190602001906113d292919061184d565b505050565b6113e2848484610f15565b6113ee848484846114f6565b61142d576040517f08c379a000000000000000000000000000000000000000000000000000000000815260040161142490612067565b60405180910390fd5b50505050565b606060405180602001604052806000815250905090565b606061145582610d0a565b611494576040517f08c379a000000000000000000000000000000000000000000000000000000000815260040161148b90612207565b60405180910390fd5b600061149e611433565b905060008151116114be57604051806020016040528060008152506114e9565b806114c88461168d565b6040516020016114d9929190611f9f565b6040516020818303038152906040525b915050919050565b505050565b60006115178473ffffffffffffffffffffffffffffffffffffffff1661183a565b15611680578373ffffffffffffffffffffffffffffffffffffffff1663150b7a02611540610d76565b8786866040518563ffffffff1660e01b81526004016115629493929190611fde565b602060405180830381600087803b15801561157c57600080fd5b505af19250505080156115ad57506040513d601f19601f820116820180604052508101906115aa9190611bf9565b60015b611630573d80600081146115dd576040519150601f19603f3d011682016040523d82523d6000602084013e6115e2565b606091505b50600081511415611628576040517f08c379a000000000000000000000000000000000000000000000000000000000815260040161161f90612067565b60405180910390fd5b805181602001fd5b63150b7a0260e01b7bffffffffffffffffffffffffffffffffffffffffffffffffffffffff1916817bffffffffffffffffffffffffffffffffffffffffffffffffffffffff191614915050611685565b600190505b949350505050565b606060008214156116d5576040518060400160405280600181526020017f30000000000000000000000000000000000000000000000000000000000000008152509050611835565b600082905060005b600082146117075780806116f090612520565b915050600a8261170091906123a2565b91506116dd565b60008167ffffffffffffffff811115611749577f4e487b7100000000000000000000000000000000000000000000000000000000600052604160045260246000fd5b6040519080825280601f01601f19166020018201604052801561177b5781602001600182028036833780820191505090505b5090505b6000851461182e5760018261179491906123d3565b9150600a856117a39190612569565b60306117af919061234c565b60f81b8183815181106117eb577f4e487b7100000000000000000000000000000000000000000000000000000000600052603260045260246000fd5b60200101907effffffffffffffffffffffffffffffffffffffffffffffffffffffffffffff1916908160001a905350600a8561182791906123a2565b945061177f565b8093505050505b919050565b600080823b905060008111915050919050565b828054611859906124bd565b90600052602060002090601f01602090048101928261187b57600085556118c2565b82601f1061189457805160ff19168380011785556118c2565b828001600101855582156118c2579182015b828111156118c15782518255916020019190600101906118a6565b5b5090506118cf91906118d3565b5090565b5b808211156118ec5760008160009055506001016118d4565b5090565b60006119036118fe846122a7565b612282565b90508281526020810184848401111561191b57600080fd5b61192684828561247b565b509392505050565b600061194161193c846122d8565b612282565b90508281526020810184848401111561195957600080fd5b61196484828561247b565b509392505050565b60008135905061197b81612ae5565b92915050565b60008135905061199081612afc565b92915050565b6000813590506119a581612b13565b92915050565b6000815190506119ba81612b13565b92915050565b600082601f8301126119d157600080fd5b81356119e18482602086016118f0565b91505092915050565b600082601f8301126119fb57600080fd5b8135611a0b84826020860161192e565b91505092915050565b600081359050611a2381612b2a565b92915050565b600060208284031215611a3b57600080fd5b6000611a498482850161196c565b91505092915050565b60008060408385031215611a6557600080fd5b6000611a738582860161196c565b9250506020611a848582860161196c565b9150509250929050565b600080600060608486031215611aa357600080fd5b6000611ab18682870161196c565b9350506020611ac28682870161196c565b9250506040611ad386828701611a14565b9150509250925092565b60008060008060808587031215611af357600080fd5b6000611b018782880161196c565b9450506020611b128782880161196c565b9350506040611b2387828801611a14565b925050606085013567ffffffffffffffff811115611b4057600080fd5b611b4c878288016119c0565b91505092959194509250565b60008060408385031215611b6b57600080fd5b6000611b798582860161196c565b9250506020611b8a85828601611981565b9150509250929050565b60008060408385031215611ba757600080fd5b6000611bb58582860161196c565b9250506020611bc685828601611a14565b9150509250929050565b600060208284031215611be257600080fd5b6000611bf084828501611996565b91505092915050565b600060208284031215611c0b57600080fd5b6000611c19848285016119ab565b91505092915050565b60008060408385031215611c3557600080fd5b600083013567ffffffffffffffff811115611c4f57600080fd5b611c5b858286016119ea565b9250506020611c6c8582860161196c565b9150509250929050565b600060208284031215611c8857600080fd5b6000611c9684828501611a14565b91505092915050565b611ca881612407565b82525050565b611cb781612419565b82525050565b6000611cc882612309565b611cd2818561231f565b9350611ce281856020860161248a565b611ceb81612656565b840191505092915050565b6000611d0182612314565b611d0b8185612330565b9350611d1b81856020860161248a565b611d2481612656565b840191505092915050565b6000611d3a82612314565b611d448185612341565b9350611d5481856020860161248a565b80840191505092915050565b6000611d6d603283612330565b9150611d7882612667565b604082019050919050565b6000611d90601c83612330565b9150611d9b826126b6565b602082019050919050565b6000611db3602483612330565b9150611dbe826126df565b604082019050919050565b6000611dd6601983612330565b9150611de18261272e565b602082019050919050565b6000611df9602c83612330565b9150611e0482612757565b604082019050919050565b6000611e1c603883612330565b9150611e27826127a6565b604082019050919050565b6000611e3f602a83612330565b9150611e4a826127f5565b604082019050919050565b6000611e62602983612330565b9150611e6d82612844565b604082019050919050565b6000611e85602e83612330565b9150611e9082612893565b604082019050919050565b6000611ea8602083612330565b9150611eb3826128e2565b602082019050919050565b6000611ecb603183612330565b9150611ed68261290b565b604082019050919050565b6000611eee602c83612330565b9150611ef98261295a565b604082019050919050565b6000611f11602983612330565b9150611f1c826129a9565b604082019050919050565b6000611f34602f83612330565b9150611f3f826129f8565b604082019050919050565b6000611f57602183612330565b9150611f6282612a47565b604082019050919050565b6000611f7a603183612330565b9150611f8582612a96565b604082019050919050565b611f9981612471565b82525050565b6000611fab8285611d2f565b9150611fb78284611d2f565b91508190509392505050565b6000602082019050611fd86000830184611c9f565b92915050565b6000608082019050611ff36000830187611c9f565b6120006020830186611c9f565b61200d6040830185611f90565b818103606083015261201f8184611cbd565b905095945050505050565b600060208201905061203f6000830184611cae565b92915050565b6000602082019050818103600083015261205f8184611cf6565b905092915050565b6000602082019050818103600083015261208081611d60565b9050919050565b600060208201905081810360008301526120a081611d83565b9050919050565b600060208201905081810360008301526120c081611da6565b9050919050565b600060208201905081810360008301526120e081611dc9565b9050919050565b6000602082019050818103600083015261210081611dec565b9050919050565b6000602082019050818103600083015261212081611e0f565b9050919050565b6000602082019050818103600083015261214081611e32565b9050919050565b6000602082019050818103600083015261216081611e55565b9050919050565b6000602082019050818103600083015261218081611e78565b9050919050565b600060208201905081810360008301526121a081611e9b565b9050919050565b600060208201905081810360008301526121c081611ebe565b9050919050565b600060208201905081810360008301526121e081611ee1565b9050919050565b6000602082019050818103600083015261220081611f04565b9050919050565b6000602082019050818103600083015261222081611f27565b9050919050565b6000602082019050818103600083015261224081611f4a565b9050919050565b6000602082019050818103600083015261226081611f6d565b9050919050565b600060208201905061227c6000830184611f90565b92915050565b600061228c61229d565b905061229882826124ef565b919050565b6000604051905090565b600067ffffffffffffffff8211156122c2576122c1612627565b5b6122cb82612656565b9050602081019050919050565b600067ffffffffffffffff8211156122f3576122f2612627565b5b6122fc82612656565b9050602081019050919050565b600081519050919050565b600081519050919050565b600082825260208201905092915050565b600082825260208201905092915050565b600081905092915050565b600061235782612471565b915061236283612471565b9250827fffffffffffffffffffffffffffffffffffffffffffffffffffffffffffffffff038211156123975761239661259a565b5b828201905092915050565b60006123ad82612471565b91506123b883612471565b9250826123c8576123c76125c9565b5b828204905092915050565b60006123de82612471565b91506123e983612471565b9250828210156123fc576123fb61259a565b5b828203905092915050565b600061241282612451565b9050919050565b60008115159050919050565b60007fffffffff0000000000000000000000000000000000000000000000000000000082169050919050565b600073ffffffffffffffffffffffffffffffffffffffff82169050919050565b6000819050919050565b82818337600083830152505050565b60005b838110156124a857808201518184015260208101905061248d565b838111156124b7576000848401525b50505050565b600060028204905060018216806124d557607f821691505b602082108114156124e9576124e86125f8565b5b50919050565b6124f882612656565b810181811067ffffffffffffffff8211171561251757612516612627565b5b80604052505050565b600061252b82612471565b91507fffffffffffffffffffffffffffffffffffffffffffffffffffffffffffffffff82141561255e5761255d61259a565b5b600182019050919050565b600061257482612471565b915061257f83612471565b92508261258f5761258e6125c9565b5b828206905092915050565b7f4e487b7100000000000000000000000000000000000000000000000000000000600052601160045260246000fd5b7f4e487b7100000000000000000000000000000000000000000000000000000000600052601260045260246000fd5b7f4e487b7100000000000000000000000000000000000000000000000000000000600052602260045260246000fd5b7f4e487b7100000000000000000000000000000000000000000000000000000000600052604160045260246000fd5b6000601f19601f8301169050919050565b7f4552433732313a207472616e7366657220746f206e6f6e20455243373231526560008201527f63656976657220696d706c656d656e7465720000000000000000000000000000602082015250565b7f4552433732313a20746f6b656e20616c7265616479206d696e74656400000000600082015250565b7f4552433732313a207472616e7366657220746f20746865207a65726f2061646460008201527f7265737300000000000000000000000000000000000000000000000000000000602082015250565b7f4552433732313a20617070726f766520746f2063616c6c657200000000000000600082015250565b7f4552433732313a206f70657261746f7220717565727920666f72206e6f6e657860008201527f697374656e7420746f6b656e0000000000000000000000000000000000000000602082015250565b7f4552433732313a20617070726f76652063616c6c6572206973206e6f74206f7760008201527f6e6572206e6f7220617070726f76656420666f7220616c6c0000000000000000602082015250565b7f4552433732313a2062616c616e636520717565727920666f7220746865207a6560008201527f726f206164647265737300000000000000000000000000000000000000000000602082015250565b7f4552433732313a206f776e657220717565727920666f72206e6f6e657869737460008201527f656e7420746f6b656e0000000000000000000000000000000000000000000000602082015250565b7f45524337323155524953746f726167653a2055524920736574206f66206e6f6e60008201527f6578697374656e7420746f6b656e000000000000000000000000000000000000602082015250565b7f4552433732313a206d696e7420746f20746865207a65726f2061646472657373600082015250565b7f45524337323155524953746f726167653a2055524920717565727920666f722060008201527f6e6f6e6578697374656e7420746f6b656e000000000000000000000000000000602082015250565b7f4552433732313a20617070726f76656420717565727920666f72206e6f6e657860008201527f697374656e7420746f6b656e0000000000000000000000000000000000000000602082015250565b7f4552433732313a207472616e73666572206f6620746f6b656e2074686174206960008201527f73206e6f74206f776e0000000000000000000000000000000000000000000000602082015250565b7f4552433732314d657461646174613a2055524920717565727920666f72206e6f60008201527f6e6578697374656e7420746f6b656e0000000000000000000000000000000000602082015250565b7f4552433732313a20617070726f76616c20746f2063757272656e74206f776e6560008201527f7200000000000000000000000000000000000000000000000000000000000000602082015250565b7f4552433732313a207472616e736665722063616c6c6572206973206e6f74206f60008201527f776e6572206e6f7220617070726f766564000000000000000000000000000000602082015250565b612aee81612407565b8114612af957600080fd5b50565b612b0581612419565b8114612b1057600080fd5b50565b612b1c81612425565b8114612b2757600080fd5b50565b612b3381612471565b8114612b3e57600080fd5b5056fea26469706673582212204ccb0afbeb18314b60c7fe4240f7ae219e55dd0fcdfd9270743658c6f06b6e7d64736f6c63430008040033",
  "linkReferences": {},
  "deployedLinkReferences": {}
}